:100000000C9475000C9492000C9492000C94920045
:100010000C9492000C9492000C9492000C94920018
:100020000C9492000C9492000C9492000C94920008
:100030000C9492000C9492000C9492000C949200F8
:100040000C94A6010C9492000C9492000C949200D3
:100050000C9492000C9492000C9492000C949200D8
:100060000C9492000C94920000000101020303041E
:100070000405050606060707070707070807070719
:10008000070707060606050504040303020101002D
:100090000000000800020100000304070000000047
:1000A0000000000001020408102040800102040842
:1000B00010200102040810200404040404040404B1
:1000C0000202020202020303030303030000000012
:1000D00023002600290000000000250028002B0036
:1000E00000000000240027002A0011241FBECFEFCB
:1000F000D8E0DEBFCDBF11E0A0E0B1E0EEE9F7E06F
:1001000002C005900D92AC30B107D9F721E0ACE008
:10011000B1E001C01D92AE31B207E1F70E94DA02F0
:100120000C94CD030C94000060E0809106010E94C5
:10013000770261E08DE00E94770261E08CE00E942E
:10014000770261E08BE00E94770261E08AE00E9422
:10015000770261E089E00E94770261E088E00E9416
:10016000770261E087E00E94770261E086E00C940C
:1001700077020F931F93CF93DF930E94F001609358
:1001800011017093120180931301909314010E9446
:10019000F001009111011091120120911301309191
:1001A0001401601B710B820B930B009108011091DD
:1001B0000901222717FD2095322F6017710782074A
:1001C000930728F380910E0190910F0118161906DC
:1001D00094F066E070E080E090E00E94E90284EC38
:1001E00090E0909305018093040188EA97E0909352
:1001F0000F0180930E0180910E0190910F010197E4
:1002000090930F0180930E01C0E0D0E08091040133
:1002100090910501E0910C01F0910D01E859FF4F1B
:100220002491AC01420F511DC417D50709F46DC0CC
:10023000E4918E0F911D8F3F910529F024F0CF3F5F
:10024000D10509F462C00E94F0016093110170931E
:10025000120180931301909314010E94F001009108
:100260001101109112012091130130911401601BB2
:10027000710B820B930B00910A0110910B01222745
:1002800017FD2095322F601771078207930728F317
:100290002196C11551E0D50709F0B8CF0E94F001B1
:1002A00060931101709312018093130190931401D4
:1002B0000E94F0010091110110911201209113018F
:1002C00030911401601B710B820B930B6436710526
:1002D0008105910568F32D982C982B982A982998D8
:1002E00028985F985E9880910C0190910D0101967D
:1002F0008832910529F090930D0180930C010DC077
:1003000010920D0110920C0108C08BB18BB92B9A81
:100310002A9A2C9A5F9A2D9A96CFDF91CF911F91AE
:100320000F910895809106010E94B002892B19F067
:1003300010921001089580911001811106C00E9451
:10034000B90081E080931001089508951F920F92E3
:100350000FB60F9211242F933F938F939F93AF93D8
:10036000BF938091160190911701A0911801B0914F
:1003700019013091150123E0230F2D3720F4019648
:10038000A11DB11D05C026E8230F0296A11DB11DB8
:10039000209315018093160190931701A0931801E3
:1003A000B093190180911A0190911B01A0911C0139
:1003B000B0911D010196A11DB11D80931A0190936A
:1003C0001B01A0931C01B0931D01BF91AF919F91A0
:1003D0008F913F912F910F900FBE0F901F90189506
:1003E0003FB7F89480911A0190911B01A0911C01D4
:1003F000B0911D0126B5A89B05C02F3F19F00196AD
:10040000A11DB11D3FBF6627782F892F9A2F620F3C
:10041000711D811D911D42E0660F771F881F991F76
:100420004A95D1F70895789484B5826084BD84B5E7
:10043000816084BD85B5826085BD85B5816085BDDF
:10044000EEE6F0E0808181608083E1E8F0E01082F8
:10045000808182608083808181608083E0E8F0E039
:10046000808181608083E1EBF0E080818460808323
:10047000E0EBF0E0808181608083EAE7F0E080815A
:1004800084608083808182608083808181608083BA
:100490008081806880831092C1000895833081F04C
:1004A00028F4813099F08230A1F008958730A9F0C6
:1004B0008830B9F08430D1F4809180008F7D03C002
:1004C000809180008F7780938000089584B58F7726
:1004D00002C084B58F7D84BD08958091B0008F7770
:1004E00003C08091B0008F7D8093B0000895CF93BA
:1004F000DF9390E0FC01EC55FF4F2491FC01E854A0
:10050000FF4F8491882349F190E0880F991FFC01E7
:10051000E052FF4FA591B4918A529F4FFC01C591C3
:10052000D4919FB7611108C0F8948C9120958223D3
:100530008C93888182230AC0623051F4F8948C91A4
:10054000322F309583238C938881822B888304C03B
:10055000F8948C91822B8C939FBFDF91CF9108955B
:10056000CF93DF93282F30E0F901E057FF4F8491BC
:10057000F901EC55FF4FD491F901E854FF4FC491B4
:10058000CC2391F081110E944E02EC2FF0E0EE0F8F
:10059000FF1FE453FF4FA591B4912C912D2381E0CF
:1005A00090E021F480E002C080E090E0DF91CF9104
:1005B000089508950E9413020E94D9020E94940097
:1005C000C0E0D0E00E9492012097E1F30E94000079
:1005D000F9CFCF93DF9300D000D0CDB7DEB79B012A
:1005E000AC01611571058105910569F069833A8354
:1005F0004B835C830E94B70329813A814B815C81E4
:100600000E940D0303C060E070E0CB010F900F90DB
:100610000F900F90DF91CF910895052E97FB1EF458
:1006200000940E94240357FD07D00E94370307FC63
:1006300003D04EF40C9424035095409530952195A9
:100640003F4F4F4F5F4F08959095809570956195FE
:100650007F4F8F4F9F4F08950E945903A59F900D84
:10066000B49F900DA49F800D911D11240895A1E2C7
:100670001A2EAA1BBB1BFD010DC0AA1FBB1FEE1F1C
:10068000FF1FA217B307E407F50720F0A21BB30B67
:10069000E40BF50B661F771F881F991F1A9469F7E3
:1006A00060957095809590959B01AC01BD01CF013F
:1006B0000895A29FB001B39FC001A39F700D811D3B
:1006C0001124911DB29F700D811D1124911D08955B
:1006D0008F929F92AF92BF92CF92DF92EF92FF9252
:1006E000CF93DF93EC01688179818A819B816115C9
:1006F00071058105910521F464E279ED8BE597E0C0
:100700002DE133EF41E050E00E940D0349015A0111
:100710009B01AC01A7EAB1E40E942C036B017C01B0
:10072000ACEEB4EFA50194010E94C803C60ED71E1B
:10073000E81EF91EF7FE06C081E0C81AD108E108DC
:1007400080E8F80AC882D982EA82FB82C701B60132
:100750009F77DF91CF91FF90EF90DF90CF90BF9088
:10076000AF909F908F9008950E946803089580E055
:1007700091E00E9468030895609300017093010165
:1007800080930201909303010895B7FF0C942C030A
:0E0790000E942C03821B930B0895F894FFCF58
:0C079E00010000006400020020030F00B6
:00000001FF
