:100000000C94A9180C94C6180C94C6180C94C61815
:100010000C94C6180C94C6180C94C6180C94C618E8
:100020000C94C6180C94C6180C94C6180C94C618D8
:100030000C94C6180C94C6180C94C6180C94C618C8
:100040000C94601B0C94C6180C94C6180C94C6181B
:100050000C94C6180C94C6180C94C6180C94C618A8
:100060000C94C6180C94C618FFFFFF000000FFFF99
:10007000FFFEFEFDFDFCFCFCFBFBFAFAF9F9F9F8CA
:10008000F8F7F7F6F6F6F5F5F4F4F3F3F3F2F2F128
:10009000F1F0F0EFEFEFEEEEEDEDECECECEBEBEA88
:1000A000EAE9E9E9E8E8E7E7E6E6E6E5E5E4E4E3E6
:1000B000E3E3E2E2E1E1E0E0E0DFDFDEDEDDDDDD43
:1000C000DCDCDBDBDADADAD9D9D8D8D7D7D7D6D6A1
:1000D000D5D5D4D4D4D3D3D2D2D1D1D1D0D0CFCFFF
:1000E000CECECECDCDCCCCCBCBCBCACAC9C9C9C85C
:1000F000C8C7C7C6C6C6C5C5C4C4C3C3C3C2C2C1B8
:10010000C1C1C0C0BFBFBEBEBEBDBDBCBCBBBBBB12
:10011000BABAB9B9B9B8B8B7B7B6B6B6B5B5B4B46E
:10012000B4B3B3B2B2B2B1B1B0B0AFAFAFAEAEADC7
:10013000ADADACACABABABAAAAA9A9A9A8A8A7A71F
:10014000A6A6A6A5A5A4A4A4A3A3A2A2A2A1A1A079
:10015000A0A09F9F9E9E9E9D9D9C9C9C9B9B9A9ACF
:100160009A99999898989797969696959594949425
:10017000939393929291919190908F8F8F8E8E8D79
:100180008D8D8C8C8C8B8B8A8A8A898988888887CC
:10019000878786868585858484848383828282811D
:1001A000818180807F7F7F7E7E7E7D7D7C7C7C7B6D
:1001B0007B7B7A7A797979787878777776767675BD
:1001C0007575747474737373727271717170707009
:1001D0006F6F6F6E6E6D6D6D6C6C6C6B6B6B6A6A56
:1001E0006A6969696868686767666666656565649F
:1001F00064646363636262626161616060605F5FE7
:100200005F5E5E5E5D5D5D5C5C5C5B5B5B5A5A5A2B
:100210005959595858585757575656565555555471
:100220005454535353535252525151515050504FB2
:100230004F4F4E4E4E4D4D4D4D4C4C4C4B4B4B4AF3
:100240004A4A4A494949484848474747474646462F
:10025000454545444444444343434242424241416C
:1002600041404040403F3F3F3E3E3E3E3D3D3D3CA5
:100270003C3C3C3B3B3B3A3A3A3A393939393838DD
:100280003837373737363636363535353534343412
:100290003433333332323232313131313030303045
:1002A0002F2F2F2F2E2E2E2E2D2D2D2D2C2C2C2C76
:1002B0002C2B2B2B2B2A2A2A2A29292929282828A2
:1002C00028282727272726262626252525252524CD
:1002D00024242423232323232222222222212121F6
:1002E0002120202020201F1F1F1F1F1E1E1E1E1E1C
:1002F0001D1D1D1D1D1C1C1C1C1C1B1B1B1B1B1A40
:100300001A1A1A1A1A19191919191818181818175F
:10031000171717171716161616161615151515157D
:100320001514141414141413131313131312121298
:1003300012121211111111111111101010101010B0
:10034000100F0F0F0F0F0F0E0E0E0E0E0E0E0E0DC6
:100350000D0D0D0D0D0D0C0C0C0C0C0C0C0C0B0BD9
:100360000B0B0B0B0B0B0A0A0A0A0A0A0A0A0A09E8
:1003700009090909090909090808080808080808F5
:100380000807070707070707070707070606060600
:100390000606060606060605050505050505050506
:1003A000050505040404040404040404040404040A
:1003B000040303030303030303030303030303030C
:1003C000030302020202020202020202020202020B
:1003D0000202020202020201010101010101010106
:1003E00001010101010101010101010101010101FD
:1003F00001010101010101010101010101010101ED
:1004000001010101010101010101010001010101DD
:1004100001010101010101010101010101010101CC
:1004200001010101010101010101010101010101BC
:1004300001010101010101010101010101010101AC
:10044000020202020202020202020202020202028C
:100450000202020202030303030303030303030371
:100460000303030303030404040404040404040452
:100470000404040405050505050505050505050530
:100480000606060606060606060606070707070707
:1004900007070707070708080808080808080809E1
:1004A00009090909090909090A0A0A0A0A0A0A0AB4
:1004B0000A0B0B0B0B0B0B0B0B0C0C0C0C0C0C0C86
:1004C0000C0D0D0D0D0D0D0D0E0E0E0E0E0E0E0E55
:1004D0000F0F0F0F0F0F101010101010101111111F
:1004E00011111111121212121212131313131313EA
:1004F00014141414141415151515151516161616AE
:100500001616171717171717181818181819191972
:1005100019191A1A1A1A1A1A1B1B1B1B1B1C1C1C32
:100520001C1C1D1D1D1D1D1E1E1E1E1E1F1F1F1FF0
:100530001F202020202021212121222222222223AB
:100540002323232324242424252525252526262664
:1005500026272727272828282828292929292A2A19
:100560002A2A2B2B2B2B2C2C2C2C2C2D2D2D2D2ECD
:100570002E2E2E2F2F2F2F3030303031313131327F
:10058000323232333333343434343535353536362C
:10059000363637373737383838393939393A3A3AD9
:1005A0003A3B3B3B3C3C3C3C3D3D3D3E3E3E3E3F82
:1005B0003F3F404040404141414242424243434329
:1005C00044444444454545464646474747474848CE
:1005D000484949494A4A4A4A4B4B4B4C4C4C4D4D71
:1005E0004D4D4E4E4E4F4F4F505050515151525213
:1005F00052535353535454545555555656565757B2
:10060000575858585959595A5A5A5B5B5B5C5C5C4D
:100610005D5D5D5E5E5E5F5F5F60606061616162E7
:100620006262636363646464656565666666676782
:100630006868686969696A6A6A6B6B6B6C6C6C6D17
:100640006D6D6E6E6F6F6F707070717171727273AD
:100650007373747474757575767676777778787841
:100660007979797A7A7B7B7B7C7C7C7D7D7E7E7ED2
:100670007F7F7F8080818181828282838384848462
:10068000858585868687878788888889898A8A8AF2
:100690008B8B8C8C8C8D8D8D8E8E8F8F8F9090917F
:1006A000919192929393939494949595969696970C
:1006B0009798989899999A9A9A9B9B9C9C9C9D9D97
:1006C0009E9E9E9F9FA0A0A0A1A1A2A2A2A3A3A420
:1006D000A4A4A5A5A6A6A6A7A7A8A8A9A9A9AAAAA9
:1006E000ABABABACACADADADAEAEAFAFAFB0B0B130
:1006F000B1B2B2B2B3B3B4B4B4B5B5B6B6B6B7B7B7
:10070000B8B8B9B9B9BABABBBBBBBCBCBDBDBEBE3B
:10071000BEBFBFC0C0C1C1C1C2C2C3C3C3C4C4C5C0
:10072000C5C6C6C6C7C7C8C8C9C9C9CACACBCBCB44
:10073000CCCCCDCDCECECECFCFD0D0D1D1D1D2D2C8
:10074000D3D3D4D4D4D5D5D6D6D7D7D7D8D8D9D94A
:10075000DADADADBDBDCDCDDDDDDDEDEDFDFE0E0CC
:10076000E0E1E1E2E2E3E3E3E4E4E5E5E6E6E6E74F
:10077000E7E8E8E9E9E9EAEAEBEBECECECEDEDEED1
:10078000EEEFEFEFF0F0F1F1F2F2F3F3F3F4F4F552
:10079000F5F6F6F6F7F7F8F8F9F9F9FAFAFBFBFCD3
:1007A000FCFCFDFDFEFEFFFFFFFFFFFEFEFDFDFC6E
:1007B000FCFCFBFBFAFAF9F9F9F8F8F7F7F6F6F6AC
:1007C000F5F5F4F4F3F3F3F2F2F1F1F0F0EFEFEF0B
:1007D000EEEEEDEDECECECEBEBEAEAE9E9E9E8E86A
:1007E000E7E7E6E6E6E5E5E4E4E3E3E3E2E2E1E1C8
:1007F000E0E0E0DFDFDEDEDDDDDDDCDCDBDBDADA26
:10080000DAD9D9D8D8D7D7D7D6D6D5D5D4D4D4D382
:10081000D3D2D2D1D1D1D0D0CFCFCECECECDCDCCE0
:10082000CCCBCBCBCACAC9C9C9C8C8C7C7C6C6C63C
:10083000C5C5C4C4C3C3C3C2C2C1C1C1C0C0BFBF98
:10084000BEBEBEBDBDBCBCBBBBBBBABAB9B9B9B8F4
:10085000B8B7B7B6B6B6B5B5B4B4B4B3B3B2B2B24E
:10086000B1B1B0B0AFAFAFAEAEADADADACACABABA8
:10087000ABAAAAA9A9A9A8A8A7A7A6A6A6A5A5A400
:10088000A4A4A3A3A2A2A2A1A1A0A0A09F9F9E9E58
:100890009E9D9D9C9C9C9B9B9A9A9A9999989898AE
:1008A0009797969696959594949493939392929104
:1008B000919190908F8F8F8E8E8D8D8D8C8C8C8B57
:1008C0008B8A8A8A898988888887878786868585AA
:1008D00085848484838382828281818180807F7FFA
:1008E0007F7E7E7E7D7D7C7C7C7B7B7B7A7A79794A
:1008F0007978787877777676767575757474747399
:10090000737372727171717070706F6F6F6E6E6DE4
:100910006D6D6C6C6C6B6B6B6A6A6A69696968682F
:100920006867676666666565656464646363636279
:1009300062626161616060605F5F5F5E5E5E5D5DBF
:100940005D5C5C5C5B5B5B5A5A5A59595958585804
:100950005757575656565555555454545353535349
:100960005252525151515050504F4F4F4E4E4E4D8A
:100970004D4D4D4C4C4C4B4B4B4A4A4A4A494949C8
:100980004848484747474746464645454544444406
:100990004443434342424242414141404040403F40
:1009A0003F3F3E3E3E3E3D3D3D3C3C3C3C3B3B3B79
:1009B0003A3A3A3A393939393838383737373736B1
:1009C00036363635353535343434343333333232E4
:1009D000323231313131303030302F2F2F2F2E2E17
:1009E0002E2E2D2D2D2D2C2C2C2C2C2B2B2B2B2A45
:1009F0002A2A2A2929292928282828282727272771
:100A0000262626262525252525242424242323239C
:100A100023232222222222212121212020202020C2
:100A20001F1F1F1F1F1E1E1E1E1E1D1D1D1D1D1CE8
:100A30001C1C1C1C1B1B1B1B1B1A1A1A1A1A1A190A
:100A4000191919191818181818171717171717162A
:100A50001616161616151515151515141414141446
:100A60001413131313131312121212121211111161
:100A700011111111101010101010100F0F0F0F0F77
:100A80000F0E0E0E0E0E0E0E0E0D0D0D0D0D0D0D8C
:100A90000C0C0C0C0C0C0C0C0B0B0B0B0B0B0B0B9E
:100AA0000A0A0A0A0A0A0A0A0A09090909090909AD
:100AB00009090808080808080808080707070707B9
:100AC00007070707070706060606060606060606C0
:100AD00006050505050505050505050505040404C8
:100AE00004040404040404040404040303030303CB
:100AF00003030303030303030303030302020202CA
:100B000002020202020202020202020202020202C5
:100B100002010101010101010101010101010101C4
:100B200001010101010101010101010101010101B5
:100B300001010101010101010101010101010101A5
:100B40000101010101000101010101010101010196
:100B50000101010101010101010101010101010185
:100B60000101010101010101010101010101010175
:100B7000010101010101010101010202020202025F
:100B80000202020202020202020202020202020344
:100B90000303030303030303030303030303030325
:100BA0000404040404040404040404040404050503
:100BB00005050505050505050505060606060606DF
:100BC00006060606060707070707070707070707BA
:100BD000080808080808080808090909090909098E
:100BE00009090A0A0A0A0A0A0A0A0A0B0B0B0B0B62
:100BF0000B0B0B0C0C0C0C0C0C0C0C0D0D0D0D0D33
:100C00000D0D0E0E0E0E0E0E0E0E0F0F0F0F0F0F00
:100C100010101010101010111111111111111212C9
:100C20001212121213131313131314141414141492
:100C30001515151515151616161616161717171756
:100C40001717181818181819191919191A1A1A1A19
:100C50001A1A1B1B1B1B1B1C1C1C1C1C1D1D1D1DD9
:100C60001D1E1E1E1E1E1F1F1F1F1F202020202096
:100C7000212121212222222222232323232324244F
:100C80002424252525252526262626272727272807
:100C900028282828292929292A2A2A2A2B2B2B2BBC
:100CA0002C2C2C2C2C2D2D2D2D2E2E2E2E2F2F2F6F
:100CB0002F30303030313131313232323233333320
:100CC00034343434353535353636363637373737CC
:100CD000383838393939393A3A3A3A3B3B3B3C3C77
:100CE0003C3C3D3D3D3E3E3E3E3F3F3F4040404020
:100CF00041414142424242434343444444444545C6
:100D000045464646474747474848484949494A4A69
:100D10004A4A4B4B4B4C4C4C4D4D4D4D4E4E4E4F0D
:100D20004F4F5050505151515252525353535354AC
:100D3000545455555556565657575758585859594B
:100D4000595A5A5A5B5B5B5C5C5C5D5D5D5E5E5EE6
:100D50005F5F5F6060606161616262626363636480
:100D60006464656565666666676768686869696919
:100D70006A6A6A6B6B6B6C6C6C6D6D6D6E6E6F6FAF
:100D80006F70707071717172727373737474747543
:100D9000757576767677777878787979797A7A7BD7
:100DA0007B7B7C7C7C7D7D7E7E7E7F7F7F80808167
:100DB00081818282828383848484858585868687F7
:100DC000878788888889898A8A8A8B8B8C8C8C8D86
:100DD0008D8D8E8E8F8F8F90909191919292939313
:100DE00093949494959596969697979898989999A0
:100DF0009A9A9A9B9B9C9C9C9D9D9E9E9E9F9FA029
:100E0000A0A0A1A1A2A2A2A3A3A4A4A4A5A5A6A6B2
:100E1000A6A7A7A8A8A9A9A9AAAAABABABACACAD39
:100E2000ADADAEAEAFAFAFB0B0B1B1B2B2B2B3B3C1
:100E3000B4B4B4B5B5B6B6B6B7B7B8B8B9B9B9BA47
:100E4000BABBBBBBBCBCBDBDBEBEBEBFBFC0C0C1CC
:100E5000C1C1C2C2C3C3C3C4C4C5C5C6C6C6C7C751
:100E6000C8C8C9C9C9CACACBCBCBCCCCCDCDCECED4
:100E7000CECFCFD0D0D1D1D1D2D2D3D3D4D4D4D558
:100E8000D5D6D6D7D7D7D8D8D9D9DADADADBDBDCDA
:100E9000DCDDDDDDDEDEDFDFE0E0E0E1E1E2E2E35C
:100EA000E3E3E4E4E5E5E6E6E6E7E7E8E8E9E9E9DF
:100EB000EAEAEBEBECECECEDEDEEEEEFEFEFF0F061
:100EC000F1F1F2F2F3F3F3F4F4F5F5F6F6F6F7F7E1
:100ED000F8F8F9F9F9FAFAFBFBFCFCFCFDFDFEFE63
:100EE000FFFFFFFAF5EFEAE5E0DAD5D0CAC5C0BBEF
:100EF000B6B1ACA7A29D98938E8985807B77726EE0
:100F00006A65615D5955514D4946423E3B38343121
:100F10002E2B282523201E1B19171412100F0D0B22
:100F20000A0907060504030302010101010001018A
:100F3000010102030304050607090A0B0D0F101235
:100F40001417191B1E202325282B2E3134383B3E25
:100F50004246494D5155595D61656A6E72777B8095
:100F600085898E93989DA2A7ACB1B6BBC0C5CAD0E7
:100F7000D5DAE0E5EAEFF5FACDCDCDCDCDCDCDCDCD
:100F8000CDCDCDCDCDCDCDCDCDCDCDCDCDCDCDCD91
:100F9000CDCDCDCDCDCDCDCDCDCDCDCDCDCDCDCD81
:100FA000CDCDCDCDCDCDCDCDCDCDCDCDCDCDCDCD71
:100FB000CDCDCDCDCDCDCDCDCDCDCDCDCDCDCDCD61
:100FC000CDCDCDCDCDCDCDCDCDCDCDCDCDCDCDCD51
:100FD000CDCDCDCDCDCDCDCDCDCDCDCDCDCDCDCD41
:100FE000CDCDCDCDCDCDCDCDCDCDCDCDCDCDCDCD31
:100FF000CDCDCDCDCDCDCDCDCDCDCDCDCDCDCDCD21
:10100000CDCDCDCDCDCDCDCDCDCDCDCDCDCDCDCD10
:10101000CDCDCDCDCDCDCDCDCDCDCDCDCDCDCDCD00
:10102000CDCDCDCDCDCDCDCDCDCDCDCDCDCDCDCDF0
:10103000CDCDCDCDCDCDCDCDCDCDCDCDCDCDCDCDE0
:10104000CDCDCDCDCDCDCDCDCDCDCDCDCDCDCDCDD0
:10105000CDCDCDCDCDCDCDCDCDCDCDCDCDCDCDCDC0
:10106000CDCDCDCDCDCDCDCDCDCDCDCDCDCDCDCDB0
:10107000CDCDFFFFFFFEFEFDFDFDFCFCFBFBFBFA03
:10108000FAF9F9F9F8F8F7F7F7F6F6F5F5F5F4F4F3
:10109000F3F3F3F2F2F1F1F1F0F0EFEFEFEEEEED4A
:1010A000EDEDECECEBEBEBEAEAE9E9E9E8E8E8E79F
:1010B000E7E6E6E6E5E5E4E4E4E3E3E2E2E2E1E1F3
:1010C000E0E0E0DFDFDEDEDEDDDDDCDCDCDBDBDA4A
:1010D000DADAD9D9D8D8D8D7D7D6D6D6D5D5D4D4A0
:1010E000D4D3D3D2D2D2D1D1D1D0D0CFCFCFCECEF4
:1010F000CDCDCDCCCCCBCBCBCACAC9C9C9C8C8C74A
:10110000C7C7C6C6C6C5C5C4C4C4C3C3C2C2C2C19C
:10111000C1C0C0C0BFBFBFBEBEBDBDBDBCBCBBBBF0
:10112000BBBABABAB9B9B8B8B8B7B7B6B6B6B5B542
:10113000B5B4B4B3B3B3B2B2B1B1B1B0B0B0AFAF94
:10114000AEAEAEADADADACACABABABAAAAA9A9A9E6
:10115000A8A8A8A7A7A6A6A6A5A5A5A4A4A3A3A337
:10116000A2A2A2A1A1A1A0A09F9F9F9E9E9E9D9D85
:101170009C9C9C9B9B9B9A9A9999999898989797D5
:101180009796969595959494949393939292919122
:10119000919090908F8F8F8E8E8E8D8D8C8C8C8B6E
:1011A0008B8B8A8A8A8989898888878787868686B9
:1011B0008585858484848383838282828181808003
:1011C000807F7F7F7E7E7E7D7D7D7C7C7C7B7B7B4C
:1011D0007A7A7A7979797878787777777676767592
:1011E00075757474737373727272717171717070DA
:1011F000706F6F6F6E6E6E6D6D6D6C6C6C6B6B6B1C
:101200006A6A6A6969696868686767676666666561
:1012100065656464646463636362626261616160A2
:1012200060605F5F5F5F5E5E5E5D5D5D5C5C5C5BE2
:101230005B5B5B5A5A5A5959595858585757575720
:10124000565656555555545454545353535252525E
:10125000525151515050504F4F4F4F4E4E4E4D4D99
:101260004D4D4C4C4C4B4B4B4B4A4A4A49494949D2
:101270004848484847474746464646454545454409
:10128000444443434343424242424141414040403F
:10129000403F3F3F3F3E3E3E3E3D3D3D3D3C3C3C72
:1012A0003C3B3B3B3B3A3A3A3939393938383838A4
:1012B00037373737373636363635353535343434D3
:1012C0003433333333323232323131313130303002
:1012D00030302F2F2F2F2E2E2E2E2D2D2D2D2D2C2D
:1012E0002C2C2C2B2B2B2B2B2A2A2A2A2929292957
:1012F000292828282828272727272626262626257E
:1013000025252525242424242423232323232222A2
:10131000222222212121212120202020201F1F1FC5
:101320001F1F1F1E1E1E1E1E1D1D1D1D1D1C1C1CE5
:101330001C1C1C1B1B1B1B1B1B1A1A1A1A1A191903
:10134000191919191818181818181717171717171F
:10135000161616161616151515151515151414143A
:101360001414141313131313131312121212121250
:101370001211111111111111101010101010100F65
:101380000F0F0F0F0F0F0F0E0E0E0E0E0E0E0D0D78
:101390000D0D0D0D0D0D0C0C0C0C0C0C0C0C0C0B88
:1013A0000B0B0B0B0B0B0B0B0A0A0A0A0A0A0A0A95
:1013B0000A090909090909090909090808080808A1
:1013C00008080808080707070707070707070707A8
:1013D00006060606060606060606060605050505B1
:1013E00005050505050505050505040404040404B3
:1013F00004040404040404040403030303030303B4
:1014000003030303030303030303030202020202B1
:1014100002020202020202020202020202020202AC
:1014200002020101010101010101010101010101AA
:10143000010101010101010101010101010101019C
:10144000010101010101010101010101010101018C
:10145000010101010101010101010001010101017D
:10146000010101010101010101010101010101016C
:10147000010101010101010101010101010101015C
:10148000010101010101010101010101010101014C
:10149000010101020202020202020202020202022F
:1014A0000202020202020202020203030303030316
:1014B00003030303030303030303030304040404F8
:1014C00004040404040404040404040505050505D7
:1014D00005050505050505050506060606060606B5
:1014E0000606060606070707070707070707070791
:1014F0000808080808080808080809090909090966
:10150000090909090A0A0A0A0A0A0A0A0A0B0B0B3C
:101510000B0B0B0B0B0B0C0C0C0C0C0C0C0C0C0D10
:101520000D0D0D0D0D0D0D0E0E0E0E0E0E0E0F0FE0
:101530000F0F0F0F0F0F10101010101010111111AE
:10154000111111111212121212121213131313137A
:101550001313141414141414151515151515151644
:10156000161616161617171717171718181818180B
:10157000181919191919191A1A1A1A1A1B1B1B1BCF
:101580001B1B1C1C1C1C1C1C1D1D1D1D1D1E1E1E92
:101590001E1E1F1F1F1F1F1F202020202021212152
:1015A0002121222222222223232323232424242410
:1015B00024252525252526262626262727272728CC
:1015C0002828282829292929292A2A2A2A2B2B2B85
:1015D0002B2B2C2C2C2C2D2D2D2D2D2E2E2E2E2F3D
:1015E0002F2F2F30303030303131313132323232F2
:1015F00033333333343434343535353536363636A3
:10160000373737373738383838393939393A3A3A55
:101610003B3B3B3B3C3C3C3C3D3D3D3D3E3E3E3E02
:101620003F3F3F3F404040404141414242424243B0
:10163000434343444444454545454646464647475B
:101640004748484848494949494A4A4A4B4B4B4B05
:101650004C4C4C4D4D4D4D4E4E4E4F4F4F4F5050AC
:101660005051515152525252535353545454545551
:101670005555565656575757575858585959595AF5
:101680005A5A5B5B5B5B5C5C5C5D5D5D5E5E5E5F96
:101690005F5F5F6060606161616262626363636437
:1016A00064646465656566666667676768686869D7
:1016B00069696A6A6A6B6B6B6C6C6C6D6D6D6E6E72
:1016C0006E6F6F6F7070707171717172727273730F
:1016D00073747475757576767677777778787879A8
:1016E00079797A7A7A7B7B7B7C7C7C7D7D7D7E7E42
:1016F0007E7F7F7F808080818182828283838384DA
:101700008484858585868686878787888889898970
:101710008A8A8A8B8B8B8C8C8C8D8D8E8E8E8F8F04
:101720008F90909091919192929393939494949599
:10173000959596969797979898989999999A9A9B2C
:101740009B9B9C9C9C9D9D9E9E9E9F9F9FA0A0A1BD
:10175000A1A1A2A2A2A3A3A3A4A4A5A5A5A6A6A64F
:10176000A7A7A8A8A8A9A9A9AAAAABABABACACADDE
:10177000ADADAEAEAEAFAFB0B0B0B1B1B1B2B2B36D
:10178000B3B3B4B4B5B5B5B6B6B6B7B7B8B8B8B9FB
:10179000B9BABABABBBBBBBCBCBDBDBDBEBEBFBF88
:1017A000BFC0C0C0C1C1C2C2C2C3C3C4C4C4C5C516
:1017B000C6C6C6C7C7C7C8C8C9C9C9CACACBCBCBA2
:1017C000CCCCCDCDCDCECECFCFCFD0D0D1D1D1D22C
:1017D000D2D2D3D3D4D4D4D5D5D6D6D6D7D7D8D8B9
:1017E000D8D9D9DADADADBDBDCDCDCDDDDDEDEDE43
:1017F000DFDFE0E0E0E1E1E2E2E2E3E3E4E4E4E5CC
:10180000E5E6E6E6E7E7E8E8E8E9E9E9EAEAEBEB56
:10181000EBECECEDEDEDEEEEEFEFEFF0F0F1F1F1E2
:10182000F2F2F3F3F3F4F4F5F5F5F6F6F7F7F7F86B
:10183000F8F9F9F9FAFAFBFBFBFCFCFDFDFDFEFEF5
:10184000FFFFB9B4B0B0B4B9B9B9B9B9B2B2B2B2B4
:10185000B2B1B1B1B1B1C6C6C6C6C66B6B6B6B6B6C
:10186000ABABABABABABABABABABABABABABABABC8
:10187000ABABABABABABABABABABABABABABABABB8
:10188000ABABABABABABABABABABABABABABABABA8
:10189000ABABABABABABABABABABABABABABABAB98
:1018A000ABABABABABABABABABABABABABABABAB88
:1018B000ABABABABABABABABABABABABABABABAB78
:1018C000ABABABABABABABABABABABABABABABAB68
:1018D000ABABABABABABABABABABABABABABABAB58
:1018E000ABABABABABABABABABABABABABABABAB48
:1018F000ABABABABABABABABABABABABABABABAB38
:10190000ABABABABABABABABABABABABABABABAB27
:10191000ABABABABABABABABABABABABABABABAB17
:10192000ABABABABABABABABABABABABABABABAB07
:10193000ABABABABABABABABABABABABABABABABF7
:10194000ABABABABABABABABABABABABABABABABE7
:10195000ABABABABABABABABABABABABABABABABD7
:10196000ABABABABABABABABABABABABABABABABC7
:10197000ABABABABABABAB717171717171717171C1
:101980007171717171717171717171717171717147
:101990007171717171717171717171717171717137
:1019A0007171717171717171717171717171717127
:1019B0007171717171717171717171717171717117
:1019C0007171717171717171717171717171717107
:1019D00071717171717171717171717171717171F7
:1019E00071717171717171717171717171717171E7
:1019F00071717171717171717171717171717171D7
:101A000071717171717171717171717171717171C6
:101A100071717171717171717171717171717171B6
:101A200071717171717171717171717171717171A6
:101A30007171717171717171717171717171717196
:101A40007171717171717171717171717171717186
:101A50007171717171717171717171717171717176
:101A600071717171717171717171718E8E8E8E8ED5
:101A70008E8E8E8E8E8E8E8E8E8E8E8E8E8E8E8E86
:101A80008E8E8E8E8E8E8E8E8E8E8E8E8E8E8E8E76
:101A90008E8E8E8E8E8E8E8E8E8E8E8E8E8E8E8E66
:101AA0008E8E8E8E8E8E8E8E8E8E8E8E8E8E8E8E56
:101AB0008E8E8E8E8E8E8E8E8E8E8E8E8E8E8E8E46
:101AC0008E8E8E8E8E8E8E8E8E8E8E8E8E8E8E8E36
:101AD0008E8E8E8E8E8E8E8E8E8E8E8E8E8E8E8E26
:101AE0008E8E8E8E8E8E8E8E8E8E8E8E8E8E8E8E16
:101AF0008E8E8E8E8E8E8E8E8E8E8E8E8E8E8E8E06
:101B00008E8E8E8E8E8E8E8E8E8E8E8E8E8E8E8EF5
:101B10008E8E8E8E8E8E8E8E8E8E6F6F6F6F6F6F9F
:101B20006F6F898989898989898989898989898959
:101B30008989898989898989898989898989898915
:101B40008989898989898989898989898989898905
:101B500089898989898989898989898989898989F5
:101B600089898989898989898989898989898989E5
:101B700089898989898989898989898989898989D5
:101B800089898989898989898989898989898989C5
:101B900089898989898989898989898989898989B5
:101BA00089898989898989896A6A6A6A6A6A6A6A9D
:101BB0006A6A6A6A6A6A6A6A8C8C8C8C8C8C8C8C75
:101BC0008C8C8C8C8C8C8C8C8C8C8C8C8C8C8C8C55
:101BD0008C8C8C8C8C8C8C8C8C8C8C8C8C8C8C8C45
:101BE0008C8C8C8C8C8C8C8C8C8C8C8C8C8C8C8C35
:101BF0008C8C8C8C8C8C8C8C8C8C8C8C8C8C8C8C25
:101C00008C8C8C8C8C8C8C8C8C8C8C8C7A7A7A7A5C
:101C10007A7A7A7A7A7A7A7A7A7A7A7A7A7A7A7A24
:101C20007A7A7A7A7A7A7A7A7A7A7A7A7A7A7A7A14
:101C30007A7A7A7A7A7A7A7A7A7A7A7A7A7A7A88F6
:101C40008888888888888888888888888888888814
:101C5000888888888888888888888888A5A5A5A590
:101C6000A5A5A5A5A5A5A5A5A5A5A58888888888B5
:101C700088888888888888888888888888888888E4
:101C800088888888888888888888888888DCDCDCD8
:101C9000DCDCDCDCDCDCDCDCDCDCDCDCDCDCDCDC84
:101CA000DCDCDCDCDCDCDCDCDCDCDCDCDCDCDCDC74
:101CB000DCDCDCDCDCDCDCDCDCDCDCDCDCDCDBDA67
:101CC000DAD9D8D7D7D6D5D4D4D3D2D2D1D0CFCFD2
:101CD000CECDCCCCCBCACAC9C8C7C7C6C5C4C4C37D
:101CE000C2C2C1C0BFBFBEBDBCBCBBBABAB9B8B727
:101CF000B7B6B5B5B4B3B2B2B1B0B0AFAEAEADACCD
:101D0000ABABAAA9A9A8A7A6A6A5A4A4A3A2A2A171
:101D1000A0A09F9E9D9D9C9B9B9A99999897979612
:101D20009595949393929191908F8F8E8D8D8C8BAE
:101D30008B8A898988878786858584838382818148
:101D4000807F7F7E7E7D7C7C7B7A7A7978787777DE
:101D500076757574737372727170706F6E6E6D6D6F
:101D60006C6B6B6A6A6968686767666565646463FB
:101D70006262616160605F5E5E5D5D5C5C5B5A5A81
:101D80005959585857565655555454535352515102
:101D900050504F4F4E4E4D4D4C4C4B4B4A4949487D
:101DA00048474746464545444443434242414140F3
:101DB000403F3F3E3E3D3D3C3C3B3B3B3A3A393960
:101DC00038383737363635353534343333323231C7
:101DD000313130302F2F2E2E2E2D2D2C2C2B2B2B26
:101DE0002A2A292929282827272726262525252480
:101DF000242423232222222121212020201F1F1ED0
:101E00001E1E1D1D1D1C1C1C1B1B1B1A1A1A19191A
:101E1000191818181817171716161615151515145A
:101E20001414131313131212121111111110101094
:101E3000100F0F0F0F0E0E0E0E0D0D0D0D0D0C0CC5
:101E40000C0C0B0B0B0B0B0A0A0A0A0A09090909ED
:101E5000090808080808080707070707070606060D
:101E60000606060505050505050504040404040425
:101E70000404030303030303030303030202020234
:101E80000202020202020202020101010101010139
:101E90000101010101010101010101010101010132
:101EA0000101010101010101010101010101010122
:101EB0000101010101010101010101010101010112
:101EC00001010101010202020202020202020202F7
:101ED00002020303030303030303030304040404D0
:101EE00004040404050505050505050606060606A1
:101EF0000607070707070708080808080809090967
:101F000009090A0A0A0A0A0B0B0B0B0B0C0C0C0C26
:101F10000D0D0D0D0D0E0E0E0E0F0F0F0F101010DC
:101F2000101111111112121213131313141414158A
:101F30001515151616161717171818181819191930
:101F40001A1A1A1B1B1B1C1C1C1D1D1D1E1E1E1FCE
:101F50001F20202021212122222223232424242562
:101F60002525262627272728282929292A2A2B2BF1
:101F70002B2C2C2D2D2E2E2E2F2F30303131313277
:101F800032333334343535353636373738383939F6
:101F90003A3A3B3B3B3C3C3D3D3E3E3F3F4040416F
:101FA00041424243434444454546464747484849E1
:101FB000494A4B4B4C4C4D4D4E4E4F4F505051514A
:101FC00052535354545555565657585859595A5AAE
:101FD0005B5C5C5D5D5E5E5F60606161626263640C
:101FE0006465656667676868696A6A6B6B6C6D6D66
:101FF0006E6E6F70707172727373747575767777B9
:102000007878797A7A7B7C7C7D7E7E7F7F80818107
:102010008283838485858687878889898A8B8B8C50
:102020008D8D8E8F8F909191929393949595969795
:10203000979899999A9B9B9C9D9D9E9FA0A0A1A2D9
:10204000A2A3A4A4A5A6A6A7A8A9A9AAABABACAD18
:10205000AEAEAFB0B0B1B2B2B3B4B5B5B6B7B7B853
:10206000B9BABABBBCBCBDBEBFBFC0C1C2C2C3C48B
:10207000C4C5C6C7C7C8C9CACACBCCCCCDCECFCFC2
:10208000D0D1D2D2D3D4D4D5D6D7D7D8D9DADADBF7
:10209000DCDCDCDCDCDCDCDCDCDCDCDCDCDCDCDC80
:1020A000DCDCDCDCDCDCDCDCDCDCDCDCDCDCDCDC70
:1020B000DCDCDCDCDCDCDCDCDCDCDCDCDCDCDCDC60
:1020C000DCDCDCDCDCDCDCDCDCDCDCDCDCDCDCDC50
:1020D000DCDCDCDCDCDCDCDCDCDCDCDCDCDCDCDC40
:1020E000DCDCDCDCDCDCDCDCDCDCDCDCDCDCDCDC30
:1020F000DCDCDCDCDCDCDCDCDCDCDCDCDCDCDCDC20
:10210000DCDCDCDCDCDCDCDCDCDCDCDCDCDCDCDC0F
:10211000DCDCDCDCDCDCDCDCDCDCDCDCDCDCDCDCFF
:10212000DCDCDCDCDCDCDCDCDCDCDCDCDCDCDCDCEF
:10213000DCDCDCDCDCDCDCDCDCDBDBDBDADADADAEA
:10214000D9D9D9D8D8D8D8D7D7D7D6D6D6D6D5D51D
:10215000D5D4D4D4D4D3D3D3D2D2D2D2D1D1D1D155
:10216000D0D0D0CFCFCFCFCECECECECDCDCDCCCC8C
:10217000CCCCCBCBCBCBCACACACAC9C9C9C9C8C8BF
:10218000C8C7C7C7C7C6C6C6C6C5C5C5C5C4C4C4F3
:10219000C4C3C3C3C3C2C2C2C2C1C1C1C1C0C0C023
:1021A000C0BFBFBFBFBEBEBEBEBDBDBDBDBCBCBC53
:1021B000BCBCBBBBBBBBBABABABAB9B9B9B9B9B87E
:1021C000B8B8B8B7B7B7B7B6B6B6B6B6B5B5B5B5A9
:1021D000B4B4B4B4B4B3B3B3B3B3B2B2B2B2B2B1D1
:1021E000B1B1B1B0B0B0B0B0AFAFAFAFAFAEAEAEF7
:1021F000AEAEADADADADADACACACACACACABABAB19
:10220000ABABAAAAAAAAAAA9A9A9A9A9A9A8A8A838
:10221000A8A8A8A7A7A7A7A7A6A6A6A6A6A6A5A555
:10222000A5A5A5A5A5A4A4A4A4A4A4A3A3A3A3A36E
:10223000A3A2A2A2A2A2A2A2A1A1A1A1A1A1A1A086
:10224000A0A0A0A0A0A09F9F9F9F9F9F9F9F9E9E9A
:102250009E9E9E9E9E9E9D9D9D9D9D9D9D9D9C9CAA
:102260009C9C9C9C9C9C9C9B9B9B9B9B9B9B9B9BB7
:102270009B9A9A9A9A9A9A9A9A9A9A9999999999C2
:1022800099999999999998989898989898989898C8
:1022900098989897979797979797979797979797CB
:1022A00097979796969696969696969696969696CB
:1022B00096969696969696959595959595959595C7
:1022C00095959595959595959595959595959595BE
:1022D00095959595959595959595959595959595AE
:1022E000959595959595949595959595959595959F
:1022F000959595959595959595959595959595958E
:10230000959595959595959595959595959595957D
:102310009595959595959696969696969696969663
:102320009696969696969696969697979797979747
:102330009797979797979797979798989898989827
:102340009898989898989899999999999999999904
:1023500099999A9A9A9A9A9A9A9A9A9A9B9B9B9BDB
:102360009B9B9B9B9B9B9C9C9C9C9C9C9C9C9C9DB2
:102370009D9D9D9D9D9D9D9E9E9E9E9E9E9E9E9F83
:102380009F9F9F9F9F9F9FA0A0A0A0A0A0A0A1A152
:10239000A1A1A1A1A1A2A2A2A2A2A2A2A3A3A3A31E
:1023A000A3A3A4A4A4A4A4A4A5A5A5A5A5A5A5A6E6
:1023B000A6A6A6A6A6A7A7A7A7A7A8A8A8A8A8A8AC
:1023C000A9A9A9A9A9A9AAAAAAAAAAABABABABAB6E
:1023D000ACACACACACACADADADADADAEAEAEAEAE2E
:1023E000AFAFAFAFAFB0B0B0B0B0B1B1B1B1B2B2EA
:1023F000B2B2B2B3B3B3B3B3B4B4B4B4B4B5B5B5A5
:10240000B5B6B6B6B6B6B7B7B7B7B8B8B8B8B9B95B
:10241000B9B9B9BABABABABBBBBBBBBCBCBCBCBC11
:10242000BDBDBDBDBEBEBEBEBFBFBFBFC0C0C0C0C4
:10243000C1C1C1C1C2C2C2C2C3C3C3C3C4C4C4C474
:10244000C5C5C5C5C6C6C6C6C7C7C7C7C8C8C8C923
:10245000C9C9C9CACACACACBCBCBCBCCCCCCCCCDD0
:10246000CDCDCECECECECFCFCFCFD0D0D0D1D1D17B
:10247000D1D2D2D2D2D3D3D3D4D4D4D4D5D5D5D625
:10248000D6D6D6D7D7D7D8D8D8D8D9D9D9DADADACC
:10249000DADBDBDBDCDCDCDCDCDCDCDCDCDCDCDC81
:1024A000DCDCDCDCDCDCDCDCDCDCDCDCDCDCDCDC6C
:1024B000DCDCDCDCDCDCDCDCDCDCDCDCDCDCDCDC5C
:1024C000DCDCDCDCDCDCDCDCDCDCDCDCDCDCDCDC4C
:1024D000DCDCDCDCDCDCDCDCDCDCDCDCDCDCDCDC3C
:1024E000DCDCDCDCDCDCDCDCDCDCDCDCDCDCDCDC2C
:1024F000DCDCDCDCDCDCDCDCDCDCDCDCDCDCDCDC1C
:10250000DCDCDCDCDCDCDCDCDCDCDCDCDCDCDCDC0B
:10251000DCDCDCDCDCDCDCDCDCDCDCDCDCDCDCDCFB
:10252000DCDCDCDCDCDCDCDCDCDCDCDCDCDCDCDCEB
:10253000DCDCDCDCDCDCDCDCDCDCDCDCDCDCDCDCDB
:10254000DCDCDCDBDADAD9D8D8D7D6D6D5D4D4D30C
:10255000D2D2D1D0D0CFCECECDCCCCCBCACAC9C9A5
:10256000C8C7C7C6C5C5C4C3C3C2C1C1C0BFBFBE3B
:10257000BEBDBCBCBBBABAB9B8B8B7B6B6B5B5B4CF
:10258000B3B3B2B1B1B0AFAFAEAEADACACABAAAA63
:10259000A9A8A8A7A7A6A5A5A4A3A3A2A2A1A0A0F5
:1025A0009F9F9E9D9D9C9B9B9A9A99989897979682
:1025B000959594949392929191908F8F8E8E8D8C0D
:1025C0008C8B8B8A89898888878686858584838396
:1025D00082828181807F7F7E7E7D7D7C7B7B7A7A1B
:1025E000797978777776767575747373727271719D
:1025F00070706F6F6E6D6D6C6C6B6B6A6A69696819
:102600006767666665656464636362626161606092
:102610005F5F5E5D5D5C5C5B5B5A5A595958585709
:102620005756565555545453535252515150504F7A
:102630004F4F4E4E4D4D4C4C4B4B4A4A49494848E2
:102640004747474646454544444343424242414149
:1026500040403F3F3E3E3E3D3D3C3C3B3B3B3A3AAB
:102660003939383838373736363635353434343307
:102670003332323231313030302F2F2E2E2E2D2D5D
:102680002D2C2C2B2B2B2A2A2A29292928282727AD
:1026900027262626252525242424232323222222F7
:1026A0002121212020201F1F1F1E1E1E1E1D1D1D3B
:1026B0001C1C1C1B1B1B1B1A1A1A19191918181879
:1026C00018171717171616161515151514141414B0
:1026D00013131313121212121111111110101010E2
:1026E000100F0F0F0F0E0E0E0E0E0D0D0D0D0D0C0B
:1026F0000C0C0C0C0B0B0B0B0B0A0A0A0A0A0A092E
:102700000909090909080808080808070707070749
:10271000070606060606060606050505050505055F
:10272000050404040404040404040303030303036E
:102730000303030303020202020202020202020274
:102740000202020101010101010101010101010176
:102750000101010101010101010101010101010169
:10276000010101010001010101010101010101015A
:102770000101010101010101010101010101010149
:10278000010101010101020202020202020202022F
:10279000020202020303030303030303030303040C
:1027A00004040404040404040505050505050505E1
:1027B00006060606060606060707070707070808AF
:1027C000080808080909090909090A0A0A0A0A0A77
:1027D0000B0B0B0B0B0C0C0C0C0C0D0D0D0D0D0E37
:1027E0000E0E0E0E0F0F0F0F1010101010111111F2
:1027F00011121212121313131314141414151515A5
:102800001516161617171717181818181919191A50
:102810001A1A1B1B1B1B1C1C1C1D1D1D1E1E1E1EF5
:102820001F1F1F2020202121212222222323232495
:10283000242425252526262627272728282929292F
:102840002A2A2A2B2B2B2C2C2D2D2D2E2E2E2F2FC2
:10285000303030313132323233333434343535364E
:102860003636373738383839393A3A3B3B3B3C3CD7
:102870003D3D3E3E3E3F3F40404141424242434358
:10288000444445454646474747484849494A4A4BD4
:102890004B4C4C4D4D4E4E4F4F4F5050515152524C
:1028A00053535454555556565757585859595A5AC0
:1028B0005B5B5C5C5D5D5E5F5F606061616262632B
:1028C0006364646565666667676869696A6A6B6B95
:1028D0006C6C6D6D6E6F6F707071717272737374FA
:1028E0007575767677777879797A7A7B7B7C7D7D5A
:1028F0007E7E7F7F808181828283838485858686B8
:1029000087888889898A8B8B8C8C8D8E8E8F8F900F
:102910009191929293949495959697979898999A65
:102920009A9B9B9C9D9D9E9F9FA0A0A1A2A2A3A3BA
:10293000A4A5A5A6A7A7A8A8A9AAAAABACACADAE0A
:10294000AEAFAFB0B1B1B2B3B3B4B5B5B6B6B7B858
:10295000B8B9BABABBBCBCBDBEBEBFBFC0C1C1C2A4
:10296000C3C3C4C5C5C6C7C7C8C9C9CACACBCCCCEE
:10297000CDCECECFD0D0D1D2D2D3D4D4D5D6D6D737
:10298000D8D8D9DADADBDCDCDCDCDCDCDCDCDCDC97
:10299000DCDCDCDCDCDCDCDCDCDCDCDCDCDCDCDC77
:1029A000DCDCDCDCDCDCDCDCDCDCDCDCDCDCDCDC67
:1029B000DCDCDCDCDCDCDCDCDCDCDCDCFFFFFEFDCE
:1029C000FCFBFAFAF9F8F7F6F5F5F4F3F2F1F0EFAB
:1029D000EFEEEDECEBEAEAE9E8E7E6E5E5E4E3E271
:1029E000E1E0E0DFDEDDDCDBDBDAD9D8D7D6D6D537
:1029F000D4D3D2D1D1D0CFCECDCCCCCBCAC9C8C7FD
:102A0000C7C6C5C4C3C3C2C1C0BFBEBEBDBCBBBABE
:102A1000BAB9B8B7B6B6B5B4B3B2B2B1B0AFAEAD7D
:102A2000ADACABAAAAA9A8A7A6A6A5A4A3A2A2A139
:102A3000A09F9F9E9D9C9B9B9A99989897969594F2
:102A40009493929191908F8E8E8D8C8B8B8A8988A6
:102A50008887868585848382828180807F7E7D7D54
:102A60007C7B7A7A797878777675757473737271FE
:102A700071706F6E6E6D6C6C6B6A6A6968686766A0
:102A8000666564646362626160605F5E5E5D5C5C3B
:102A90005B5A5A59585857575655555453535252D2
:102AA0005150504F4E4E4D4D4C4B4B4A4A49494860
:102AB00047474646454444434342424141403F3FE5
:102AC0003E3E3D3D3C3C3B3A3A3939383837373663
:102AD000363535343433333232313130302F2F2ED6
:102AE0002E2D2D2C2C2B2B2A2A2A29292828272742
:102AF00026262625252424232323222221212020A3
:102B0000201F1F1E1E1E1D1D1C1C1C1B1B1B1A1AFA
:102B10001919191818181717171616161515151448
:102B20001414131313121212111111111010100F8B
:102B30000F0F0F0E0E0E0E0D0D0D0C0C0C0C0B0BC3
:102B40000B0B0B0A0A0A0A090909090908080808EF
:102B50000707070707070606060606060505050513
:102B6000050504040404040404030303030303032A
:102B70000303020202020202020202020201010136
:102B80000101010101010101010101010101010135
:102B90000101010101010100010101010101010126
:102BA0000101010101010101010101010101010115
:102BB00001010202020202020202020202030303F4
:102BC00003030303030304040404040404050505C8
:102BD0000505050606060606060707070707070890
:102BE00008080809090909090A0A0A0A0B0B0B0B4C
:102BF0000B0C0C0C0C0D0D0D0E0E0E0E0F0F0F0FFF
:102C000010101011111111121212131313141414A5
:102C10001515151616161717171818181919191A41
:102C20001A1B1B1B1C1C1C1D1D1E1E1E1F1F2020D3
:102C3000202121222223232324242525262626275A
:102C400027282829292A2A2A2B2B2C2C2D2D2E2ED9
:102C50002F2F30303131323233333434353536364C
:102C60003737383839393A3A3B3C3C3D3D3E3E3FB8
:102C70003F4041414242434344444546464747481A
:102C800049494A4A4B4B4C4D4D4E4E4F5050515274
:102C90005253535455555657575858595A5A5B5CC6
:102CA0005C5D5E5E5F60606162626364646566660F
:102CB000676868696A6A6B6C6C6D6E6E6F70717153
:102CC00072737374757576777878797A7A7B7C7D90
:102CD0007D7E7F80808182828384858586878888C7
:102CE000898A8B8B8C8D8E8E8F90919192939494F8
:102CF0009596979898999A9B9B9C9D9E9F9FA0A123
:102D0000A2A2A3A4A5A6A6A7A8A9AAAAABACADAD4A
:102D1000AEAFB0B1B2B2B3B4B5B6B6B7B8B9BABA6D
:102D2000BBBCBDBEBEBFC0C1C2C3C3C4C5C6C7C78E
:102D3000C8C9CACBCCCCCDCECFD0D1D1D2D3D4D5AB
:102D4000D6D6D7D8D9DADBDBDCDDDEDFE0E0E1E2C6
:102D5000E3E4E5E5E6E7E8E9EAEAEBECEDEEEFEFE0
:102D6000F0F1F2F3F4F5F5F6F7F8F9FAFAFBFCFDF9
:102D7000FEFFFF00FFFFFEFDFCFBFAF9F8F7F7F698
:102D8000F5F4F3F2F1F0EFEFEEEDECEBEAE9E8E861
:102D9000E7E6E5E4E3E2E1E0E0DFDEDDDCDBDAD933
:102DA000D8D8D7D6D5D4D3D2D1D1D0CFCECDCCCB05
:102DB000CACAC9C8C7C6C5C4C4C3C2C1C0BFBEBED3
:102DC000BDBCBBBAB9B8B8B7B6B5B4B3B2B2B1B09E
:102DD000AFAEADACACABAAA9A8A7A7A6A5A4A3A269
:102DE000A2A1A09F9E9E9D9C9B9A9999989796952B
:102DF000959493929191908F8E8D8D8C8B8A8989E9
:102E000088878685858483828281807F7E7E7D7CA3
:102E10007B7B7A7978787776757574737272717056
:102E20006F6F6E6D6D6C6B6A6A6968676766656502
:102E3000646363626160605F5E5E5D5C5C5B5A5AA6
:102E40005958585756565554545352525150504F42
:102E50004E4E4D4C4C4B4B4A4949484747464645D8
:102E60004444434342414140403F3E3E3D3D3C3C63
:102E70003B3A3A39393838373736353534343333E5
:102E80003232313130302F2F2E2E2D2D2C2C2B2B5A
:102E90002A2A2929282827272626252524242423C9
:102EA00023222221212020201F1F1E1E1E1D1D1C2B
:102EB0001C1B1B1B1A1A1A19191818181717171682
:102EC00016151515141414131313121212111111CF
:102ED000101010100F0F0F0E0E0E0E0D0D0D0C0C0E
:102EE0000C0C0B0B0B0B0A0A0A0A09090909090841
:102EF0000808080707070707060606060606050569
:102F00000505050504040404040404030303030382
:102F10000303030202020202020202020201010191
:102F20000101010101010101010101010101010191
:102F30000101010101010001010101010101010182
:102F40000101010101010101010101010101010171
:102F5000020202020202020202020303030303034B
:102F6000030304040404040404050505050505061B
:102F700006060606060707070707080808080909DE
:102F80000909090A0A0A0A0B0B0B0B0C0C0C0C0D95
:102F90000D0D0E0E0E0E0F0F0F101010101111113F
:102FA00012121213131314141415151516161717DD
:102FB0001718181819191A1A1A1B1B1B1C1C1D1D6F
:102FC0001E1E1E1F1F2020202121222223232424F5
:102FD00024252526262727282829292A2A2B2B2C71
:102FE0002C2D2D2E2E2F2F303031313232333334E1
:102FF000343535363737383839393A3A3B3C3C3D49
:103000003D3E3E3F404041414243434444454646A5
:1030100047474849494A4B4B4C4C4D4E4E4F5050F8
:10302000515252535454555656575858595A5A5B40
:103030005C5C5D5E5E5F6060616263636465656683
:10304000676768696A6A6B6C6D6D6E6F6F707172BD
:10305000727374757576777878797A7B7B7C7D7EF0
:103060007E7F808182828384858586878889898A1C
:103070008B8C8D8D8E8F9091919293949595969740
:103080009899999A9B9C9D9E9E9FA0A1A2A2A3A461
:10309000A5A6A7A7A8A9AAABACACADAEAFB0B1B27C
:1030A000B2B3B4B5B6B7B8B8B9BABBBCBDBEBEBF93
:1030B000C0C1C2C3C4C4C5C6C7C8C9CACACBCCCDA7
:1030C000CECFD0D1D1D2D3D4D5D6D7D8D8D9DADBB8
:1030D000DCDDDEDFE0E0E1E2E3E4E5E6E7E8E8E9C5
:1030E000EAEBECEDEEEFEFF0F1F2F3F4F5F6F7F7D3
:1030F000F8F9FAFBFCFDFEFF0000000800020100E9
:1031000000030407000000000000000001020408A2
:103110001020408001020408102001020408102041
:10312000040404040404040402020202020203036D
:103130000303030300000000230026002900000011
:103140000000250028002B000000000024002700BC
:103150002A0011241FBECFEFD8E0DEBFCDBF11E0A3
:10316000A0E0B1E0EAE4F9E302C005900D92AA30D4
:10317000B107D9F721E0AAE0B1E001C01D92AE325B
:10318000B207E1F70E94941C0C94A31C0C9400005D
:1031900060E082E00E94311C61E080E00E94311C0E
:1031A00061E081E00E94311C61E083E00E94311CFB
:1031B00061E084E00E94311C61E085E00E94311CE6
:1031C00061E086E00E94311C61E087E00E94311CD2
:1031D00061E088E00E94311C61E089E00E94311CBE
:1031E00061E08AE00E94311C61E08BE00E94311CAA
:1031F00061E08CE00E94311C61E08DE00C94311C98
:103200000F931F93CF93DF93C0E0D0E0E0910801CC
:10321000F0910901EC58F24DE491F0E0CE17DF0790
:1032200009F4589AE0912301F0912401EE58F24DEF
:10323000E491F0E0CE17DF0709F4599AE091060116
:10324000F0910701E454F64DE491F0E0CE17DF076A
:1032500009F45B9AE0912101F0912201E45FFA4DBB
:10326000E491F0E0CE17DF0709F45C9AE0911F01CA
:10327000F0912001E054FF4DE491F0E0CE17DF071C
:1032800009F45D9AE0910401F0910501E357F34ED2
:10329000E491F0E0CE17DF0709F45E9AE0911D019A
:1032A000F0911E01E45BF74EE491F0E0CE17DF07EA
:1032B00009F45F9AE0911B01F0911C01EE5BF74E5F
:1032C000E491F0E0CE17DF0709F4289AE0911901A4
:1032D000F0911A01EE58FF4EE491F0E0CE17DF07AF
:1032E00009F4299AE0911701F0911801EE51F14F7C
:1032F000E491F0E0CE17DF0709F42A9AE091150176
:10330000F0911601E855F84FE491F0E0CE17DF0791
:1033100009F42B9AE0911301F0911401E259FF4F47
:10332000E491F0E0CE17DF0709F42C9AE091110147
:10333000F0911201E859FF4FE491F0E0CE17DF075A
:1033400009F42D9A0E94AA1B60930B0170930C0143
:1033500080930D0190930E010E94AA1B00910B0116
:1033600010910C0120910D0130910E01601B710B29
:10337000820B930B0091020110910301222717FD8C
:103380002095322F601771078207930728F3219643
:10339000C11541E0D40709F039CF0E94AA1B609300
:1033A0000B0170930C0180930D0190930E010E940C
:1033B000AA1B00910B0110910C0120910D0130917D
:1033C0000E01601B710B820B930B64367105810536
:1033D000910568F3589859985B985C985D985E9849
:1033E0005F98289829982A982B982C982D98809146
:1033F0000F0190911001009709F047C0209108013A
:10340000309109012F5F3F4F30930901209308014C
:1034100020912301309124012F5F3F4F30932401ED
:103420002093230120910601309107012F5F3F4F28
:103430003093070120930601209121013091220150
:103440002F5F3F4F309322012093210120911F01D4
:10345000309120012F5F3F4F3093200120931F01B7
:1034600020910401309105012F5F3F4F30930501FA
:103470002093040120911D0130911E012F5F3F4FC9
:1034800030931E0120931D013FC081309105E1F56D
:1034900020911B0130911C012F5F3F4F30931C0185
:1034A00020931B012091190130911A012F5F3F4F8A
:1034B00030931A01209319012091170130911801BE
:1034C0002F5F3F4F30931801209317012091150172
:1034D000309116012F5F3F4F309316012093150155
:1034E00020911301309114012F5F3F4F309314014D
:1034F0002093130120911101309112012F5F3F4F52
:10350000309312012093110120910801309109019B
:103510002438334021F410920901109208012091BF
:103520002301309124012230310521F4109224012D
:10353000109223012091060130910701263B334070
:1035400021F410920701109206012091210130917F
:103550002201203B344021F41092220110922101DB
:1035600020911F01309120012C34344021F410921D
:10357000200110921F012091040130910501233395
:10358000344021F4109205011092040120911D0194
:1035900030911E012134344021F410921E0110920A
:1035A0001D0120911B0130911C012A30310521F4AD
:1035B00010921C0110921B012091190130911A01E7
:1035C000203D374021F410921A01109219012091E8
:1035D0001701309118012039314021F4109218015F
:1035E0001092170120911501309116012A333740AE
:1035F00021F41092160110921501209113013091BF
:1036000014012A33374021F410921401109213014F
:1036100020911101309112012630310521F41092D0
:1036200012011092110101968230910529F09093B8
:10363000100180930F0104C01092100110920F012D
:10364000DF91CF911F910F9108950F931F9382E007
:103650000E946A1C892B19F010920A012EC08091D9
:103660000A0181112AC00E94AA1B60930B0170936A
:103670000C0180930D0190930E010E94AA1B0091F2
:103680000B0110910C0120910D0130910E01601B76
:10369000710B820B930B0091000110910101222705
:1036A00017FD2095322F601771078207930728F3C3
:1036B0000E94001981E080930A011F910F910895E3
:1036C0001F920F920FB60F9211242F933F938F9357
:1036D0009F93AF93BF938091260190912701A09172
:1036E0002801B09129013091250123E0230F2D37C6
:1036F00020F40196A11DB11D05C026E8230F0296F6
:10370000A11DB11D209325018093260190932701CF
:10371000A0932801B093290180912A0190912B0157
:10372000A0912C01B0912D010196A11DB11D809396
:103730002A0190932B01A0932C01B0932D01BF91EE
:10374000AF919F918F913F912F910F900FBE0F904E
:103750001F9018953FB7F89480912A0190912B0102
:10376000A0912C01B0912D0126B5A89B05C02F3F3B
:1037700019F00196A11DB11D3FBF6627782F892F33
:103780009A2F620F711D811D911D42E0660F771FF8
:10379000881F991F4A95D1F70895789484B582605F
:1037A00084BD84B5816084BD85B5826085BD85B5E5
:1037B000816085BDEEE6F0E0808181608083E1E894
:1037C000F0E01082808182608083808181608083CC
:1037D000E0E8F0E0808181608083E1EBF0E08081CF
:1037E00084608083E0EBF0E0808181608083EAE7A1
:1037F000F0E080818460808380818260808380812A
:10380000816080838081806880831092C1000895E8
:10381000833081F028F4813099F08230A1F008954E
:103820008730A9F08830B9F08430D1F480918000DD
:103830008F7D03C0809180008F77809380000895F2
:1038400084B58F7702C084B58F7D84BD0895809143
:10385000B0008F7703C08091B0008F7D8093B0005F
:103860000895CF93DF9390E0FC01E45FFE4C249138
:10387000FC01E05EFE4C8491882349F190E0880FC2
:10388000991FFC01E85BFE4CA591B491825C9E4CB3
:10389000FC01C591D4919FB7611108C0F8948C9137
:1038A000209582238C93888182230AC0623051F450
:1038B000F8948C91322F309583238C938881822BBE
:1038C000888304C0F8948C91822B8C939FBFDF91E6
:1038D000CF910895CF93DF93282F30E0F901E8507E
:1038E000FF4C8491F901E45FFE4CD491F901E05E54
:1038F000FE4CC491CC2391F081110E94081CEC2F46
:10390000F0E0EE0FFF1FEC5CFE4CA591B4912C9102
:103910002D2381E090E021F480E002C080E090E07F
:10392000DF91CF91089508950E94CD1B0E94931CB2
:103930000E94C818C0E0D0E00E94251B2097E1F348
:0A3940000E940000F9CFF894FFCFB9
:0A394A0020030B00FA0090010200B8
:107E0000112484B714BE81FFF0D085E080938100F7
:107E100082E08093C00088E18093C10086E0809377
:107E2000C20080E18093C4008EE0C9D0259A86E02C
:107E300020E33CEF91E0309385002093840096BBD3
:107E4000B09BFECF1D9AA8958150A9F7CC24DD24C4
:107E500088248394B5E0AB2EA1E19A2EF3E0BF2EE7
:107E6000A2D0813461F49FD0082FAFD0023811F036
:107E7000013811F484E001C083E08DD089C08234E0
:107E800011F484E103C0853419F485E0A6D080C0E4
:107E9000853579F488D0E82EFF2485D0082F10E0AE
:107EA000102F00270E291F29000F111F8ED06801E7
:107EB0006FC0863521F484E090D080E0DECF843638
:107EC00009F040C070D06FD0082F6DD080E0C81688
:107ED00080E7D80618F4F601B7BEE895C0E0D1E017
:107EE00062D089930C17E1F7F0E0CF16F0E7DF06D8
:107EF00018F0F601B7BEE89568D007B600FCFDCFD4
:107F0000A601A0E0B1E02C9130E011968C91119780
:107F100090E0982F8827822B932B1296FA010C0160
:107F200087BEE89511244E5F5F4FF1E0A038BF0790
:107F300051F7F601A7BEE89507B600FCFDCF97BE46
:107F4000E89526C08437B1F42ED02DD0F82E2BD052
:107F50003CD0F601EF2C8F010F5F1F4F84911BD097
:107F6000EA94F801C1F70894C11CD11CFA94CF0C13
:107F7000D11C0EC0853739F428D08EE10CD085E9AC
:107F80000AD08FE07ACF813511F488E018D01DD067
:107F900080E101D065CF982F8091C00085FFFCCF94
:107FA0009093C60008958091C00087FFFCCF809118
:107FB000C00084FD01C0A8958091C6000895E0E648
:107FC000F0E098E1908380830895EDDF803219F02E
:107FD00088E0F5DFFFCF84E1DECF1F93182FE3DFCA
:107FE0001150E9F7F2DF1F91089580E0E8DFEE27F6
:047FF000FF270994CA
:027FFE00040479
:0400000300007E007B
:00000001FF