:100000000C9476000C949E000C949E000C949E0020
:100010000C949E000C949E000C949E000C949E00E8
:100020000C949E000C949E000C949E000C949E00D8
:100030000C949E000C949E000C949E000C949E00C8
:100040000C948E020C949E000C944C050C947E052E
:100050000C949E000C949E000C949E000C949E00A8
:100060000C949E000C949E00000001010203030406
:100070000405050606060707070707070807070719
:10008000070707060606050504040303020101002D
:100090000000000800020100000304070000000047
:1000A0000000000001020408102040800102040842
:1000B00010200102040810200404040404040404B1
:1000C0000202020202020303030303030000000012
:1000D00023002600290000000000250028002B0036
:1000E00000000000240027002A00AE0511241FBED6
:1000F000CFEFD8E0DEBFCDBF11E0A0E0B1E0E4E19A
:10010000FFE002C005900D92A234B107D9F722E0BA
:10011000A2E4B1E001C01D92A033B207E1F710E004
:10012000CCEED0E004C02297FE010E941007CA3E28
:10013000D107C9F70E94F2050C9488070C940000BF
:1001400040ED57E060E070E083E591E00E946E02D0
:1001500020E032EC41E050E063E971E083E591E0BA
:100160000E94810283E591E00E946B026CE071E0E5
:1001700080918401909185010E943F066AE070E0C1
:1001800080E090E00E94070340E060E083E591E0BA
:100190000E948D0260E0809106010E94A50361E04B
:1001A0008DE00E94A50361E08CE00E94A50361E060
:1001B0008BE00E94A50361E08AE00E94A50361E054
:1001C00089E00E94A50361E088E00E94A50361E048
:1001D00087E00E94A50361E086E00C94A5030F93DD
:1001E0001F93CF93DF930E94E402609347017093C3
:1001F00048018093490190934A010E94E4020091D2
:100200004701109148012091490130914A01601B3A
:10021000710B820B930B00910801109109012227A9
:1002200017FD2095322F601771078207930728F377
:1002300080914401909145011816190694F066E0EA
:1002400070E080E090E00E949D0688EC90E0909342
:1002500005018093040180ED97E090934501809320
:100260004401C0E0D0E0E0914201F0914301E8593F
:10027000FF4FE49180910401909105018E0F911D33
:10028000C817D90731F48BB18BB92B9A2A9A2C9ABB
:100290002D9A0E94E4026093470170934801809375
:1002A000490190934A010E94E40200914701109194
:1002B00048012091490130914A01601B710B820B6A
:1002C000930B00910A0110910B01222717FD209535
:1002D000322F601771078207930728F32196C11503
:1002E00081E0D80709F0BFCF0E94E4026093470184
:1002F000709348018093490190934A010E94E4025F
:1003000000914701109148012091490130914A0123
:10031000601B710B820B930B64367105810591058F
:1003200068F32D982C982B982A98299828985F98EC
:100330005E988091420190914301889721F4109238
:10034000430110924201DF91CF911F910F910895C7
:10035000CF92DF92EF92FF920F931F930E94D802E9
:10036000672B682B692B41F40E94D802623071051B
:100370008105910508F46CC083E591E00E9441027B
:1003800060934B0170934C0180934D0190934E010B
:1003900000914F0110915001209151013091520173
:1003A000601771078207930740F460934F017093C1
:1003B0005001809351019093520100914F0110918F
:1003C000500120915101309152016B017C01C01A02
:1003D000D10AE20AF30A970186010A3F11052105B5
:1003E0003105B0F160934F0170935001809351013A
:1003F0009093520183E591E00E946B026EE171E0FF
:1004000080918401909185010E943F0666E271E02F
:1004100080918401909185010E943F060E94D8023C
:10042000AB01BC012AE030E080918401909185010C
:100430000E94900668E271E08091840190918501AC
:100440000E943F0665E070E080E090E00E940703B4
:10045000809106010E94DE03892B19F0109246015B
:1004600009C080914601811105C00E94EF0081E022
:10047000809346011F910F91FF90EF90DF90CF90F6
:1004800008950C94D8020F931F93CF93DF93EC0140
:10049000662359F00E94D80269837A838B839C83F8
:1004A000DF91CF911F910F9108950E94D802098189
:1004B0001A812B813C81601B710B820B930B64367C
:1004C00071058105910530F763E070E080E090E010
:1004D0000E940703EACF60E00C944302FC0113AAD8
:1004E00014AA15AA16AA1182128213821482411527
:1004F00051056105710521F0CB01BA010C94070388
:100500000895FB01BA01A901DC01D296FC93EE9398
:10051000D19726E0CF010C94EA0408951F920F9220
:100520000FB60F9211242F933F938F939F93AF9306
:10053000BF9380918B0190918C01A0918D01B0911E
:100540008E0130918A0123E0230F2D3720F401968C
:10055000A11DB11D05C026E8230F0296A11DB11DE6
:1005600020938A0180938B0190938C01A0938D013D
:10057000B0938E0180918F0190919001A091910193
:10058000B09192010196A11DB11D80938F019093AE
:100590009001A0939101B0939201BF91AF919F916F
:1005A0008F913F912F910F900FBE0F901F90189534
:1005B0002FB7F89460918B0170918C0180918D011F
:1005C00090918E012FBF08953FB7F89480918F01CD
:1005D00090919001A0919101B091920126B5A89BB4
:1005E00005C02F3F19F00196A11DB11D3FBF662721
:1005F000782F892F9A2F620F711D811D911D42E066
:10060000660F771F881F991F4A95D1F708958F921B
:100610009F92AF92BF92CF92DF92EF92FF926B01C7
:100620007C010E94E4024B015C01C114D104E1048D
:10063000F104F1F00E94C1060E94E40268197909F0
:100640008A099B09683E73408105910570F321E09A
:10065000C21AD108E108F10888EE880E83E0981EDE
:10066000A11CB11CC114D104E104F10429F7DDCFB0
:10067000FF90EF90DF90CF90BF90AF909F908F90C2
:100680000895789484B5826084BD84B5816084BD0A
:1006900085B5826085BD85B5816085BDEEE6F0E0FB
:1006A000808181608083E1E8F0E010828081826057
:1006B0008083808181608083E0E8F0E080818160D8
:1006C0008083E1EBF0E0808184608083E0EBF0E008
:1006D000808181608083EAE7F0E0808184608083AC
:1006E0008081826080838081816080838081806856
:1006F00080831092C1000895833081F028F4813006
:1007000099F08230A1F008958730A9F08830B9F0CF
:100710008430D1F4809180008F7D03C0809180006F
:100720008F7780938000089584B58F7702C084B559
:100730008F7D84BD08958091B0008F7703C0809134
:10074000B0008F7D8093B0000895CF93DF9390E049
:10075000FC01EC55FF4F2491FC01E854FF4F8491BC
:10076000882349F190E0880F991FFC01E052FF4F68
:10077000A591B4918A529F4FFC01C591D4919FB726
:10078000611108C0F8948C91209582238C93888104
:1007900082230AC0623051F4F8948C91322F309544
:1007A00083238C938881822B888304C0F8948C9156
:1007B000822B8C939FBFDF91CF910895CF93DF93CE
:1007C000282F30E0F901E057FF4F8491F901EC55F3
:1007D000FF4FD491F901E854FF4FC491CC2391F01D
:1007E00081110E947C03EC2FF0E0EE0FFF1FE45319
:1007F000FF4FA591B4912C912D2381E090E021F43D
:1008000080E002C080E090E0DF91CF910895FC018C
:10081000818D228D90E0805C9F4F821B91098F73A8
:1008200099270895FC01918D828D981731F0828D62
:10083000E80FF11D858D90E008958FEF9FEF0895EB
:10084000FC01918D828D981761F0828DDF01A80FD8
:10085000B11D5D968C91928D9F5F9F73928F90E0FA
:1008600008958FEF9FEF089584EA95E0892B49F072
:1008700080E090E0892B29F00E94A40581110C945E
:1008800000000895FC01848DDF01A80FB11DA35A5B
:10089000BF4F2C91848D90E001968F739927848FA0
:1008A000A689B7892C93A089B1898C9180648C9397
:1008B000938D848D981306C00288F389E02D808182
:1008C0008F7D80830895CF93DF93EC01888D8823FB
:1008D000C9F0EA89FB89808185FD05C0A889B989AD
:1008E0008C9186FD0FC00FB607FCF5CF808185FF88
:1008F000F2CFA889B9898C9185FFEDCFCE010E94F6
:100900004204E7CFDF91CF910895CF92DF92FF921B
:100910000F931F93CF93DF931F92CDB7DEB76C0178
:1009200081E0D60158968C9358975B969C915B9783
:100930005C968C915C97981307C05096ED91FC9152
:100940005197808185FD2EC0F601038D10E00F5F69
:100950001F4F0F731127F02EF601848DF81211C06E
:100960000FB607FCF9CFD6015096ED91FC91519747
:10097000808185FFF1CFC60169830E9442046981AD
:10098000EBCF838DE80FF11DE35AFF4F6083D60153
:100990005B960C935B975296ED91FC9153978081F7
:1009A00080620CC0D6015696ED91FC9157976083FA
:1009B0005096ED91FC91519780818064808381E015
:1009C00090E00F90DF91CF911F910F91FF90DF90FA
:1009D000CF900895BF92CF92DF92EF92FF92CF9384
:1009E000DF93EC016A017B01B22EE889F98982E08C
:1009F0008083411581EE580761057105A1F060E023
:100A000079E08DE390E0A70196010E94C206215093
:100A10003109410951095695479537952795211573
:100A200080E1380798F0E889F989108260E874E875
:100A30008EE190E0A70196010E94C2062150310983
:100A4000410951095695479537952795EC85FD85C0
:100A50003083EE85FF852083188EEC89FD89B08276
:100A6000EA89FB89808180618083EA89FB898081B2
:100A700088608083EA89FB89808180688083EA8935
:100A8000FB8980818F7D8083DF91CF91FF90EF90F4
:100A9000DF90CF90BF9008951F920F920FB60F92E4
:100AA00011242F938F939F93EF93FF93E091A301D2
:100AB000F091A4018081E091A901F091AA0182FD49
:100AC00012C090818091AC018F5F8F732091AD0136
:100AD000821751F0E091AC01F0E0ED56FE4F958F9A
:100AE0008093AC0101C08081FF91EF919F918F9124
:100AF0002F910F900FBE0F901F9018951F920F927D
:100B00000FB60F9211242F933F934F935F936F93E0
:100B10007F938F939F93AF93BF93EF93FF9383E95B
:100B200091E00E944204FF91EF91BF91AF919F919C
:100B30008F917F916F915F914F913F912F910F9086
:100B40000FBE0F901F90189583E991E00E94070453
:100B500021E0892B09F420E0822F0895109296015C
:100B60001092950188EE93E0A0E0B0E080939701A9
:100B700090939801A0939901B0939A0185E391E035
:100B8000909394018093930185EC90E09093A00161
:100B900080939F0184EC90E09093A2018093A10147
:100BA00080EC90E09093A4018093A30181EC90E00D
:100BB0009093A6018093A50182EC90E09093A80108
:100BC0008093A70186EC90E09093AA018093A901FD
:100BD0001092AC011092AD011092AE011092AF01D3
:100BE000089508950E9441030E94F1050E94A0000B
:100BF000C4E3D4E00E94A8012097E1F30E943404EA
:100C0000F9CFCF92DF92EF92FF920F931F93CF9382
:100C1000DF937C016A01EB0100E010E00C151D057B
:100C200071F06991D701ED91FC910190F081E02D77
:100C3000C7010995892B19F00F5F1F4FEFCFC8012E
:100C4000DF91CF911F910F91FF90EF90DF90CF90A8
:100C500008956115710581F0DB010D900020E9F721
:100C6000AD0141505109461B570BDC01ED91FC9140
:100C70000280F381E02D099480E090E008950C94C7
:100C800029068F929F92AF92BF92DF92EF92FF92CE
:100C90000F931F93CF93DF93CDB7DEB7A1970FB616
:100CA000F894DEBF0FBECDBF7C01F42FD52ECB0153
:100CB00019A2223008F42AE08E010F5D1F4F822E08
:100CC000912CA12CB12C6F2F7D2DA50194010E9498
:100CD000C206F22FD32ECA01015011096A3014F452
:100CE000E0E301C0E7E3E60FD801EC93232B242BCC
:100CF000252B49F7B801C7010E942906A1960FB616
:100D0000F894DEBF0FBECDBFDF91CF911F910F9141
:100D1000FF90EF90DF90BF90AF909F908F900895DD
:100D20002115310541F4DC01ED91FC910190F08138
:100D3000E02D642F09940C944106CF93DF9300D0EB
:100D400000D0CDB7DEB79B01AC01611571058105FF
:100D5000910569F069833A834B835C830E94720733
:100D600029813A814B815C810E94E40603C060E0E6
:100D700070E0CB010F900F900F900F90DF91CF910B
:100D800008950895A1E21A2EAA1BBB1BFD010DC0F8
:100D9000AA1FBB1FEE1FFF1FA217B307E407F5072B
:100DA00020F0A21BB30BE40BF50B661F771F881F07
:100DB000991F1A9469F760957095809590959B019D
:100DC000AC01BD01CF010895052E97FB1EF40094E0
:100DD0000E94FB0657FD07D00E94C20607FC03D005
:100DE0004EF40C94FB0650954095309521953F4F5D
:100DF0004F4F5F4F089590958095709561957F4F07
:100E00008F4F9F4F08950E941407A59F900DB49F88
:100E1000900DA49F800D911D11240895EE0FFF1FCA
:100E20000590F491E02D0994A29FB001B39FC001F9
:100E3000A39F700D811D1124911DB29F700D811D06
:100E40001124911D08958F929F92AF92BF92CF92DD
:100E5000DF92EF92FF92CF93DF93EC01688179816B
:100E60008A819B81611571058105910521F464E2F8
:100E700079ED8BE597E02DE133EF41E050E00E9402
:100E8000E40649015A019B01AC01A7EAB1E40E94C2
:100E900003076B017C01ACEEB4EFA50194010E9445
:100EA0008307C60ED71EE81EF91EF7FE06C081E0B6
:100EB000C81AD108E10880E8F80AC882D982EA8213
:100EC000FB82C701B6019F77DF91CF91FF90EF9032
:100ED000DF90CF90BF90AF909F908F9008950E9429
:100EE0002307089580E091E00E942307089560930E
:100EF0000001709301018093020190930301089512
:100F0000B7FF0C9403070E940307821B930B0895FD
:040F1000F894FFCF83
:100F1400010000006400020020030F00564D4450FD
:100F2400565F317C305F564D4450560D0A00564D85
:100F34004450455F31007C005F564D4450450D0AD6
:100F44000000000000850401060704200412046365
:020F5400040097
:00000001FF
