:100000000C946E000C948B000C948B000C948B0061
:100010000C948B000C948B000C948B000C948B0034
:100020000C948B000C948B000C948B000C948B0024
:100030000C948B000C948B000C948B000C948B0014
:100040000C940C020C948B000C948B000C948B0081
:100050000C948B000C948B000C948B000C948B00F4
:100060000C948B000C948B00000001020304040527
:100070000506060606060606060505040403020133
:100080000000000000240027002A000000000025D6
:100090000028002B00000000002300260029000497
:1000A000040404040404040202020202020303031F
:1000B0000303030102040810204080010204081019
:1000C00020010204081020000000070002010000C7
:1000D00003040600000000000000000011241FBE01
:1000E000CFEFD8E0DEBFCDBF11E0A0E0B1E0EAE1A4
:1000F000F8E002C005900D92AC30B107D9F711E0DD
:10010000ACE0B1E001C01D92AE31B107E1F70E9451
:1001100047030C940B040C940000A0E0B0E0E3E96A
:10012000F0E00C94DC03EC01A880B980CA80DB808D
:10013000A114B104C104D10441F484E2A82E89EDD4
:10014000B82E8BE5C82E87E0D82EC601B5012DE16B
:1001500033EF41E050E00E94970327EA31E440E0AA
:1001600050E00E9478037B018C01C601B5012DE1AE
:1001700033EF41E050E00E949703CA01B9012CEE31
:1001800034EF4FEF5FEF0E9478036E0D7F1D801FED
:10019000911F97FF04C06150704080409048688371
:1001A00079838A839B839B01AC015F77B901CA0184
:1001B000CDB7DEB7EAE00C94F8030E948D000895F5
:1001C00080E091E00E948D0008956093000170939B
:1001D000010180930201909303010895CF93DF936F
:1001E0000E94540260930C0170930D0180930E01E4
:1001F00090930F010E94540220910C0130910D0147
:1002000040910E0150910F01621B730B840B950BF3
:100210002091060130910701442737FD4095542F66
:10022000621773078407950728F380911101909155
:100230001201181619066CF166E070E080E090E09B
:100240000E9456036F5F7F4F669F9001679F300D3E
:10025000769F300D1124C901869F9001879F300D34
:10026000969F300D112480E091E0821B930B9093B8
:100270000B0180930A019C0153E0220F331F5A9512
:10028000E1F7880F991F280F391F3093120120932F
:100290001101809111019091120101979093120127
:1002A00080931101C0E0D0E080910A0190910B0190
:1002B000E0911301F0911401E859FF4FE4918E0F82
:1002C000911DC817D90739F08F3F910551F04CF0B7
:1002D000CF3FD10531F48BB18BB92B9A2A9A2C9A46
:1002E0002D9A0E94540260930C0170930D0180932B
:1002F0000E0190930F010E94540220910C01309145
:100300000D0140910E0150910F01621B730B840B84
:10031000950B2091040130910501442737FD40954C
:10032000542F621773078407950728F3219691E0ED
:10033000C030D90709F0B8CF0E94540260930C0175
:1003400070930D0180930E0190930F010E9454024F
:1003500020910C0130910D0140910E0150910F013F
:10036000621B730B840B950B643671058105910537
:1003700068F32D982C982B982A98299828985F989C
:100380005E9880911301909114010196909314014D
:1003900080931301499721F41092140110921301D4
:1003A000DF91CF910895809108010E94F402892B7A
:1003B00051F480911001882341F40E94EE0081E005
:1003C0008093100108951092100108958091080102
:1003D00060E00E94B5028DE061E00E94B5028CE011
:1003E00061E00E94B5028BE061E00E94B5028AE004
:1003F00061E00E94B50289E061E00E94B50288E0F8
:1004000061E00E94B50287E061E00E94B50286E0EB
:1004100061E00E94B50208951F920F920FB60F92ED
:1004200011242F933F938F939F93AF93BF9380910A
:10043000190190911A01A0911B01B0911C013091FA
:100440001D010196A11DB11D232F2D5F2D3720F019
:100450002D570196A11DB11D20931D0180931901F7
:1004600090931A01A0931B01B0931C018091150178
:1004700090911601A0911701B09118010196A11D4C
:10048000B11D8093150190931601A0931701B093AD
:100490001801BF91AF919F918F913F912F910F9034
:1004A0000FBE0F901F9018959FB7F89420911501DB
:1004B00030911601409117015091180186B5A89B03
:1004C00006C08F3F21F02F5F3F4F4F4F5F4F9FBFC1
:1004D000542F432F322F2227280F311D411D511D2C
:1004E00082E0220F331F441F551F8A95D1F7B901AF
:1004F000CA010895789484B5826084BD84B5816012
:1005000084BD85B5826085BD85B5816085BDEEE61B
:10051000F0E0808181608083E1E8F0E010828081FA
:1005200082608083808181608083E0E8F0E0808168
:1005300081608083E1EBF0E0808184608083E0EB88
:10054000F0E0808181608083EAE7F0E08081846070
:1005500080838081826080838081816080838081CC
:10056000806880831092C1000895CF93DF93482F55
:1005700050E0CA018D549F4FFC01349141565F4FAA
:10058000FA018491882369F190E0880F991FFC019A
:10059000EF57FF4FA591B491FC01E557FF4FC5916F
:1005A000D491662351F42FB7F8948C91932F9095A2
:1005B00089238C93888189230BC0623061F42FB723
:1005C000F8948C91932F909589238C938881832B19
:1005D00088832FBF06C09FB7F8948C91832B8C9390
:1005E0009FBFDF91CF910895682F70E0CB018953B1
:1005F0009F4FFC012491CB018D549F4FFC014491EE
:1006000061567F4FFB019491992319F420E030E06B
:100610003CC0222351F1233071F0243028F42130E2
:10062000A1F0223011F514C02630B1F02730C1F00E
:100630002430D9F404C0809180008F7703C080916A
:1006400080008F7D8093800010C084B58F7702C0BA
:1006500084B58F7D84BD09C08091B0008F7703C0C1
:100660008091B0008F7D8093B000892F90E0880F3B
:10067000991F8B569F4FFC01A591B4918C9120E05E
:1006800030E0842311F021E030E0C9010895CF93D8
:10069000DF930E947A020E94E601C0E0D0E00E944F
:1006A000D3012097E1F30E940000F9CFEF92FF926F
:1006B0000F931F937B018C016115710581059105D5
:1006C00029F420E030E040E050E00BC00E94E00060
:1006D000A80197010E949703AC01CB01DA019C01AC
:1006E000AD01B901CA011F910F91FF90EF900895DC
:1006F000629FD001739FF001829FE00DF11D649F06
:10070000E00DF11D929FF00D839FF00D749FF00D91
:10071000659FF00D9927729FB00DE11DF91F639F32
:10072000B00DE11DF91FBD01CF011124089597FB04
:10073000092E05260ED057FD04D014D00AD0001C77
:1007400038F450954095309521953F4F4F4F5F4F6E
:100750000895F6F790958095709561957F4F8F4F2E
:100760009F4F0895A1E21A2EAA1BBB1BFD010DC0CD
:10077000AA1FBB1FEE1FFF1FA217B307E407F50751
:1007800020F0A21BB30BE40BF50B661F771F881F2D
:10079000991F1A9469F760957095809590959B01C3
:1007A000AC01BD01CF0108952F923F924F925F920D
:1007B0006F927F928F929F92AF92BF92CF92DF9271
:1007C000EF92FF920F931F93CF93DF93CDB7DEB7D6
:1007D000CA1BDB0B0FB6F894DEBF0FBECDBF09946A
:1007E0002A88398848885F846E847D848C849B84C1
:1007F000AA84B984C884DF80EE80FD800C811B81CF
:10080000AA81B981CE0FD11D0FB6F894DEBF0FBEFD
:0A081000CDBFED010895F894FFCF6D
:0C081A0001000000140020030200640034
:00000001FF
