:100000000C94260B0C944E0B0C944E0B0C944E0B34
:100010000C944E0B0C944E0B0C944E0B0C944E0BFC
:100020000C944E0B0C944E0B0C944E0B0C944E0BEC
:100030000C944E0B0C944E0B0C944E0B0C944E0BDC
:100040000C94C30E0C944E0B0C9466100C94B410CC
:100050000C944E0B0C944E0B0C944E0B0C944E0BBC
:100060000C944E0B0C944E0BB2B2DCDC5F5FFFFACB
:10007000B2B2B2B2B2B1B1B1B1B1C6C6C6C6C66B48
:100080006B6B6B6BABABABABABABABABABABABABC0
:10009000ABABABABABABABABABABABABABABABABB0
:1000A000ABABABABABABABABABABABABABABABABA0
:1000B000ABABABABABABABABABABABABABABABAB90
:1000C000ABABABABABABABABABABABABABABABAB80
:1000D000ABABABABABABABABABABABABABABABAB70
:1000E000ABABABABABABABABABABABABABABABAB60
:1000F000ABABABABABABABABABABABABABABABAB50
:10010000ABABABABABABABABABABABABABABABAB3F
:10011000ABABABABABABABABABABABABABABABAB2F
:10012000ABABABABABABABABABABABABABABABAB1F
:10013000ABABABABABABABABABABABABABABABAB0F
:10014000ABABABABABABABABABABABABABABABABFF
:10015000ABABABABABABABABABABABABABABABABEF
:10016000ABABABABABABABABABABABABABABABABDF
:10017000ABABABABABABABABABABABABABABABABCF
:10018000ABABABABABABABABABABABABABABABABBF
:10019000ABABABABABABABABABABAB7171717171D1
:1001A000717171717171717171717171717171713F
:1001B000717171717171717171717171717171712F
:1001C000717171717171717171717171717171711F
:1001D000717171717171717171717171717171710F
:1001E00071717171717171717171717171717171FF
:1001F00071717171717171717171717171717171EF
:1002000071717171717171717171717171717171DE
:1002100071717171717171717171717171717171CE
:1002200071717171717171717171717171717171BE
:1002300071717171717171717171717171717171AE
:10024000717171717171717171717171717171719E
:10025000717171717171717171717171717171718E
:10026000717171717171717171717171717171717E
:10027000717171717171717171717171717171716E
:100280007171717171717171717171717171718E41
:100290008E8E8E8E8E8E8E8E8E8E8E8E8E8E8E8E7E
:1002A0008E8E8E8E8E8E8E8E8E8E8E8E8E8E8E8E6E
:1002B0008E8E8E8E8E8E8E8E8E8E8E8E8E8E8E8E5E
:1002C0008E8E8E8E8E8E8E8E8E8E8E8E8E8E8E8E4E
:1002D0008E8E8E8E8E8E8E8E8E8E8E8E8E8E8E8E3E
:1002E0008E8E8E8E8E8E8E8E8E8E8E8E8E8E8E8E2E
:1002F0008E8E8E8E8E8E8E8E8E8E8E8E8E8E8E8E1E
:100300008E8E8E8E8E8E8E8E8E8E8E8E8E8E8E8E0D
:100310008E8E8E8E8E8E8E8E8E8E8E8E8E8E8E8EFD
:100320008E8E8E8E8E8E8E8E8E8E8E8E8E8E8E8EED
:100330008E8E8E8E8E8E8E8E8E8E8E8E8E8E6F6F1B
:100340006F6F6F6F6F6F89898989898989898989B9
:10035000898989898989898989898989898989890D
:1003600089898989898989898989898989898989FD
:1003700089898989898989898989898989898989ED
:1003800089898989898989898989898989898989DD
:1003900089898989898989898989898989898989CD
:1003A00089898989898989898989898989898989BD
:1003B00089898989898989898989898989898989AD
:1003C0008989898989898989898989896A6A6A6A19
:1003D0006A6A6A6A6A6A6A6A6A6A6A6A8C8C8C8CF5
:1003E0008C8C8C8C8C8C8C8C8C8C8C8C8C8C8C8C4D
:1003F0008C8C8C8C8C8C8C8C8C8C8C8C8C8C8C8C3D
:100400008C8C8C8C8C8C8C8C8C8C8C8C8C8C8C8C2C
:100410008C8C8C8C8C8C8C8C8C8C8C8C8C8C8C8C1C
:100420008C8C8C8C8C8C8C8C8C8C8C8C8C8C8C8C0C
:100430007A7A7A7A7A7A7A7A7A7A7A7A7A7A7A7A1C
:100440007A7A7A7A7A7A7A7A7A7A7A7A7A7A7A7A0C
:100450007A7A7A7A7A7A7A7A7A7A7A7A7A7A7A7AFC
:100460007A7A7A8888888888888888888888888836
:1004700088888888888888888888888888888888FC
:10048000A5A5A5A5A5A5A5A5A5A5A5A5A5A5A58839
:1004900088888888888888888888888888888888DC
:1004A00088888888888888888888888888888888CC
:1004B000885F5FDCDC9C9CFFFFFFFFFFFFFFFFFF0F
:1004C000FFFFFFFEFEFEFEFDFDFDFDFCFCFCFBFB59
:1004D000FBFAFAF9F9F8F8F7F7F6F6F5F5F4F4F3AC
:1004E000F3F2F1F1F0EFEFEEEDEDECEBEBEAE9E832
:1004F000E8E7E6E5E4E4E3E2E1E0E0DFDEDDDCDBE3
:10050000DBDAD9D8D7D6D5D5D4D3D2D1D0CFCECDAA
:10051000CDCCCBCAC9C8C7C7C6C5C4C3C2C2C1C077
:10052000BFBEBDBDBCBBBABAB9B8B7B7B6B5B5B436
:10053000B3B3B2B1B1B0B0AFAEAEADADACACABABCE
:10054000AAAAAAA9A9A8A8A8A7A7A7A7A6A6A6A62F
:10055000A6A6A5A5A5A5A5A5A5A5A5A5A5A6A6A646
:10056000A6A6A7A7A7A7A8A8A8A9A9AAAAABABAC03
:10057000ACADADAEAFAFB0B1B1B2B3B4B5B6B6B766
:10058000B8B9BABBBCBDBEBFC0C2C3C4C5C6C8C96A
:10059000CACCCDCED0D1D2D4D5D7D8DADBDDDEE00F
:1005A000E2E3E5E7E8EAECEDEFF1F3F4F6F8FAFC64
:1005B000FEFEFFFEFCFAF8F6F4F2F0EEECEAE8E6F6
:1005C000E4E2E0DEDCDAD8D5D3D1CFCDCBC9C7C5E4
:1005D000C3C0BEBCBAB8B6B4B2B0ADABA9A7A5A3F0
:1005E000A19F9D9B99979592908E8C8A88868583F2
:1005F000817F7D7B7977757372706E6C6A696765D0
:100600006462605F5D5C5A585755545351504E4D6B
:100610004C4A4948474544434241403F3E3D3C3BAC
:100620003A3938383736363534343333323231317B
:10063000303030302F2F2F2F2F2F2F2F2F2F2F2FC6
:100640002F30303031313132323334343535363782
:100650003838393A3B3C3D3E3F40414344454648AB
:10066000494A4C4D4F5052545557585A5C5E606140
:10067000636567696B6D6F717376787A7C7E818351
:1006800085888A8D8F919496999B9EA1A3A6A9ABEC
:10069000AEB1B3B6B9BCBFC1C4C7CACDD0D3D6D82A
:1006A000DBDEE1E4E7EAEDF0F3F6F9FCFDFFFCF94F
:1006B000F6F3F0EDEAE7E4E1DEDBD8D5D1CECBC846
:1006C000C5C2BFBCB9B6B3B0ADAAA7A4A19E9B9842
:1006D0009693908D8A8785827F7C797774716F6C11
:1006E0006A6764625F5D5A585653514E4C4A48459A
:1006F00043413F3D3B39373533312F2D2B292826B8
:100700002423211F1E1C1B1A181716141312111054
:100710000E0D0C0B0A0A090807060605050403035B
:1007200003020202010101010101010101010101B4
:100730000102020203030404050506070708090A6B
:100740000B0C0D0E0F10111213141617181A1B1D77
:100750001E2021232526282A2B2D2F3133353739EA
:100760003B3D3F414346484A4C4F515356585B5DD1
:10077000606265676A6C6F7274777A7C7F82858845
:100780008A8D909396999C9FA1A4A7AAADB0B3B669
:10079000B9BCBFC2C5C8CBCFD2D5D8DBDEE1E4E758
:1007A000EAEDF0F3F6F9FCFDFFFCF9F6F3F0EDEA03
:1007B000E7E4E1DEDCD9D6D3D0CDCAC7C4C2BFBC22
:1007C000B9B6B4B1AEACA9A6A4A19E9C99979492D7
:1007D0008F8D8B888684817F7D7B78767472706E36
:1007E0006C6A68666462605F5D5B59585654535129
:1007F000504E4D4B4A49474645444341403F3E3D9C
:100800003C3B3B3A3938373736353534343333327D
:1008100032323131313131303030303030303131CD
:10082000313131323232333334343535363637388C
:1008300039393A3B3C3D3E3E3F40414244454647C4
:1008400048494B4C4D4F505153545557585A5B5D86
:100850005F6062636567686A6C6E6F7173757778E5
:100860007A7C7E80828486888A8C8E9092949698F8
:100870009A9C9EA0A2A4A6A8AAACAEB0B3B5B7B9E4
:10088000BBBDBFC1C3C5C7CACCCED0D2D4D6D8DABF
:10089000DCDEE0E2E4E6E8EAECEEF0F2F4F6F8FAA8
:1008A000FCFEFEFFFEFCFAF8F6F5F3F1EFEEECEAE3
:1008B000E9E7E5E4E2E0DFDDDCDAD9D7D6D5D3D26B
:1008C000D0CFCECCCBCAC9C7C6C5C4C3C2C1BFBEB8
:1008D000BDBCBBBABAB9B8B7B6B5B4B4B3B2B2B1AD
:1008E000B0B0AFAEAEADADACACABABABAAAAAAA943
:1008F000A9A9A8A8A8A8A8A8A8A7A7A7A7A7A7A77D
:10090000A7A8A8A8A8A8A8A8A9A9A9A9AAAAAAAB5B
:10091000ABACACACADADAEAEAFAFB0B0B1B1B2B3ED
:10092000B3B4B4B5B6B6B7B8B8B9BABBBBBCBDBE44
:10093000BEBFC0C1C1C2C3C4C5C6C6C7C8C9CACB71
:10094000CBCCCDCECFD0D1D1D2D3D4D5D6D7D7D88A
:10095000D9DADBDCDDDDDEDFE0E1E2E2E3E4E5E5A0
:10096000E6E7E8E9E9EAEBEBECEDEEEEEFF0F0F1CB
:10097000F1F2F3F3F4F4F5F5F6F7F7F8F8F8F9F91E
:10098000FAFAFBFBFBFCFCFCFDFDFDFDFEFEFEFEA2
:10099000FFFFFFFFFFFFFFFFFFFFFFFFFFFFFFFF67
:1009A000FFFFFFFFFFFFFFFFFFFFFFFFFFFFFFFF57
:1009B000FFFFFFFFFFFFFFFFFFFFFFFFFFFFFFFF47
:1009C000FFFFFFFFFFFFFFFFFFFFFFFFFFFFFFFF37
:1009D000FFFFFFFFFFFFFFFFFFFFFFFFFFFFFFFF27
:1009E000FFFFFFFFFFFFFFFFFFFFFFFFFFFFFFFF17
:1009F000FFFFFFFFFFFFFFFFFFFFFFFFFFFFFFFF07
:100A0000FFFFFFFFFFFFFFFFFFFFFFFFFFFFFFFFF6
:100A1000FFFFFFFFFFFFFFFFFFFFFFFFFFFFFFFFE6
:100A2000FFFFFFFFFFFFFFFFFFFFFFFFFFFFFFFFD6
:100A3000FFFFFFFFFFFFFFFFFFFFFFFFFEFEFEFECA
:100A4000FEFDFDFDFDFCFCFCFBFBFBFAFAFAF9F9EF
:100A5000F8F8F7F7F7F6F6F5F5F4F4F3F2F2F1F14A
:100A6000F0F0EFEEEEEDECECEBEAEAE9E8E8E7E6D1
:100A7000E5E5E4E3E2E2E1E0DFDFDEDDDCDBDADA7C
:100A8000D9D8D7D6D5D5D4D3D2D1D0D0CFCECDCC3E
:100A9000CBCAC9C9C8C7C6C5C4C3C3C2C1C0BFBE0B
:100AA000BDBCBCBBBAB9B8B7B7B6B5B4B3B3B2B1D5
:100AB000B0AFAFAEADACACABAAAAA9A8A7A7A6A58C
:100AC000A5A4A3A3A2A2A1A0A09F9F9E9E9D9D9C22
:100AD0009C9B9B9A9A9A999998989897979797968A
:100AE00096969695959595959595959594949494B7
:100AF00094949595959595959595969696969797A0
:100B00009798989899999A9A9A9B9B9C9D9D9E9E3E
:100B10009FA0A0A1A2A2A3A4A5A5A6A7A8A9AAAA8E
:100B2000ABACADAEAFB0B1B2B3B5B6B7B8B9BABB96
:100B3000BDBEBFC0C2C3C4C6C7C8CACBCDCECFD14D
:100B4000D2D4D5D7D8DADCDDDFE0E2E4E5E7E9EAC4
:100B5000ECEEEFF1F3F5F6F8FAFCFEF9FFFEFCFA25
:100B6000F8F6F4F2F1EFEDEBE9E7E5E3E1DFDDDBE9
:100B7000D9D7D5D3D1CFCDCBC9C7C5C3C1BFBDBBD5
:100B8000B9B7B5B3B1AFADABA9A7A5A3A19F9D9BC5
:100B900099979593918F8D8B8987868482807E7CAF
:100BA0007A78767573716F6D6C6A68666563615F7C
:100BB0005E5C5A5957555452514F4E4C4B4948461A
:100BC000454342413F3E3D3B3A3937363534333277
:100BD000302F2E2D2C2B2A29282726262524232288
:100BE000222120201F1E1E1D1D1C1C1B1B1A1A1932
:100BF000191918181818181717171717171717177C
:100C0000171718181818191919191A1A1B1B1C1C50
:100C10001D1D1E1E1F2021212223242425262728B6
:100C2000292A2B2C2D2E30313233343637383A3BAB
:100C30003C3E3F4142444547484A4C4D4F51525437
:100C400056585A5B5D5F61636567696B6D6F717361
:100C50007577797C7E80828487898B8D909294973A
:100C6000999B9EA0A3A5A8AAACAFB1B4B6B9BBBED0
:100C7000C1C3C6C8CBCDD0D3D5D8DADDE0E2E5E834
:100C8000EAEDF0F2F5F8FAFDFEFFFDFAF8F5F2F004
:100C9000EDEAE8E5E2E0DDDAD8D5D2D0CDCAC8C5C4
:100CA000C3C0BEBBB8B6B3B1AEACA9A7A4A29F9D4A
:100CB0009A989593918E8C8A878583807E7C7A77AB
:100CC0007573716F6C6A68666462605E5C5A5856D0
:100CD0005452504F4D4B4947464442413F3D3C3AA8
:100CE000393736343331302E2D2C2B292827262422
:100CF000232221201F1E1D1C1B1A19191817161636
:100D0000151414131212111110100F0F0F0E0E0ED6
:100D10000E0D0D0D0D0D0D0D0D0D0D0D0D0D0D0D02
:100D20000E0E0E0E0F0F0F101011111212131414BD
:100D3000151516171818191A1B1C1D1E1F20212205
:100D40002324252627282A2B2C2D2F3031333435E8
:100D500037383A3B3D3E404143444648494B4D4E6F
:100D60005052535557595B5C5E60626466686A6BAB
:100D70006D6F71737577797B7D7F818386888A8CAF
:100D80008E90929496989B9D9FA1A3A5A7AAACAE86
:100D9000B0B2B5B7B9BBBDBFC2C4C6C8CACCCFD14B
:100DA000D3D5D7D9DCDEE0E2E4E6E9EBEDEFF1F311
:100DB000F5F7F9FBFDF8FFFDFBF9F7F5F3F1EFEDC2
:100DC000ECEAE8E6E4E2E0DEDCDAD9D7D5D3D1D04C
:100DD000CECCCBC9C7C5C4C2C1BFBDBCBAB9B7B6FA
:100DE000B4B3B1B0AEADACAAA9A8A6A5A4A2A1A067
:100DF0009F9E9D9B9A999897969594939291908F88
:100E00008E8E8D8C8B8A8A89888887868685848455
:100E10008383828281818180807F7F7F7E7E7E7ED0
:100E20007D7D7D7D7D7D7D7D7C7C7C7C7C7C7D7DF8
:100E30007D7D7D7D7D7D7E7E7E7E7F7F7F808080CF
:100E40008181818282838384848585868687878861
:100E500089898A8B8B8C8D8D8E8F909091929393B4
:100E6000949596979798999A9B9C9D9E9E9FA0A1DA
:100E7000A2A3A4A5A6A7A8A9AAABACADAEAFB0B1DA
:100E8000B2B3B4B5B6B7B8B9BABBBCBDBEBFC0C1CA
:100E9000C2C3C4C5C6C7C8C9CACBCCCDCECFD0D1BA
:100EA000D2D3D4D5D6D7D8D9DADADBDCDDDEDFE0B1
:100EB000E1E2E2E3E4E5E6E7E7E8E9EAEBEBECEDC3
:100EC000EEEEEFF0F0F1F2F2F3F4F4F5F5F6F7F7F9
:100ED000F8F8F9F9FAFAFBFBFCFCFDFDFDFEFEFE5D
:100EE000FFFFFEFFFFFFFFFEFEFEFEFDFDFDFDFD21
:100EF000FDFDFCFCFCFCFCFCFCFCFCFCFCFCFCFC30
:100F0000FCFCFCFDFDFDFDFDFDFEFEFEFEFEFFFF0B
:100F1000FFFFFFFFFFFFFFFFFFFFFFFFFFFFFFFFE1
:100F2000FFFFFFFFFFFFFFFFFFFFFFFFFFFFFFFFD1
:100F3000FFFFFFFFFFFFFFFFFFFFFFFFFFFFFFFFC1
:100F4000FFFFFFFFFFFFFFFFFFFFFFFFFFFFFFFFB1
:100F5000FFFFFFFFFFFFFFFFFFFFFFFFFFFFFFFFA1
:100F6000FFFFFFFFFFFFFFFFFFFFFFFFFFFFFFFF91
:100F7000FFFFFFFFFFFFFFFFFFFFFFFFFFFFFFFF81
:100F8000FFFFFFFFFFFFFFFFFFFFFFFFFFFFFFFF71
:100F9000FFFFFFFFFFFFFFFFFFFFFFFFFFFFFFFF61
:100FA000FFFFFFFFFFFFFFFFFFFFFFFFFFFFFFFF51
:100FB000FFFFFFFFFFFEFEFEFEFEFDFDFDFDFCFC54
:100FC000FCFCFBFBFBFAFAFAF9F9F9F8F8F7F7F78A
:100FD000F6F6F5F5F4F4F3F3F2F2F1F1F0EFEFEEEB
:100FE000EEEDECECEBEBEAE9E9E8E7E7E6E5E5E472
:100FF000E3E2E2E1E0DFDFDEDDDCDCDBDAD9D9D819
:10100000D7D6D5D5D4D3D2D1D0D0CFCECDCCCBCBD3
:10101000CAC9C8C7C6C5C5C4C3C2C1C0BFBFBEBD9B
:10102000BCBBBAB9B9B8B7B6B5B4B3B3B2B1B0AF67
:10103000AEAEADACABAAA9A9A8A7A6A6A5A4A3A22B
:10104000A2A1A09F9F9E9D9D9C9B9B9A99999897DA
:10105000979695959494939292919190908F8F8E6C
:101060008E8D8D8C8C8B8B8B8A8A898989888888D8
:101070008787878786868686868585858585858513
:101080008584848484848484848485858585858519
:1010900085858686868687878787888888898989DF
:1010A0008A8A8B8B8C8C8D8D8E8E8F8F9091919266
:1010B000939394959596979899999A9B9C9D9E9FAA
:1010C0009FA0A1A2A3A4A5A6A7A8A9ABACADAEAFB3
:1010D000B0B1B3B4B5B6B7B9BABBBDBEBFC1C2C378
:1010E000C5C6C7C9CACCCDCFD0D2D3D5D6D8D9DB07
:1010F000DCDEE0E1E3E4E6E8E9EBEDEEF0F2F3F567
:10110000F7F9FAFCFEF8FFFEFCFAF8F7F5F3F1EF59
:10111000EDECEAE8E6E4E2E1DFDDDBD9D7D5D3D2D6
:10112000D0CECCCAC8C6C4C2C0BEBDBBB9B7B5B3A9
:10113000B1AFADABAAA8A6A4A2A09E9C9A99979580
:1011400093918F8D8B8A88868482807F7D7B79784E
:10115000767472706F6D6B6A68666463615F5E5C03
:101160005B5957565453514F4E4C4B494846454492
:1011700042413F3E3D3B3A38373635333231302EEF
:101180002D2C2B2A2927262524232221201F1E1D12
:101190001C1B1B1A191817161615141413121211EA
:1011A00010100F0F0E0E0D0D0C0C0B0B0B0A0A0A74
:1011B00009090909090808080808080808080808AA
:1011C0000808080808090909090A0A0A0A0B0B0C89
:1011D0000C0C0D0D0E0E0F1010111112131314150F
:1011E00016161718191A1B1B1C1D1E1F202122233F
:1011F00025262728292A2B2D2E2F30323334363717
:10120000383A3B3D3E404143444647494A4C4E4FA5
:101210005153545658595B5D5F61626466686A6BEE
:101220006D6F71737577797B7D7F81838587898BFE
:101230008D8F91939597999C9EA0A2A4A6A8ABADE3
:10124000AFB1B3B6B8BABCBEC1C3C5C7C9CCCED0A6
:10125000D2D5D7D9DBDEE0E2E4E7E9EBEDF0F2F45A
:10126000F6F9FBFDF6FFFDFBF9F7F4F2F0EEEBE922
:10127000E7E5E3E0DEDCDAD8D5D3D1CFCDCBC9C604
:10128000C4C2C0BEBCBAB8B6B4B2B0AEACAAA8A60E
:10129000A4A2A09E9C9A98969593918F8D8B8A88F4
:1012A000868483817F7E7C7A7977757472716F6DA5
:1012B0006C6A696866656362605F5E5C5B5A58571A
:1012C0005655535251504F4E4D4C4A49484746454A
:1012D0004444434241403F3E3E3D3C3B3B3A39392A
:1012E00038373736363535343433333232313131BD
:1012F000303030302F2F2F2F2F2E2E2E2E2E2E2E01
:101300002E2E2E2E2E2E2E2F2F2F2F2F30303030F0
:101310003131313232323333343435353636373792
:101320003838393A3A3B3C3C3D3E3E3F40414242F0
:1013300043444546474848494A4B4C4D4E4F50510F
:10134000525354565758595A5B5C5D5F60616263F3
:1013500065666768696B6C6D6F70717274757678AD
:10136000797A7C7D7F808183848587888A8B8C8E47
:101370008F919294959698999B9C9E9FA1A2A3A5CC
:10138000A6A8A9ABACAEAFB1B2B3B5B6B8B9BBBC49
:10139000BDBFC0C2C3C5C6C7C9CACCCDCED0D1D3CC
:1013A000D4D5D7D8D9DBDCDDDFE0E1E3E4E5E7E85D
:1013B000E9EAECEDEEEFF0F2F3F4F5F6F8F9FAFB0A
:1013C000FCFDFEFBFFFEFDFCFBFAF9F8F7F6F5F479
:1013D000F3F2F1F0EFEFEEEDECEBEAE9E9E8E7E646
:1013E000E5E5E4E3E2E2E1E0E0DFDEDEDDDCDCDBFC
:1013F000DBDADAD9D9D8D8D7D7D6D6D5D5D4D4D47C
:10140000D3D3D3D2D2D2D1D1D1D1D0D0D0D0D0D0C9
:10141000CFCFCFCFCFCFCFCFCFCFCFCFCFCFCFCFDC
:10142000CFCFCFCFCFCFCFCFCFD0D0D0D0D0D0D1C4
:10143000D1D1D1D2D2D2D2D3D3D3D4D4D4D5D5D57D
:10144000D6D6D7D7D7D8D8D9D9DADADADBDBDCDC0D
:10145000DDDDDEDEDFDFE0E1E1E2E2E3E3E4E4E57F
:10146000E6E6E7E7E8E9E9EAEAEBECECEDEEEEEFD9
:10147000EFF0F1F1F2F3F3F4F5F5F6F7F7F8F8F928
:10148000FAFAFBFCFCFDFEFEFFFFFFFFFFFFFFFF84
:10149000FFFFFFFFFFFFFFFFFFFFFFFFFFFFFFFF5C
:1014A000FFFFFFFFFFFFFFFFFFFFFFFFFFFFFFFF4C
:1014B000FFFFFFFFFFFFFFFFFFFFFFFFFFFFFFFF3C
:1014C000FFFFFFFFFFFFFFFFFFFFFFFFFFFFFFFF2C
:1014D000FFFFFFFFFFFFFFFFFFFFFFFFFFFFFFFF1C
:1014E000FFFFFFFFFFFFFFFFFFFFFFFFFFFFFFFF0C
:1014F000FFFFFFFFFFFFFFFFFFFFFFFFFFFFFFFFFC
:10150000FFFFFFFFFFFFFFFFFFFFFFFFFFFFFFFFEB
:10151000FFFFFFFFFFFFFFFFFFFFFFFFFFFFFFD208
:10152000CFCCC9C5C2BFBBB8B5B2AEABA8A5A19E52
:101530009B9895928E8B8885827F7C797673706D6F
:101540006A6865625F5C5A5754524F4D4A4845433A
:10155000403E3C39373533312F2D2B292725232188
:101560001F1E1C1A191716141312100F0E0D0C0B38
:101570000A09080706060504040303020201010123
:101580000101010001010101010102020303040440
:101590000506060708090A0B0C0D0E0F101213148E
:1015A0001617191A1C1E1F21232527292B2D2F3111
:1015B000333537393C3E404345484A4D4F525457E6
:1015C0005A5C5F6265686A6D707376797C7F82852C
:1015D000888B8E9295989B9EA1A5A8ABAEB2B5B80C
:1015E000BBBFC2C5C9CCCFFFFFFF00000000000099
:1015F00000240027002A0000000000250028002BFE
:101600000000000000230026002900040404040454
:10161000040404020202020202030303030303019F
:101620000204081020408001020408102001020476
:10163000081020000000070002010000030406005B
:101640000000000000000000910E201211241FBEB7
:10165000CFEFD8E0DEBFCDBF11E0A0E0B1E0EAE718
:10166000F7E202C005900D92A433B107D9F712E05A
:10167000A4E3B1E001C01D92A434B107E1F716E183
:10168000CCE4D6E104C02297FE010E94B713C8340F
:10169000D107C9F70E9476120C94BB130C9400007A
:1016A000CF93DF93C0E0D0E0E0913D01F0913E01A7
:1016B000E859FF4FE4918E2F90E0C817D90709F43D
:1016C000589AE0913F01F0914001E659FF4FE491B3
:1016D0008E2F90E0C817D90709F4599AE09141017B
:1016E000F0914201E459FF4FE4918E2F90E0C8172A
:1016F000D90709F45B9AE0914301F0914401E25962
:10170000FF4FE4918E2F90E0C817D90709F45C9A37
:10171000E0914501F0914601E059FF4FE4918E2F91
:1017200090E0C817D90709F45D9AE0914701F0915C
:101730004801EF54FB4FE4918E2F90E0C817D90772
:1017400009F45E9AE0914901F0914A01ED54FB4F92
:10175000E4918E2F90E0C817D90709F45F9AE091C1
:101760004B01F0914C01EB54FB4FE4918E2F90E034
:10177000C817D90709F4289AE0914D01F0914E015C
:10178000E954FB4FE4918E2F90E0C817D90709F474
:10179000299AE0914F01F0915001E15DF54FE491FC
:1017A0008E2F90E0C817D90709F42A9AE0915101C9
:1017B000F0915201E955F04FE4918E2F90E0C81757
:1017C000D90709F42B9AE0915301F0915401E15E9D
:1017D000FA4EE4918E2F90E0C817D90709F42C9A9D
:1017E000E0915501F0915601E951FA4EE4918E2FA6
:1017F00090E0C817D90709F42D9A0E94190F609339
:10180000590170935A0180935B0190935C010E948F
:10181000190F2091590130915A0140915B0150916B
:101820005C01621B730B840B950B2091200130919E
:101830002101442737FD4095542F62177307840711
:10184000950728F3219621E0C030D20709F02CCF6C
:101850000E94190F6093590170935A0180935B01A4
:1018600090935C010E94190F2091590130915A0107
:1018700040915B0150915C01621B730B840B950BD3
:10188000643671058105910568F3589859985B98FD
:101890005C985D985E985F98289829982A982B986C
:1018A0002C982D988091570190915801892B09F01F
:1018B0003FC080913D0190913E01019690933E0181
:1018C00080933D0180913F0190914001019690935A
:1018D000400180933F018091410190914201019626
:1018E0009093420180934101809143019091440182
:1018F000019690934401809343018091450190911A
:1019000046010196909346018093450180914701DD
:1019100090914801019690934801809347018091EE
:10192000490190914A01019690934A01809349019F
:1019300080915701909158010197B1F580914B0129
:1019400090914C01019690934C0180934B018091B2
:101950004D0190914E01019690934E0180934D015F
:1019600080914F0190915001019690935001809386
:101970004F01809151019091520101969093520133
:10198000809351018091530190915401019690935D
:101990005401809353018091550190915601019615
:1019A000909356018093550180913D0190913E01A5
:1019B000029721F410923E0110923D0180913F0167
:1019C00090914001029721F41092400110923F0142
:1019D0008091410190914201029721F410924201BD
:1019E000109241018091430190914401029721F4AA
:1019F000109244011092430180914501909146015B
:101A00008154944021F41092460110924501809136
:101A1000470190914801029721F4109248011092D9
:101A200047018091490190914A01029721F4109257
:101A30004A011092490180914B0190914C0102970B
:101A400021F410924C0110924B0180914D01909124
:101A50004E018A57954021F410924E0110924D018B
:101A600080914F01909150018857954021F4109238
:101A7000500110924F01809151019091520188576D
:101A8000954021F41092520110925101809153011E
:101A900090915401883C910521F4109254011092C8
:101AA00053018091550190915601069721F41092AF
:101AB000560110925501809157019091580101965D
:101AC0009093580180935701029721F41092580186
:101AD00010925701DF91CF910895EF92FF920F93EB
:101AE0001F930E940B0F611571058105910541F44B
:101AF0000E940B0F623071058105910508F471C0D9
:101B00000E940B0F9B01AC016093390170933A0165
:101B100080933B0190933C01809134019091350179
:101B2000A0913601B0913701281739074A075B07A2
:101B300040F42093340130933501409336015093A3
:101B400037018091340190913501A0913601B09117
:101B5000370179018A01E81AF90A0A0B1B0BD8012F
:101B6000C7018A3F9105A105B105D8F180913801DF
:101B70008823B9F520933401309335014093360121
:101B8000509337018EE591E00E94BF0E80918F0146
:101B90009091900160E071E00E945E1380918F014E
:101BA0009091900168E071E00E945E1300918F01B6
:101BB000109190010E940B0FAB01BC01C8012AE0FB
:101BC00030E00E944F1380918F01909190016AE064
:101BD00071E00E94611365E070E080E090E00E9497
:101BE0003F0F82E00E941210892B79F580915D01F0
:101BF000882369F50E94190F6093590170935A0167
:101C000080935B0190935C010E94190F2091590110
:101C100030915A0140915B0150915C01621B730B42
:101C2000840B950B2091220130912301442737FD2D
:101C30004095542F621773078407950728F30E9475
:101C4000500B81E080935D0102C010925D011F91F5
:101C50000F91FF90EF9008950F931F930EE511E001
:101C6000C80162E272E020E032EC41E050E00E9404
:101C7000920E60ED77E080E090E00E943F0FC80197
:101C80000E94BF0E80918F019091900161E171E0FF
:101C90000E9461136AE070E080E090E00E943F0FD4
:101CA000C80160E040E00E94900E82E060E00E9487
:101CB000D30F80E061E00E94D30F81E061E00E94D9
:101CC000D30F83E061E00E94D30F84E061E00E94C3
:101CD000D30F85E061E00E94D30F86E061E00E94AF
:101CE000D30F87E061E00E94D30F88E061E00E949B
:101CF000D30F89E061E00E94D30F8AE061E00E9487
:101D0000D30F8BE061E00E94D30F8CE061E00E9472
:101D1000D30F8DE061E00E94D30F1F910F910895C2
:101D200008950895FC0172AB61ABCB01BA01A90122
:101D30000E94EF100895CF93DF93EC01662339F0F2
:101D400015C063E070E080E090E00E943F0F0E94C9
:101D50000B0F29813A814B815C81621B730B840BD1
:101D6000950B643671058105910558F30E940B0FA0
:101D700069837A838B839C83DF91CF91089560E0A0
:101D80000E949B0E08951F920F920FB60F9211247E
:101D90002F933F938F939F93AF93BF938091950120
:101DA00090919601A0919701B0919801309199017D
:101DB0000196A11DB11D232F2D5F2D3720F02D572A
:101DC0000196A11DB11D20939901809395019093D7
:101DD0009601A0939701B093980180919101909101
:101DE0009201A0919301B09194010196A11DB11DA2
:101DF0008093910190939201A0939301B0939401E9
:101E0000BF91AF919F918F913F912F910F900FBEF6
:101E10000F901F9018958FB7F894209195013091ED
:101E2000960140919701509198018FBFB901CA0165
:101E300008959FB7F89420919101309192014091BB
:101E400093015091940186B5A89B06C08F3F21F065
:101E50002F5F3F4F4F4F5F4F9FBF542F432F322F66
:101E60002227280F311D411D511D82E0220F331FF3
:101E7000441F551F8A95D1F7B901CA0108959B01E6
:101E8000AC017FB7F8948091910190919201A0915B
:101E90009301B091940166B5A89B05C06F3F19F0FE
:101EA0000196A11DB11D7FBFBA2FA92F982F88279A
:101EB000860F911DA11DB11D62E0880F991FAA1FF9
:101EC000BB1F6A95D1F7BC012DC0FFB7F894809174
:101ED000910190919201A0919301B0919401E6B586
:101EE000A89B05C0EF3F19F00196A11DB11DFFBFD2
:101EF000BA2FA92F982F88278E0F911DA11DB11DD4
:101F0000E2E0880F991FAA1FBB1FEA95D1F7861B35
:101F1000970B885E9340C8F22150304040405040BB
:101F200068517C4F211531054105510571F6089521
:101F3000789484B5826084BD84B5816084BD85B5A4
:101F4000826085BD85B5816085BDEEE6F0E080816B
:101F500081608083E1E8F0E010828081826080838C
:101F6000808181608083E0E8F0E08081816080830F
:101F7000E1EBF0E0808184608083E0EBF0E0808141
:101F800081608083EAE7F0E08081846080838081E3
:101F9000826080838081816080838081806880838B
:101FA0001092C1000895CF93DF93482F50E0CA01EB
:101FB000815E994EFC013491455F594EFA0184913E
:101FC000882369F190E0880F991FFC01E351FA4ED4
:101FD000A591B491FC01E950FA4EC591D4916623C4
:101FE00051F42FB7F8948C91932F909589238C936B
:101FF000888189230BC0623061F42FB7F8948C91EB
:10200000932F909589238C938881832B88832FBF6E
:1020100006C09FB7F8948C91832B8C939FBFDF9160
:10202000CF910895682F70E0CB018D5C994EFC0133
:102030002491CB01815E994EFC014491655F794EFC
:10204000FB019491992319F420E030E03CC0222355
:1020500051F1233071F0243028F42130A1F02230E6
:1020600011F514C02630B1F02730C1F02430D9F476
:1020700004C0809180008F7703C0809180008F7DA5
:102080008093800010C084B58F7702C084B58F7DA7
:1020900084BD09C08091B0008F7703C08091B000EB
:1020A0008F7D8093B000892F90E0880F991F8F5FFC
:1020B000994EFC01A591B4918C9120E030E08423ED
:1020C00011F021E030E0C901089508951F920F92A8
:1020D0000FB60F9211242F933F934F938F939F939B
:1020E000EF93FF938091C00082FD1DC04091C60018
:1020F0002091DA013091DB012F5F3F4F2F73307059
:102100008091DC019091DD012817390771F0E09191
:10211000DA01F091DB01E656FE4F40833093DB019C
:102120002093DA0102C08091C600FF91EF919F9148
:102130008F914F913F912F910F900FBE0F901F9055
:102140001895E0912E02F0912F02E05CFF4F8191F3
:10215000919120813181821B930B8F739070892B19
:1021600011F00E94651008951F920F920FB60F9202
:1021700011242F933F938F939F93EF93FF9320917D
:102180001E0230911F028091200290912102281797
:10219000390731F48091C1008F7D8093C10014C054
:1021A000E0912002F0912102E252FE4F20818091C5
:1021B00020029091210201968F73907090932102DA
:1021C000809320022093C600FF91EF919F918F9101
:1021D0003F912F910F900FBE0F901F901895AF92C7
:1021E000BF92DF92EF92FF920F931F93CF93DF93F3
:1021F000EC017A018B01DD24403081EE580780E04C
:10220000680780E0780711F0DD24D39491E0A92ECF
:10221000B12CEC89FD89DD2069F0C50108A002C060
:10222000880F991F0A94E2F7808360E079E08DE3DC
:1022300090E005C0108260E874E88EE190E0A801AB
:1022400097010E94931321503040404050405695D2
:1022500047953795279580E12030380720F0DD201D
:1022600011F0DD24D6CFE889F9893083EA89FB892A
:10227000208319A2EE89FF89408121E030E0C90165
:102280000C8C02C0880F991F0A94E2F7482B4083F8
:10229000EE89FF894081C9010D8C02C0880F991F0A
:1022A0000A94E2F7482B4083EE89FF894081C901F7
:1022B0000E8C02C0880F991F0A94E2F7482B4083C6
:1022C000EE89FF8980810F8C02C0220F331F0A9490
:1022D000E2F7209528232083DF91CF911F910F9162
:1022E000FF90EF90DF90BF90AF900895DC011C96B7
:1022F000ED91FC911D97E05CFF4F21913191808120
:102300009181281B390B2F733070C9010895DC01AE
:102310001C96ED91FC911D97E05CFF4F208131816F
:10232000E054F040DF01AE5BBF4F8D919C9111975F
:102330002817390719F42FEF3FEF07C08D919C91B3
:10234000E80FF91F8081282F30E0C9010895DC01D2
:102350001C96ED91FC911D97E05CFF4F208131812F
:10236000E054F040DF01AE5BBF4F8D919C9111971F
:102370002817390719F42FEF3FEF10C08D919C916A
:102380001197E80FF91F20818D919C91119701966B
:102390008F73907011969C938E9330E0C9010895CD
:1023A000DC0191968C919197882339F05496ED91A8
:1023B000FC915597808186FFF9CF91961C920895E4
:1023C000CF93DF93EC01EE85FF85E05CFF4F20812A
:1023D0003181E054F0402F5F3F4F2F733070DF01A9
:1023E000AE5BBF4F8D919C91119728173907D1F3A0
:1023F000E05CFF4F80819181E054F040E80FF91FCD
:102400006083EE85FF85E05CFF4F31832083EE899A
:10241000FF89208181E090E00F8C02C0880F991F16
:102420000A94E2F7282B208381E089A3EC89FD89B7
:1024300080818064808381E090E0DF91CF91089576
:10244000109225021092240288EE93E0A0E0B0E002
:102450008093260290932702A0932802B09329022A
:1024600088E291E090932302809322028AE991E02E
:1024700090932F0280932E028EED91E09093310283
:102480008093300285EC90E0909333028093320287
:1024900084EC90E0909335028093340280EC90E0DD
:1024A000909337028093360281EC90E0909339024A
:1024B0008093380282EC90E090933B0280933A0242
:1024C00086EC90E090933D0280933C0284E0809300
:1024D0003E0283E080933F0287E08093400285E0E4
:1024E0008093410281E0809342020895CF93DF936D
:1024F0000E94980F0E942C0EC1EAD0E10E946D0D3F
:102500002097E1F30E94A110F9CFCF92DF92EF92D2
:10251000FF920F931F93CF93DF937C016B018A018E
:10252000C0E0D0E00FC0D6016D916D01D701ED91F3
:10253000FC910190F081E02DC7010995C80FD91FCA
:10254000015010400115110571F7CE01DF91CF91B7
:102550001F910F91FF90EF90DF90CF900895EF9231
:10256000FF920F931F938C01DC01ED91FC91019080
:10257000F081E02D6DE009957C01D801ED91FC9191
:102580000190F081E02DC8016AE009959C012E0DB3
:102590003F1DC9011F910F91FF90EF900895CF93B8
:1025A000DF93EC016115710519F420E030E00FC0F4
:1025B000DB010D900020E9F71197A61BB70BE8810E
:1025C000F9810280F381E02DAD0109959C01C901DB
:1025D000DF91CF9108954F925F927F928F929F9259
:1025E000AF92BF92CF92DF92EF92FF920F931F9321
:1025F000DF93CF93CDB7DEB7A1970FB6F894DEBFC8
:102600000FBECDBF2C01742ECB01223008F42AE07E
:1026100019A231E2C32ED12CCC0EDD1E822E9924BC
:10262000AA24BB24672D752FA50194010E94931342
:1026300079018A01C801B701A50194010E947413B0
:10264000472D461B0894C108D1084A3014F4405D58
:1026500001C0495CF6014083E114F1040105110554
:1026600021F07E2C5F2DC801DDCFC201B6010E9492
:10267000CF12A1960FB6F894DEBF0FBECDBFCF919B
:10268000DF911F910F91FF90EF90DF90CF90BF905F
:10269000AF909F908F907F905F904F900895DC0156
:1026A0002115310541F4ED91FC910190F081E02D6F
:1026B000642F099508950E94EB1208950E94CF128D
:1026C0000895EF92FF920F931F937C010E94CF1207
:1026D0008C01C7010E94AF12080F191FC8011F917A
:1026E0000F91FF90EF900895629FD001739FF001CA
:1026F000829FE00DF11D649FE00DF11D929FF00D92
:10270000839FF00D749FF00D659FF00D9927729FC8
:10271000B00DE11DF91F639FB00DE11DF91FBD0153
:10272000CF0111240895A1E21A2EAA1BBB1BFD01A3
:102730000DC0AA1FBB1FEE1FFF1FA217B307E407A0
:10274000F50720F0A21BB30BE40BF50B661F771FF8
:10275000881F991F1A9469F76095709580959095D8
:102760009B01AC01BD01CF010895EE0FFF1F059045
:0A277000F491E02D0994F894FFCFD6
:10277A00564D4450455F31007C005F564D445045EC
:10278A0000564D4450565F317C5F564D44505600BA
:10279A000B00200300000000E01185127611A7113A
:0427AA008711D011B2
:00000001FF
