:100000000C94DA030C9402040C9402040C94020481
:100010000C9402040C9402040C9402040C94020448
:100020000C9402040C9402040C9402040C94020438
:100030000C9402040C9402040C9402040C94020428
:100040000C9473070C9402040C9416090C94640924
:100050000C9402040C9402040C9402040C94020408
:100060000C9402040C940204FFFFFFFFFFFFFFFF4C
:10007000FFFFFFFFFEFEFEFEFEFEFEFEFEFEFEFE9C
:10008000FEFEFEFEFEFEFEFEFEFEFEFEFEFEFEFE90
:10009000FEFEFEFEFEFEFEFEFEFEFEFEFEFEFEFE80
:1000A000FEFEFEFEFEFEFEFEFEFEFEFEFEFEFEFE70
:1000B000FEFEFEFEFEFEFEFEFEFEFEFEFEFEFEFE60
:1000C000FEFEFEFEFEFEFEFEFEFEFEFEFEFEFEFE50
:1000D000FEFEFEFEFEFEFEFEFEFEFEFEFEFEFEFE40
:1000E000FEFEFEFEFEFEFEFEFEFEFEFEFEFEFEFE30
:1000F000FEFEFEFEFEFEFEFEFEFEFEFEFEFEFEFE20
:10010000FEFEFEFEFEFEFEFEFEFEFEFEFEFEFEFE0F
:10011000FEFEFEFEFEFEFEFEFEFEFEFEFEFEFEFEFF
:10012000FEFEFEFEFEFEFEFEFEFEFEFEFEFEFEFEEF
:10013000FEFEFEFEFEFEFEFEFEFEFEFEFEFEFEFEDF
:10014000FEFEFEFEFEFEFEFEFEFEFEFEFEFEFEFECF
:10015000FEFEFEFEFEFEFEFEFEFEFEFEFEFEFEFEBF
:10016000FEFEFEFEFEFEFEFEFEFEFEFEFEFEFFFFAD
:10017000FEFEFDFDFCFCFBFBFAFAF9F9F8F7F7F6D9
:10018000F6F5F5F4F4F3F3F2F2F1F1F0EFEFEEEE51
:10019000EDEDECECEBEBEAEAE9E9E8E8E7E6E6E5C9
:1001A000E5E4E4E3E3E2E2E1E1E0E0DFDEDEDDDD41
:1001B000DCDCDBDBDADAD9D9D8D8D7D7D6D6D5D4B8
:1001C000D4D3D3D2D2D1D1D0D0CFCFCECECDCDCC2F
:1001D000CCCBCACAC9C9C8C8C7C7C6C6C5C5C4C4A6
:1001E000C3C3C2C2C1C1C0C0BFBFBEBEBDBCBCBB19
:1001F000BBBABAB9B9B8B8B7B7B6B6B5B5B4B4B38F
:10020000B3B2B2B1B1B0B0AFAFAEAEADADACACABFE
:10021000ABAAAAA9A9A8A8A7A7A6A6A5A5A4A4A36E
:10022000A3A2A2A1A1A0A09F9F9E9E9D9D9C9C9BDE
:100230009B9A9A999998989797969695959494934E
:1002400093929291919190908F8F8E8E8D8D8C8CB8
:100250008B8B8A8A89898888878787868685858423
:10026000848383828281818080807F7F7E7E7D7D8A
:100270007C7C7B7B7A7A7A797978787777767676F0
:10028000757574747373727271717170706F6F6E53
:100290006E6E6D6D6C6C6B6B6A6A6A6969686867B3
:1002A0006767666665656464646363626262616110
:1002B00060605F5F5F5E5E5D5D5D5C5C5B5B5B5A6B
:1002C0005A595958585857575656565555545454C4
:1002D000535353525251515150504F4F4F4E4E4D18
:1002E0004D4D4C4C4C4B4B4A4A4A4949494848476A
:1002F00047474646464545454444434343424242B8
:100300004141414040403F3F3E3E3E3D3D3D3C3C03
:100310003C3B3B3B3A3A3A3939393838383737374A
:10032000363636353535343434333333323232328F
:100330003131313030302F2F2F2E2E2E2D2D2D2DCF
:100340002C2C2C2B2B2B2B2A2A2A2929292828280C
:100350002827272726262626252525252424242345
:100360002323232222222221212121202020201F79
:100370001F1F1F1E1E1E1E1D1D1D1D1C1C1C1C1BA9
:100380001B1B1B1A1A1A1A191919191918181818D7
:100390001717171717161616161515151515141401
:1003A0001414141313131313121212121211111125
:1003B00011111010101010100F0F0F0F0F0F0E0E45
:1003C0000E0E0E0D0D0D0D0D0D0C0C0C0C0C0C0C61
:1003D0000B0B0B0B0B0B0A0A0A0A0A0A0A0909097A
:1003E000090909090908080808080808070707078C
:1003F000070707070706060606060606060605059A
:1004000005050505050505050404040404040404A4
:1004100004040403030303030303030303030303A9
:1004200003020202020202020202020202020202AB
:1004300002020101010101010101010101010101AA
:10044000010101010101010101010101010101019C
:10045000010101010101010101010101000101018D
:10046000010101010101010101010101010101017C
:10047000010101010101010101010101010101016C
:100480000101010101010102020202020202020253
:100490000202020202020202030303030303030334
:1004A0000303030303030404040404040404040412
:1004B00004050505050505050505050606060606E8
:1004C00006060606070707070707070707080808BD
:1004D0000808080809090909090909090A0A0A0A8C
:1004E0000A0A0A0B0B0B0B0B0B0C0C0C0C0C0C0C58
:1004F0000D0D0D0D0D0D0E0E0E0E0E0F0F0F0F0F1D
:100500000F101010101010111111111112121212DF
:10051000121313131313141414141415151515159D
:100520001616161617171717171818181819191955
:1005300019191A1A1A1A1B1B1B1B1C1C1C1C1D1D0B
:100540001D1D1E1E1E1E1F1F1F1F202020202121BB
:10055000212122222222232323232424242525256A
:100560002526262626272727282828282929292A14
:100570002A2A2B2B2B2B2C2C2C2D2D2D2D2E2E2EB9
:100580002F2F2F303030313131323232323333335A
:1005900034343435353536363637373738383839F8
:1005A00039393A3A3A3B3B3B3C3C3C3D3D3D3E3E93
:1005B0003E3F3F4040404141414242424343434429
:1005C0004445454546464647474748484949494ABC
:1005D0004A4A4B4B4C4C4C4D4D4D4E4E4F4F4F504D
:1005E00050515151525253535354545455555656D9
:1005F00056575758585859595A5A5B5B5B5C5C5D63
:100600005D5D5E5E5F5F5F606061616262626363E9
:1006100064646465656666676767686869696A6A6D
:100620006A6B6B6C6C6D6D6E6E6E6F6F70707171EE
:10063000717272737374747575767676777778786D
:1006400079797A7A7A7B7B7C7C7D7D7E7E7F7F80E8
:100650008080818182828383848485858686878762
:1006600087888889898A8A8B8B8C8C8D8D8E8E8FDA
:100670008F90909191919292939394949595969650
:100680009797989899999A9A9B9B9C9C9D9D9E9EC2
:100690009F9FA0A0A1A1A2A2A3A3A4A4A5A5A6A632
:1006A000A7A7A8A8A9A9AAAAABABACACADADAEAEA2
:1006B000AFAFB0B0B1B1B2B2B3B3B4B4B5B5B6B612
:1006C000B7B7B8B8B9B9BABABBBBBCBCBDBEBEBF80
:1006D000BFC0C0C1C1C2C2C3C3C4C4C5C5C6C6C7EA
:1006E000C7C8C8C9C9CACACBCCCCCDCDCECECFCF56
:1006F000D0D0D1D1D2D2D3D3D4D4D5D6D6D7D7D8BF
:10070000D8D9D9DADADBDBDCDCDDDDDEDEDFE0E028
:10071000E1E1E2E2E3E3E4E4E5E5E6E6E7E8E8E98F
:10072000E9EAEAEBEBECECEDEDEEEEEFEFF0F1F1F8
:10073000F2F2F3F3F4F4F5F5F6F6F7F7F8F9F9FA5F
:10074000FAFBFBFCFCFDFDFEFEFFFFFFFFFFFFFFD2
:10075000FFFFFFFFFFF700000000240027002A0032
:1007600000000000250028002B00000000002300EE
:100770002600290004040404040404040202020202
:100780000202030303030303010204081020408054
:1007900001020408102001020408102000000007D4
:1007A0000002010000030406000000000000000039
:1007B0004107D00A11241FBECFEFD8E0DEBFCDBF66
:1007C00011E0A0E0B1E0EAEDF8E102C005900D9281
:1007D000A433B107D9F712E0A4E3B1E001C01D9240
:1007E000A434B107E1F717E0C4EBD7E004C02297C7
:1007F000FE010E94670CC03BD107C9F70E94260B7F
:100800000C946B0C0C940000CF93DF93C0E0D0E00D
:10081000E0913D01F0913E01E859FF4FE4918E2FA8
:1008200090E0C817D90709F4589AE0913F01F09178
:100830004001E659FF4FE4918E2F90E0C817D90789
:1008400009F4599AE0914101F0914201E459FF4FB6
:10085000E4918E2F90E0C817D90709F45B9AE091D4
:100860004301F0914401E259FF4FE4918E2F90E053
:10087000C817D90709F45C9AE0914501F091460147
:10088000E059FF4FE4918E2F90E0C817D90709F483
:100890005D9AE0914701F0914801EE58FF4FE491D5
:1008A0008E2F90E0C817D90709F45E9AE0914901AC
:1008B000F0914A01EC58FF4FE4918E2F90E0C81759
:1008C000D90709F45F9AE0914B01F0914C01E65B86
:1008D000F84FE4918E2F90E0C817D90709F4289AB1
:1008E000E0914D01F0914E01E45BF84FE4918E2FC1
:1008F00090E0C817D90709F4299AE0914F01F091C7
:100900005001E25BF84FE4918E2F90E0C817D907B1
:1009100009F42A9AE0915101F0915201E05BF84FFD
:10092000E4918E2F90E0C817D90709F42B9AE09133
:100930005301F0915401EE5AF84FE4918E2F90E05C
:10094000C817D90709F42C9AE0915501F091560186
:10095000EC5AF84FE4918E2F90E0C817D90709F4AC
:100960002D9A0E94C9076093590170935A01809390
:100970005B0190935C010E94C9072091590130915D
:100980005A0140915B0150915C01621B730B840B17
:10099000950B2091200130912101442737FD40958E
:1009A000542F621773078407950728F3219621E0D7
:1009B000C030D20709F02CCF0E94C90760935901BB
:1009C00070935A0180935B0190935C010E94C90768
:1009D0002091590130915A0140915B0150915C0185
:1009E000621B730B840B950B6436710581059105B1
:1009F00068F3589859985B985C985D985E985F98F2
:100A0000289829982A982B982C982D9880915701EE
:100A100090915801892B09F03FC080913D01909140
:100A20003E01019690933E0180933D0180913F01EC
:100A30009091400101969093400180933F018091F5
:100A400041019091420101969093420180934101AE
:100A500080914301909144010196909344018093C9
:100A60004301809145019091460101969093460182
:100A700080934501809147019091480101969093A0
:100A80004801809347018091490190914A01019664
:100A900090934A01809349018091570190915801A8
:100AA0000197B1F580914B0190914C010196909383
:100AB0004C0180934B0180914D0190914E01019624
:100AC00090934E0180934D0180914F019091500180
:100AD00001969093500180934F0180915101909124
:100AE00052010196909352018093510180915301DC
:100AF00090915401019690935401809353018091F9
:100B0000550190915601019690935601809355019D
:100B100080913D0190913E01029721F410923E0197
:100B200010923D0180913F0190914001029721F484
:100B30001092400110923F01809141019091420139
:100B4000029721F4109242011092410180914301D9
:100B500090914401029721F41092440110924301B4
:100B60008091450190914601029721F4109246012F
:100B7000109245018091470190914801029721F41C
:100B800010924801109247018091490190914A01C9
:100B9000865D964021F410924A011092490180919D
:100BA0004B0190914C01029721F410924C0110924C
:100BB0004B0180914D0190914E01029721F41092CA
:100BC0004E0110924D0180914F019091500102977A
:100BD00021F41092500110924F0180915101909197
:100BE0005201029721F4109252011092510180910A
:100BF000530190915401029721F4109254011092E4
:100C000053018091550190915601029721F4109261
:100C1000560110925501809157019091580101960B
:100C20009093580180935701029721F41092580134
:100C300010925701DF91CF910895EF92FF920F9399
:100C40001F930E94BB07611571058105910541F451
:100C50000E94BB07623071058105910508F471C0DF
:100C60000E94BB079B01AC016093390170933A016C
:100C700080933B0190933C01809134019091350128
:100C8000A0913601B0913701281739074A075B0751
:100C900040F4209334013093350140933601509352
:100CA00037018091340190913501A0913601B091C6
:100CB000370179018A01E81AF90A0A0B1B0BD801DE
:100CC000C7018A3F9105A105B105D8F1809138018E
:100CD0008823B9F5209334013093350140933601D0
:100CE000509337018EE591E00E946F0780918F014C
:100CF0009091900160E071E00E940E0C80918F0154
:100D00009091900168E071E00E940E0C00918F01BB
:100D1000109190010E94BB07AB01BC01C8012AE001
:100D200030E00E94FF0B80918F01909190016AE06A
:100D300071E00E94110C65E070E080E090E00E949C
:100D4000EF0782E00E94C208892B79F580915D014E
:100D5000882369F50E94C9076093590170935A016D
:100D600080935B0190935C010E94C9072091590117
:100D700030915A0140915B0150915C01621B730BF1
:100D8000840B950B2091220130912301442737FDDC
:100D90004095542F621773078407950728F30E9424
:100DA000040481E080935D0102C010925D011F91F7
:100DB0000F91FF90EF9008950F931F930EE511E0B0
:100DC000C80162E272E020E032EC41E050E00E94B3
:100DD000420760ED77E080E090E00E94EF07C801F5
:100DE0000E946F0780918F019091900161E171E005
:100DF0000E94110C6AE070E080E090E00E94EF0732
:100E0000C80160E040E00E94400782E060E00E948C
:100E1000830880E061E00E94830881E061E00E9435
:100E2000830883E061E00E94830884E061E00E941F
:100E3000830885E061E00E94830886E061E00E940B
:100E4000830887E061E00E94830888E061E00E94F7
:100E5000830889E061E00E9483088AE061E00E94E3
:100E600083088BE061E00E9483088CE061E00E94CF
:100E700083088DE061E00E9483081F910F9108951F
:100E800008950895FC0172AB61ABCB01BA01A901D1
:100E90000E949F090895CF93DF93EC01662339F0F8
:100EA00015C063E070E080E090E00E94EF070E94D0
:100EB000BB0729813A814B815C81621B730B840BD8
:100EC000950B643671058105910558F30E94BB07A7
:100ED00069837A838B839C83DF91CF91089560E04F
:100EE0000E944B0708951F920F920FB60F92112484
:100EF0002F933F938F939F93AF93BF9380919501CF
:100F000090919601A0919701B0919801309199012B
:100F10000196A11DB11D232F2D5F2D3720F02D57D8
:100F20000196A11DB11D2093990180939501909385
:100F30009601A0939701B0939801809191019091AF
:100F40009201A0919301B09194010196A11DB11D50
:100F50008093910190939201A0939301B093940197
:100F6000BF91AF919F918F913F912F910F900FBEA5
:100F70000F901F9018958FB7F8942091950130919C
:100F8000960140919701509198018FBFB901CA0114
:100F900008959FB7F894209191013091920140916A
:100FA00093015091940186B5A89B06C08F3F21F014
:100FB0002F5F3F4F4F4F5F4F9FBF542F432F322F15
:100FC0002227280F311D411D511D82E0220F331FA2
:100FD000441F551F8A95D1F7B901CA0108959B0195
:100FE000AC017FB7F8948091910190919201A0910A
:100FF0009301B091940166B5A89B05C06F3F19F0AD
:101000000196A11DB11D7FBFBA2FA92F982F882748
:10101000860F911DA11DB11D62E0880F991FAA1FA7
:10102000BB1F6A95D1F7BC012DC0FFB7F894809122
:10103000910190919201A0919301B0919401E6B534
:10104000A89B05C0EF3F19F00196A11DB11DFFBF80
:10105000BA2FA92F982F88278E0F911DA11DB11D82
:10106000E2E0880F991FAA1FBB1FEA95D1F7861BE4
:10107000970B885E9340C8F221503040404050406A
:1010800068517C4F211531054105510571F60895D0
:10109000789484B5826084BD84B5816084BD85B553
:1010A000826085BD85B5816085BDEEE6F0E080811A
:1010B00081608083E1E8F0E010828081826080833B
:1010C000808181608083E0E8F0E0808181608083BE
:1010D000E1EBF0E0808184608083E0EBF0E08081F0
:1010E00081608083EAE7F0E0808184608083808192
:1010F000826080838081816080838081806880833A
:101100001092C1000895CF93DF93482F50E0CA0199
:101110008857984FFC0134914C58584FFA018491EC
:10112000882369F190E0880F991FFC01EA5AF84F73
:10113000A591B491FC01E05AF84FC591D491662372
:1011400051F42FB7F8948C91932F909589238C9319
:10115000888189230BC0623061F42FB7F8948C9199
:10116000932F909589238C938881832B88832FBF1D
:1011700006C09FB7F8948C91832B8C939FBFDF910F
:10118000CF910895682F70E0CB018456984FFC01F1
:101190002491CB018857984FFC0144916C58784FAB
:1011A000FB019491992319F420E030E03CC0222304
:1011B00051F1233071F0243028F42130A1F0223095
:1011C00011F514C02630B1F02730C1F02430D9F425
:1011D00004C0809180008F7703C0809180008F7D54
:1011E0008093800010C084B58F7702C084B58F7D56
:1011F00084BD09C08091B0008F7703C08091B0009A
:101200008F7D8093B000892F90E0880F991F8659B9
:10121000984FFC01A591B4918C9120E030E084239B
:1012200011F021E030E0C901089508951F920F9256
:101230000FB60F9211242F933F934F938F939F9349
:10124000EF93FF938091C00082FD1DC04091C600C6
:101250002091DA013091DB012F5F3F4F2F73307007
:101260008091DC019091DD012817390771F0E09140
:10127000DA01F091DB01E656FE4F40833093DB014B
:101280002093DA0102C08091C600FF91EF919F91F7
:101290008F914F913F912F910F900FBE0F901F9004
:1012A0001895E0912E02F0912F02E05CFF4F8191A2
:1012B000919120813181821B930B8F739070892BC8
:1012C00011F00E94150908951F920F920FB60F9208
:1012D00011242F933F938F939F93EF93FF9320912C
:1012E0001E0230911F028091200290912102281746
:1012F000390731F48091C1008F7D8093C10014C003
:10130000E0912002F0912102E252FE4F2081809173
:1013100020029091210201968F7390709093210288
:10132000809320022093C600FF91EF919F918F91AF
:101330003F912F910F900FBE0F901F901895AF9275
:10134000BF92DF92EF92FF920F931F93CF93DF93A1
:10135000EC017A018B01DD24403081EE580780E0FA
:10136000680780E0780711F0DD24D39491E0A92E7E
:10137000B12CEC89FD89DD2069F0C50108A002C00F
:10138000880F991F0A94E2F7808360E079E08DE38B
:1013900090E005C0108260E874E88EE190E0A8015A
:1013A00097010E94430C21503040404050405695D8
:1013B00047953795279580E12030380720F0DD20CC
:1013C00011F0DD24D6CFE889F9893083EA89FB89D9
:1013D000208319A2EE89FF89408121E030E0C90114
:1013E0000C8C02C0880F991F0A94E2F7482B4083A7
:1013F000EE89FF894081C9010D8C02C0880F991FB9
:101400000A94E2F7482B4083EE89FF894081C901A5
:101410000E8C02C0880F991F0A94E2F7482B408374
:10142000EE89FF8980810F8C02C0220F331F0A943E
:10143000E2F7209528232083DF91CF911F910F9110
:10144000FF90EF90DF90BF90AF900895DC011C9665
:10145000ED91FC911D97E05CFF4F219131918081CE
:101460009181281B390B2F733070C9010895DC015D
:101470001C96ED91FC911D97E05CFF4F208131811E
:10148000E054F040DF01AE5BBF4F8D919C9111970E
:101490002817390719F42FEF3FEF07C08D919C9162
:1014A000E80FF91F8081282F30E0C9010895DC0181
:1014B0001C96ED91FC911D97E05CFF4F20813181DE
:1014C000E054F040DF01AE5BBF4F8D919C911197CE
:1014D0002817390719F42FEF3FEF10C08D919C9119
:1014E0001197E80FF91F20818D919C91119701961A
:1014F0008F73907011969C938E9330E0C90108957C
:10150000DC0191968C919197882339F05496ED9156
:10151000FC915597808186FFF9CF91961C92089592
:10152000CF93DF93EC01EE85FF85E05CFF4F2081D8
:101530003181E054F0402F5F3F4F2F733070DF0157
:10154000AE5BBF4F8D919C91119728173907D1F34E
:10155000E05CFF4F80819181E054F040E80FF91F7B
:101560006083EE85FF85E05CFF4F31832083EE8949
:10157000FF89208181E090E00F8C02C0880F991FC5
:101580000A94E2F7282B208381E089A3EC89FD8966
:1015900080818064808381E090E0DF91CF91089525
:1015A000109225021092240288EE93E0A0E0B0E0B1
:1015B0008093260290932702A0932802B0932902D9
:1015C00088E291E090932302809322028AE991E0DD
:1015D00090932F0280932E028EED91E09093310232
:1015E0008093300285EC90E0909333028093320236
:1015F00084EC90E0909335028093340280EC90E08C
:10160000909337028093360281EC90E090933902F8
:101610008093380282EC90E090933B0280933A02F0
:1016200086EC90E090933D0280933C0284E08093AE
:101630003E0283E080933F0287E08093400285E092
:101640008093410281E0809342020895CF93DF931B
:101650000E9448080E94DC06C1E5D9E00E941D06F0
:101660002097E1F30E945109F9CFCF92DF92EF92D8
:10167000FF920F931F93CF93DF937C016B018A013D
:10168000C0E0D0E00FC0D6016D916D01D701ED91A2
:10169000FC910190F081E02DC7010995C80FD91F79
:1016A000015010400115110571F7CE01DF91CF9166
:1016B0001F910F91FF90EF90DF90CF900895EF92E0
:1016C000FF920F931F938C01DC01ED91FC9101902F
:1016D000F081E02D6DE009957C01D801ED91FC9140
:1016E0000190F081E02DC8016AE009959C012E0D62
:1016F0003F1DC9011F910F91FF90EF900895CF9367
:10170000DF93EC016115710519F420E030E00FC0A2
:10171000DB010D900020E9F71197A61BB70BE881BC
:10172000F9810280F381E02DAD0109959C01C90189
:10173000DF91CF9108954F925F927F928F929F9207
:10174000AF92BF92CF92DF92EF92FF920F931F93CF
:10175000DF93CF93CDB7DEB7A1970FB6F894DEBF76
:101760000FBECDBF2C01742ECB01223008F42AE02D
:1017700019A231E2C32ED12CCC0EDD1E822E99246B
:10178000AA24BB24672D752FA50194010E94430C48
:1017900079018A01C801B701A50194010E94240CB6
:1017A000472D461B0894C108D1084A3014F4405D07
:1017B00001C0495CF6014083E114F1040105110503
:1017C00021F07E2C5F2DC801DDCFC201B6010E9441
:1017D0007F0BA1960FB6F894DEBF0FBECDBFCF91A1
:1017E000DF911F910F91FF90EF90DF90CF90BF900E
:1017F000AF909F908F907F905F904F900895DC0105
:101800002115310541F4ED91FC910190F081E02D1D
:10181000642F099508950E949B0B08950E947F0BE9
:101820000895EF92FF920F931F937C010E947F0B0C
:101830008C01C7010E945F0B080F191FC8011F917F
:101840000F91FF90EF900895629FD001739FF00178
:10185000829FE00DF11D649FE00DF11D929FF00D40
:10186000839FF00D749FF00D659FF00D9927729F77
:10187000B00DE11DF91F639FB00DE11DF91FBD0102
:10188000CF0111240895A1E21A2EAA1BBB1BFD0152
:101890000DC0AA1FBB1FEE1FFF1FA217B307E4074F
:1018A000F50720F0A21BB30BE40BF50B661F771FA7
:1018B000881F991F1A9469F7609570958095909587
:1018C0009B01AC01BD01CF010895EE0FFF1F0590F4
:0A18D000F491E02D0994F894FFCF85
:1018DA00564D4450455F31007C005F564D4450459B
:1018EA0000564D4450565F317C5F564D4450560069
:1018FA000B00200300000000900A350B260A570A45
:04190A00370A800A0E
:00000001FF
