:100000000C94BA260C94E2260C94E2260C94E22678
:100010000C94E2260C94E2260C94E2260C94E22640
:100020000C94E2260C94E2260C94E2260C94E22630
:100030000C94E2260C94E2260C94E2260C94E22620
:100040000C94752A0C94E2260C94332D0C94652D97
:100050000C94E2260C94E2260C94E2260C94E22600
:100060000C94E2260C94E226FFF7D2D2D2D2D2D25E
:10007000D2D2D2D2D2D2D2D2D2D2D2D2D2D2D2D260
:10008000D2D2D2D2D2D2D2D2D2D2D2D2D2D2D2D250
:10009000D2D2D2D2D2D2D2D2D2D2D2D2D2D2D2D240
:1000A000D2D2D2D2D2D2D2D2D2D2D2D2D2D2D2D230
:1000B000D2D2D2D2D2D2D2D2D2D2D2D2D2D2D2D220
:1000C000D2D2D2D2D2D2D2D2D2D2D2D2D2D2D2D210
:1000D000D2D2D2D2D2D2D2D2D2D2D2D2D2D2D2D200
:1000E000D2D2D2D2D2D2D2D2D2D2D2D2D2D2D1CFF4
:1000F000CECECDCECECFCFCDCBC9C8C8C7C8C8C94C
:10010000C9C7C5C3C2C2C1C2C2C3C3C1BFBDBCBBD4
:10011000BBBBBCBDBCBAB9B7B6B5B5B5B6B7B6B45E
:10012000B3B1B0AFAFAFB0B0B0AEACABAAA9A9A9F4
:10013000AAABAAA8A7A5A4A3A3A4A4A5A5A3A1A06C
:100140009E9E9E9E9F9F9F9D9C9A99999899999AF1
:100150009A98969594949494949595939290908F60
:100160008F8F9091918F8E8C8B8B8B8B8C8D8D8BB9
:100170008A8988878788898A8A888785858484850B
:100180008687878584838282828283858583828134
:100190008080808182838382807F7F7F7F80818255
:1001A0008281807F7E7E7F7F80828281807F7E7E53
:1001B0007F808182838180807F7F8081828484832D
:1001C00082818181828384868685848483848485F8
:1001D000878989888787878788898A8C8D8C8B8B8C
:1001E0008B8B8C8D8F919191909090909192949611
:1001F00097969595959697989A9C9D9C9C9B9C9C70
:100200009D9FA1A3A4A3A3A3A3A4A5A6A8AAABABA7
:10021000ABAAABACADAEB0B3B4B3B3B3B3B4B6B7D3
:10022000B9BCBDBCBCBCBDBEBFC1C3C5C7C6C6C6CC
:10023000C7C8C9CBCDCFD1D1D1D1D1D2D2D2D2D2D0
:10024000D2D2D2D2D2D2D2D2D2D2D2D2D2D2D2D28E
:10025000D2D2D2D2D2D2D2D2D2D2D2D2D2D2D2D27E
:10026000D2D2D2D2D2D2D2D2D2D2D2D2D2D2D2D26E
:10027000D2D2D2D2D2D2D2D2D2D2D2D2D2D2D2D25E
:10028000D1CFCECECECECCCAC7C5C3C2C1C0C0C0EE
:10029000BFBCBAB8B6B4B3B3B3B3B2AFACAAA8A735
:1002A000A6A5A5A5A4A19F9D9B9998989898979479
:1002B000928F8D8C8B8B8B8B8A878482807F7E7EC6
:1002C0007E7E7D7A7875747272717171706E6B69F1
:1002D00067666565656564615F5D5B5A5959595923
:1002E00058565451504F4E4E4E4E4D4B4947454433
:1002F0004343434343403E3C3B3A3939393939372C
:100300003433313030303030302E2B2A2827272715
:1003100027282725232220201F1F2020201E1C1ACB
:1003200019191818191A191716141312121213146E
:100330001412100F0E0D0D0D0E0F0F0D0C0A0909E2
:1003400009090A0B0B0A080706060606070809072B
:100350000605040404050607070504030303030454
:100360000506060504030202030405060706050444
:100370000303040506080807060605060607090A1A
:100380000B0A090908090A0B0C0E0F0E0D0D0D0DB5
:100390000E0F111313131212121213151618191926
:1003A000181818191A1B1D1F201F1F1F1F2021237B
:1003B0002527282727272728292B2D2F3030303095
:1003C0003031333436393A3A3A3A3A3B3D3F414399
:1003D000454444444546484A4C4E50505050515272
:1003E0005355585A5C5C5C5C5D5E6062646768682B
:1003F00069696A6B6D6F71747676767677797A7DD6
:100400007F82848484858587898B8D909292929354
:100410009495979A9C9FA1A1A1A2A3A4A6A9ABAED3
:10042000B0B0B0B1B2B4B6B8BBBDBFC0C0C1C2C33A
:10043000C5C7CACDCFCFCFD0D1D2D2D2D2D2D2D2CD
:10044000D2D2D2D2D2D2D2D2D2D2D2D2D2D2D2D28C
:10045000D2D2D2D2D2D2D2D2D2D2D2D2D2D2D2D27C
:10046000D2D2D2D2D2D2D2D2D2D2D2D2D2D2D2D26C
:10047000D2D2CFCDCBC9C8C7C7C7C6C3C0BEBCBB0D
:10048000BAB9B9B9B7B5B2B0AEACACABABABAAA761
:10049000A4A2A09F9E9D9D9D9C9A979593929191B9
:1004A0009090908D8B8887858584848483817F7DDF
:1004B0007B7A7979797978767371706F6E6E6E6EFA
:1004C0006D6B696766656464646464615F5D5C5BF1
:1004D0005B5B5B5B5B5957555353525253535351BC
:1004E0004F4D4C4B4B4B4B4C4C4A48464544444477
:1004F0004546454342403F3F3E3F3F40403E3D3BF7
:100500003A3A3A3A3B3C3C3A383736363636373860
:10051000383735343333333435363634333231319A
:1005200031323334353332313030313132343433A7
:10053000323130303132333435333231313132339C
:100540003435363534333333343536383837363658
:1005500035363637393B3B3A393939393A3B3D3E06
:100560003F3E3E3D3D3E3E40414344434242424386
:1005700044454748494948484848494B4D4F504FE2
:100580004E4E4E4F50515355565655555556575938
:100590005A5D5E5D5D5D5D5E5F606264656565655B
:1005A000656667696A6D6E6D6D6D6D6E6F71737581
:1005B000777676767677787A7C7E807F7F7F7F808D
:1005C0008283858889898888898A8B8D8F91929288
:1005D000929292939596999B9C9C9C9C9C9D9EA08C
:1005E000A2A5A6A6A5A5A6A7A8AAACAEB0AFAFAF78
:1005F000B0B1B2B4B6B8B9B9B9B9B9BABCBDBFC275
:10060000C3C3C2C2C3C4C5C7C9CBCCCCCCCCCCCD70
:10061000CED0D2D2D2D2D2D2D2D2D2D2D2D2D2D2C0
:10062000D2D2D2D2D2D2D2D2D2D2D2D2D2D2D2D2AA
:10063000D2D2D2D2D2D2D2D2D2D2D2D2D2D2D2D29A
:10064000D2D2D2D2D2D2D2D2D2D2D2D2D2D2D2D28A
:10065000D2D2D2D2D2D2D2D2D2D2D2D2D2D2D2D27A
:10066000D2D2D2D2D2D2D2D2D2D2D2D2D2D2D2D26A
:10067000D2D2D2D2D2D2D2D2D2D2D2D2D2D2D2D25A
:10068000D2D2D2D2D2D2D2D2D2D2D2D2D2D2D2D24A
:10069000D2D2D2D2D2D2D2D2D2D2D2D2D2D2D2D23A
:1006A000D2D2D2D2D2D2D2D2D2D2D2D2D2D2D2D22A
:1006B000D2D2D2D2D2D2D2D2D2D2D2D2D2D2D2D21A
:1006C000D2D2D2D2D2D2D2D2D2D2D2D2D2D2D2D20A
:1006D000D2D2D2D2D2D2D2D2D2D2D2D2D2D2D2D2FA
:1006E000D2D2D2D2D2D2D2D2D2D2D2D2D2D2D2D2EA
:1006F000D2D2D2D2D2D2D2D2D2D2D2D2D2D2D2D2DA
:10070000D2D2D2D2D2D2D2D2D2D2D2D2D2D2D2D2C9
:10071000D2D2D2D2D2D2D2D2D2D2D2D2D2D2D2D2B9
:10072000D2D2D2D2D2D2D2D2D2D2D2D2D2D2D2D2A9
:10073000D2D2D2D2D2D2D2D2D2D2D2D2D2D2D2D299
:10074000D2D2D2D2D2D2D2D2D2D2D2D2D2D2D2D289
:10075000D2D2D2D2D2D2D2D2D2D2D2D2D2D2D2D279
:10076000D2D2D2D2D2D2D2D2D2D2D2D2D2D2D2D269
:10077000D2D2D2D2D2D2D2D2D2D2D2D2D2D2D2D259
:10078000D2D2D2D2D2D2D2D2D2D2D2D2D2D2D2D249
:10079000D2D2D2D2D2D2D2D2D2D2D2D2D2D2D2D239
:1007A000D2D2D2D2D2D2D2D2D2D2D2D2D2D2D2D229
:1007B000D2D2D2D2D2D2D2D2D2D2D2D2D2D2D2D219
:1007C000D2D2D2D2D2D2D2D2D2D2D2D2D2D2D2D209
:1007D000D2D2D2D2D2D2D2D2D2D2D2D2D2D2D2D2F9
:1007E000D2D2D2D2D2D2D2D2D2D2D2D2D2D2D2D2E9
:1007F000D2D2D2D2D2D2D2D2D2D2D2D2D2D2D2D2D9
:10080000D2D2D2D2D2D2D2D2FEFEFEFEFEFEFEFE68
:10081000FEFEFEFEFEFEFEFEFEFEFEFEFEFEFEFEF8
:10082000FEFEFEFEFEFEFEFEFEFEFEFEFEFEFEFEE8
:10083000FEFEFEFEFEFEFEFEFEFEFEFEFEFEFEFED8
:10084000FEFEFEFEFEFEFEFEFEFEFEFEFEFEFEFEC8
:10085000FEFEFEFEFEFEFEFEFEFEFEFEFEFEFEFEB8
:10086000FEFEFEFEFEFEFEFEFEFEFEFEFEFEFEFEA8
:10087000FEFEFEFEFEFEFEFEFEFEFEFEFEFEFEFE98
:10088000FEFEFEFEFEFEFEFEFEFEFEFEFEFEFEFE88
:10089000FEFEFEFEFEFEFEFEFEFEFEFEFEFEFEFE78
:1008A000FEFEFEFEFEFEFEFEFEFEFEFEFEFEFEFE68
:1008B000FEFEFEFEFEFEFEFEFEFEFEFEFEFEFEFE58
:1008C000FEFEFEFEFEFEFEFEFEFEFEFEFEFEFEFE48
:1008D000FEFEFEFEFEFEFEFEFEFEFEFEFEFEFEFE38
:1008E000FEFEFEFEFEFEFEFEFEFEFEFEFEFEFEFE28
:1008F000FEFEFEFEFEFEFEFEFEFEFEFEFEFEFEFE18
:10090000FEFEFEFEFEFEFEFEFEFEFEFEFEFEFEFE07
:10091000FEFEFEFEFEFEFEFEFEFEFEFEFEFEFEFEF7
:10092000FEFEFEFEFEFEFEFEFEFEFEFEFEFEFEFEE7
:10093000FEFEFEFEFEFEFEFEFEFEFEFEFEFEFEFED7
:10094000FEFEFEFEFEFEFEFEFEFEFEFEFEFEFEFEC7
:10095000FEFEFEFEFEFEFEFEFEFEFEFEFEFEFEFEB7
:10096000FEFEFEFEFEFEFEFEFEFEFEFEFEFEFEFEA7
:10097000FEFEFEFEFEFEFEFEFEFEFEFEFEFEFEFE97
:10098000FEFEFEFEFEFEFEFEFEFEFEFEFEFEFEFE87
:10099000FEFEFEFEFEFEFEFEFEFEFEFEFEFEFEFE77
:1009A000FEFEFEFEFEFEFEFEFEFEFEFEFEFEFEFE67
:1009B000FEFEFEFEFEFEFEFEFEFEFEFEFEFEFEFE57
:1009C000FEFEFEFEFEFEFEFEFEFEFEFEFEFEFEFE47
:1009D000FEFEFEFEFEFEFEFEFEFEFEFEFEFEFEFE37
:1009E000FEFEFEFEFEFEFEFEFEFEFEFEFEFEFEFE27
:1009F000FEFEFEFEFEFEFEFEFEFEFEFEFFFEFCFB1B
:100A0000F9F7F6F4F3F1EFEEECEBE9E8E6E4E3E115
:100A1000E0DEDCDBD9D8D6D4D3D1D0CECDCBC9C89B
:100A2000C6C5C3C2C0BFBDBBBAB8B7B5B4B2B1AF1B
:100A3000AEACABA9A8A6A5A3A2A09F9D9C9A99978E
:100A400096949391908F8D8C8A89878685838280F6
:100A50007F7E7C7B7A787776747371706F6E6C6B47
:100A60006A686766646362615F5E5D5C5B59585784
:100A70005654535251504F4D4C4B4A4948474645A6
:100A8000434241403F3E3D3C3B3A393837363534AE
:100A9000333231302F2E2D2D2C2B2A292827262694
:100AA000252423222221201F1F1E1D1C1C1B1A1956
:100AB00019181717161515141413121211111010F6
:100AC0000F0F0E0D0D0C0C0C0B0B0A0A090909086F
:100AD00008070707060606050505040404040303C2
:100AE00003030302020202020101010101010101EB
:100AF00001010101010100010101010101010101E7
:100B000001010101010202020202030303030304C3
:100B10000404040505050606060707070808090971
:100B2000090A0A0B0B0C0C0C0D0D0E0F0F101011F7
:100B300011121213141415151617171819191A1B58
:100B40001C1C1D1E1F1F2021222223242526262790
:100B500028292A2B2C2D2D2E2F30313233343536A7
:100B60003738393A3B3C3D3E3F404142434546479A
:100B700048494A4B4C4D4F5051525354565758596F
:100B80005B5C5D5E5F616263646667686A6B6C6E26
:100B90006F707173747677787A7B7C7E7F808283C6
:100BA000858687898A8C8D8F909193949697999A50
:100BB0009C9D9FA0A2A3A5A6A8A9ABACAEAFB1B2C5
:100BC000B4B5B7B8BABBBDBFC0C2C3C5C6C8C9CB30
:100BD000CDCED0D1D3D4D6D8D9DBDCDEE0E1E3E48E
:100BE000E6E8E9EBECEEEFF1F3F4F6F7F9FBFCFEE7
:100BF000D2D2D2D2D2D2D2D2D2D2D2D2D2D2D2D2D5
:100C0000D2D2D2D2D2D2D2D2D2D2D2D2D2D2D2D2C4
:100C1000D2D2D2D2D2D2D2D2D2D2D2D2D2D2D2D2B4
:100C2000D2D2D2D2D2D2D2D2D2D2D2D2D2D2D2D2A4
:100C3000D2D2D2D2D2D2D2D2D2D2D2D2D2D2D2D294
:100C4000D2D2D2D2D2D2D2D2D2D2D2D2D2D2D2D284
:100C5000D2D2D2D2D2D2D2D2D2D2D2D2D2D2D2D274
:100C6000D2D2D2D2D2D2D2D2D2D2D2D2D2D2D2D264
:100C7000D2D2D2D2D2D2D2D2D2D2D2D2D2D2D2D254
:100C8000D2D2D2D2D2D2D2D2D2D2D2D2D2D2D2D244
:100C9000D2D2D2D2D2D2D2D2D2D2D2D2D2D2D1D037
:100CA000D1D1D2D2D2D2CFCECCCCCCCDCED0D0CD51
:100CB000CBC9C8C7C7C8C9CBCBC8C6C4C3C2C3C3C6
:100CC000C4C6C6C3C1BFBEBEBEBEC0C1C1BEBCBA23
:100CD000B9B8B9B9BABCBCB9B7B5B4B3B3B4B5B7A0
:100CE000B7B4B2B0AFAEAEAFB0B1B1AFACABA9A913
:100CF000A9A9AAACACA9A7A5A4A3A3A4A5A6A6A488
:100D0000A1A09E9E9E9E9FA1A19E9C9A9998989913
:100D10009A9B9B9996949393939394969693918F81
:100D20008E8D8D8E8F90908E8B8988878788898B0A
:100D30008B8886848282828284858582807E7D7C87
:100D40007C7D7E7F7F7D7B7977777777797A7A77FD
:100D500075737271717273757572706E6D6C6C6D86
:100D60006E6F6F6D6A6967676767696A6A686563EE
:100D70006262626263656562605E5D5C5D5D5E606D
:100D8000605D5B59585858585A5B5B5956555353D8
:100D900053545556565452504F4E4E4F5052524F38
:100DA0004D4B4A4A4A4B4C4E4E4B494746464647A6
:100DB0004849494745434242424344454643413FEF
:100DC0003E3E3E3F4042423F3D3C3B3A3A3B3D3E49
:100DD0003E3C3A3837373738393B3B39373534348E
:100DE00034353638383634323131313233353533C3
:100DF00031302F2E2F30313333312F2D2C2C2C2D01
:100E00002F31312F2D2B2A2A2A2B2D2F2F2D2B2915
:100E10002828292A2B2D2D2B2928272727282A2C3B
:100E20002C2A282726262627292B2B292726252545
:100E30002526282A2A28262524242526282A2A2841
:100E400026252424252627292A2826252424252644
:100E5000282A2A28272525252526282A2B2927261A
:100E600025252627292B2C2A2827262627282A2C01
:100E70002D2B2A282828292A2C2E2F2D2B2A292AC7
:100E80002A2C2E30302F2D2C2B2C2C2E303233317F
:100E90002F2E2E2E2F303234353432313031323342
:100EA00035373836353433343536383A3B3A3837D7
:100EB0003737383A3C3E3F3D3C3B3A3B3C3D3F4276
:100EC0004341403F3E3F40414346474544434343FF
:100ED0004446484A4B4948474747484A4C4F504E7A
:100EE0004D4C4C4C4D4F51545553525151515254FD
:100EF00056595A5857565657585A5C5E5F5E5D5C55
:100F00005C5C5D5F61646564626262626365676ABE
:100F10006B6A68686868696B6D7071706F6E6E6E11
:100F20007071747678767574747576787A7D7E7D56
:100F30007C7B7B7C7D7F81848584828282828486A7
:100F4000888B8C8B898989898B8D8F9293929190D4
:100F50009091929496999A9998979798999B9EA018
:100F6000A2A09F9F9F9FA1A3A5A8A9A8A7A6A6A747
:100F7000A8AAADB0B1B0AFAEAEAFB0B2B4B7B8B76B
:100F8000B6B6B6B6B8BABCBFC0BFBEBEBEBEC0C2A3
:100F9000C4C7C8C7C6C5C5C6C8CACCCFD0CFCECDBA
:100FA000CDCECFD1D2D2D2D2D2D2D2D2D2D2D2D22E
:100FB000D2D2D2D2D2D2D2D2D2D2D2D2D2D2D2D211
:100FC000D2D2D2D2D2D2D2D2D2D2D2D2D2D2D2D201
:100FD000D2D2D2D2D2D2D2D2D2D2D2D2D2D2D2D2F1
:100FE000D2D2D2D2D2D2D2D2D2D2D2D2D2D2D2D2E1
:100FF000D2D2D2D2D2D2D2D2D2D2D2D2D2D2D2D2D1
:10100000D2D2D2D2D2D2D2D2D2D2D2D2D2D2D2D1C1
:10101000D1D1D2D2D2D0CECCCACAC9CACBCCCCC9FB
:10102000C7C5C3C3C2C3C4C5C5C2C0BEBCBCBCBCAB
:10103000BDBEBEBCB9B7B6B5B5B6B7B8B8B5B3B135
:10104000AFAFAFAFB0B2B1AFACAAA9A8A8A9AAABD5
:10105000ABA9A6A4A3A2A2A3A4A5A5A3A09E9D9C60
:101060009D9D9EA0A09D9B9998979798999A9A98D4
:1010700095939292929294959592908E8D8D8D8D5E
:101080008F90908E8B8A888888898A8B8B898785B8
:1010900084838384858787858281807F7F80818325
:1010A00083817E7D7C7B7B7C7D7F7F7D7B79787778
:1010B00078797A7B7C7977767474747577787876BA
:1010C0007472717171727475767371706F6E6F7006
:1010D000717373716F6D6C6C6C6D6F70716E6D6B25
:1010E0006A6A6A6B6D6E6F6D6B69686868696B6D53
:1010F0006D6B6968676667686A6B6C6A6866656568
:101100006667686A6B69676565646566686A6A6868
:1011100066656464646667696A6866646464646575
:1011200067696A6866646464646667696A68666554
:1011300064646566686A6A68676565656567686A44
:101140006B69676666666668696C6C6A696767671B
:1011500068696B6D6E6C6A696868696B6C6F6F6DDE
:101160006C6B6A6A6B6C6E70716F6E6D6C6C6D6EB1
:1011700070737372706F6E6F6F7173757674727156
:101180007171727375787877757474747576787A0E
:101190007B7A7877777778797B7E7E7D7B7A7A7AAF
:1011A0007B7D7F8182807F7E7D7D7E808284858441
:1011B00082818181828486888987868585858688E3
:1011C0008A8C8D8B8A8989898A8B8E90918F8E8D5E
:1011D0008D8D8E90929495939291919192949698F0
:1011E00099989696959697989A9D9E9C9B9A9A9A6E
:1011F0009B9D9FA1A2A19F9F9E9FA0A1A4A6A7A5E2
:10120000A4A3A3A3A4A6A8ABACAAA9A8A8A8A9AB69
:10121000ADAFB0AFAEADACADAEB0B2B4B5B4B2B2CE
:10122000B1B2B3B4B7B9BAB9B7B6B6B7B8B9BBBE4D
:10123000BFBDBCBBBBBBBCBEC0C3C4C2C1C0C0C0C1
:10124000C1C3C5C8C9C7C6C5C5C5C6C8CACCCDCC2B
:10125000CBCAC9CACBCDCFD1D2D1CFCECECFD0D1B0
:10126000D2D2D2D2D2D2D2D2D2D2D2D2D2D2D2D25E
:10127000D2D2D2D2D2D2D2D2D2D2D2D2D2D2D2D24E
:10128000D2D2D2D2D2D2D2D2D2D2D2D2D2D2D2D23E
:10129000D2D2D2D2D2D2D2D2D2D2D2D2D2D2D2D22E
:10156000D2D2D2D2D2D2D2D2D1D0D1D1D2D2D2D260
:10157000CFCECCCCCCCDCED0D0CDCBC9C8C7C7C8B0
:10158000C9CBCBC8C6C4C3C2C3C3C4C6C6C3C1BF0C
:10159000BEBEBEBEC0C1C1BEBCBAB9B8B9B9BABC84
:1015A000BCB9B7B5B4B3B3B4B5B7B7B4B2B0AFAEF6
:1015B000AEAFB0B1B1AFACABA9A9A9A9AAACACA967
:1015C000A7A5A4A3A3A4A5A6A6A4A1A09E9E9E9EF3
:1015D0009FA1A19E9C9A999898999A9B9B99969461
:1015E0009393939394969693918F8E8D8D8E8F90E7
:1015F000908E8B8988878788898B8B888684828266
:10160000828284858582807E7D7C7C7D7E7F7F7DDD
:101610007B7977777777797A7A7775737271717268
:1016200073757572706E6D6C6C6D6E6F6F6D6A69CF
:1016300067676767696A6A68656362626262636551
:101640006562605E5D5C5D5D5E60605D5B595858C3
:1016500058585A5B5B595655535353545556565424
:1016600052504F4E4E4F5052524F4D4B4A4A4A4B9A
:101670004C4E4E4B494746464647484949474543E5
:101680004242424344454643413F3E3E3E3F404244
:10169000423F3D3C3B3A3A3B3D3E3E3C3A38373791
:1016A0003738393B3B3937353434343536383836CA
:1016B0003432313131323335353331302F2E2F3012
:1016C000313333312F2D2C2C2C2D2F31312F2D2B2D
:1016D0002A2A2A2B2D2F2F2D2B292828292A2B2D5A
:1016E0002D2B2928272727282A2C2C2A282726266D
:1016F0002627292B2B29272625252526282A2A286F
:10170000262524242526282A2A2826252424252679
:1017100027292A28262524242526282A2A28272559
:1017200025252526282A2B29272625252627292B46
:101730002C2A2827262627282A2C2D2B2A28282819
:10174000292A2C2E2F2D2B2A292A2A2C2E30302FD5
:101750002D2C2B2C2C2E303233312F2E2E2E2F30A1
:10176000323435343231303132333537383635343E
:1017700033343536383A3B3A38373737383A3C3EE7
:101780003F3D3C3B3A3B3C3D3F424341403F3E3F77
:10179000404143464745444343434446484A4B49F6
:1017A00048474747484A4C4F504E4D4C4C4C4D4F84
:1017B0005154555352515151525456595A585756E3
:1017C0005657585A5C5E5F5E5D5C5C5C5D5F616451
:1017D0006564626262626365676A6B6A68686868AA
:1017E000696B6D7071706F6E6E6E707174767876F5
:1017F0007574747576787A7D7E7D7C7B7B7C7D7F4D
:1018000081848584828282828486888B8C8B89897C
:1018100089898B8D8F9293929190909192949699C1
:101820009A9998979798999B9EA0A2A09F9F9F9FF7
:10183000A1A3A5A8A9A8A7A6A6A7A8AAADB0B1B01C
:10184000AFAEAEAFB0B2B4B7B8B7B6B6B6B6B8BA58
:10185000BCBFC0BFBEBEBEBEC0C2C4C7C8C7C6C56F
:10186000C5C6C8CACCCFD0CFCECDCDCECFD1D2D2A7
:10187000D2D2D2D2D2D2D2D2D2D2D2D2D2D2D2D248
:10188000D2D2D2D2D2D2D2D2D2D2D2D2D2D2D2D238
:10189000D2D2D2D2D2D2D2D2D2D2D2D2D2D2D2D228
:1018A000D2D2D2D2D2D2D2D2D2D2D2D2D2D2D2D218
:1018B000D2D2D2D2D2D2D2D2D2D2D2D2D2D2D2D208
:1018C000D2D2D2D2D2D2D2D2D2D2D2D2D2D2D2D2F8
:1018D000D2D2D2D2D2D2D2D2D2D1D1D1D2D2D2D0ED
:1018E000CECCCACAC9CACBCCCCC9C7C5C3C3C2C374
:1018F000C4C5C5C2C0BEBCBCBCBCBDBEBEBCB9B705
:10190000B6B5B5B6B7B8B8B5B3B1AFAFAFAFB0B2A3
:10191000B1AFACAAA9A8A8A9AAABABA9A6A4A3A237
:10192000A2A3A4A5A5A3A09E9D9C9D9D9EA0A09DB5
:101930009B9998979798999A9A9895939292929240
:1019400094959592908E8D8D8D8D8F90908E8B8AA3
:10195000888888898A8B8B89878584838384858717
:1019600087858281807F7F80818383817E7D7C7B70
:101970007B7C7D7F7F7D7B79787778797A7B7C79BA
:101980007776747474757778787674727171717211
:101990007475767371706F6E6F70717373716F6D34
:1019A0006C6C6C6D6F70716E6D6B6A6A6A6B6D6E6C
:1019B0006F6D6B69686868696B6D6D6B6968676688
:1019C00067686A6B6C6A686665656667686A6B6992
:1019D000676565646566686A6A68666564646466A6
:1019E00067696A6866646464646567696A6866648E
:1019F0006464646667696A68666564646566686A83
:101A00006A68676565656567686A6B696766666663
:101A10006668696C6C6A6967676768696B6D6E6C2C
:101A20006A696868696B6C6F6F6D6C6B6A6A6B6C06
:101A30006E70716F6E6D6C6C6D6E70737372706FB3
:101A40006E6F6F7173757674727171717273757870
:101A50007877757474747576787A7B7A7877777717
:101A600078797B7E7E7D7B7A7A7A7B7D7F818280AE
:101A70007F7E7D7D7E808284858482818181828457
:101A8000868889878685858586888A8C8D8B8A89D4
:101A900089898A8B8E90918F8E8D8D8D8E90929468
:101AA00095939291919192949698999896969596ED
:101AB00097989A9D9E9C9B9A9A9A9B9D9FA1A2A162
:101AC0009F9F9E9FA0A1A4A6A7A5A4A3A3A3A4A6ED
:101AD000A8ABACAAA9A8A8A8A9ABADAFB0AFAEAD52
:101AE000ACADAEB0B2B4B5B4B2B2B1B2B3B4B7B9D2
:101AF000BAB9B7B6B6B7B8B9BBBEBFBDBCBBBBBB46
:101B0000BCBEC0C3C4C2C1C0C0C0C1C3C5C8C9C7B0
:101B1000C6C5C5C5C6C8CACCCDCCCBCAC9CACBCD33
:101B2000CFD1D2D1CFCECECFD0D1D2D2D2D2D2D2AB
:101B3000D2D2D2D2D2D2D2D2D2D2D2D2D2D2D2D285
:101B4000D2D2D2D2D2D2D2D2D2D2D2D2D2D2D2D275
:101B5000D2D2D2D2D2D2D2D2D2D2D2D2D2D2D2D265
:101B6000D2D2D2D2D2D2D2D2D2D2D2D2D2D2D2D255
:101D8000D2D2D2D2FFFFFFFEFEFDFDFCFCFBFBFA30
:101D9000FAFAF9F9F8F8F7F7F6F6F5F5F5F4F4F3D9
:101DA000F3F2F2F1F1F0F0EFEFEFEEEEEDEDECEC3F
:101DB000EBEBEAEAEAE9E9E8E8E7E7E6E6E5E5E5A4
:101DC000E4E4E3E3E2E2E1E1E0E0E0DFDFDEDEDD08
:101DD000DDDCDCDBDBDBDADAD9D9D8D8D7D7D6D66D
:101DE000D6D5D5D4D4D3D3D2D2D2D1D1D0D0CFCFCF
:101DF000CECECDCDCDCCCCCBCBCACAC9C9C9C8C833
:101E0000C7C7C6C6C5C5C5C4C4C3C3C2C2C1C1C194
:101E1000C0C0BFBFBEBEBDBDBDBCBCBBBBBABAB9F6
:101E2000B9B9B8B8B7B7B6B6B6B5B5B4B4B3B3B256
:101E3000B2B2B1B1B0B0AFAFAFAEAEADADACACABB6
:101E4000ABABAAAAA9A9A8A8A8A7A7A6A6A5A5A515
:101E5000A4A4A3A3A2A2A2A1A1A0A0A09F9F9E9E72
:101E60009D9D9D9C9C9B9B9A9A9A999998989897CE
:101E70009796969595959494939393929291919029
:101E800090908F8F8E8E8E8D8D8C8C8C8B8B8A8A82
:101E900089898988888787878686858585848483DC
:101EA0008383828281818180807F7F7F7E7E7D7D32
:101EB0007D7C7C7C7B7B7A7A7A7979787878777785
:101EC00076767675757574747373737272717171D9
:101ED0007070706F6F6E6E6E6D6D6D6C6C6B6B6B2A
:101EE0006A6A6A6969696868676767666666656578
:101EF00064646463636362626261616160605F5FC6
:101F00005F5E5E5E5D5D5D5C5C5C5B5B5B5A5A590F
:101F10005959585858575757565656555555545459
:101F2000545353535252525151515050504F4F4F9E
:101F30004E4E4E4D4D4D4C4C4C4B4B4B4A4A4A49E4
:101F40004949484848484747474646464545454425
:101F50004444434343434242424141414040403F65
:101F60003F3F3F3E3E3E3D3D3D3C3C3C3C3B3B3BA2
:101F70003A3A3A3A393939383838383737373636DD
:101F80003636353535343434343333333332323214
:101F900031313131303030302F2F2F2F2E2E2E2D4A
:101FA0002D2D2D2C2C2C2C2B2B2B2B2A2A2A2A297D
:101FB00029292928282828272727272626262626AC
:101FC00025252525242424242323232323222222D8
:101FD000222121212120202020201F1F1F1F1F1E02
:101FE0001E1E1E1D1D1D1D1D1C1C1C1C1C1B1B1B29
:101FF0001B1B1A1A1A1A1A1919191919181818184C
:10200000181717171717161616161616151515156D
:10201000151414141414141313131313131212128B
:102020001212121111111111111010101010100FA5
:102030000F0F0F0F0F0F0E0E0E0E0E0E0E0D0D0DBD
:102040000D0D0D0D0C0C0C0C0C0C0C0B0B0B0B0BD1
:102050000B0B0B0A0A0A0A0A0A0A0A0909090909E2
:1020600009090909080808080808080808070707EF
:1020700007070707070706060606060606060606FA
:102080000605050505050505050505050504040402
:102090000404040404040404040403030303030306
:1020A0000303030303030303030302020202020206
:1020B0000202020202020202020202020202010102
:1020C0000101010101010101010101010101010100
:1020D00001010101010101010101010101010101F0
:1020E00001010101010101010101010101010100E1
:1020F00001010101010101010101010101010101D0
:1021000001010101010101010101010101010101BF
:1021100001010101010101010101010101010101AF
:102120000102020202020202020202020202020290
:102130000202020202030303030303030303030374
:102140000303030303040404040404040404040454
:10215000040405050505050505050505050506062F
:102160000606060606060606060707070707070708
:1021700007070808080808080808080909090909DC
:10218000090909090A0A0A0A0A0A0A0A0B0B0B0BAF
:102190000B0B0B0B0C0C0C0C0C0C0C0D0D0D0D0D7E
:1021A0000D0D0E0E0E0E0E0E0E0F0F0F0F0F0F0F4A
:1021B0001010101010101111111111111212121211
:1021C00012121313131313131414141414141515D7
:1021D0001515151616161616161717171717181899
:1021E00018181819191919191A1A1A1A1A1B1B1B57
:1021F0001B1B1C1C1C1C1C1D1D1D1D1D1E1E1E1E14
:102200001F1F1F1F1F2020202020212121212222CB
:102210002222232323232324242424252525252681
:102220002626262627272727282828282929292936
:102230002A2A2A2A2B2B2B2B2C2C2C2C2D2D2D2DE6
:102240002E2E2E2F2F2F2F30303030313131313292
:10225000323233333333343434343535353636363D
:1022600036373737383838383939393A3A3A3A3BE5
:102270003B3B3C3C3C3C3D3D3D3E3E3E3F3F3F3F8B
:10228000404040414141424242434343434444442D
:1022900045454546464647474748484848494949CD
:1022A0004A4A4A4B4B4B4C4C4C4D4D4D4E4E4E4F6B
:1022B0004F4F505050515151525252535353545406
:1022C00054555555565656575757585858595959A1
:1022D0005A5A5B5B5B5C5C5C5D5D5D5E5E5E5F5F36
:1022E0005F606061616162626263636364646465CC
:1022F0006566666667676768686969696A6A6A6B5E
:102300006B6B6C6C6D6D6D6E6E6E6F6F70707071EF
:10231000717172727373737474757575767676777E
:102320007778787879797A7A7A7B7B7C7C7C7D7D0A
:102330007D7E7E7F7F7F8080818181828283838397
:102340008484858585868687878788888989898A20
:102350008A8B8B8C8C8C8D8D8E8E8E8F8F909090A7
:10236000919192929393939494959595969697972D
:1023700098989899999A9A9A9B9B9C9C9D9D9D9EB2
:102380009E9F9FA0A0A0A1A1A2A2A2A3A3A4A4A536
:10239000A5A5A6A6A7A7A8A8A8A9A9AAAAABABABBA
:1023A000ACACADADAEAEAFAFAFB0B0B1B1B2B2B23A
:1023B000B3B3B4B4B5B5B6B6B6B7B7B8B8B9B9B9BA
:1023C000BABABBBBBCBCBDBDBDBEBEBFBFC0C0C139
:1023D000C1C1C2C2C3C3C4C4C5C5C5C6C6C7C7C8B8
:1023E000C8C9C9C9CACACBCBCCCCCDCDCDCECECF36
:1023F000CFD0D0D1D1D2D2D2D3D3D4D4D5D5D6D6B2
:10240000D6D7D7D8D8D9D9DADADBDBDBDCDCDDDD2F
:10241000DEDEDFDFE0E0E0E1E1E2E2E3E3E4E4E5A9
:10242000E5E5E6E6E7E7E8E8E9E9EAEAEAEBEBEC26
:10243000ECEDEDEEEEEFEFEFF0F0F1F1F2F2F3F3A1
:10244000F4F4F5F5F5F6F6F7F7F8F8F9F9FAFAFA1B
:10245000FBFBFCFCFDFDFEFEFFFFF5F5F5F5F5F5DC
:10246000F5F5F5F5F5F5F5F5F5F5F5F5F5F5F5F51C
:10247000F5F5F5F5F5F5F5F5F5F5F5F5F5F5F5F50C
:10248000F5F5F5F5F5F5F5F5F5F5F5F5F5F5F5F5FC
:10249000F5F5F5F5F5F5F5F5F5F5F5F5F5F5F5F5EC
:10274000F5F5F5F5F5F5F5F5FEFEFEFEFEFEFEFEF1
:10275000FEFEFEFEFEFEFEFEFEFEFEFEFEFEFEFE99
:10276000FEFEFEFEFEFEFEFEFEFEFEFEFEFEFEFE89
:10277000FEFEFEFEFEFEFEFEFEFEFEFEFEFEFEFE79
:10278000FEFEFEFEFEFEFEFEFEFEFEFEFEFEFEFE69
:10279000FEFEFEFEFEFEFEFEFEFEFEFEFEFEFEFE59
:1027A000FEFEFEFEFEFEFEFEFEFEFEFEFEFEFEFE49
:1027B000FEFEFEFEFEFEFEFEFEFEFEFEFEFEFEFE39
:1027C000FEFEFEFEFEFEFEFEFEFEFEFEFEFEFEFE29
:1027D000FEFEFEFEFEFEFEFEFEFEFEFEFEFEFEFE19
:1027E000FEFEFEFEFEFEFEFEFEFEFEFEFEFEFEFE09
:1027F000FEFEFEFEFEFEFEFEFEFEFEFEFEFEFEFEF9
:10280000FEFEFEFEFEFEFEFEFEFEFEFEFEFEFEFEE8
:10281000FEFEFEFEFEFEFEFEFEFEFEFEFEFEFEFED8
:10282000FEFEFEFEFEFEFEFEFEFEFEFEFEFEFEFEC8
:10283000FEFEFEFEFEFEFEFEFEFEFEFEFEFEFEFEB8
:10284000FEFEFFFFFEFEFDFDFCFCFBFBFAFAF9F9C4
:10285000F8F7F7F6F6F5F5F4F4F3F3F2F2F1F1F038
:10286000EFEFEEEEEDEDECECEBEBEAEAE9E9E8E8B0
:10287000E7E6E6E5E5E4E4E3E3E2E2E1E1E0E0DF28
:10288000DEDEDDDDDCDCDBDBDADAD9D9D8D8D7D7A0
:10289000D6D6D5D4D4D3D3D2D2D1D1D0D0CFCFCE17
:1028A000CECDCDCCCCCBCACAC9C9C8C8C7C7C6C68D
:1028B000C5C5C4C4C3C3C2C2C1C1C0C0BFBFBEBE00
:1028C000BDBCBCBBBBBABAB9B9B8B8B7B7B6B6B578
:1028D000B5B4B4B3B3B2B2B1B1B0B0AFAFAEAEADE8
:1028E000ADACACABABAAAAA9A9A8A8A7A7A6A6A558
:1028F000A5A4A4A3A3A2A2A1A1A0A09F9F9E9E9DC8
:102900009D9C9C9B9B9A9A99999898979796969537
:102910009594949393929291919190908F8F8E8EA3
:102920008D8D8C8C8B8B8A8A89898888878787860E
:1029300086858584848383828281818080807F7F75
:102940007E7E7D7D7C7C7B7B7A7A7A7979787877DC
:10295000777676767575747473737272717171703F
:10296000706F6F6E6E6E6D6D6C6C6B6B6A6A6A69A0
:1029700069686867676766666565646464636362FF
:102980006262616160605F5F5F5E5E5D5D5D5C5C59
:102990005B5B5B5A5A5959585858575756565655B3
:1029A00055545454535353525251515150504F4F08
:1029B0004F4E4E4D4D4D4C4C4C4B4B4A4A4A49495B
:1029C00049484847474746464645454544444343AA
:1029D000434242424141414040403F3F3E3E3E3DF6
:1029E0003D3D3C3C3C3B3B3B3A3A3A39393938383F
:1029F0003837373736363635353534343433333384
:102A0000323232323131313030302F2F2F2E2E2EC4
:102A10002D2D2D2D2C2C2C2B2B2B2B2A2A2A292902
:102A2000292828282827272726262626252525253C
:102A30002424242323232322222222212121212072
:102A40002020201F1F1F1F1E1E1E1E1D1D1D1D1CA2
:102A50001C1C1C1B1B1B1B1A1A1A1A1919191919D1
:102A600018181818171717171716161616151515FC
:102A70001515141414141413131313131212121221
:102A80001211111111111010101010100F0F0F0F43
:102A90000F0F0E0E0E0E0E0D0D0D0D0D0D0C0C0C60
:102AA0000C0C0C0C0B0B0B0B0B0B0A0A0A0A0A0A78
:102AB0000A0909090909090909080808080808088C
:102AC000070707070707070707060606060606069D
:102AD00006060505050505050505050504040404A8
:102AE00004040404040404030303030303030303AF
:102AF00003030303030202020202020202020202B1
:102B000002020202020201010101010101010101AF
:102B100001010101010101010101010101010101A5
:102B20000101010101010101010101010101010195
:102B30000001010101010101010101010101010186
:102B40000101010101010101010101010101010175
:102B50000101010101010101010101020202020260
:102B60000202020202020202020202020303030341
:102B7000030303030303030303030404040404041F
:102B800004040404040505050505050505050506F9
:102B900006060606060606060707070707070707CD
:102BA000070808080808080809090909090909099E
:102BB0000A0A0A0A0A0A0A0B0B0B0B0B0B0C0C0C69
:102BC0000C0C0C0C0D0D0D0D0D0D0E0E0E0E0E0F32
:102BD0000F0F0F0F0F1010101010101111111111F5
:102BE00012121212121313131313141414141415B3
:102BF000151515151616161617171717171818186E
:102C00001819191919191A1A1A1A1B1B1B1B1C1C23
:102C10001C1C1D1D1D1D1E1E1E1E1F1F1F1F2020D4
:102C20002020212121212222222223232323242484
:102C3000242525252526262626272727282828282F
:102C40002929292A2A2A2B2B2B2B2C2C2C2D2D2DD4
:102C50002D2E2E2E2F2F2F30303031313132323277
:102C60003233333334343435353536363637373717
:102C70003838383939393A3A3A3B3B3B3C3C3C3DB1
:102C80003D3D3E3E3E3F3F40404041414142424249
:102C900043434344444545454646464747474848DD
:102CA0004949494A4A4A4B4B4C4C4C4D4D4D4E4E6E
:102CB0004F4F4F50505151515252535353545454FB
:102CC0005555565656575758585859595A5A5B5B86
:102CD0005B5C5C5D5D5D5E5E5F5F5F60606161620D
:102CE0006262636364646465656666676767686893
:102CF00069696A6A6A6B6B6C6C6D6D6E6E6E6F6F14
:102D00007070717171727273737474757576767692
:102D10007777787879797A7A7A7B7B7C7C7D7D7E0F
:102D20007E7F7F8080808181828283838484858589
:102D30008686878787888889898A8A8B8B8C8C8D01
:102D40008D8E8E8F8F909091919192929393949477
:102D5000959596969797989899999A9A9B9B9C9CEB
:102D60009D9D9E9E9F9FA0A0A1A1A2A2A3A3A4A45B
:102D7000A5A5A6A6A7A7A8A8A9A9AAAAABABACACCB
:102D8000ADADAEAEAFAFB0B0B1B1B2B2B3B3B4B43B
:102D9000B5B5B6B6B7B7B8B8B9B9BABABBBBBCBCAB
:102DA000BDBEBEBFBFC0C0C1C1C2C2C3C3C4C4C513
:102DB000C5C6C6C7C7C8C8C9C9CACACBCCCCCDCD81
:102DC000CECECFCFD0D0D1D1D2D2D3D3D4D4D5D6EA
:102DD000D6D7D7D8D8D9D9DADADBDBDCDCDDDDDE53
:102DE000DEDFE0E0E1E1E2E2E3E3E4E4E5E5E6E6BC
:102DF000E7E8E8E9E9EAEAEBEBECECEDEDEEEEEF23
:102E0000EFF0F1F1F2F2F3F3F4F4F5F5F6F6F7F78B
:102E1000F8F9F9FAFAFBFBFCFCFDFDFEFEFFD2D24D
:102E2000D2D2D2D2D2D2D2D2D2D2D2D2D2D2D2D282
:102E3000D2D2D2D2D2D2D2D2D2D2D2D2D2D2D2D272
:102E4000D2D2D2D2D2D2D2D2D2D2D2D2D2D2D2D262
:102E5000D2D2D2D2D2D2D2D2D2D2D2D2D2D2D2D252
:102E6000D2D2D2D2D2D2D2D2D2D2D2D2D2D2D2D242
:102E7000D2D2D2D2D2D2D2D2D2D2D2D2D2D2D2D232
:102E8000D2D2D2D2D2D2D2D2D2D2D2D2D2D1CFCE2A
:102E9000CCCBCBCBCCCCCCCAC8C6C5C4C3C3C4C4B2
:102EA000C4C2C0BEBDBCBBBBBCBCBCBAB8B6B5B46A
:102EB000B3B3B4B4B4B1AFAEACABABABABACABA92A
:102EC000A7A5A4A3A3A3A3A3A3A19F9D9C9B9A9AF8
:102ED0009B9B9B98969593939292939393908E8DB0
:102EE0008B8B8A8A8B8B8B8987858483838383846E
:102EF00083817F7E7C7C7B7B7C7C7C7A787675751D
:102F000074747576757371706F6E6E6E6F6F6F6DB2
:102F10006B6A69686868696A6A686665646363633E
:102F20006465656361605F5F5F5F6061615F5D5C99
:102F30005B5B5B5C5C5D5D5C5A59585858595A5BE9
:102F40005B5958575656565758595958575655550C
:102F50005556575959585656555555565859595802
:102F6000575656565657595A5B5A59585858585AE0
:102F70005B5C5D5C5B5B5A5B5B5D5E6061605F5E82
:102F80005E5F606162646564646363646566686A09
:102F90006A6A6969696A6B6C6E7071707070707161
:102FA000727375777878787878797A7C7E80818189
:102FB00080808182838587898A8A8A8A8A8B8D8F9D
:102FC0009193959494949596989A9C9EA0A0A0A075
:102FD000A0A2A3A5A8AAACABACACADAEB0B2B4B73E
:102FE000B8B8B8B9BABBBDBFC1C4C5C5C6C6C7C8E5
:102FF000CACCCFD2D2D2D2D2D2D2D2D2D2D2D2D2C2
:10300000D2D2D2D2D2D2D2D2D2D2D2D2D2D2D2D2A0
:10301000D2D2D2D2D2D2D2D2D2D2D2D2D2D2D2D290
:10302000D2D2D2D2D2D2D2D2D2D2D2D2D2D2D2D280
:10303000D2D0CDCBC8C7C6C5C5C4C3C0BDBBB9B748
:10304000B6B5B5B5B4B1AEACAAA8A7A6A6A6A4A2BB
:103050009F9C9A99989797979593908E8C8A898838
:1030600088888784817F7D7C7B7A7A7A7976737190
:103070006F6E6D6C6C6C6B6966646261605F5F5FE4
:103080005E5C595755545353535352504D4B4A4815
:1030900048474748474442403E3D3D3C3D3D3C3A21
:1030A000383634333333333333302E2C2B2A2A2A19
:1030B0002A2A2A28262423222222222322201E1DD5
:1030C0001C1B1B1B1B1C1C1A181615151515161678
:1030D0001614131110101010111212100F0D0C0CE9
:1030E0000C0D0D0E0F0D0B0A0A090A0A0B0C0C0B26
:1030F0000A09080808090A0B0B0A09080707080942
:103100000A0B0C0A09090808090A0B0C0D0C0B0A1A
:103110000A0A0B0C0D0F0F0E0E0D0D0D0E0F1112D6
:10312000131211111111121315171817161616165E
:1031300017191A1C1D1C1C1C1C1C1D1F21232423B9
:10314000232223232426282A2B2B2A2A2A2B2C2EFF
:1031500030323333333333343537393B3C3C3C3C0A
:103160003C3D3F404245464646464647494B4D4F0B
:103170005150505051525355585A5B5B5B5B5C5DEC
:103180005F6163656767676768696A6C6F717373AE
:103190007373747576787B7D7F7F7F7F8081838575
:1031A00087898B8B8B8B8C8D8F9193969797979824
:1031B000989A9B9DA0A2A4A4A4A4A5A6A8AAACAFDB
:1031C000B0B0B0B1B1B2B4B6B8BBBCBCBCBDBDBF91
:1031D000C0C2C4C7C9C8C8C9C9CACCCED0D2D2D24D
:1031E000D2D2D2D2D2D2D2D2D2D2D2D2D2D2D2D2BF
:1031F000D2D2D2D2D2D2D2D2D2D2D2D2D2D2D2D2AF
:10320000D2D2D2D2D2D2D2D2D2D2D2D2D2D2D2D29E
:10321000D2D2D2D2D2D2D2D2D2D2D2D2D2D2D2D28E
:10322000D2D2D2D2D2D2D2D2D2D2D2D2D2D2D2D27E
:10323000D2D2D2D2D2D2D2D2D2D2D2D2D2D2D2D26E
:10324000D2D2D2D2D2D1D0CFCFD0D0D1D1D0CECD78
:10325000CCCBCCCCCDCECECCCBC9C9C8C8C9CACBBF
:10326000CBCAC8C7C6C6C6C7C8C9C9C8C7C6C5C5E8
:10327000C5C6C7C8C8C7C6C5C4C4C5C5C7C8C8C7EA
:10328000C6C5C5C5C5C6C7C9C9C8C7C6C6C6C6C7D7
:10329000C8CACAC9C8C8C7C7C8C9CBCCCDCCCBCA95
:1032A000CACACBCCCDCFD0CFCECDCDCDCECFD1D243
:1032B000D2D2D1D1D1D1D2D2D2D2D2D2D2D2D2D2F2
:1032C000D2D2D2D2D2D2D2D2D2D2D2D2D2D2D2D2DE
:1032D000D2D2D2D2D2D2D2D2D2D2D2D2D2D2D2D2CE
:1032E000D2D2D2D2D2D2D2D2D2D2D2D2D2D2D2D2BE
:1032F000D2D2D2D2D2D2D2D2D2D2D2D2D2D2D2D2AE
:10330000D2D2D2D2D2D2D2D2D2D2D2D2D2D2D2D29D
:10331000D2D2D2D2D2D2D2D2D2D2D2D2D2D2D2D28D
:10332000D2D2D2D2D2D2D2D2D2D2D2D2D2D2D2D27D
:10333000D2D2D2D2D2D2D2D2D2D2D2D2D2D2D2D26D
:10334000D2D2D2D2D2D2D2D2D2D2D2D2D2D2D2D25D
:10335000D2D2D2D2D2D2D2D2D2D2D2D2D2D2D2D24D
:10336000D2D2D2D2D2D2D2D2D2D2D2D2D2D2D2D23D
:10337000D2D2D2D2D2D2D2D2D2D2D2D2D2D2D2D22D
:10338000D2D2D2D2D2D2D2D2D2D2D2D2D2D2D2D21D
:10339000D2D2D2D2D2D2D2D2D2D2D2D2D2D2D2D20D
:1033A000D2D2D2D2D2D2D2D2D2D2D2D2D2D2D2D2FD
:1033B000D2D2D2D2D2D2D2D2D2D2D2D2D2D2D2D2ED
:1033C000D2D2D2D2D2D2D2D2D2D2D2D2D2D2D2D2DD
:1033D000D2D2D2D2D2D2D2D2D2D2D2D2D2D2D2D2CD
:1033E000D2D2D2D2D2D2D2D2D2D2D2D2D2D2D2D2BD
:1033F000D2D2D2D2D2D2D2D2D2D2D2D2D2D2D2D2AD
:10340000D2D2D2D2D2D2D2D2D2D2D2D2D2D2D2D29C
:10341000D2D2D2D2D2D2D2D2D2D2D2D2D2D2D2D28C
:10342000D2D2D2D2D2D2D2D2D2D2D2D2D2D2D2D27C
:10343000D2D2D2D2D2D2D2D2D2D2D2D2D2D2D2D26C
:10344000D2D2D2D1CFCFCFCFCFD0CFCDCCCAC9C897
:10345000C8C8C8C9C8C6C5C3C2C1C1C1C1C2C1BF2D
:10346000BDBCBABAB9B9BABABAB8B6B4B3B2B2B2E4
:10347000B2B3B2B0AEACABAAAAAAAAABAAA8A6A590
:10348000A3A2A2A2A2A3A2A09E9D9B9A9A9A9A9B53
:103490009A98969593929292929392908E8D8B8A0F
:1034A0008A8A8A8B8A8886858383828283838380C3
:1034B0007F7D7C7B7A7A7B7B7B7977757473737382
:1034C000737473716F6E6C6C6B6B6C6C6C6A686729
:1034D000656564646565656361605E5E5D5E5E5FD3
:1034E0005E5C5B5958575757585858565453525169
:1034F0005151525252504F4D4C4B4B4C4C4D4D4BE9
:103500004948474646474748484644434242424264
:1035100043444342403F3E3E3E3E3F40403E3C3BB4
:103520003A3A3A3B3B3C3C3B393837373738393A03
:103530003A3837363535353637383836353433332B
:103540003434353637353433323233333436363536
:103550003433323232333436363534333333333432
:1035600035373736353434343435373839373636FD
:1035700036363637393A3B3A39383838393A3C3DBD
:103580003E3D3C3C3B3C3C3E3F414241403F3F4056
:10359000414243454645454444454547484A4B4AD0
:1035A0004A494A4A4B4C4E5051505050505051533A
:1035B0005557585756565657585A5C5E5F5E5E5E72
:1035C0005E5F6061636566666665666768696B6EA7
:1035D0006F6E6E6E6E6F71727476787777777878BB
:1035E0007A7C7E808181818181828385878A8B8BB1
:1035F0008B8B8B8C8E909294959595959697989AA7
:103600009C9FA0A0A0A0A1A2A3A5A8AAABABABAB76
:10361000ACADAFB1B3B5B7B7B7B7B8B9BABCBFC146
:10362000C3C2C2C3C3C5C6C8CBCDCFCECECFCFD108
:10363000D2D2D2D2D2D2D2D2D2D2D2D2D2D2D2D26A
:10364000D2D2D2D2D2D2D2D2D2D2D2D2D2D2D2D25A
:10365000D2D2D2D2D2D2D2D2D2D2D2D2D2D2D2D24A
:10366000D2D2D2D2D2D2D2D2D2D2D2D2D2D2D2D23A
:10367000D2D2D2D2D2D2D2D1D1D1D0CECBC9C8C758
:10368000C6C5C5C6C5C2C0BEBCBBBABABABAB9B750
:10369000B5B3B1B0AFAFAFAFAEACAAA8A6A5A4A466
:1036A000A4A4A4A19F9D9C9B9A9A9A9A9A97959359
:1036B000929190909090908E8B8A88878787878749
:1036C000878482817F7E7E7E7E7E7E7C7A7877761E
:1036D00075757676767472706F6E6E6E6E6F6E6CD8
:1036E0006A6967676667676867656462616060608A
:1036F0006161615F5D5C5B5A5A5A5B5C5B5A58570B
:103700005655555556575755535251505051525280
:1037100052514F4E4D4D4D4D4E4F4F4D4C4B4A49D2
:103720004A4A4B4C4C4B494847474748494A4A4903
:103730004746464546464748494746454444454529
:103740004748484746454444444546484847464517
:103750004444454647484948474645464647484AFF
:103760004A494847474748494A4C4C4B4A4A494AC4
:103770004A4B4D4E4F4E4D4D4C4D4D4F5052525168
:103780005150505051525455565554545454555606
:10379000585A5B5A595959595A5B5D5F5F5F5E5E73
:1037A0005E5E5F6062646564636363646566686AE5
:1037B0006B6A6969696A6B6C6E707170706F6F703B
:1037C0007173747677777676767778797B7D7E7D80
:1037D0007D7D7D7E7F8082848585848484858687C7
:1037E000898B8C8C8B8B8B8C8D8F919394939393F3
:1037F00093949596989A9B9B9A9A9A9B9C9EA0A22A
:10380000A3A2A2A2A2A3A4A5A7A9AAAAA9A9AAAA57
:10381000ABADAFB1B2B1B1B1B1B2B3B4B6B8B9B981
:10382000B8B8B8B9BABCBEC0C1C0C0BFC0C0C1C3BF
:10383000C5C7C8C7C7C6C7C7C8CACCCECFCECDCDEF
:10384000CDCECFD1D2D2D2D2D2D2D2D2D2D2D2D265
:10385000D2D2D2D2D2D2D2D2D2D2D2D2D2D2D2D248
:10386000D2D2D2D2D2D2D2D2D2D2D2D2D2D2D2D238
:10387000D2D2D2D2D2D2D2D2D2D2D2D2D2D2D2D228
:10388000D2D2D2D2D2D2D2D2D2D2D2D2D2D2D2D218
:10389000D2D2D2D2D2D2D2D2D2D2D2D2D2D2D2D208
:1038A000D2D2D2D2D2D2D2D2D2D2D2D2D2D2D2D2F8
:1038B000D2D2D2D2D2D2D2D2D2D2D2D2D2D2D2D2E8
:1038C000D2D2D2D2D2D2D2D2D2D2D2D2D2D2D2D2D8
:1038D000D2D2D2D2D2D2D2D2D2D2D2D2D2D2D2D2C8
:1038E000D2D2D2D2D2D2D2D2D2D2D2D2D2D2D2D2B8
:1038F000D2D2D2D2D2D2D2D2D2D2D2D2D2D2D2D2A8
:10390000D2D2D2D2D2D2D2D2D2D2D2D2D2D2D2D297
:10391000D2D2D2D2D2D2D2D2D2D2D2D2D2D2D2D287
:10392000D2D2D2D2D2D2D2D2D2D2D2D2D2D2D2D277
:10393000D2D2D2D2D2D2D2D2D2D2D2D2D2D2D2D267
:10394000D2D2D2D2D2D2D2D2D2D2D2D2D2D2D2D257
:10395000D2D2D2D2D2D2D2D2D2D2D2D2D2D2D2D247
:10396000D2D2D2D2D2D2D2D2D2D2D2D2D2D2D2D237
:10397000D2D2D2D2D2D2D2D2D2D2D2D2D2D2D2D227
:10398000D2D2D2D2D2D2D2D2D2D2D2FFFFFFFFD263
:10399000D2D2D2D2D2D2D2D2D2D2D2D2D2D2D2D207
:1039A000D2D2D2D2D2D2D2D2D2D2D2D2D2D2D2D2F7
:1039B000D2D2D2D2D2D2D2D2D2D2D2D2D2D2D2D2E7
:1039C000D2D2D2D2D2D2D2D2D2D2D2D2D2D2D2D2D7
:1039D000D2D2D2D2D2D2D2D2D2D2D2D2D1D1D0D0CD
:1039E000CFCFCECECDCDCCCCCBCBCACAC9C9C8C81F
:1039F000C7C7C6C6C5C5C4C4C3C3C2C2C2C1C1C08D
:103A0000C0BFBFBFBEBEBDBDBDBCBCBBBBBBBABAE9
:103A1000BAB9B9B9B8B8B8B7B7B7B6B6B6B5B5B533
:103A2000B5B4B4B4B4B3B3B3B3B2B2B2B2B1B1B16A
:103A3000B1B1B0B0B0B0B0AFAFAFAFAFAFAEAEAE90
:103A4000AEAEAEAEAEAEADADADADADADADADADADA0
:103A5000ADADADACACACACACACACACACACACACACA3
:103A6000ACACACACACACACADADADADADADADADAD8D
:103A7000ADADADADADADAEAEAEAEAEAEAEAEAEAF6B
:103A8000AFAFAFAFAFAFB0B0B0B0B0B0B0B1B1B139
:103A9000B1B1B1B2B2B2B2B2B3B3B3B3B3B4B4B4FE
:103AA000B4B4B5B5B5B5B5B6B6B6B6B6B7B7B7B7BB
:103AB000B8B8B8B8B8B9B9B9B9BABABABABBBBBB71
:103AC000BBBBBCBCBCBCBDBDBDBDBDBCBBBAB9B83D
:103AD000B7B6B5B4B3B2B1B0AFAEADACABAAA9A8EE
:103AE000A7A6A5A4A4A3A2A1A09F9E9D9C9B9A99D2
:103AF0009897969594939291908F8E8E8D8C8B8AB9
:103B000089888786858483838281807F7E7D7C7B94
:103B10007B7A7978777675757473727170706F6E61
:103B20006D6C6C6B6A696868676665656463626220
:103B300061605F5F5E5D5D5C5B5B5A5958585757CB
:103B400056555554535352515150504F4F4E4D4D61
:103B50004C4C4B4B4A4A49494847474746464545DE
:103B600044444343424241414140403F3F3F3E3E47
:103B70003E3D3D3D3C3C3C3B3B3B3A3A3A39393992
:103B800039383838383737373737363636363635C6
:103B900035353535353434343434343434343333E2
:103BA00033333333333333333333333333333333E5
:103BB00033333333333333333333333333333434D3
:103BC00034343434343434343535353535353535AD
:103BD0003636363636363737373737383838383876
:103BE00039393939393A3A3A3A3A3B3B3B3B3C3C32
:103BF0003C3C3D3D3D3D3E3E3E3E3F3F3F404040E4
:103C0000404141414141403F3E3E3D3C3B3A3938D5
:103C10003736353434333231302F2E2D2C2B2B2A9E
:103C200029282726252524232221201F1F1E1D1C6D
:103C30001B1A1A1918171616151413121211100F31
:103C40000F0E0D0C0C0B0A090908070706050504E1
:103C5000030202010000000000000000000000005C
:103C60000000000000000000000000000000000054
:103C70000000000000000000000000000000000044
:103C80000000000000000000000000000000000034
:103C90000000000000000000000000000000000024
:103CA0000000000000000000000000000000000014
:103CB0000000000000000000000000000000000004
:103CC00000000000000000000000000000000000F4
:103CD00000000000000000000000000000000000E4
:103CE00000000000000000000000000000000000D4
:103CF00000000000000000000000000000000000C4
:103D000000000000000000000000000000000000B3
:103D1000000000000000010202030304050506077D
:103D2000070809090A0B0B0C0D0D0E0F0F101111CE
:103D300012131314151516171818191A1A1B1C1D0F
:103D40001D1C1C1B1B1A1A1A1919181817171616DE
:103D50001515151414131312121211111010100F3F
:103D60000F0E0E0E0D0D0C0C0C0B0B0B0A0A0A0994
:103D700009090808080707070606060505050504DA
:103D8000040404030303030202020202010101010D
:103D90000101000000000000000000000000000021
:103DA0000000000000000000000000000000000013
:103DB0000000000000000000000000000000000003
:103DC00000000000000001010101010202020203E3
:103DD0000303030404040505050506060607070892
:103DE00008080909090A0A0B0B0C0C0C0D0D0E0E24
:103DF0000F0F101011111212131314151516161798
:103E0000171819191A1A1B1C1C1D1E1E1F202021F1
:103E100022232324252526272828292A2B2B2C2D2D
:103E20002E2F2F3031323334343536373839393A52
:103E30003B3C3D3E3F404142424344454647484962
:103E40004A4B4C4D4E4F505152535455565758595A
:103E50005A5B5C5D5E5F606162636465666768694A
:103E60006A6B6C6D6E707172737475767778797A2F
:103E70007B7C7E7F80818283848586878787878617
:103E800086868686868686868585858585858585DA
:103E900085858585848484848484848484848484DE
:103EA00084848483838383838383838383838383DF
:103EB00083838383838383838383838383838383D2
:103EC00084848484848484848484848484858585AF
:103ED0008585858585868686868686878787878782
:103EE000878888888888898989898A8A8A8A8B8B41
:103EF0008B8C8C8C8C8D8D8D8E8E8E8F8F8F9090E9
:103F0000909191929292939394949495959696977A
:103F100097989899999A9A9B9B9C9C9D9D9E9E9FF1
:103F20009FA0A0A1A1A2A3A3A4A4A5A6A6A7A8A858
:103F3000A9A9AAABABACADADAEAFAFB0B1B2B2B3A5
:103F4000B4B4B5B6B7B7B8B9BABABBBCBDBEBEBFDC
:103F5000C0C1C2C2C3C4C5C6C6C7C8C9CACBCCCCFF
:103F6000CDCECFD0D1D2D2D2D2D2D2D2D2D2D2D240
:103F7000D2D2D2D2D2D2D2D2D2D2D2D2D2D2D2D221
:103F8000D2D2D2D2D2D2D2D2D2D2D2D2D2D2D2D211
:103F9000D2D2D2D2D2D2D2D2D2D2D2D2D2D2D2D201
:103FA000D2D2D2D2D2D2D2D2D2D2D2D2D2D2D2D2F1
:103FB000D2D2D2D2D2D2D2D2D2D2D2D2D2D2D2D2E1
:103FC000D2D2D2D2D2D1D0CFCECDCCCBCAC9C8C713
:103FD000C6C5C4C4C3C2C1C0BFBEBDBCBBBAB9B9EB
:103FE000B8B7B6B5B4B3B2B1B1B0AFAEADACABABC0
:103FF000AAA9A8A7A7A6A5A4A3A3A2A1A09F9F9E84
:104000009D9C9C9B9A999998979796959594939334
:10401000929191908F8F8E8D8D8C8C8B8A8A8989CD
:10402000888887878685858484838382828281814C
:1040300080807F7F7E7E7E7D7D7C7C7C7B7B7B7AAF
:104040007A7A7979797878787877777777767676F3
:10405000767575757575747474747474747373731C
:104060007373737373737373737373737373737320
:10407000737373737373737373737373737474740D
:1040800074747474757575757576767676767777DB
:104090007777787878787979797A7A7A7B7B7B7B8D
:1040A0007C7C7D7D7D7E7E7E7F7F80808081818225
:1040B00082838383848485858686878788888989A7
:1040C0008A8A8B8B8C8C8D8D8E8E8F8F9091919216
:1040D000929393949595969697989899999A9B9B75
:1040E0009C9C9D9E9E9FA0A0A1A1A2A3A3A4A5A5C8
:1040F000A6A6A6A5A4A4A3A3A2A2A1A1A0A09F9F97
:104100009E9E9D9D9C9C9B9A9A9999999898979709
:104110009696959594949393929291919190908F75
:104120008F8E8E8E8D8D8C8C8C8B8B8B8A8A8989D1
:10413000898888888787878686868685858584841A
:10414000848483838383828282828281818181814C
:10415000808080808080807F7F7F7F7F7F7F7F7F68
:104160007F7E7E7E7E7E7E7E7E7E7E7E7E7E7E7E6E
:104170007E7E7E7E7E7F7F7F7F7F7F7F7F7F808052
:10418000808080808081818181818282828283831C
:1041900083838484848585858586868687878788CA
:1041A000888989898A8A8B8B8B8C8C8D8D8E8E8F5A
:1041B0008F909091919292939394949595969697CF
:1041C000989899999A9B9B9C9C9D9E9E9FA0A0A12C
:1041D000A2A2A3A4A4A5A6A6A7A8A9A9AAABACAC71
:1041E000ADAEAFAFB0B1B2B2B3B4B5B6B6B7B8B9A1
:1041F000BABBBBBCBDBEBFC0C0C1C2C3C4C5C6C6BE
:10420000C7C8C9CACBCCCDCECECFD0D1D2D2D2D2D4
:10421000D2D2D2D2D2D2D2D2D2D2D2D2D2D2D2D27E
:10422000D2D2D2D2D2D2D2D2D2D2D2D2D2D2D2D26E
:10423000D2D2D2D2D2D2D2D2D2D2D2D2D2D2D2D25E
:10424000D2D2D2D2D2D2D2D2D2D2D2D2D2D2D2D24E
:10449000D2D2D2D2D2D2D2D2D1D1D0D0CFCECECD12
:1044A000CDCCCCCBCACAC9C9C8C8C7C7C6C6C5C582
:1044B000C4C4C3C3C2C2C1C1C0C0BFBFBEBEBDBDF4
:1044C000BCBCBBBBBABABAB9B9B8B8B7B7B7B6B65D
:1044D000B5B5B5B4B4B4B3B3B2B2B2B1B1B1B0B0B2
:1044E000B0AFAFAFAEAEAEADADADADACACACACABF6
:1044F000ABABAAAAAAAAAAA9A9A9A9A8A8A8A8A828
:10450000A7A7A7A7A7A7A6A6A6A6A6A6A6A5A5A548
:10451000A5A5A5A5A5A4A4A4A4A4A4A4A4A4A4A456
:10452000A4A4A4A4A4A3A3A3A3A3A3A3A3A3A3A356
:10453000A3A3A3A3A3A3A3A3A3A4A4A4A4A4A4A444
:10454000A4A4A4A4A4A4A4A4A4A4A5A5A5A5A5A525
:10455000A5A5A5A5A5A6A6A6A6A6A6A6A6A6A7A7FE
:10456000A7A7A7A7A7A7A8A8A8A8A8A8A8A8A9A9CF
:10457000A9A9A9A9A9AAAAAAAAAAAAAAABABABAB9C
:10458000ABABABACACACACACACABAAA9A7A6A5A48E
:10459000A3A2A1A09F9E9D9C9B9A99989695949367
:1045A0009291908F8E8D8C8B8A8988878685848264
:1045B00081807F7E7D7C7B7A797877767574737263
:1045C00071706F6E6D6C6B6A696867666564646351
:1045D0006261605F5E5D5C5B5A595858575655542E
:1045E00053525151504F4E4D4C4B4B4A49484747FF
:1045F0004645444343424140403F3E3D3D3C3B3ABB
:104600003A3938383736363534343332323130305F
:104610002F2F2E2D2D2C2C2B2B2A292928282727EC
:104620002626252524242323222222212120201F5F
:104630001F1F1E1E1D1D1D1C1C1C1B1B1B1A1A1AB6
:1046400019191919181818181717171716161616F2
:104650001615151515151414141414141414131315
:10466000131313131313131313131312121212121F
:104670001212121212121212131313131313131312
:1046800013131313131314141414141414141415EF
:1046900015151515151616161616161717171717BA
:1046A0001818181818191919191A1A1A1A1B1B1B75
:1046B0001B1C1C1C1C1D1D1D1D1E1E1E1F1F1F1F25
:1046C000202020201F1E1D1C1B1B1A191817161531
:1046D0001413131211100F0E0D0C0C0B0A090807FE
:1046E00007060504030202010000000000000000AC
:1046F00000000000000000000000000000000000BA
:1047000000000000000000000000000000000000A9
:104710000000000000000000000000000000000099
:104720000000000000000000000000000000000089
:104730000000000000000000000000000000000079
:104740000000000000000000000000000000000069
:104750000000000000000000000000000000000059
:104760000000000000000000000000000000000049
:104770000000000000000000000000000000000039
:104780000000000000000000000000000000000029
:104790000000000000000000000000000000000019
:1047A0000000000000000000000000000000000009
:1047B00000000000000000000000000000000000F9
:1047C00000000000000000000000000000000000E9
:1047D00000000000000000000000000000000000D9
:1047E00000000101020304050506070809090A0B78
:1047F0000C0D0E0E0F101112131414151617171797
:104800001716161615151514141413131312121265
:1048100012111111101010100F0F0F0E0E0E0E0DA1
:104820000D0D0D0C0C0C0C0C0B0B0B0B0A0A0A0AD1
:104830000A0A0909090909090808080808080807EF
:1048400007070707070707070707060606060606FE
:1048500006060606060606060606060606060607F7
:1048600007070707070707070707080808080808D2
:104870000909090909090A0A0A0A0B0B0B0B0C0C96
:104880000C0C0D0D0D0E0E0E0F0F0F101010111140
:1048900011121213131414141515161617171818CD
:1048A00019191A1A1B1B1C1C1D1D1E1E1F2020213E
:1048B000212223232424252626272828292A2A2B97
:1048C0002C2D2D2E2F2F30313232333435363637D2
:1048D00038393A3A3B3C3D3E3F3F404142434445F4
:1048E00045464748494A4B4C4D4E4F4F5051525305
:1048F0005455565758595A5B5C5D5E5F6061626300
:104900006465666768696A6B6C6D6E6F70717374ED
:1049100075767778797A7B7C7D7E7F8082838485CB
:10492000868788898A8B8C8E8F90919293949596A6
:1049300097999A9B9C9D9E9FA0A1A1A1A1A0A0A098
:10494000A0A0A0A0A0A0A09F9F9F9F9F9F9F9F9F70
:104950009F9E9E9E9E9E9E9E9E9E9E9E9E9D9D9D79
:104960009D9D9D9D9D9D9D9D9D9D9D9D9C9C9C9C7B
:104970009C9C9C9C9C9C9C9C9C9C9C9C9C9C9C9C77
:104980009C9C9C9C9C9C9C9C9C9C9C9C9C9C9C9C67
:104990009C9D9D9D9D9D9D9D9D9D9D9D9D9E9E9E45
:1049A0009E9E9E9E9E9F9F9F9F9F9F9FA0A0A0A018
:1049B000A0A0A1A1A1A1A1A2A2A2A2A3A3A3A3A4DA
:1049C000A4A4A4A5A5A5A5A6A6A6A7A7A7A8A8A888
:1049D000A9A9A9AAAAAAABABABACACADADADAEAE22
:1049E000AFAFAFB0B0B1B1B1B2B2B3B3B4B4B5B5AB
:1049F000B6B6B7B7B8B8B9B9BABABBBBBCBCBDBD1F
:104A0000BEBEBFBFC0C1C1C2C2C3C3C4C5C5C6C686
:104A1000C7C8C8C9C9CACBCBCCCDCDCECECFD0D0DC
:104A2000D1D2D2D2D2D2D2D2D2D2D2D2D2D2D2D267
:104A3000D2D2D2D2D2D2D2D2D2D2D2D2D2D2D2D256
:104A4000D2D2D2D2D2D2D2D2D2D2D2D2D2D2D2D246
:104A5000D2D2D2D2D2D2D2D2D2D2D2D2D2D2D2D236
:104A6000D2D2D2D2D2D2D2D2D2D2D2D2D2D2D2D226
:104A7000D2D2D2D2D2D2D2D2D2D2D2D2D2D2D2D216
:104A8000D2D2D2D2D2D2D2D2D2D2D2D2D2D2D2D206
:104A9000D2D2D2D2D2D2D2D2D2D2D2D2D2D2D2D2F6
:104AA000D2D2D2D2D2D2D2D2D2D2D2D2D1D1D0D0EC
:104AB000CFCFCECECDCDCCCCCCCBCBCACAC9C9C939
:104AC000C8C8C7C7C7C6C6C6C5C5C5C4C4C4C3C38E
:104AD000C3C3C2C2C2C2C1C1C1C1C0C0C0C0C0BFC5
:104AE000BFBFBFBFBFBEBEBEBEBEBEBEBEBEBDBDE3
:104AF000BDBDBDBDBDBDBDBDBDBDBDBDBDBDBDBDE6
:104B0000BDBEBEBEBEBEBEBEBEBEBEBFBFBFBFBFC1
:104B1000BFC0C0C0C0C1C1C1C1C1C2C2C2C3C3C382
:104B2000C3C4C4D2D2D2D2D2D2D2D2D2D2D2D2D290
:104B3000D2D2D2D2D2D2D2D2D2D2D2D2D2D2D2D255
:104B4000D2D2D2D2D2D2D2D2D2D2D2D2D2D2D2D245
:104B5000D2D2D2D2D2D2D2D2D2D2D2D2D2D2D2D235
:104B6000D2D2D2D2D2D2D2D2D2D2D2D2D2D2D2D225
:104B7000D2D2D2D2D2D2D2D2D2D2D2D2D2D2D2D215
:104B8000D2D2D2D2D2D2D2D2D2D2D2D2D2D2D2D205
:104B9000D2D2D2D2D2D2D2D2D2D2D2D2D2D2D2D2F5
:104BA000D2D2D2D2D2D2D2D2D2D2D2D2D2D2D2D2E5
:104BB000D2D2D2D2D2D2D2D2D2D2D2D2D2D2D2D2D5
:104BC000D2D2D2D2D2D2D2D2D2D2D2D2D2D2D2D2C5
:104BD000D2D2D2D2D2D2D2D2D2D2D2D2D2D2D2D2B5
:104BE000D2D2D2D2D2D2D2D2D2D2D2D2D2D2D2D2A5
:104BF000D2D2D2D2D2D2D2D2D2D2D2D2D2D2D2D295
:104C0000D2D2D2D2D2D2D2D2D2D2D2D2D2D2D2D284
:104C1000D2D2D2D2D2D2D2D2D2D2D2D2D2D2D2D274
:104C2000D2D2D2D2D2D2D2D2D2D2D2D2D2D2D2D264
:104C3000D2D2D2D2D2D2D2D2D2D2D2D2D2D2D2D254
:104C4000D2D2D2D2D2D2D2D2D2D2D2D2D2D2D2D244
:104C5000D2D2D2D2D2D2D2D2D2D2D2D2D2D2D2D234
:104C6000D2D2D2D2D2D2D2D2D2D2D2D2D2D2D2D224
:104C7000D2D2D2D2D2D2D2D2D2D2D2D2D2D2D2D214
:104C8000D2D2D2D2D2D2D2D2D2D2D2D2D2D2D2D204
:104C9000D2D2D2D2D2D2D2D2D2D2D2D2D2D2D2D2F4
:104CA000D2D2D2D2D2D2D2D2D2D2D2D2D2D2D2D2E4
:104CB000D2D2D2D2D2D2D2D2D2D2D2D2D2D2D2D2D4
:104CC000D2D2D2D2D2D2D2D2D2D2D2D2D2D2D2D2C4
:104CD000D2D2D2D2D2D2D2D2D2D2D2D2D2D2D2D2B4
:104CE000D2D2D2D2D2D2D2D2D2D2D2D2D2D2D2D2A4
:104CF000D2D2D2D2D2D2D2D2D2D2D2D2D2D2D2D294
:104D0000D2D2D2D2D2D2D2D2D2D2D2D2D2D2D2D283
:104D1000D2D2D2D2D2D2D2000000080002010000CA
:104D20000304070000000000000000010204081056
:104D30002040800102040810200102040810200411
:104D40000404040404040402020202020203030332
:104D500003030300000000230026002900000000D8
:104D600000250028002B0000000000240027002A56
:104D70000000952D11241FBECFEFD8E0DEBFCDBFC0
:104D800011E0A0E0B1E0EEE5FDE502C005900D9276
:104D9000AA33B107D9F722E0AAE3B1E001C01D921E
:104DA000A034B207E1F71DE4C4E7DDE404C02297B4
:104DB000FE010E94A92EC237D107C9F70E94D92D42
:104DC0000C94AD2E0C94000040ED57E060E070E0D4
:104DD00083E691E00E94552A20E032EC41E050E069
:104DE00063EA71E083E691E00E94682A83E691E03D
:104DF0000E94522A64E071E08091940190919501A3
:104E00000E94262E6AE070E080E090E00E94EE2A88
:104E100040E060E083E691E00E94742A60E082E076
:104E20000E948C2B61E080E00E948C2B61E081E08D
:104E30000E948C2B61E083E00E948C2B61E084E077
:104E40000E948C2B61E085E00E948C2B61E086E063
:104E50000E948C2B61E087E00E948C2B61E088E04F
:104E60000E948C2B61E089E00E948C2B61E08AE03B
:104E70000E948C2B61E08BE00E948C2B61E08CE027
:104E80000E948C2B61E08DE00C948C2B0F931F9370
:104E9000CF93DF93C0E0D0E0E0915901F0915A0147
:104EA000E35BFB4BE491F0E0CE17DF0709F4589A7F
:104EB000E0915701F0915801E157F64CE491F0E090
:104EC000CE17DF0709F4599AE0915501F091560188
:104ED000E357F64CE491F0E0CE17DF0709F45B9A54
:104EE000E0915301F0915401E557F64CE491F0E064
:104EF000CE17DF0709F45C9AE0915101F09152015D
:104F0000E853FC4CE491F0E0CE17DF0709F45D9A1A
:104F1000E0914F01F0915001E25EF14DE491F0E03B
:104F2000CE17DF0709F45E9AE0914D01F0914E0132
:104F3000E85BF84DE491F0E0CE17DF0709F45F9AE3
:104F4000E0914B01F0914C01EC57F24EE491F0E00E
:104F5000CE17DF0709F4289AE0914901F0914A0140
:104F6000E654FB4EE491F0E0CE17DF0709F4299AEE
:104F7000E0914701F0914801E051F44FE491F0E0F5
:104F8000CE17DF0709F42A9AE0914501F091460116
:104F9000E85FF74FE491F0E0CE17DF0709F42B9AB2
:104FA000E0914301F0914401E659FF4FE491F0E0B4
:104FB000CE17DF0709F42C9AE0914101F0914201EC
:104FC000E859FF4FE491F0E0CE17DF0709F42D9A7E
:104FD0000E94CB2A60933B0170933C0180933D017A
:104FE00090933E010E94CB2A00913B0110913C011D
:104FF00020913D0130913E01601B710B820B930BA0
:105000000091020110910301222717FD2095322FF4
:10501000601771078207930728F32196C11541E0B5
:10502000D40709F039CF0E94CB2A60933B017093DB
:105030003C0180933D0190933E010E94CB2A009158
:105040003B0110913C0120913D0130913E01601BDC
:10505000710B820B930B643671058105910568F322
:10506000589859985B985C985D985E985F982898D6
:1050700029982A982B982C982D9880913F019091EF
:105080004001009709F047C02091590130915A0121
:105090002F5F3F4F30935A012093590120915701C0
:1050A000309158012F5F3F4F3093580120935701A3
:1050B00020915501309156012F5F3F4F309356019B
:1050C0002093550120915301309154012F5F3F4FA0
:1050D000309354012093530120915101309152019A
:1050E0002F5F3F4F309352012093510120914F0188
:1050F000309150012F5F3F4F3093500120934F016B
:1051000020914D0130914E012F5F3F4F30934E0162
:1051100020934D013FC081309105E1F520914B0175
:1051200030914C012F5F3F4F30934C0120934B0146
:105130002091490130914A012F5F3F4F30934A013E
:105140002093490120914701309148012F5F3F4F43
:105150003093480120934701209145013091460149
:105160002F5F3F4F3093460120934501209143012B
:10517000309144012F5F3F4F30934401209343010E
:1051800020914101309142012F5F3F4F3093420106
:10519000209341012091590130915A012A3C384015
:1051A00021F410925A011092590120915701309127
:1051B00058012E3B3A4021F41092580110925701A9
:1051C00020915501309156012230310521F4109281
:1051D0005601109255012091530130915401223013
:1051E000310521F410925401109253012091510184
:1051F00030915201233C354021F41092520110921B
:10520000510120914F01309150012A3A354021F44B
:105210001092500110924F0120914D0130914E019A
:10522000263D364021F410924E0110924D012091FE
:105230004B0130914C01243C394021F410924C0137
:1052400010924B012091490130914A012A3C38408B
:1052500021F410924A0110924901209147013091A6
:1052600048012A3C384021F410924801109247012D
:105270002091450130914601283E334021F410929F
:1052800046011092450120914301309144012E398D
:10529000374021F4109244011092430120914101C2
:1052A000309142012230310521F4109242011092D6
:1052B000410101968230910529F09093400180933D
:1052C0003F0104C01092400110923F01DF91CF9145
:1052D0001F910F910895CF92DF92EF92FF920F935B
:1052E0001F930E94BF2A672B682B692B41F40E94F1
:1052F000BF2A623071058105910508F46CC083E610
:1053000091E00E94282A60935B0170935C01809376
:105310005D0190935E0100915F0110916001209109
:10532000610130916201601771078207930740F4B1
:1053300060935F01709360018093610190936201BB
:1053400000915F0110916001209161013091620133
:105350006B017C01C01AD10AE20AF30A97018601A7
:105360000A3F110521053105B0F160935F0170938B
:105370006001809361019093620183E691E00E9455
:10538000522A66E171E080919401909195010E940A
:10539000262E6EE171E080919401909195010E941A
:1053A000262E0E94BF2AAB01BC012AE030E080918A
:1053B0009401909195010E94772E60E271E08091B6
:1053C0009401909195010E94262E65E070E080E0A6
:1053D00090E00E94EE2A82E00E94C52B892B19F0F2
:1053E00010923A012EC080913A0181112AC00E9488
:1053F000CB2A60933B0170933C0180933D019093D5
:105400003E010E94CB2A00913B0110913C0120916A
:105410003D0130913E01601B710B820B930B00919B
:10542000000110910101222717FD2095322F6017EE
:1054300071078207930728F30E94462781E0809333
:105440003A011F910F91FF90EF90DF90CF90089558
:105450000C94BF2A0F931F93CF93DF93EC01662325
:1054600059F00E94BF2A69837A838B839C83DF91E2
:10547000CF911F910F9108950E94BF2A09811A812F
:105480002B813C81601B710B820B930B6436710581
:105490008105910530F763E070E080E090E00E94C4
:1054A000EE2AEACF60E00C942A2AFC0113AA14AA7F
:1054B00015AA16AA1182128213821482411551056F
:1054C0006105710521F0CB01BA010C94EE2A089513
:1054D000FB01BA01A901DC01D296FC93EE93D197AE
:1054E00026E0CF010C94D12C08951F920F920FB695
:1054F0000F9211242F933F938F939F93AF93BF935A
:1055000080919B0190919C01A0919D01B0919E0181
:1055100030919A0123E0230F2D3720F40196A11D2D
:10552000B11D05C026E8230F0296A11DB11D2093D1
:105530009A0180939B0190939C01A0939D01B0934D
:105540009E0180919F019091A001A091A101B09135
:10555000A2010196A11DB11D80939F019093A0010E
:10556000A093A101B093A201BF91AF919F918F91A0
:105570003F912F910F900FBE0F901F9018952FB74E
:10558000F89460919B0170919C0180919D01909194
:105590009E012FBF08953FB7F89480919F0190918D
:1055A000A001A091A101B091A20126B5A89B05C0C0
:1055B0002F3F19F00196A11DB11D3FBF6627782F1F
:1055C000892F9A2F620F711D811D911D42E0660F78
:1055D000771F881F991F4A95D1F708958F929F9240
:1055E000AF92BF92CF92DF92EF92FF926B017C015C
:1055F0000E94CB2A4B015C01C114D104E104F104E7
:10560000F1F00E94842E0E94CB2A681979098A0938
:105610009B09683E73408105910570F321E0C21A31
:10562000D108E108F10888EE880E83E0981EA11CDD
:10563000B11CC114D104E104F10429F7DDCFFF90BE
:10564000EF90DF90CF90BF90AF909F908F90089594
:10565000789484B5826084BD84B5816084BD85B54D
:10566000826085BD85B5816085BDEEE6F0E0808114
:1056700081608083E1E8F0E0108280818260808335
:10568000808181608083E0E8F0E0808181608083B8
:10569000E1EBF0E0808184608083E0EBF0E08081EA
:1056A00081608083EAE7F0E080818460808380818C
:1056B0008260808380818160808380818068808334
:1056C0001092C1000895833081F028F4813099F060
:1056D0008230A1F008958730A9F08830B9F0843085
:1056E000D1F4809180008F7D03C0809180008F77FE
:1056F00080938000089584B58F7702C084B58F7D34
:1057000084BD08958091B0008F7703C08091B00070
:105710008F7D8093B0000895CF93DF9390E0FC01DC
:10572000E55DF24B2491FC01E15CF24B849188230E
:1057300049F190E0880F991FFC01E959F24BA591BE
:10574000B491835A924BFC01C591D4919FB76111DA
:1057500008C0F8948C91209582238C9388818223B1
:105760000AC0623051F4F8948C91322F3095832323
:105770008C938881822B888304C0F8948C91822B2F
:105780008C939FBFDF91CF910895CF93DF93282F04
:1057900030E0F901E95EF24B8491F901E55DF24BED
:1057A000D491F901E15CF24BC491CC2391F08111C9
:1057B0000E94632BEC2FF0E0EE0FFF1FED5AF24B2F
:1057C000A591B4912C912D2381E090E021F480E00B
:1057D00002C080E090E0DF91CF910895FC01818DBF
:1057E000228D90E0805C9F4F821B91098F739927D7
:1057F0000895FC01918D828D981731F0828DE80F0C
:10580000F11D858D90E008958FEF9FEF0895FC01C5
:10581000918D828D981761F0828DDF01A80FB11DE7
:105820005D968C91928D9F5F9F73928F90E008950B
:105830008FEF9FEF08958BE89DE2892B49F080E080
:1058400090E0892B29F00E948B2D81110C9400008F
:105850000895FC01848DDF01A80FB11DA35ABF4F2D
:105860002C91848D90E001968F739927848FA6895F
:10587000B7892C93A089B1898C9180648C93938D86
:10588000848D981306C00288F389E02D80818F7D76
:1058900080830895CF93DF93EC01888D8823C9F02E
:1058A000EA89FB89808185FD05C0A889B9898C9129
:1058B00086FD0FC00FB607FCF5CF808185FFF2CFC4
:1058C000A889B9898C9185FFEDCFCE010E94292C42
:1058D000E7CFDF91CF910895CF92DF92FF920F93A0
:1058E0001F93CF93DF931F92CDB7DEB76C0181E09A
:1058F000D60158968C9358975B969C915B975C96D3
:105900008C915C97981307C05096ED91FC9151973C
:10591000808185FD2EC0F601038D10E00F5F1F4FC3
:105920000F731127F02EF601848DF81211C00FB6F7
:1059300007FCF9CFD6015096ED91FC9151978081EB
:1059400085FFF1CFC60169830E94292C6981EBCFC5
:10595000838DE80FF11DE35AFF4F6083D6015B96FC
:105960000C935B975296ED91FC91539780818062E6
:105970000CC0D6015696ED91FC91579760835096D6
:10598000ED91FC91519780818064808381E090E06B
:105990000F90DF91CF911F910F91FF90DF90CF90EB
:1059A0000895BF92CF92DF92EF92FF92CF93DF9351
:1059B000EC016A017B01B22EE889F98982E08083DB
:1059C000411581EE580761057105A1F060E079E0AD
:1059D0008DE390E0A70196010E94852E21503109A8
:1059E000410951095695479537952795211580E12D
:1059F000380798F0E889F989108260E874E88EE148
:105A000090E0A70196010E94852E2150310941099D
:105A100051095695479537952795EC85FD85308337
:105A2000EE85FF852083188EEC89FD89B082EA8996
:105A3000FB89808180618083EA89FB89808188601D
:105A40008083EA89FB89808180688083EA89FB8979
:105A500080818F7D8083DF91CF91FF90EF90DF90E9
:105A6000CF90BF9008951F920F920FB60F921124FE
:105A70002F938F939F93EF93FF93E091B301F09156
:105A8000B4018081E091B901F091BA0182FD12C0A8
:105A900090818091BC018F5F8F732091BD0182172F
:105AA00051F0E091BC01F0E0ED55FE4F958F8093F1
:105AB000BC0101C08081FF91EF919F918F912F9147
:105AC0000F900FBE0F901F9018951F920F920FB658
:105AD0000F9211242F933F934F935F936F937F9374
:105AE0008F939F93AF93BF93EF93FF9383EA91E0DC
:105AF0000E94292CFF91EF91BF91AF919F918F91BF
:105B00007F916F915F914F913F912F910F900FBEB9
:105B10000F901F90189583EA91E00E94EE2B21E0F0
:105B2000892B09F420E0822F08951092A60110928B
:105B3000A50188EE93E0A0E0B0E08093A7019093E8
:105B4000A801A093A901B093AA018DE291E09093DE
:105B5000A4018093A30185EC90E09093B001809321
:105B6000AF0184EC90E09093B2018093B10180EC9E
:105B700090E09093B4018093B30181EC90E0909316
:105B8000B6018093B50182EC90E09093B8018093C8
:105B9000B70186EC90E09093BA018093B90110921E
:105BA000BC011092BD011092BE011092BF01089578
:105BB00008950E94282B0E94D82D0E94E426CBE154
:105BC000DCE20E946B292097E1F30E941B2CF9CFA5
:105BD000CF92DF92EF92FF920F931F93CF93DF93B9
:105BE0007C016A01EB0100E010E00C151D0571F06D
:105BF0006991D701ED91FC910190F081E02DC701F1
:105C00000995892B19F00F5F1F4FEFCFC801DF9166
:105C1000CF911F910F91FF90EF90DF90CF9008955B
:105C20006115710581F0DB010D900020E9F7AD01F0
:105C300041505109461B570BDC01ED91FC9102804C
:105C4000F381E02D099480E090E008950C94102EEB
:105C50008F929F92AF92BF92DF92EF92FF920F933B
:105C60001F93CF93DF93CDB7DEB7A1970FB6F8940C
:105C7000DEBF0FBECDBF7C01F42FD52ECB0119A204
:105C8000223008F42AE08E010F5D1F4F822E912CE6
:105C9000A12CB12C6F2F7D2DA50194010E94852E82
:105CA000F22FD32ECA01015011096A3014F4E0E337
:105CB00001C0E7E3E60FD801EC93232B242B252B1F
:105CC00049F7B801C7010E94102EA1960FB6F894AB
:105CD000DEBF0FBECDBFDF91CF911F910F91FF901F
:105CE000EF90DF90BF90AF909F908F900895211517
:105CF000310541F4DC01ED91FC910190F081E02D42
:105D0000642F09940C94282E0895A1E21A2EAA1B40
:105D1000BB1BFD010DC0AA1FBB1FEE1FFF1FA2175B
:105D2000B307E407F50720F0A21BB30BE40BF50B58
:105D3000661F771F881F991F1A9469F760957095E1
:105D4000809590959B01AC01BD01CF010895EE0FA8
:0E5D5000FF1F0590F491E02D0994F894FFCF09
:105D5E0020030B00564D4450565F317C305F564D3C
:105D6E004450560D0A00564D4450455F31007C009C
:105D7E005F564D4450450D0A00000000006C2CE8A3
:0A5D8E002DEE2B072CF92B4A2C00F8
:00000001FF
