:100000000C94D2000C94FA000C94FA000C94FA00B0
:100010000C94FA000C94FA000C94FA000C94FA0078
:100020000C94FA000C94FA000C94FA000C94FA0068
:100030000C94FA000C94FA000C94FA000C94FA0058
:100040000C9440040C94FA000C94E3050C943106D3
:100050000C94FA000C94FA000C94FA000C94FA0038
:100060000C94FA000C94FA00FFFFFFFFFFFFFFFF64
:10007000FFFFFFFFFFFFFFF7EFE8E0D8D0C8C0B8F1
:10008000B1A9A29A938C857E77706A635D57514BB4
:1000900046403B36312D2824201C191512100D0B1B
:1000A0000907050403020101000101020304050719
:1000B000090B0D101215191C2024282D31363B4038
:1000C000464B51575D636A70777E858C939AA2A9DF
:1000D000B1B8C0C8D0D8E0E8EFF7FFFFFFFFFFFFDF
:1000E000FFFFFFF7EFE8E0D8D0C8C0B8B1A9A29AE7
:1000F000938C857E77706A635D57514B46403B36E3
:10010000312D2824201C191512100D0B0907050488
:10011000030201010001010203040507090B0D1090
:100120001215191C2024282D31363B40464B5157BF
:100130005D636A70777E858C939AA2A9B1B8C0C8B6
:10014000D0D8E0E8EFF700000000240027002A00E4
:1001500000000000250028002B0000000000230004
:100160002600290004040404040404040202020218
:10017000020203030303030301020408102040806A
:1001800001020408102001020408102000000007EA
:10019000000201000003040600000000000000004F
:1001A0000E049D0711241FBECFEFD8E0DEBFCDBFE8
:1001B00011E0A0E0B1E0E4E7F2E102C005900D92A9
:1001C000A433B107D9F712E0A4E3B1E001C01D9256
:1001D000A434B107E1F711E0C4EAD1E004C02297EA
:1001E000FE010E943409C03AD107C9F70E94F30703
:1001F0000C9438090C940000CF93DF93C0E0D0E05A
:10020000E0913D01F0913E01E859FF4FE4918E2FBE
:1002100090E0C817D90709F4589AE0913F01F0918E
:100220004001E659FF4FE4918E2F90E0C817D9079F
:1002300009F4599AE0914101F0914201E459FF4FCC
:10024000E4918E2F90E0C817D90709F45B9AE091EA
:100250004301F0914401E259FF4FE4918E2F90E069
:10026000C817D90709F45C9AE0914501F09146015D
:10027000E059FF4FE4918E2F90E0C817D90709F499
:100280005D9AE0914701F0914801EE58FF4FE491EB
:100290008E2F90E0C817D90709F45E9AE0914901C2
:1002A000F0914A01EC58FF4FE4918E2F90E0C8176F
:1002B000D90709F45F9AE0914B01F0914C01EA589B
:1002C000FF4FE4918E2F90E0C817D90709F4289AC0
:1002D000E0914D01F0914E01E652FF4FE4918E2FD7
:1002E00090E0C817D90709F4299AE0914F01F091DD
:1002F0005001E452FF4FE4918E2F90E0C817D907C8
:1003000009F42A9AE0915101F0915201E252FF4F13
:10031000E4918E2F90E0C817D90709F42B9AE09149
:100320005301F0915401E052FF4FE4918E2F90E081
:10033000C817D90709F42C9AE0915501F09156019C
:10034000EE51FF4FE4918E2F90E0C817D90709F4C2
:100350002D9A0E9496046093590170935A018093DC
:100360005B0190935C010E949604209159013091A9
:100370005A0140915B0150915C01621B730B840B2D
:10038000950B2091200130912101442737FD4095A4
:10039000542F621773078407950728F3219681E08D
:1003A000C030D80709F02CCF0E9496046093590101
:1003B00070935A0180935B0190935C010E949604B4
:1003C0002091590130915A0140915B0150915C019B
:1003D000621B730B840B950B6436710581059105C7
:1003E00068F3589859985B985C985D985E985F9808
:1003F000289829982A982B982C982D988091570105
:1004000090915801892B09F03FC080913D01909156
:100410003E01019690933E0180933D0180913F0102
:100420009091400101969093400180933F0180910B
:1004300041019091420101969093420180934101C4
:1004400080914301909144010196909344018093DF
:100450004301809145019091460101969093460198
:1004600080934501809147019091480101969093B6
:100470004801809347018091490190914A0101967A
:1004800090934A01809349018091570190915801BE
:100490000197B1F580914B0190914C010196909399
:1004A0004C0180934B0180914D0190914E0101963A
:1004B00090934E0180934D0180914F019091500196
:1004C00001969093500180934F018091510190913A
:1004D00052010196909352018093510180915301F2
:1004E000909154010196909354018093530180910F
:1004F00055019091560101969093560180935501B4
:1005000080913D0190913E01029721F410923E01AD
:1005100010923D0180913F0190914001029721F49A
:100520001092400110923F0180914101909142014F
:10053000029721F4109242011092410180914301EF
:1005400090914401029721F41092440110924301CA
:100550008091450190914601029721F41092460145
:10056000109245018091470190914801029721F432
:1005700010924801109247018091490190914A01DF
:10058000029721F410924A011092490180914B0187
:1005900090914C018436910521F410924C011092F7
:1005A0004B0180914D0190914E01029721F41092E0
:1005B0004E0110924D0180914F0190915001029790
:1005C00021F41092500110924F01809151019091AD
:1005D0005201029721F41092520110925101809120
:1005E000530190915401029721F4109254011092FA
:1005F000530180915501909156018436910521F463
:100600001092560110925501809157019091580116
:1006100001969093580180935701029721F410920C
:10062000580110925701DF91CF910895EF92FF92F8
:100630000F931F930E948804611571058105910530
:1006400041F40E948804623071058105910508F427
:1006500071C00E9488049B01AC01609339017093C2
:100660003A0180933B0190933C0180913401909139
:100670003501A0913601B0913701281739074A0793
:100680005B0740F4209334013093350140933601E9
:10069000509337018091340190913501A09136013A
:1006A000B091370179018A01E81AF90A0A0B1B0B8C
:1006B000D801C7018A3F9105A105B105D8F1809104
:1006C00038018823B9F520933401309335014093E4
:1006D0003601509337018EE591E00E943C048091F1
:1006E0008F019091900160E071E00E94DB088091A1
:1006F0008F019091900168E071E00E94DB08009109
:100700008F01109190010E948804AB01BC01C801C7
:100710002AE030E00E94CC0880918F0190919001F6
:100720006AE071E00E94DE0865E070E080E090E041
:100730000E94BC0482E00E948F05892B79F580918C
:100740005D01882369F50E949604609359017093B6
:100750005A0180935B0190935C010E949604209162
:10076000590130915A0140915B0150915C01621B2B
:10077000730B840B950B20912201309123014427A8
:1007800037FD4095542F621773078407950728F3A8
:100790000E94FC0081E080935D0102C010925D0127
:1007A0001F910F91FF90EF9008950F931F930EE507
:1007B00011E0C80162E272E020E032EC41E050E07A
:1007C0000E940F0460ED77E080E090E00E94BC049E
:1007D000C8010E943C0480918F019091900161E1D9
:1007E00071E00E94DE086AE070E080E090E00E9424
:1007F000BC04C80160E040E00E940D0482E060E0BB
:100800000E94500588E061E00E9450058DE061E0A3
:100810000E9450051F910F91089508950895FC01BD
:1008200072AB61ABCB01BA01A9010E946C060895BD
:10083000CF93DF93EC01662339F015C063E070E0DD
:1008400080E090E00E94BC040E94880429813A81E3
:100850004B815C81621B730B840B950B64367105B5
:100860008105910558F30E94880469837A838B83FC
:100870009C83DF91CF91089560E00E941804089551
:100880001F920F920FB60F9211242F933F938F93C5
:100890009F93AF93BF938091950190919601A09102
:1008A0009701B0919801309199010196A11DB11D58
:1008B000232F2D5F2D3720F02D570196A11DB11D3F
:1008C000209399018093950190939601A0939701AD
:1008D000B09398018091910190919201A091930120
:1008E000B09194010196A11DB11D80939101909347
:1008F0009201A0939301B0939401BF91AF919F9106
:100900008F913F912F910F900FBE0F901F901895D0
:100910008FB7F894209195013091960140919701FD
:10092000509198018FBFB901CA0108959FB7F894FB
:100930002091910130919201409193015091940145
:1009400086B5A89B06C08F3F21F02F5F3F4F4F4FCA
:100950005F4F9FBF542F432F322F2227280F311D67
:10096000411D511D82E0220F331F441F551F8A95E0
:10097000D1F7B901CA0108959B01AC017FB7F89482
:100980008091910190919201A0919301B091940175
:1009900066B5A89B05C06F3F19F00196A11DB11D5A
:1009A0007FBFBA2FA92F982F8827860F911DA11DD1
:1009B000B11D62E0880F991FAA1FBB1F6A95D1F76E
:1009C000BC012DC0FFB7F8948091910190919201E4
:1009D000A0919301B0919401E6B5A89B05C0EF3FAB
:1009E00019F00196A11DB11DFFBFBA2FA92F982F95
:1009F00088278E0F911DA11DB11DE2E0880F991F60
:100A0000AA1FBB1FEA95D1F7861B970B885E934000
:100A1000C8F2215030404040504068517C4F211571
:100A200031054105510571F60895789484B58260C9
:100A300084BD84B5816084BD85B5826085BD85B582
:100A4000816085BDEEE6F0E0808181608083E1E831
:100A5000F0E0108280818260808380818160808369
:100A6000E0E8F0E0808181608083E1EBF0E080816C
:100A700084608083E0EBF0E0808181608083EAE73E
:100A8000F0E08081846080838081826080838081C7
:100A9000816080838081806880831092C100089586
:100AA000CF93DF93482F50E0CA0188589E4FFC0136
:100AB00034914C595E4FFA018491882369F190E09A
:100AC000880F991FFC01EA5BFE4FA591B491FC01D0
:100AD000E05BFE4FC591D491662351F42FB7F89493
:100AE0008C91932F909589238C93888189230BC0B7
:100AF000623061F42FB7F8948C91932F90958923ED
:100B00008C938881832B88832FBF06C09FB7F8946E
:100B10008C91832B8C939FBFDF91CF910895682F89
:100B200070E0CB0184579E4FFC012491CB01885883
:100B30009E4FFC0144916C597E4FFB019491992387
:100B400019F420E030E03CC0222351F1233071F051
:100B5000243028F42130A1F0223011F514C02630C1
:100B6000B1F02730C1F02430D9F404C08091800066
:100B70008F7703C0809180008F7D8093800010C0AC
:100B800084B58F7702C084B58F7D84BD09C0809104
:100B9000B0008F7703C08091B0008F7D8093B0004C
:100BA000892F90E0880F991F865A9E4FFC01A591CE
:100BB000B4918C9120E030E0842311F021E030E00A
:100BC000C901089508951F920F920FB60F92112434
:100BD0002F933F934F938F939F93EF93FF93809126
:100BE000C00082FD1DC04091C6002091DA01309105
:100BF000DB012F5F3F4F2F7330708091DC019091AC
:100C0000DD012817390771F0E091DA01F091DB017D
:100C1000E656FE4F40833093DB012093DA0102C099
:100C20008091C600FF91EF919F918F914F913F91DD
:100C30002F910F900FBE0F901F901895E0912E02EC
:100C4000F0912F02E05CFF4F8191919120813181E1
:100C5000821B930B8F739070892B11F00E94E20519
:100C600008951F920F920FB60F9211242F933F9366
:100C70008F939F93EF93FF9320911E0230911F0259
:100C800080912002909121022817390731F4809138
:100C9000C1008F7D8093C10014C0E0912002F091CB
:100CA0002102E252FE4F2081809120029091210288
:100CB00001968F739070909321028093200220936D
:100CC000C600FF91EF919F918F913F912F910F90CF
:100CD0000FBE0F901F901895AF92BF92DF92EF92C8
:100CE000FF920F931F93CF93DF93EC017A018B0157
:100CF000DD24403081EE580780E0680780E0780707
:100D000011F0DD24D39491E0A92EB12CEC89FD895A
:100D1000DD2069F0C50108A002C0880F991F0A9460
:100D2000E2F7808360E079E08DE390E005C0108217
:100D300060E874E88EE190E0A80197010E94100934
:100D40002150304040405040569547953795279563
:100D500080E12030380720F0DD2011F0DD24D6CFEF
:100D6000E889F9893083EA89FB89208319A2EE8911
:100D7000FF89408121E030E0C9010C8C02C0880F5E
:100D8000991F0A94E2F7482B4083EE89FF8940813E
:100D9000C9010D8C02C0880F991F0A94E2F7482BF5
:100DA0004083EE89FF894081C9010E8C02C0880F03
:100DB000991F0A94E2F7482B4083EE89FF898081CE
:100DC0000F8C02C0220F331F0A94E2F720952823CC
:100DD0002083DF91CF911F910F91FF90EF90DF90D3
:100DE000BF90AF900895DC011C96ED91FC911D978A
:100DF000E05CFF4F2191319180819181281B390B5B
:100E00002F733070C9010895DC011C96ED91FC919F
:100E10001D97E05CFF4F20813181E054F040DF01FD
:100E2000AE5BBF4F8D919C9111972817390719F42C
:100E30002FEF3FEF07C08D919C91E80FF91F808144
:100E4000282F30E0C9010895DC011C96ED91FC913A
:100E50001D97E05CFF4F20813181E054F040DF01BD
:100E6000AE5BBF4F8D919C9111972817390719F4EC
:100E70002FEF3FEF10C08D919C911197E80FF91F54
:100E800020818D919C91119701968F73907011968E
:100E90009C938E9330E0C9010895DC0191968C916A
:100EA0009197882339F05496ED91FC915597808164
:100EB00086FFF9CF91961C920895CF93DF93EC01B2
:100EC000EE85FF85E05CFF4F20813181E054F040EA
:100ED0002F5F3F4F2F733070DF01AE5BBF4F8D919F
:100EE0009C91119728173907D1F3E05CFF4F80815F
:100EF0009181E054F040E80FF91F6083EE85FF8593
:100F0000E05CFF4F31832083EE89FF89208181E0FF
:100F100090E00F8C02C0880F991F0A94E2F7282BEB
:100F2000208381E089A3EC89FD89808180648083AE
:100F300081E090E0DF91CF91089510922502109208
:100F4000240288EE93E0A0E0B0E080932602909324
:100F50002702A0932802B093290288E291E090939F
:100F60002302809322028AE991E090932F028093DA
:100F70002E028EED91E0909331028093300285EC49
:100F800090E0909333028093320284EC90E090934F
:100F900035028093340280EC90E090933702809386
:100FA000360281EC90E0909339028093380282EC13
:100FB00090E090933B0280933A0286EC90E090930D
:100FC0003D0280933C0284E080933E0283E0809364
:100FD0003F0287E08093400285E08093410281E0F8
:100FE000809342020895CF93DF930E9415050E94DB
:100FF000D503CEE1D6E00E9416032097E1F30E94CC
:101000001E06F9CFCF92DF92EF92FF920F931F93BC
:10101000CF93DF937C016B018A01C0E0D0E00FC069
:10102000D6016D916D01D701ED91FC910190F08198
:10103000E02DC7010995C80FD91F015010400115B7
:10104000110571F7CE01DF91CF911F910F91FF90A4
:10105000EF90DF90CF900895EF92FF920F931F9340
:101060008C01DC01ED91FC910190F081E02D6DE0AF
:1010700009957C01D801ED91FC910190F081E02D62
:10108000C8016AE009959C012E0D3F1DC9011F9101
:101090000F91FF90EF900895CF93DF93EC016115CE
:1010A000710519F420E030E00FC0DB010D90002045
:1010B000E9F71197A61BB70BE881F9810280F3814C
:1010C000E02DAD0109959C01C901DF91CF910895F3
:1010D0004F925F927F928F929F92AF92BF92CF92E8
:1010E000DF92EF92FF920F931F93DF93CF93CDB7D1
:1010F000DEB7A1970FB6F894DEBF0FBECDBF2C01AF
:10110000742ECB01223008F42AE019A231E2C32E5A
:10111000D12CCC0EDD1E822E9924AA24BB24672D4F
:10112000752FA50194010E94100979018A01C80157
:10113000B701A50194010E94F108472D461B0894B0
:10114000C108D1084A3014F4405D01C0495CF60181
:101150004083E114F1040105110521F07E2C5F2D7F
:10116000C801DDCFC201B6010E944C08A1960FB69E
:10117000F894DEBF0FBECDBFCF91DF911F910F91CD
:10118000FF90EF90DF90CF90BF90AF909F908F90A7
:101190007F905F904F900895DC012115310541F457
:1011A000ED91FC910190F081E02D642F0995089557
:1011B0000E94680808950E944C080895EF92FF92DB
:1011C0000F931F937C010E944C088C01C7010E9461
:1011D0002C08080F191FC8011F910F91FF90EF9065
:1011E0000895629FD001739FF001829FE00DF11D71
:1011F000649FE00DF11D929FF00D839FF00D749F91
:10120000F00D659FF00D9927729FB00DE11DF91F3C
:10121000639FB00DE11DF91FBD01CF011124089599
:10122000A1E21A2EAA1BBB1BFD010DC0AA1FBB1FEA
:10123000EE1FFF1FA217B307E407F50720F0A21B5C
:10124000B30BE40BF50B661F771F881F991F1A94C9
:1012500069F760957095809590959B01AC01BD01F3
:10126000CF010895EE0FFF1F0590F491E02D099432
:04127000F894FFCF20
:10127400564D4450455F31007C005F564D44504507
:1012840000564D4450565F317C5F564D44505600D5
:101294000B002003000000005D070208F30624078A
:0412A40004074D07E7
:00000001FF
