:100000000C9462000C948A000C948A000C948A0070
:100010000C948A000C948A000C948A000C948A0038
:100020000C948A000C948A000C948A000C948A0028
:100030000C948A000C948A000C948A000C948A0018
:100040000C94AC040C948A000C946A070C949C07E2
:100050000C948A000C948A000C948A000C948A00F8
:100060000C948A000C948A00000000080002010031
:100070000003040700000000000000000102040863
:100080001020408001020408102001020408102002
:10009000040404040404040402020202020203032E
:1000A00003030303000000002300260029000000D2
:1000B0000000250028002B0000000000240027007D
:1000C0002A00CC0711241FBECFEFD8E0DEBFCDBF82
:1000D00014E0A0E0B1E0ECECF1E102C005900D927B
:1000E000AE33B107D9F725E0AEE3B4E001C01D920D
:1000F000A033B207E1F710E0C4ECD0E004C02297CF
:10010000FE010E94E008C23CD107C9F70E94100816
:100110000C94E4080C9400000F931F9340ED57E0FB
:1001200060E070E083E594E00E948C0420E032EC13
:1001300041E050E063E974E083E594E00E949F04AD
:1001400083E594E00E94890468E074E0809184046F
:10015000909185040E945D086AE070E080E090E084
:100160000E94250540E060E083E594E00E94AB0436
:1001700060E080911E010E94C30561E08DE00E9455
:10018000C30561E08CE00E94C30561E08BE00E9442
:10019000C30561E08AE00E94C30561E089E00E9436
:1001A000C30561E088E00E94C30561E087E00E942A
:1001B000C30561E086E00E94C3052D9A0E940205F6
:1001C00060933F04709340048093410490934204F1
:1001D0000E94020500913F041091400420914104C7
:1001E00030914204601B710B820B930B603D774092
:1001F0008105910568F32D981F910F9108950F9334
:100200001F93CF93DF930E94020560933F04709386
:10021000400480934104909342040E94020500919F
:100220003F04109140042091410430914204601B2E
:10023000710B820B930B0091200110912101222759
:1002400017FD2095322F601771078207930728F357
:10025000C0E0D0E0E0911201F0911301EE0FFF1F1A
:10026000E45DFE4F80819181C817D907D1F4E091F8
:100270004904F0914A04EE0FFF1FE85DFE4F8081B4
:100280009181019671F0E0914504F0914604EE0FE2
:10029000FF1FE45DFE4F808191818C179D070CF458
:1002A0005F9AE0914504F0914604EE0FFF1FE45D74
:1002B000FE4F80819181C817D907D1F4E09149049C
:1002C000F0914A04EE0FFF1FE85DFE4F808191819F
:1002D000019671F0E0911201F0911301EE0FFF1FF2
:1002E000E45DFE4F808191818C179D070CF45F9A2D
:1002F000E0911A01F0911B01EE0FFF1FE45DFE4F2C
:1003000080819181C817D907D1F4E0914904F09117
:100310004A04EE0FFF1FE85DFE4F80819181019638
:1003200071F0E0914504F0914604EE0FFF1FE45D8B
:10033000FE4F808191818C179D070CF42B9AE091E0
:100340004504F0914604EE0FFF1FE45DFE4F8081EF
:100350009181C817D907D1F4E0914904F0914A047A
:10036000EE0FFF1FE85DFE4F80819181019671F0D5
:10037000E0911A01F0911B01EE0FFF1FE45DFE4FAB
:10038000808191818C179D070CF42B9AE0911801C4
:10039000F0911901EE0FFF1FE45DFE4F8081918106
:1003A000C817D907D1F4E0914904F0914A04EE0F3F
:1003B000FF1FE85DFE4F80819181019671F0E09111
:1003C0004504F0914604EE0FFF1FE45DFE4F80816F
:1003D00091818C179D070CF42A9AE0914504F091C5
:1003E0004604EE0FFF1FE45DFE4F80819181C81728
:1003F000D907D1F4E0914904F0914A04EE0FFF1FB0
:10040000E85DFE4F80819181019671F0E0911801C5
:10041000F0911901EE0FFF1FE45DFE4F8081918185
:100420008C179D070CF42A9AE0911C01F0911D0194
:10043000EE0FFF1FE45DFE4F80819181C817D90741
:10044000D1F4E0914904F0914A04EE0FFF1FE85DFA
:10045000FE4F80819181019671F0E0914504F09109
:100460004604EE0FFF1FE45DFE4F808191818C17E3
:100470009D070CF42C9AE0914504F0914604EE0F90
:10048000FF1FE45DFE4F80819181C817D907D1F429
:10049000E0914904F0914A04EE0FFF1FE85DFE4F22
:1004A00080819181019671F0E0911C01F0911D0114
:1004B000EE0FFF1FE45DFE4F808191818C179D0739
:1004C0000CF42C9A0E94020560933F047093400440
:1004D00080934104909342040E94020500913F04DE
:1004E000109140042091410430914204601B710B33
:1004F000820B930B0091220110912301222717FDFB
:100500002095322F601771078207930728F32196F1
:10051000C11581E0D80709F09DCE0E9402056093C5
:100520003F047093400480934104909342040E94DE
:10053000020500913F041091400420914104309144
:100540004204601B710B820B930B643671058105AD
:10055000910568F32C982B982A98299828985F98E9
:100560005E988091470490914804019690934804C6
:10057000809347042091490430914A04F901EE0F19
:10058000FF1FEC5DFE4F408151818417950781F478
:100590001092480410924704C901019690934A04AE
:1005A00080934904029721F410924A04109249045E
:1005B0002091430430914404C9010196909344046E
:1005C00080934304E0914904F0914A04EE0FFF1F29
:1005D000E85DFE4F80819181281739071CF0019654
:1005E00009F05AC080914504909146048B369140A1
:1005F00024F0109246041092450480911C019091C1
:100600001D018B36914024F010921D0110921C01A7
:1006100080911A0190911B018B36914024F0109229
:100620001B0110921A0180911801909119018B36CB
:10063000914024F010921901109218018091160136
:10064000909117018B36914024F01092170110926F
:10065000160180911401909115018B36914024F080
:1006600010921501109214018091120190911301C2
:100670008B36914024F01092130110921201809158
:100680001001909111018B3691400CF47AC01092B8
:1006900011011092100175C010924404109243048D
:1006A000809145049091460420910E0130910F01F4
:1006B000820F931F909346048093450480911C0100
:1006C00090911D0120910C0130910D01820F931F1B
:1006D00090931D0180931C0180911A0190911B0140
:1006E00020910A0130910B01820F931F90931B01FF
:1006F00080931A01809118019091190120910801AD
:1007000030910901820F931F909319018093180172
:1007100080911601909117012091060130910701F7
:10072000820F931F909317018093160180911401FB
:10073000909115012091040130910501820F931FC2
:1007400090931501809314018091120190911301EF
:100750002091020130910301820F931F90931301A6
:10076000809312018091100190911101209100015C
:1007700030910101820F931F90931101809310011A
:1007800031CFDF91CF911F910F910895CF92DF92DA
:10079000EF92FF920F931F930E94F604672B682B32
:1007A000692B41F40E94F6046230710581059105C0
:1007B00008F46CC083E594E00E945F0460934B04EE
:1007C00070934C0480934D0490934E0400914F0419
:1007D0001091500420915104309152046017710718
:1007E0008207930740F460934F0470935004809302
:1007F00051049093520400914F04109150042091A1
:100800005104309152046B017C01C01AD10AE20AF2
:10081000F30A970186010A3F110521053105B0F160
:1008200060934F047093500480935104909352044A
:1008300083E594E00E9489046AE174E08091840475
:10084000909185040E945D0862E274E080918404C6
:10085000909185040E945D080E94F604AB01BC01E2
:100860002AE030E080918404909185040E94AE08D3
:1008700064E274E080918404909185040E945D0894
:1008800065E070E080E090E00E94250580911E0107
:100890000E94FC05892B51F480913E04811108C00F
:1008A0000E94FF0081E080933E0402C010923E044B
:1008B0001F910F91FF90EF90DF90CF9008950C94CF
:1008C000F6040F931F93CF93DF93EC01662359F047
:1008D0000E94F60469837A838B839C83DF91CF9196
:1008E0001F910F9108950E94F60409811A812B81AE
:1008F0003C81601B710B820B930B64367105810583
:10090000910530F763E070E080E090E00E942505FB
:10091000EACF60E00C946104FC0113AA14AA15AAA2
:1009200016AA1182128213821482411551056105A3
:10093000710521F0CB01BA010C9425050895FB0146
:10094000BA01A901DC01D296FC93EE93D19726E07F
:10095000CF010C94080708951F920F920FB60F92C3
:1009600011242F933F938F939F93AF93BF938091C5
:100970008B0490918C04A0918D04B0918E043091E1
:100980008A0423E0230F2D3720F40196A11DB11D09
:1009900005C026E8230F0296A11DB11D20938A04ED
:1009A00080938B0490938C04A0938D04B0938E0459
:1009B00080918F0490919004A0919104B091920441
:1009C0000196A11DB11D80938F0490939004A09374
:1009D0009104B0939204BF91AF919F918F913F91F9
:1009E0002F910F900FBE0F901F9018952FB7F8946E
:1009F00060918B0470918C0480918D0490918E0491
:100A00002FBF08953FB7F89480918F049091900480
:100A1000A0919104B091920426B5A89B05C02F3FE8
:100A200019F00196A11DB11D3FBF6627782F892FB0
:100A30009A2F620F711D811D911D42E0660F771F75
:100A4000881F991F4A95D1F708958F929F92AF9270
:100A5000BF92CF92DF92EF92FF926B017C010E94D6
:100A600002054B015C01C114D104E104F104F1F071
:100A70000E94BB080E940205681979098A099B092E
:100A8000683E73408105910570F321E0C21AD108D8
:100A9000E108F10888EE880E83E0981EA11CB11CC5
:100AA000C114D104E104F10429F7DDCFFF90EF90E8
:100AB000DF90CF90BF90AF909F908F9008957894E3
:100AC00084B5826084BD84B5816084BD85B5826053
:100AD00085BD85B5816085BDEEE6F0E080818160F1
:100AE0008083E1E8F0E010828081826080838081F1
:100AF00081608083E0E8F0E0808181608083E1EBC9
:100B0000F0E0808184608083E0EBF0E080818160B0
:100B10008083EAE7F0E08081846080838081826066
:100B2000808380818160808380818068808310924F
:100B3000C1000895833081F028F4813099F082302B
:100B4000A1F008958730A9F08830B9F08430D1F44D
:100B5000809180008F7D03C0809180008F7780938B
:100B60008000089584B58F7702C084B58F7D84BDE1
:100B700008958091B0008F7703C08091B0008F7D81
:100B80008093B0000895CF93DF9390E0FC01E45888
:100B9000FF4F2491FC01E057FF4F8491882349F1D6
:100BA00090E0880F991FFC01E854FF4FA591B49184
:100BB00082559F4FFC01C591D4919FB7611108C028
:100BC000F8948C91209582238C93888182230AC08B
:100BD000623051F4F8948C91322F309583238C93AA
:100BE0008881822B888304C0F8948C91822B8C930B
:100BF0009FBFDF91CF910895CF93DF93282F30E0EF
:100C0000F901E859FF4F8491F901E458FF4FD4915D
:100C1000F901E057FF4FC491CC2391F081110E945C
:100C20009A05EC2FF0E0EE0FFF1FEC55FF4FA5915A
:100C3000B4912C912D2381E090E021F480E002C05A
:100C400080E090E0DF91CF910895FC01818D228DAD
:100C500090E0805C9F4F821B91098F7399270895C4
:100C6000FC01918D828D981731F0828DE80FF11D76
:100C7000858D90E008958FEF9FEF0895FC01918D91
:100C8000828D981761F0828DDF01A80FB11D5D96EE
:100C90008C91928D9F5F9F73928F90E008958FEF5C
:100CA0009FEF089582EC97E0892B49F080E090E077
:100CB000892B29F00E94C20781110C94000008952D
:100CC000FC01848DDF01A80FB11DA35ABF4F2C91E9
:100CD000848D90E001968F739927848FA689B789B8
:100CE0002C93A089B1898C9180648C93938D848D91
:100CF000981306C00288F389E02D80818F7D808360
:100D00000895CF93DF93EC01888D8823C9F0EA8999
:100D1000FB89808185FD05C0A889B9898C9186FDF4
:100D20000FC00FB607FCF5CF808185FFF2CFA889F1
:100D3000B9898C9185FFEDCFCE010E946006E7CF87
:100D4000DF91CF910895CF92DF92FF920F931F937F
:100D5000CF93DF931F92CDB7DEB76C0181E0D60150
:100D600058968C9358975B969C915B975C968C9168
:100D70005C97981307C05096ED91FC915197808134
:100D800085FD2EC0F601038D10E00F5F1F4F0F731E
:100D90001127F02EF601848DF81211C00FB607FC52
:100DA000F9CFD6015096ED91FC915197808185FF46
:100DB000F1CFC60169830E9460066981EBCF838D04
:100DC000E80FF11DE35AFF4F6083D6015B960C9349
:100DD0005B975296ED91FC915397808180620CC095
:100DE000D6015696ED91FC91579760835096ED9100
:100DF000FC91519780818064808381E090E00F9026
:100E0000DF91CF911F910F91FF90DF90CF900895C8
:100E1000BF92CF92DF92EF92FF92CF93DF93EC01DC
:100E20006A017B01B22EE889F98982E0808341154D
:100E300081EE580761057105A1F060E079E08DE36E
:100E400090E0A70196010E94BC0821503109410998
:100E500051095695479537952795211580E1380713
:100E600098F0E889F989108260E874E88EE190E0F2
:100E7000A70196010E94BC0821503109410951097E
:100E80005695479537952795EC85FD853083EE85FA
:100E9000FF852083188EEC89FD89B082EA89FB8961
:100EA000808180618083EA89FB898081886080837A
:100EB000EA89FB89808180688083EA89FB89808157
:100EC0008F7D8083DF91CF91FF90EF90DF90CF9067
:100ED000BF9008951F920F920FB60F9211242F9377
:100EE0008F939F93EF93FF93E091A304F091A40459
:100EF0008081E091A904F091AA0482FD12C0908142
:100F00008091AC048F5F8F732091AD04821751F0F4
:100F1000E091AC04F0E0ED56FB4F958F8093AC046C
:100F200001C08081FF91EF919F918F912F910F9040
:100F30000FBE0F901F9018951F920F920FB60F9231
:100F400011242F933F934F935F936F937F938F93CE
:100F50009F93AF93BF93EF93FF9383E994E00E9435
:100F60006006FF91EF91BF91AF919F918F917F911B
:100F70006F915F914F913F912F910F900FBE0F9006
:100F80001F90189583E994E00E94250621E0892BA3
:100F900009F420E0822F089510929604109295048F
:100FA00088EE93E0A0E0B0E08093970490939804DB
:100FB000A0939904B0939A0481E394E090939404ED
:100FC0008093930485EC90E09093A00480939F0419
:100FD00084EC90E09093A2048093A10480EC90E0D4
:100FE0009093A4048093A30481EC90E09093A604D2
:100FF0008093A50482EC90E09093A8048093A704CA
:1010000086EC90E09093AA048093A9041092AC041B
:101010001092AD041092AE041092AF04089508959A
:101020000E945F050E940F080E948C00C2E5D6E076
:101030000E94C6032097E1F30E945206F9CFCF9297
:10104000DF92EF92FF920F931F93CF93DF937C0178
:101050006A01EB0100E010E00C151D0571F06991CB
:10106000D701ED91FC910190F081E02DC701099528
:10107000892B19F00F5F1F4FEFCFC801DF91CF9180
:101080001F910F91FF90EF90DF90CF900895611521
:10109000710581F0DB010D900020E9F7AD014150B1
:1010A0005109461B570BDC01ED91FC910280F38145
:1010B000E02D099480E090E008950C9447088F9209
:1010C0009F92AF92BF92DF92EF92FF920F931F9386
:1010D000CF93DF93CDB7DEB7A1970FB6F894DEBFFD
:1010E0000FBECDBF7C01F42FD52ECB0119A222302B
:1010F00008F42AE08E010F5D1F4F822E912CA12C47
:10110000B12C6F2F7D2DA50194010E94BC08F22FF8
:10111000D32ECA01015011096A3014F4E0E301C072
:10112000E7E3E60FD801EC93232B242B252B49F77B
:10113000B801C7010E944708A1960FB6F894DEBF18
:101140000FBECDBFDF91CF911F910F91FF90EF9018
:10115000DF90BF90AF909F908F900895211531053B
:1011600041F4DC01ED91FC910190F081E02D642FC0
:1011700009940C945F080895A1E21A2EAA1BBB1BC8
:10118000FD010DC0AA1FBB1FEE1FFF1FA217B30753
:10119000E407F50720F0A21BB30BE40BF50B661F69
:1011A000771F881F991F1A9469F76095709580952D
:1011B00090959B01AC01BD01CF010895EE0FFF1F7B
:0C11C0000590F491E02D0994F894FFCF05
:1011CC000200020002000200020002000200010004
:1011DC002C012C01FA00C8009600640032000200B9
:1011EC0020031000B80BD0070A000500FF00FF0019
:1011FC00FF00FF00FF00FF00FF00FF00FF00FF00EB
:10120C00FF00FF00FF00FF00FF00FF00FF00FF00DA
:10121C00FF00FF00FF00FF00FF00FF00FF00FF00CA
:10122C00FF00FF00FF00FF00FF00FF00FF00FF00BA
:10123C00FF00FF00FF00FF00FF00FF00FF00FF00AA
:10124C00FF00FF00FF00FF00FF00FF00FF00FF009A
:10125C00FF00FF00FF00FF00FF00FF00FE00FE008C
:10126C00FE00FD00FD00FC00FB00FA00FA00F90096
:10127C00F800F600F500F400F300F100F000EF00C8
:10128C00ED00EB00EA00E800E600E400E200E0001C
:10129C00DE00DC00DA00D800D500D300D100CE008F
:1012AC00CC00C900C700C400C100BF00BC00B9001D
:1012BC00B600B300B100AE00AB00A800A500A200C0
:1012CC009F009C0099009600930090008C00890070
:1012DC008600830080007D007A0077007400700027
:1012EC006D006A006700640061005E005B005800DE
:1012FC00550052004F004D004A0047004400410089
:10130C003F003C0039003700340032002F002D0024
:10131C002B00280026002400220020001E001C00A8
:10132C001A001800160015001300110010000F0011
:10133C000D000C000B000A00080007000600060058
:10134C00050004000300030002000200020001007B
:10135C000100010001000100010001000200020077
:10136C00020003000300040005000600060007004D
:10137C0008000A000B000C000D000F0010001100FB
:10138C0013001500160018001A001C001E00200087
:10139C0022002400260028002B002D002F003200F4
:1013AC003400370039003C003F0041004400470046
:1013BC004A004D004F005200550058005B005E0083
:1013CC006100640067006A006D00700074007700B3
:1013DC007A007D0080008300860089008C009000DC
:1013EC009300960099009C009F00A200A500A80005
:1013FC00AB00AE00B100B300B600B900BC00BF003A
:10140C00C100C400C700C900CC00CE00D100D3007D
:10141C00D500D800DA00DC00DE00E000E200E400D9
:10142C00E600E800EA00EB00ED00EF00F000F10050
:10143C00F300F400F500F600F800F900FA00FA00E9
:10144C00FB00FC00FD00FD00FE00FE00FE00FF00A6
:10145C00FF00FF00FF00FF00FF00FF00FF00FF0088
:10146C00FF00FF00FF00FF00FF00FF00FF00FF0078
:10147C00FF00FF00FF00FF00FF00FF00FF00FF0068
:10148C00FF00FF00FF00FF00FF00FF00FF00FF0058
:10149C00FF00FF00FF00FF00FF00FF00FF00FF0048
:1014AC00FF00FF00FF00FF00FF00FF00FF00FF0038
:1014BC00FF00FF00FF00FF00FF00FF00FF00FF0028
:1014CC00FF00FF0000000000564D4450565F317C79
:1014DC00305F564D4450560D0A00564D4450455FF2
:1014EC0031007C005F564D4450450D0A0000000051
:0E14FC0000A3061F0825063E063006810600E6
:00000001FF
