:100000000C94EB020C9408030C9408030C94080362
:100010000C9408030C9408030C9408030C94080334
:100020000C9408030C9408030C9408030C94080324
:100030000C9408030C9408030C9408030C94080314
:100040000C949C050C9408030C9408030C9408036E
:100050000C9408030C9408030C9408030C940803F4
:100060000C9408030C940803FFF7EFE8E0D8D0C81D
:10007000C0B8B1A9A29A938C857E77706A635D57E8
:10008000514B46403B36312D2824201C19151210A7
:100090000D0B09070504030201010001010203041D
:1000A0000507090B0D101215191C2024282D3136B7
:1000B0003B40464B51575D636A70777E858C939ABF
:1000C000A2A9B1B8C0C8D0D8E0E8EFF7FFF7EFE8D1
:1000D000E0D8D0C8C0B8B1A9A29A938C857E7770B9
:1000E0006A635D57514B46403B36312D2824201C16
:1000F000191512100D0B0907050403020101000177
:10010000010203040507090B0D101215191C202408
:10011000282D31363B40464B51575D636A70777EE0
:10012000858C939AA2A9B1B8C0C8D0D8E0E8EFF7FF
:10013000FFF7EFE8E0D8D0C8C0B8B1A9A29A938C75
:10014000857E77706A635D57514B46403B36312D53
:100150002824201C191512100D0B09070504030291
:1001600001010001010203040507090B0D1012151E
:10017000191C2024282D31363B40464B51575D63D6
:100180006A70777E858C939AA2A9B1B8C0C8D0D87E
:10019000E0E8EFF7FFF7EFE8E0D8D0C8C0B8B1A9C2
:1001A000A29A938C857E77706A635D57514B464067
:1001B0003B36312D2824201C191512100D0B090770
:1001C0000504030201010001010203040507090BF4
:1001D0000D101215191C2024282D31363B40464B9A
:1001E00051575D636A70777E858C939AA2A9B1B8E6
:1001F000C0C8D0D8E0E8EFF7FFF7EFE8E0D8D0C804
:10020000C0B8B1A9A29A938C857E77706A635D5756
:10021000514B46403B36312D2824201C1915121015
:100220000D0B09070504030201010001010203048B
:100230000507090B0D101215191C2024282D313625
:100240003B40464B51575D636A70777E858C939A2D
:10025000A2A9B1B8C0C8D0D8E0E8EFF7FFF7EFE83F
:10026000E0D8D0C8C0B8B1A9A29A938C857E777027
:100270006A635D57514B46403B36312D2824201C84
:10028000191512100D0B09070504030201010001E5
:10029000010203040507090B0D101215191C202477
:1002A000282D31363B40464B51575D636A70777E4F
:1002B000858C939AA2A9B1B8C0C8D0D8E0E8EFF76E
:1002C000FFF7EFE8E0D8D0C8C0B8B1A9A29A938CE4
:1002D000857E77706A635D57514B46403B36312DC2
:1002E0002824201C191512100D0B09070504030200
:1002F00001010001010203040507090B0D1012158D
:10030000191C2024282D31363B40464B51575D6344
:100310006A70777E858C939AA2A9B1B8C0C8D0D8EC
:10032000E0E8EFF7FFF7EFE8E0D8D0C8C0B8B1A930
:10033000A29A938C857E77706A635D57514B4640D5
:100340003B36312D2824201C191512100D0B0907DE
:100350000504030201010001010203040507090B62
:100360000D101215191C2024282D31363B40464B08
:1003700051575D636A70777E858C939AA2A9B1B854
:10038000C0C8D0D8E0E8EFF7FFF7EFE8E0D8D0C872
:10039000C0B8B1A9A29A938C857E77706A635D57C5
:1003A000514B46403B36312D2824201C1915121084
:1003B0000D0B0907050403020101000101020304FA
:1003C0000507090B0D101215191C2024282D313694
:1003D0003B40464B51575D636A70777E858C939A9C
:1003E000A2A9B1B8C0C8D0D8E0E8EFF7FFF7EFE8AE
:1003F000E0D8D0C8C0B8B1A9A29A938C857E777096
:100400006A635D57514B46403B36312D2824201CF2
:10041000191512100D0B0907050403020101000153
:10042000010203040507090B0D101215191C2024E5
:10043000282D31363B40464B51575D636A70777EBD
:10044000858C939AA2A9B1B8C0C8D0D8E0E8EFF7DC
:10045000FFF7EFE8E0D8D0C8C0B8B1A9A29A938C52
:10046000857E77706A635D57514B46403B36312D30
:100470002824201C191512100D0B0907050403026E
:1004800001010001010203040507090B0D101215FB
:10049000191C2024282D31363B40464B51575D63B3
:1004A0006A70777E858C939AA2A9B1B8C0C8D0D85B
:1004B000E0E8EFF7FFF7EFE8E0D8D0C8C0B8B1A99F
:1004C000A29A938C857E77706A635D57514B464044
:1004D0003B36312D2824201C191512100D0B09074D
:1004E0000504030201010001010203040507090BD1
:1004F0000D101215191C2024282D31363B40464B77
:1005000051575D636A70777E858C939AA2A9B1B8C2
:10051000C0C8D0D8E0E8EFF7FFF7EFE8E0D8D0C8E0
:10052000C0B8B1A9A29A938C857E77706A635D5733
:10053000514B46403B36312D2824201C19151210F2
:100540000D0B090705040302010100010102030468
:100550000507090B0D101215191C2024282D313602
:100560003B40464B51575D636A70777E858C939A0A
:10057000A2A9B1B8C0C8D0D8E0E8EFF700000000E9
:10058000240027002A0000000000250028002B007E
:1005900000000000230026002900040404040404D1
:1005A0000404020202020202030303030303010222
:1005B00004081020408001020408102001020408F1
:1005C00010200000000700020100000304060000E4
:1005D00000000000000011241FBECFEFD8E0DEBFF6
:1005E000CDBF11E0A0E0B1E0E0EDFDE002C005907C
:1005F0000D92A430B107D9F711E0A4E0B1E001C039
:100600001D92AE32B107E1F70E94D7060C94E606C0
:100610000C940000CF93DF93C0E0D0E0E0910401A0
:10062000F0910501E859FF4FE4918E2F90E0C81733
:10063000D90709F4589AE0910601F0910701E453B3
:10064000FF4FE4918E2F90E0C817D90709F4599A0B
:10065000E0910801F0910901E05DFE4FE4918E2FD9
:1006600090E0C817D90709F45B9AE0910A01F0916C
:100670000B01EC56FE4FE4918E2F90E0C817D9077E
:1006800009F45C9AE0910C01F0910D01E850FE4FE5
:10069000E4918E2F90E0C817D90709F45D9AE09194
:1006A0000E01F0910F01E45AFD4FE4918E2F90E07E
:1006B000C817D90709F45E9AE0911001F091110171
:1006C000E054FD4FE4918E2F90E0C817D90709F44C
:1006D0005F9AE0911201F0911301EC5DFC4FE491FF
:1006E0008E2F90E0C817D90709F4289AE0911401D9
:1006F000F0911501E857FC4FE4918E2F90E0C81758
:10070000D90709F4299AE0911601F0911701E451F3
:10071000FC4FE4918E2F90E0C817D90709F42A9A6C
:10072000E0911801F0911901E05BFB4FE4918E2FED
:1007300090E0C817D90709F42B9AE0911A01F091BB
:100740001B01EC54FB4FE4918E2F90E0C817D907A2
:1007500009F42C9AE0911C01F0911D01E85EFA4F1A
:10076000E4918E2F90E0C817D90709F42D9A0E94C2
:10077000E4056093200170932101809322019093FE
:1007800023010E94E4052091200130912101409134
:10079000220150912301621B730B840B950B209156
:1007A000000130910101442737FD4095542F621715
:1007B00073078407950728F3219681E0C030D80796
:1007C00009F02CCF0E94E405609320017093210171
:1007D00080932201909323010E94E405209120013F
:1007E000309121014091220150912301621B730B32
:1007F000840B950B643671058105910568F3589853
:1008000059985B985C985D985E985F9828982998AD
:100810002A982B982C982D9880911E0190911F0159
:10082000009709F040C08091040190910501019664
:100830009093050180930401809106019091070136
:100840000196909307018093060180910801909191
:1008500009010196909309018093080180910A0192
:1008600090910B01019690930B0180930A01809166
:100870000C0190910D01019690930D0180930C0154
:1008800080910E0190910F01019690930F0180933A
:100890000E01809110019091110101969093110128
:1008A0008093100138C00197B1F5809112019091A9
:1008B000130101969093130180931201809114010A
:1008C00090911501019690931501809314018091E8
:1008D00016019091170101969093170180931601CC
:1008E00080911801909119010196909319018093BC
:1008F000180180911A0190911B01019690931B01A0
:1009000080931A0180911C0190911D010196909392
:100910001D0180931C018091040190910501843692
:10092000910521F4109205011092040180910601B5
:10093000909107018436910521F4109207011092DD
:10094000060180910801909109018436910521F4F6
:10095000109209011092080180910A0190910B01F7
:100960008436910521F410920B0110920A018091B6
:100970000C0190910D018436910521F410920D0126
:1009800010920C0180910E0190910F018436910517
:1009900021F410920F0110920E018091100190919C
:1009A00011018436910521F4109211011092100169
:1009B00080911201909113018436910521F41092D7
:1009C0001301109212018091140190911501843647
:1009D000910521F4109215011092140180911601D5
:1009E000909117018436910521F41092170110920D
:1009F000160180911801909119018436910521F416
:100A0000109219011092180180911A0190911B0106
:100A10008436910521F410921B0110921A018091E5
:100A20001C0190911D018436910521F410921D0145
:100A300010921C0180911E0190911F0101969093CC
:100A40001F0180931E01029721F410921F01109242
:100A50001E01DF91CF91089582E00E948406892BC8
:100A600079F580912401882369F50E94E40560935B
:100A700020017093210180932201909323010E9411
:100A8000E4052091200130912101409122015091F3
:100A90002301621B730B840B950B20910201309193
:100AA0000301442737FD4095542F621773078407CD
:100AB000950728F30E940A0381E08093240108959A
:100AC00010922401089582E060E00E94450680E0D3
:100AD00061E00E94450681E061E00E94450683E0F6
:100AE00061E00E94450684E061E00E94450685E0E1
:100AF00061E00E94450686E061E00E94450687E0CD
:100B000061E00E94450688E061E00E94450689E0B8
:100B100061E00E9445068AE061E00E9445068BE0A4
:100B200061E00E9445068CE061E00E9445068DE090
:100B300061E00E94450608951F920F920FB60F9232
:100B400011242F933F938F939F93AF93BF938091E3
:100B5000290190912A01A0912B01B0912C01309193
:100B60002D010196A11DB11D232F2D5F2D3720F0E2
:100B70002D570196A11DB11D20932D0180932901B0
:100B800090932A01A0932B01B0932C018091250111
:100B900090912601A0912701B09128010196A11DF5
:100BA000B11D8093250190932601A0932701B09356
:100BB0002801BF91AF919F918F913F912F910F90FD
:100BC0000FBE0F901F9018959FB7F89420912501A4
:100BD00030912601409127015091280186B5A89BAC
:100BE00006C08F3F21F02F5F3F4F4F4F5F4F9FBF9A
:100BF000542F432F322F2227280F311D411D511D05
:100C000082E0220F331F441F551F8A95D1F7B90187
:100C1000CA010895789484B5826084BD84B58160EA
:100C200084BD85B5826085BD85B5816085BDEEE6F4
:100C3000F0E0808181608083E1E8F0E010828081D3
:100C400082608083808181608083E0E8F0E0808141
:100C500081608083E1EBF0E0808184608083E0EB61
:100C6000F0E0808181608083EAE7F0E08081846049
:100C700080838081826080838081816080838081A5
:100C8000806880831092C1000895CF93DF93482F2E
:100C900050E0CA0182559A4FFC01349146565A4F92
:100CA000FA018491882369F190E0880F991FFC0173
:100CB000E458FA4FA591B491FC01EA57FA4FC59157
:100CC000D491662351F42FB7F8948C91932F90957B
:100CD00089238C93888189230BC0623061F42FB7FC
:100CE000F8948C91932F909589238C938881832BF2
:100CF00088832FBF06C09FB7F8948C91832B8C9369
:100D00009FBFDF91CF910895682F70E0CB018E5384
:100D10009A4FFC012491CB0182559A4FFC014491DA
:100D200066567A4FFB019491992319F420E030E044
:100D30003CC0222351F1233071F0243028F42130BB
:100D4000A1F0223011F514C02630B1F02730C1F0E7
:100D50002430D9F404C0809180008F7703C0809143
:100D600080008F7D8093800010C084B58F7702C093
:100D700084B58F7D84BD09C08091B0008F7703C09A
:100D80008091B0008F7D8093B000892F90E0880F14
:100D9000991F80579A4FFC01A591B4918C9120E046
:100DA00030E0842311F021E030E0C9010895CF93B1
:100DB000DF930E940A060E946305C0E0D0E00E9413
:100DC0002C052097E1F30E940000F9CFF894FFCFA3
:040DD0000B002003F1
:00000001FF
