:100000000C9461000C947E000C947E000C947E0095
:100010000C947E000C947E000C947E000C947E0068
:100020000C947E000C947E000C947E000C947E0058
:100030000C947E000C947E000C947E000C947E0048
:100040000C94D3020C947E000C947E000C947E00E1
:100050000C947E000C947E000C947E000C947E0028
:100060000C947E000C947E00000000080002010049
:100070000003040700000000000000000102040863
:100080001020408001020408102001020408102002
:10009000040404040404040402020202020203032E
:1000A00003030303000000002300260029000000D2
:1000B0000000250028002B0000000000240027007D
:1000C0002A0011241FBECFEFD8E0DEBFCDBF14E061
:1000D000A0E0B1E0E0E3F8E002C005900D92AA30A4
:1000E000B107D9F724E0AAE0B4E001C01D92A23222
:1000F000B207E1F70E9407040C9416040C94000068
:1001000060E080911C010E94A40361E08DE00E94E8
:10011000A40361E08CE00E94A40361E08BE00E94F4
:10012000A40361E08AE00E94A40361E089E00E94E8
:10013000A40361E088E00E94A40361E087E00E94DC
:10014000A40361E086E00C94A403EF92FF920F9366
:100150001F93CF93DF930E941D0360930B04709352
:100160000C0480930D0490930E040E941D030091D3
:100170000B0410910C0420910D0430910E04601BAF
:10018000710B820B930B00911E0110911F0122270E
:1001900017FD2095322F601771078207930728F308
:1001A000C0E0D0E0EE24EA94F12CE0911304F09149
:1001B0001404EE0FFF1FE25DFE4F808191819701D5
:1001C000281B390BC217D30709F42D9AE0911A01A5
:1001D000F0911B01EE0FFF1FE25DFE4F80819181C8
:1001E0009701281B390BC217D30709F42C9AE09109
:1001F0001801F0911901EE0FFF1FE25DFE4F8081A3
:1002000091819701281B390BC217D30709F42B9A48
:10021000E0911601F0911701EE0FFF1FE25DFE4F16
:10022000808191819701281B390BC217D30709F4EC
:100230002A9AE0911104F0911204EE0FFF1FE25D83
:10024000FE4F808191819701281B390BC217D3077C
:1002500009F4299AE0911401F0911501EE0FFF1FA6
:10026000E25DFE4F808191819701281B390BC217F7
:10027000D30709F4289AE0911201F0911301EE0FCF
:10028000FF1FE25DFE4F808191819701281B390B92
:10029000C217D30709F45F9AE0911001F0911101A0
:1002A000EE0FFF1FE25DFE4F808191819701281BB9
:1002B000390BC217D30709F45E9A0E941D0360939D
:1002C0000B0470930C0480930D0490930E040E9411
:1002D0001D0300910B0410910C0420910D0430912A
:1002E0000E04601B710B820B930B00912001109187
:1002F0002101222717FD2095322F601771078207F1
:10030000930728F32196C11531E0D30709F04DCFAB
:100310000E941D0360930B0470930C0480930D04E2
:1003200090930E040E941D0300910B0410910C0485
:1003300020910D0430910E04601B710B820B930B06
:10034000643671058105910568F32D982C982B98DA
:100350002A98299828985F985E9880911504909122
:1003600016040196909316048093150420911704A7
:1003700030911804F901EE0FFF1FEE5DFE4F408132
:1003800051818417950781F4109216041092150478
:10039000C90101969093180480931704039721F4E0
:1003A000109218041092170480910F049091100479
:1003B0009C012F5F3F4F3093100420930F04E09176
:1003C0001704F0911804EE0FFF1FE85DFE4F208127
:1003D0003181821793070CF474C0109210041092AC
:1003E0000F04809113049091140420910E01309118
:1003F0000F01820F931F9093140480931304809134
:100400001A0190911B0120910C0130910D01820F76
:10041000931F90931B0180931A0180911801909172
:10042000190120910A0130910B01820F931F9093C3
:100430001901809318018091160190911701209164
:10044000080130910901820F931F90931701809347
:1004500016018091110490911204209106013091AF
:100460000701820F931F90931204809311048091CF
:100470001401909115012091040130910501820F22
:10048000931F909315018093140180911201909114
:1004900013012091020130910301820F931F909369
:1004A000130180931201809110019091110120910C
:1004B000000130910101820F931F909311018093ED
:1004C000100180911304909114048E36914024F011
:1004D000109214041092130480911A0190911B0140
:1004E0008E36914024F010921B0110921A018091D7
:1004F0001801909119018E36914024F01092190143
:100500001092180180911601909117018E3691403A
:1005100024F010921701109216018091110490910D
:1005200012048E36914024F010921204109211049D
:1005300080911401909115018E36914024F0109213
:1005400015011092140180911201909113018E36C1
:10055000914024F010921301109212018091100129
:10056000909111018E36914024F010921101109259
:100570001001DF91CF911F910F91FF90EF9008959F
:1005800080911C010E94DD03892B51F480910A04A3
:10059000811108C00E94A50081E080930A0408959B
:1005A00010920A0408951F920F920FB60F92112411
:1005B0002F933F938F939F93AF93BF9380911A0490
:1005C00090911B04A0911C04B0911D04309119045A
:1005D00023E0230F2D3720F40196A11DB11D05C086
:1005E00026E8230F0296A11DB11D209319048093C4
:1005F0001A0490931B04A0931C04B0931D048091D3
:100600001E0490911F04A0912004B0912104019632
:10061000A11DB11D80931E0490931F04A09320047C
:10062000B0932104BF91AF919F918F913F912F91F2
:100630000F900FBE0F901F9018953FB7F8948091C0
:100640001E0490911F04A0912004B091210426B5AE
:10065000A89B05C02F3F19F00196A11DB11D3FBFFA
:100660006627782F892F9A2F620F711D811D911D8A
:1006700042E0660F771F881F991F4A95D1F70895AA
:10068000789484B5826084BD84B5816084BD85B56D
:10069000826085BD85B5816085BDEEE6F0E0808134
:1006A00081608083E1E8F0E0108280818260808355
:1006B000808181608083E0E8F0E0808181608083D8
:1006C000E1EBF0E0808184608083E0EBF0E080810A
:1006D00081608083EAE7F0E08081846080838081AC
:1006E0008260808380818160808380818068808354
:1006F0001092C1000895833081F028F4813099F080
:100700008230A1F008958730A9F08830B9F08430A4
:10071000D1F4809180008F7D03C0809180008F771D
:1007200080938000089584B58F7702C084B58F7D53
:1007300084BD08958091B0008F7703C08091B00090
:100740008F7D8093B0000895CF93DF9390E0FC01FC
:10075000E458FF4F2491FC01E057FF4F8491882318
:1007600049F190E0880F991FFC01E854FF4FA591D3
:10077000B49182559F4FFC01C591D4919FB76111EF
:1007800008C0F8948C91209582238C9388818223D1
:100790000AC0623051F4F8948C91322F3095832343
:1007A0008C938881822B888304C0F8948C91822B4F
:1007B0008C939FBFDF91CF910895CF93DF93282F24
:1007C00030E0F901E859FF4F8491F901E458FF4FF7
:1007D000D491F901E057FF4FC491CC2391F08111DE
:1007E0000E947B03EC2FF0E0EE0FFF1FEC55FF4F54
:1007F000A591B4912C912D2381E090E021F480E02B
:1008000002C080E090E0DF91CF91089508950E94AA
:1008100040030E9406040E948000C0E0D0E00E94D5
:10082000C0022097E1F30E940000F9CFF894FFCFB7
:10083000070006000500040007000600050004008C
:100840002C01C80064002C01C80064000200E80309
:100850000D00E803E803E8030500050005000000BB
:100860000000000000000000000000000000000088
:100870000000000000000000000000000000000078
:100880000000000000000000000000000000000068
:100890000000000000000000000000000000000058
:1008A0000000000000000000000000000000000048
:1008B0000000000000000000000000000000000038
:1008C0000000000000000000000000000000010027
:1008D0000100010002000200030004000500050001
:1008E0000600070009000A000B000C000E000F00B4
:1008F0001000120014001500170019001B001D0045
:100900001F0021002300250027002A002C002E00B4
:1009100031003300360038003B003E004000430009
:10092000460049004C004E005100540057005A0048
:100930005D0060006300660069006C006F0073007A
:10094000760079007C007F008200850088008B00A3
:100950008F009200950098009B009E00A100A400CB
:10096000A700AA00AD00B000B200B500B800BB00FF
:10097000BE00C000C300C600C800CB00CD00D00040
:10098000D200D400D700D900DB00DD00DF00E10099
:10099000E300E500E700E900EA00EC00EE00EF000C
:1009A000F000F200F300F400F500F700F800F900A1
:1009B000F900FA00FB00FC00FC00FD00FD00FD005A
:1009C000FE00FE00FE00FE00FE00FE00FE00FD0038
:1009D000FD00FD00FC00FC00FB00FA00F900F9003E
:1009E000F800F700F500F400F300F200F000EF006B
:1009F000EE00EC00EA00E900E700E500E300E100BA
:100A0000DF00DD00DB00D900D700D400D200D00029
:100A1000CD00CB00C800C600C300C000BE00BB00B4
:100A2000B800B500B200B000AD00AA00A700A40055
:100A3000A1009E009B009800950092008F008B0003
:100A40008800850082007F007C00790076007300BA
:100A50006F006C0069006600630060005D005A0072
:100A60005700540051004E004C004900460043001E
:100A700040003E003B0038003600330031002E00BD
:100A80002C002A0027002500230021001F001D0044
:100A90001B001900170015001400120010000F00B1
:100AA0000E000C000B000A000900070006000500FC
:100AB0000500040003000200020001000100010023
:100AC0000000000000000000000000000000000026
:100AD0000000000000000000000000000000000016
:100AE0000000000000000000000000000000000006
:100AF00000000000000000000000000000000000F6
:100B000000000000000000000000000000000000E5
:100B100000000000000000000000000000000000D5
:100B200000000000000000000000000000000000C5
:0A0B300000000000000000000000BB
:00000001FF
