:100000000C94500D0C946D0D0C946D0D0C946D0DA5
:100010000C946D0D0C946D0D0C946D0D0C946D0D78
:100020000C946D0D0C946D0D0C946D0D0C946D0D68
:100030000C946D0D0C946D0D0C946D0D0C946D0D58
:100040000C9407100C946D0D0C946D0D0C946D0DAB
:100050000C946D0D0C946D0D0C946D0D0C946D0D38
:100060000C946D0D0C946D0DFFF7EFE8E0D8D0C83F
:10007000C0B8B1A9A29A938C857E77706A635D57E8
:10008000514B46403B36312D2824201C19151210A7
:100090000D0B09070504030201010001010203041D
:1000A0000507090B0D101215191C2024282D3136B7
:1000B0003B40464B51575D636A70777E858C939ABF
:1000C000A2A9B1B8C0C8D0D8E0E8EFF7FFFF5055FB
:1000D00055555555555555555555555555555555D0
:1000E00055555555555555555555555555555555C0
:1000F00055555555555555555555555555555555B0
:10010000555555555555555555555555555555559F
:1005E0005555553737373737373737373737373741
:1005F000373737373737373737373737373737378B
:10060000373737373737373737373737373737377A
:10061000373737373737373737373737373737376A
:10062000373737373737373737373737373737375A
:100A9000373737FFFFFEFDFCFBFAF9F8F7F6F5F400
:100AA000F3F2F1F0EFEEEDECEBEAE9E8E7E6E5E48E
:100AB000E3E2E1E1E0DFDEDDDCDBDAD9D8D7D6D571
:100AC000D4D3D2D1D0CFCECDCCCBCACAC9C8C7C659
:100AD000C5C4C3C2C1C0BFBEBDBCBBBABAB9B8B73A
:100AE000B6B5B4B3B2B1B0AFAEADADACABAAA9A818
:100AF000A7A6A5A4A3A3A2A1A09F9E9D9C9B9A9AF2
:100B000099989796959493929291908F8E8D8C8CC4
:100B10008B8A8988878686858483828180807F7E90
:100B20007D7C7B7B7A797877767675747372727157
:100B3000706F6E6E6D6C6B6A6A6968676666656415
:100B4000636362A0A0A0A0A0A0A0A0A0A0A0A0A05D
:100B5000A0A0A0A0A0A0A0A0A0A0A0A0A0A0A0A095
:100B6000A0A0A0A0A0A0A0A0A0A0A0A0A0A0A0A085
:100B7000A0A0A0A0A0A0A0A0A0A0A0A0A0A0A0A075
:100B8000A0A0A0A0A0A0A0A0A0A0A0A0A0A0A0A065
:100D9000A0A0A0A0A0A0A0A0A0A0A06160605F5E95
:100DA0005D5D5C5B5A5A59585757565555545352C6
:100DB000525150504F4E4D4D4C4B4B4A494948476C
:100DC00047464545444343424141403F3F3E3E3D07
:100DD0003C3C3B3A3A393938373736363534343398
:100DE0003332313130302F2F2E2E2D2C2C2B2B2A1D
:100DF0002A29292828272726262525242423232293
:100E000022212120201F1F1E1E1E1D1D1C1C1B1BFE
:100E10001A1A1A191918181817171616161515145C
:100E2000141413131312121211111010100F0F0FAC
:100E30000F0E0E0E0D0D0D0C0C0C0C0B0B0B0A0AED
:100E40000A0A090909090808080807070707070621
:100E50000606060605050505050404040404040445
:100E6000030303030303030202020202020202025B
:100E70000201010101010101010101010101010161
:100E80000101010101010101010101010101010152
:100E90000101010101010101010101010101010241
:100EA000020202020202020202030303030303031B
:100EB00004040404040404050505050506060606E5
:100EC00006070707070708080808090909090A0AA1
:100ED0000A0A0B0B0B0C0C0C0C0D0D0D0E0E0E0F4D
:100EE0000F0F0F10101011111212121313131414EC
:100EF000141515161616171718181819191A1A1A7C
:100F00001B1B1C1C1D1D1E1E1E1F1F2020212122FD
:100F10002223232424252526262727282829292A71
:100F20002A2B2B2C2C2D2E2E2F2F303031313233DB
:100F300033343435363637373839393A3A3B3C3C36
:100F40003D3E3E3F3F404141424343444545464785
:100F5000474849494A4B4B4C4D4D4E4F50505152CA
:100F6000525354555556575758595A5A5B5C5D5D04
:100F70005E5F60A0A0A0A0A0A0A0A0A0A0A0A0A034
:100F8000A0A0A0A0A0A0A0A0A0A0A0A0A0A0A0A061
:100F9000A0A0A0A0A0A0A0A0A0A0A0A0A0A0A0A051
:100FA000A0A0A0A0A0A0A0A0A0A0A0A0A0A0A0A041
:100FB000A0A0A0A0A0A0A0A0A0A0A0A0A0A0A0A031
:1011C000A0A0A0A0A0A0A0A0A0A0A0606162636356
:1011D000646566666768696A6A6B6C6D6E6E6F706F
:1011E00071727273747576767778797A7B7B7C7D91
:1011F0007E7F8080818283848586868788898A8BAA
:101200008C8C8D8E8F9091929293949596979899BD
:101210009A9A9B9C9D9E9FA0A1A2A3A3A4A5A6A7CA
:10122000A8A9AAABACADADAEAFB0B1B2B3B4B5B6D0
:10123000B7B8B9BABABBBCBDBEBFC0C1C2C3C4C5D2
:10124000C6C7C8C9CACACBCCCDCECFD0D1D2D3D4D1
:10125000D5D6D7D8D9DADBDCDDDEDFE0E1E1E2E3C9
:10126000E4E5E6E7E8E9EAEBECEDEEEFF0F1F2F3C6
:10127000F4F5F6F7F8F9FAFBFCFDFEFFFFFEFDFCC6
:10128000FBFAF9F8F7F6F5F4F3F2F1EFEEEDECEB2B
:10129000EAE9E8E7E6E5E4E3E2E1E0DEDDDCDBDA2B
:1012A000D9D8D7D6D5D4D3D2D1D0CFCECDCCCAC928
:1012B000C8C7C6C5C4C3C2C1C0BFBEBDBCBBBAB926
:1012C000B8B7B6B5B4B3B2B1B0AFAEADACABAAA916
:1012D000A8A7A6A5A4A3A2A1A09F9E9D9C9B9A9906
:1012E0009897969594939291908F8E8D8C8B8A89F6
:1012F000888787868584838281807F7E7D7C7B7AD8
:101300007A79787776757473727171706F6E6D6CAF
:101310006B6A6A696867666564A0A0A0A0A0A0A0C7
:10132000A0A0A0A0A0A0A0A0A0A0A0A0A0A0A0A0BD
:10133000A0A0A0A0A0A0A0A0A0A0A0A0A0A0A0A0AD
:10134000A0A0A0A0A0A0A0A0A0A0A0A0A0A0A0A09D
:10135000A0A0A0A0A0A0A0A0A0A0A0A0A0A0A0A08D
:10157000A064636261605F5F5E5D5C5B5B5A59584B
:10158000575656555453535251504F4F4E4D4C4C45
:101590004B4A4949484746464544434342414140F6
:1015A0003F3E3E3D3C3C3B3A3A393838373636359B
:1015B00034343332323131302F2F2E2D2D2C2C2B31
:1015C0002B2A2929282827262625252424232322B7
:1015D00022212120201F1F1E1E1D1D1C1C1B1B1A2B
:1015E0001A19191818171717161615151414141395
:1015F0001312121211111010100F0F0F0E0E0E0DEC
:101600000D0D0C0C0C0B0B0B0A0A0A0A090909092F
:101610000808080707070707060606060505050563
:101620000504040404040403030303030303020284
:101630000202020202020101010101010101010194
:10164000010101010101010101010100010101018B
:10165000010101010101010101010101010101017A
:101660000102020202020202020303030303030354
:10167000040404040404050505050506060606071A
:1016800007070707080808090909090A0A0A0A0BCF
:101690000B0B0C0C0C0D0D0D0E0E0E0F0F0F101072
:1016A0001011111212121313141414151516161703
:1016B0001717181819191A1A1B1B1C1C1D1D1E1E82
:1016C0001F1F2020212122222323242425252626F2
:1016D00027282829292A2B2B2C2C2D2D2E2F2F3053
:1016E00031313232333434353636373838393A3AA4
:1016F0003B3C3C3D3E3E3F404141424343444546E6
:1017000046474849494A4B4C4C4D4E4F4F50515219
:101710005353545556565758595A5B5B5C5D5E5F40
:101720005F606162A0A0A0A0A0A0A0A0A0A0A0A0B7
:10173000A0A0A0A0A0A0A0A0A0A0A0A0A0A0A0A0A9
:10174000A0A0A0A0A0A0A0A0A0A0A0A0A0A0A0A099
:10175000A0A0A0A0A0A0A0A0A0A0A0A0A0A0A0A089
:10176000A0A0A0A0A0A0A0A0A0A0A0A0A0A0A0A079
:10197000A0A0A0A0A0A0A0A0A0A0A0A06364646557
:10198000666768696A6A6B6C6D6E6F70717172738D
:101990007475767778797A7A7B7C7D7E7F80818298
:1019A00083848586878788898A8B8C8D8E8F90919A
:1019B00092939495969798999A9B9C9D9E9FA0A18F
:1019C000A2A3A4A5A6A7A8A9AAABACADAEAFB0B17F
:1019D000B2B3B4B5B6B7B8B9BABBBCBDBEBFC0C16F
:1019E000C2C3C4C5C6C7C8C9CACCCDCECFD0D1D258
:1019F000D3D4D5D6D7D8D9DADBDCDDDEE0E1E2E33B
:101A0000E4E5E6E7E8E9EAEBECEDEEEFF1F2F3F41A
:101A1000F5F6F7F8F9FAFBFCFDFE6996FFFFBBBB94
:101A2000BBBBBBBBBBBBB7B4B3B4B7BBBBBBBBBB24
:101A3000BBBBBBBBBBBBBBBBBBBBB7B4B3B4B7BB14
:101A4000BBBBBBBBBBBB0000000800020100000326
:101A5000040700000000000000000102040810203C
:101A60004080010204081020010204081020040430
:101A70000404040404040202020202020303030336
:101A800003030000000023002600290000000000DE
:101A9000250028002B0000000000240027002A0059
:101AA00011241FBECFEFD8E0DEBFCDBF11E0A0E014
:101AB000B1E0E8E9F2E202C005900D92A630B1076C
:101AC000D9F721E0A6E0B1E001C01D92AE32B20725
:101AD000E1F70E943B110C944A110C94000060E065
:101AE00082E00E94D81061E080E00E94D81061E09E
:101AF00081E00E94D81061E083E00E94D81061E08C
:101B000084E00E94D81061E085E00E94D81061E076
:101B100086E00E94D81061E087E00E94D81061E062
:101B200088E00E94D81061E089E00E94D81061E04E
:101B30008AE00E94D81061E08BE00E94D81061E03A
:101B40008CE00E94D81061E08DE00C94D8100F93C7
:101B50001F93CF93DF93C0E0D0E0E0912301F09199
:101B60002401EE5CF54EE491F0E0CE17DF0709F4B6
:101B7000589AE0910401F0910501E25EF54EE4917E
:101B8000F0E0CE17DF0709F4599AE0912101F091B6
:101B90002201E35EF54EE491F0E0CE17DF0709F491
:101BA0005B9AE0911F01F0912001E45EF54EE49113
:101BB000F0E0CE17DF0709F45C9AE0911D01F09187
:101BC0001E01E55EF54EE491F0E0CE17DF0709F463
:101BD0005D9AE0911B01F0911C01E65EF54EE491E7
:101BE000F0E0CE17DF0709F45E9AE0911901F09159
:101BF0001A01E458FD4EE491F0E0CE17DF0709F436
:101C00005F9AE0911701F0911801ED56F54FE491BC
:101C1000F0E0CE17DF0709F4289AE0911501F09162
:101C20001601E153FF4FE491F0E0CE17DF0709F40E
:101C3000299AE0911301F0911401E253FF4FE491CE
:101C4000F0E0CE17DF0709F42A9AE0911101F09134
:101C50001201E353FF4FE491F0E0CE17DF0709F4E0
:101C60002B9AE0910F01F0911001E453FF4FE491A2
:101C7000F0E0CE17DF0709F42C9AE0910D01F09106
:101C80000E01E859FF4FE491F0E0CE17DF0709F4A9
:101C90002D9A0E9451106093070170930801809360
:101CA000090190930A010E945110009107011091BF
:101CB00008012091090130910A01601B710B820B10
:101CC000930B0091020110910301222717FD20952B
:101CD000322F601771078207930728F32196C115E9
:101CE00041E0D40709F039CF0E94511060930701F9
:101CF000709308018093090190930A010E9451108A
:101D000000910701109108012091090130910A0109
:101D1000601B710B820B930B643671058105910575
:101D200068F3589859985B985C985D985E985F98AE
:101D3000289829982A982B982C982D9880910B01F7
:101D400090910C01009709F047C020912301309138
:101D500024012F5F3F4F30932401209323012091D2
:101D60000401309105012F5F3F4F3093050120930F
:101D7000040120912101309122012F5F3F4F3093C8
:101D800022012093210120911F01309120012F5F1A
:101D90003F4F3093200120931F0120911D0130916E
:101DA0001E012F5F3F4F30931E0120931D01209194
:101DB0001B0130911C012F5F3F4F30931C0120937A
:101DC0001B012091190130911A012F5F3F4F309371
:101DD0001A01209319013FC081309105E1F520914E
:101DE0001701309118012F5F3F4F30931801209356
:101DF000170120911501309116012F5F3F4F30934D
:101E000016012093150120911301309114012F5FC9
:101E10003F4F309314012093130120911101309111
:101E200012012F5F3F4F3093120120931101209137
:101E30000F01309110012F5F3F4F3093100120931D
:101E40000F0120910D0130910E012F5F3F4F309314
:101E50000E0120930D0120912301309124012431A2
:101E6000310521F4109224011092230120910401E4
:101E7000309105012431310521F4109205011092B1
:101E8000040120912101309122012130310521F4FA
:101E9000109222011092210120911F013091200106
:101EA0002130310521F41092200110921F01209160
:101EB0001D0130911E012130310521F410921E01C7
:101EC00010921D0120911B0130911C012130310520
:101ED00021F410921C0110921B01209119013091E4
:101EE0001A012E39374021F410921A01109219016B
:101EF0002091170130911801293E374021F41092AA
:101F00001801109217012091150130911601243CFF
:101F1000394021F4109216011092150120911301FD
:101F2000309114012130310521F4109214011092E6
:101F3000130120911101309112012130310521F45A
:101F4000109212011092110120910F013091100195
:101F50002130310521F41092100110920F012091CF
:101F60000D0130910E012436310521F410920E013D
:101F700010920D0101968230910529F090930C0189
:101F800080930B0104C010920C0110920B01DF91A1
:101F9000CF911F910F9108950F931F9382E00E949C
:101FA0001111892B19F0109206012EC080910601A3
:101FB00081112AC00E94511060930701709308019B
:101FC0008093090190930A010E945110009107012A
:101FD000109108012091090130910A01601B710BD9
:101FE000820B930B0091000110910101222717FD34
:101FF0002095322F601771078207930728F30E94FC
:10200000A70D81E0809306011F910F9108951F9203
:102010000F920FB60F9211242F933F938F939F939C
:10202000AF93BF938091260190912701A091280141
:10203000B09129013091250123E0230F2D3720F4A1
:102040000196A11DB11D05C026E8230F0296A11D12
:10205000B11D209325018093260190932701A09321
:102060002801B093290180912A0190912B01A09120
:102070002C01B0912D010196A11DB11D80932A0163
:1020800090932B01A0932C01B0932D01BF91AF91A0
:102090009F918F913F912F910F900FBE0F901F90A6
:1020A00018953FB7F89480912A0190912B01A09147
:1020B0002C01B0912D0126B5A89B05C02F3F19F02A
:1020C0000196A11DB11D3FBF6627782F892F9A2F3A
:1020D000620F711D811D911D42E0660F771F881FE1
:1020E000991F4A95D1F70895789484B5826084BD8C
:1020F00084B5816084BD85B5826085BD85B581600C
:1021000085BDEEE6F0E0808181608083E1E8F0E06B
:102110001082808182608083808181608083E0E89A
:10212000F0E0808181608083E1EBF0E08081846079
:102130008083E0EBF0E0808181608083EAE7F0E07B
:1021400080818460808380818260808380818160DF
:1021500080838081806880831092C10008958330DD
:1021600081F028F4813099F08230A1F00895873011
:10217000A9F08830B9F08430D1F4809180008F7D4F
:1021800003C0809180008F7780938000089584B58C
:102190008F7702C084B58F7D84BD08958091B00093
:1021A0008F7703C08091B0008F7D8093B000089539
:1021B000CF93DF9390E0FC01E65AF54E2491FC01A9
:1021C000E259F54E8491882349F190E0880F991FD8
:1021D000FC01EA56F54EA591B4918457954EFC0149
:1021E000C591D4919FB7611108C0F8948C91209546
:1021F00082238C93888182230AC0623051F4F89440
:102200008C91322F309583238C938881822B888305
:1022100004C0F8948C91822B8C939FBFDF91CF9157
:102220000895CF93DF93282F30E0F901EA5BF54E54
:102230008491F901E65AF54ED491F901E259F54E2F
:10224000C491CC2391F081110E94AF10EC2FF0E0EB
:10225000EE0FFF1FEE57F54EA591B4912C912D2353
:1022600081E090E021F480E002C080E090E0DF9126
:10227000CF91089508950E9474100E943A110E940F
:102280006F0DC0E0D0E00E94CC0F2097E1F30E94D8
:082290000000F9CFF894FFCF24
:0622980020030B000F0003
:00000001FF
