:100000000C945B110C9478110C9478110C94781169
:100010000C9478110C9478110C9478110C9478113C
:100020000C9478110C9478110C9478110C9478112C
:100030000C9478110C9478110C9478110C9478111C
:100040000C9412140C9478110C9478110C9478116F
:100050000C9478110C9478110C9478110C947811FC
:100060000C9478110C947811FFF7EFE8E0D8D0C821
:10007000C0B8B1A9A29A938C857E77706A635D57E8
:10008000514B46403B36312D2824201C19151210A7
:100090000D0B09070504030201010001010203041D
:1000A0000507090B0D101215191C2024282D3136B7
:1000B0003B40464B51575D636A70777E858C939ABF
:1000C000A2A9B1B8C0C8D0D8E0E8EFF7DCDCDCDC2E
:1000D000DCDCDCDCDCDCDCDCDCDCDCDCDCDCDCDC60
:1000E000DCDCDCDCDCDCDCDCDCDCDCDCDCDCDCDC50
:1000F000DCDCDCDCDCDCDCDBDBDAD9D8D7D6D6D563
:10010000D4D3D2D1D1D0CFCECDCCCCCBCAC9C8C715
:10011000C7C6C5C4C3C3C2C1C0BFBEBEBDBCBBBAD7
:10012000BAB9B8B7B6B6B5B4B3B2B2B1B0AFAEAD96
:10013000ADACABAAAAA9A8A7A6A6A5A4A3A2A2A152
:10014000A09F9F9E9D9C9B9B9A999898979695940B
:100150009493929191908F8E8E8D8C8B8B8A8988BF
:100160008887868585848382828180807F7E7D7D6D
:100170007C7B7A7A79787877767575747373727117
:1001800071706F6E6E6D6C6C6B6A6A6968686766B9
:10019000666564646362626160605F5E5E5D5C5C54
:1001A0005B5A5A59585857575655555453535252EB
:1001B0005150504F4E4E4D4D4C4B4B4A4A49494879
:1001C00047474646454444434342424141403F3FFE
:1001D0003E3E3D3D3C3C3B3A3A393938383737367C
:1001E000363535343433333232313130302F2F2EEF
:1001F0002E2D2D2C2C2B2B2A2A2A2929282827275B
:1002000026262625252424232323222221212020BB
:10021000201F1F1E1E1E1D1D1C1C1C1B1B1B1A1A13
:100220001919191818181717171616161515151461
:100230001414131313121212111111111010100FA4
:100240000F0F0F0E0E0E0E0D0D0D0C0C0C0C0B0BDC
:100250000B0B0B0A0A0A0A09090909090808080808
:10026000070707070707060606060606050505052C
:100270000505040404040404040303030303030343
:10028000030302020202020202020202020101014F
:10029000010101010101010101010101010101014E
:1002A000010101010101010001010101010101013F
:1002B000010101010101010101010101010101012E
:1002C000010102020202020202020202020303030D
:1002D00003030303030304040404040404050505E1
:1002E00005050506060606060607070707070708A9
:1002F00008080809090909090A0A0A0A0B0B0B0B65
:100300000B0C0C0C0C0D0D0D0E0E0E0E0F0F0F0F17
:1003100010101011111111121212131313141414BE
:100320001515151616161717171818181919191A5A
:100330001A1B1B1B1C1C1C1D1D1E1E1E1F1F2020EC
:100340002021212222232323242425252626262773
:1003500027282829292A2A2A2B2B2C2C2D2D2E2EF2
:100360002F2F303031313232333334343535363665
:100370003737383839393A3A3B3C3C3D3D3E3E3FD1
:100380003F40414142424343444445464647474833
:1003900049494A4A4B4B4C4D4D4E4E4F505051528D
:1003A0005253535455555657575858595A5A5B5CDF
:1003B0005C5D5E5E5F606061626263646465666628
:1003C000676868696A6A6B6C6C6D6E6E6F7071716C
:1003D00072737374757576777878797A7A7B7C7DA9
:1003E0007D7E7F80808182828384858586878888E0
:1003F000898A8B8B8C8D8E8E8F9091919293949411
:100400009596979898999A9B9B9C9D9E9F9FA0A13B
:10041000A2A2A3A4A5A6A6A7A8A9AAAAABACADAD63
:10042000AEAFB0B1B2B2B3B4B5B6B6B7B8B9BABA86
:10043000BBBCBDBEBEBFC0C1C2C3C3C4C5C6C7C7A7
:10044000C8C9CACBCCCCCDCECFD0D1D1D2D3D4D5C4
:10045000D6D6D7D8D9DADBDBDCDCDCDCDCDCDCDCF8
:10046000DCDCDCDCDCDCDCDCDCDCDCDCDCDCDCDCCC
:10047000DCDCDCDCDCDCDCDCDCDCDCDCDCDCDCDCBC
:10048000DCDCDCDCDCDCDCDCDCDCDCDCDCDCDCDCAC
:10049000DCDCDCDCDCDCDCDCDCDCDCDCDCDCDCDC9C
:1004A000DCDCDCDCDCDCDCDCDCDCDCDCDCDCDCDC8C
:1004B000DCDCDCDCDCDCDCDCDCDCDCDCDCDCDCDC7C
:1004C000DCDCDCDCDCDCDCDCDCDCDCDCDCDBDBDA70
:1004D000DAD9D9D8D8D7D7D6D6D5D5D4D4D4D3D3BA
:1004E000D2D2D1D1D0D0CFCFCECECDCDCCCCCBCB24
:1004F000CACACAC9C9C8C8C7C7C6C6C5C5C4C4C38D
:10050000C3C2C2C1C1C1C0C0BFBFBEBEBDBDBCBCF5
:10051000BBBBBABABAB9B9B8B8B7B7B6B6B5B5B45D
:10052000B4B3B3B3B2B2B1B1B0B0AFAFAEAEADADC4
:10053000ADACACABABAAAAA9A9A8A8A8A7A7A6A628
:10054000A5A5A4A4A3A3A3A2A2A1A1A0A09F9F9E8E
:100550009E9E9D9D9C9C9B9B9A9A9A9999989897F0
:100560009796969695959494939392929291919052
:10057000908F8F8F8E8E8D8D8C8C8C8B8B8A8A89B1
:10058000898888888787868686858584848383830F
:10059000828281818080807F7F7E7E7D7D7D7C7C6C
:1005A0007B7B7B7A7A7979797878777776767675C6
:1005B00075747474737372727271717070706F6F1E
:1005C0006E6E6E6D6D6C6C6C6B6B6A6A6A69696875
:1005D00068686767666666656565646463636362C9
:1005E000626161616060605F5F5E5E5E5D5D5D5C1B
:1005F0005C5B5B5B5A5A5A5959595858575757566A
:1006000056565555555454535353525252515151B5
:100610005050504F4F4E4E4E4D4D4D4C4C4C4B4B01
:100620004B4A4A4A49494948484847474746464647
:10063000454545444444434343424242414141408D
:1006400040403F3F3F3E3E3E3E3D3D3D3C3C3C3BCF
:100650003B3B3A3A3A39393939383838373737360F
:10066000363636353535343434343333333232324A
:1006700031313131303030302F2F2F2E2E2E2E2D84
:100680002D2D2C2C2C2C2B2B2B2B2A2A2A2A2929BA
:1006900029282828282727272726262626252525EE
:1006A000252424242423232323222222222121211E
:1006B0002121202020201F1F1F1F1E1E1E1E1E1D49
:1006C0001D1D1D1C1C1C1C1C1B1B1B1B1A1A1A1A73
:1006D0001A19191919191818181818171717171798
:1006E00016161616161515151515141414141413BC
:1006F00013131313131212121212121111111111DA
:100700001010101010100F0F0F0F0F0F0F0E0E0EF6
:100710000E0E0E0D0D0D0D0D0D0D0C0C0C0C0C0C0C
:100720000C0B0B0B0B0B0B0B0A0A0A0A0A0A0A0A20
:100730000909090909090909080808080808080831
:100740000707070707070707070606060606060640
:100750000606060505050505050505050505040448
:10076000040404040404040404040403030303034E
:10077000030303030303030303030202020202024F
:10078000020202020202020202020202020101014C
:100790000101010101010101010101010101010149
:1007A0000101010101010101010101010101010139
:1007B000010101010101010101010100010101012A
:1007C0000101010101010101010101010101010119
:1007D0000101010101010101010101010101010109
:1007E00001010101010101010101020202020202F3
:1007F00002020202020202020202020202030303D6
:1008000003030303030303030303030304040404B4
:100810000404040404040404040505050505050591
:10082000050505050606060606060606060607076A
:10083000070707070707070808080808080808093E
:10084000090909090909090A0A0A0A0A0A0A0A0B0E
:100850000B0B0B0B0B0B0C0C0C0C0C0C0C0D0D0DDB
:100860000D0D0D0D0E0E0E0E0E0E0F0F0F0F0F0FA6
:100870000F1010101010101111111111121212126C
:10088000121213131313131314141414141515152F
:1008900015151616161616171717171718181818ED
:1008A0001819191919191A1A1A1A1A1B1B1B1B1CA9
:1008B0001C1C1C1C1D1D1D1D1E1E1E1E1E1F1F1F61
:1008C0001F20202020212121212122222222232316
:1008D00023232424242425252525262626262727C8
:1008E0002727282828282929292A2A2A2A2B2B2B76
:1008F0002B2C2C2C2C2D2D2D2E2E2E2E2F2F2F3021
:1009000030303031313131323232333333343434C8
:10091000343535353636363637373738383839396D
:1009200039393A3A3A3B3B3B3C3C3C3D3D3D3E3E0F
:100930003E3E3F3F3F4040404141414242424343AF
:10094000434444444545454646464747474848484A
:100950004949494A4A4A4B4B4B4C4C4C4D4D4D4EE4
:100960004E4E4F4F5050505151515252525353537B
:10097000545455555556565657575758585959590E
:100980005A5A5A5B5B5B5C5C5D5D5D5E5E5E5F5FA1
:100990006060606161616262636363646465656530
:1009A000666666676768686869696A6A6A6B6B6CBD
:1009B0006C6C6D6D6E6E6E6F6F7070707171727247
:1009C00072737374747475757676767777787879D0
:1009D00079797A7A7B7B7B7C7C7D7D7D7E7E7F7F57
:1009E00080808081818282838383848485858686DA
:1009F00086878788888889898A8A8B8B8C8C8C8D5E
:100A00008D8E8E8F8F8F90909191929292939394DE
:100A10009495959696969797989899999A9A9A9B5D
:100A20009B9C9C9D9D9E9E9E9F9FA0A0A1A1A2A2DB
:100A3000A3A3A3A4A4A5A5A6A6A7A7A8A8A8A9A957
:100A4000AAAAABABACACADADADAEAEAFAFB0B0B1D2
:100A5000B1B2B2B3B3B3B4B4B5B5B6B6B7B7B8B84C
:100A6000B9B9BABABABBBBBCBCBDBDBEBEBFBFC0C4
:100A7000C0C1C1C1C2C2C3C3C4C4C5C5C6C6C7C73D
:100A8000C8C8C9C9CACACACBCBCCCCCDCDCECECFB3
:100A9000CFD0D0D1D1D2D2D3D3D4D4D4D5D5D6D629
:100AA000D7D7D8D8D9D9DADADBDBDCDCDCDCDCDCA4
:100AB000DCDCDCDCDCDCDCDCDCDCDCDCDCDCDCDC76
:100AC000DCDCDCDCDCDCDCDCDCDCDCDCDCDCDCDC66
:100AD000DCDCDCDCDCDCDCDCDCDCDCDCDCDCDCDC56
:100AE000DCDCDCDCDCDCDCDCDCDCDCDCDCDCDCDC46
:100AF000DCDCDCDCDCDCDCDCDCDCDCDCDCDCDCDC36
:100B0000DCDCDCDCDCDCDCDCDCDCDCDCDCDCDCDC25
:100B1000DCDCDCDCDCDCDCDCDCDCDCDCDCDCDCDC15
:100B2000DCDCDCDCDCDCDCDCDCDCDCDCDCDCDCDC05
:100B3000DCDCDCDCDCDCDCDCDBDBDADAD9D9D8D809
:100B4000D7D7D6D6D5D4D4D3D3D2D2D1D1D0D0CF73
:100B5000CFCECECDCDCCCCCBCACAC9C9C8C8C7C7E9
:100B6000C6C6C5C5C4C4C3C3C2C2C1C1C0C0BFBF5D
:100B7000BEBEBDBCBCBBBBBABAB9B9B8B8B7B7B6D4
:100B8000B6B5B5B4B4B3B3B2B2B1B1B0B0AFAFAE45
:100B9000AEADADACACABABAAAAA9A9A8A8A7A7A6B5
:100BA000A6A5A5A4A4A3A3A2A2A1A1A0A09F9F9E25
:100BB0009E9D9D9C9C9B9B9A9A9999989897979695
:100BC00096959594949393929291919190908F8F02
:100BD0008E8E8D8D8C8C8B8B8A8A8989888887876D
:100BE00087868685858484838382828181808080D4
:100BF0007F7F7E7E7D7D7C7C7B7B7A7A7A7979783B
:100C0000787777767676757574747373727271719E
:100C10007170706F6F6E6E6E6D6D6C6C6B6B6A6AFF
:100C20006A6969686867676766666565646464635E
:100C300063626262616160605F5F5F5E5E5D5D5DB9
:100C40005C5C5B5B5B5A5A59595858585757565613
:100C50005655555454545353535252515151505068
:100C60004F4F4F4E4E4D4D4D4C4C4C4B4B4A4A4ABC
:100C7000494949484847474746464645454544440B
:100C80004343434242424141414040403F3F3E3E58
:100C90003E3D3D3D3C3C3C3B3B3B3A3A3A393939A1
:100CA00038383837373736363635353534343433E7
:100CB0003333323232323131313030302F2F2F2E28
:100CC0002E2E2D2D2D2D2C2C2C2B2B2B2B2A2A2A66
:100CD00029292928282828272727262626262525A2
:100CE00025252424242323232322222222212121D7
:100CF00021202020201F1F1F1F1E1E1E1E1D1D1D08
:100D00001D1C1C1C1C1B1B1B1B1A1A1A1A19191937
:100D10001919181818181717171717161616161561
:100D20001515151514141414141313131313121288
:100D300012121211111111111010101010100F0FAA
:100D40000F0F0F0F0E0E0E0E0E0D0D0D0D0D0D0CC7
:100D50000C0C0C0C0C0C0B0B0B0B0B0B0A0A0A0AE1
:100D60000A0A0A09090909090909090808080808F5
:100D70000808070707070707070707060606060606
:100D80000606060605050505050505050505040411
:100D9000040404040404040404030303030303031A
:100DA000030303030303030202020202020202021C
:100DB000020202020202020201010101010101011B
:100DC0000101010101010101010101010101010113
:100DD0000101010101010101010101010101010103
:100DE00001010001010101010101010101010101F4
:100DF00001010101010101010101010101010101E3
:100E000001010101010101010101010101020202CF
:100E100002020202020202020202020202020303B0
:100E2000030303030303030303030303040404048E
:100E30000404040404040405050505050505050569
:100E4000050606060606060606060707070707073D
:100E5000070707080808080808080909090909090F
:100E600009090A0A0A0A0A0A0A0B0B0B0B0B0B0CDC
:100E70000C0C0C0C0C0C0D0D0D0D0D0D0E0E0E0EA4
:100E80000E0F0F0F0F0F0F10101010101011111167
:100E90001111121212121213131313131414141427
:100EA00014151515151516161616171717171718E2
:100EB00018181819191919191A1A1A1A1B1B1B1B99
:100EC0001C1C1C1C1D1D1D1D1E1E1E1E1F1F1F1F4A
:100ED00020202020212121212222222223232323FA
:100EE00024242425252525262626262727272828A5
:100EF00028282929292A2A2A2B2B2B2B2C2C2C2D4C
:100F00002D2D2D2E2E2E2F2F2F30303031313132EE
:100F1000323232333333343434353535363636378E
:100F200037373838383939393A3A3A3B3B3B3C3C29
:100F30003C3D3D3D3E3E3E3F3F40404041414142C1
:100F40004242434343444445454546464647474756
:100F500048484949494A4A4A4B4B4C4C4C4D4D4DE7
:100F60004E4E4F4F4F505051515152525353535474
:100F700054545555565656575758585859595A5A01
:100F80005B5B5B5C5C5D5D5D5E5E5F5F5F60606187
:100F9000616262626363646464656566666767670D
:100FA000686869696A6A6A6B6B6C6C6D6D6E6E6E8F
:100FB0006F6F70707171717272737374747575760E
:100FC00076767777787879797A7A7A7B7B7C7C7D8C
:100FD0007D7E7E7F7F808080818182828383848406
:100FE00085858686878787888889898A8A8B8B8C7E
:100FF0008C8D8D8E8E8F8F909091919192929393F4
:101000009494959596969797989899999A9A9B9B68
:101010009C9C9D9D9E9E9F9FA0A0A1A1A2A2A3A3D8
:10102000A4A4A5A5A6A6A7A7A8A8A9A9AAAAABAB48
:10103000ACACADADAEAEAFAFB0B0B1B1B2B2B3B3B8
:10104000B4B4B5B5B6B6B7B7B8B8B9B9BABABBBB28
:10105000BCBCBDBEBEBFBFC0C0C1C1C2C2C3C3C491
:10106000C4C5C5C6C6C7C7C8C8C9C9CACACBCCCCFF
:10107000CDCDCECECFCFD0D0D1D1D2D2D3D3D4D468
:10108000D5D6D6D7D7D8D8D9D9DADADBDBDCDCDCD1
:10109000DCDCDCDCDCDCDCDCDCDCDCDCDCDCDCDC90
:1010A000DCDCDCDCDCDCDCDCDCDCDCDCDCDCDCDC80
:1010B000DCDCDCDCDCDCDCDCDCDCDCDCDCDCDCDC70
:1010C000DCDCDCDCDCDCDCDCDCDCDCDCDCDCDCDC60
:1010D000DCDCDCDCDCDCDCDCDCDCDCDCDCDCDCDC50
:1010E000DCDCDCDCDCDCDCDCDCDCDCDCDCDCDCDC40
:1010F000DCDCDCDCDCDCDCDCDCDCDCDCDCDCDCDC30
:10110000DCDCDCDCDCDCDCDBDADAD9D8D8D7D6D640
:10111000D5D4D4D3D2D2D1D0D0CFCECECDCCCCCBCF
:10112000CACAC9C9C8C7C7C6C5C5C4C3C3C2C1C165
:10113000C0BFBFBEBEBDBCBCBBBABAB9B8B8B7B6FB
:10114000B6B5B5B4B3B3B2B1B1B0AFAFAEAEADAC8E
:10115000ACABAAAAA9A8A8A7A7A6A5A5A4A3A3A221
:10116000A2A1A0A09F9F9E9D9D9C9B9B9A9A9998AF
:1011700098979796959594949392929191908F8F3A
:101180008E8E8D8C8C8B8B8A8989888887868685C4
:101190008584838382828181807F7F7E7E7D7D7C4A
:1011A0007B7B7A7A797978777776767575747373CD
:1011B0007272717170706F6F6E6D6D6C6C6B6B6A4B
:1011C0006A696968676766666565646463636262C5
:1011D000616160605F5F5E5D5D5C5C5B5B5A5A593C
:1011E00059585857575656555554545353525251AF
:1011F0005150504F4F4F4E4E4D4D4C4C4B4B4A4A19
:101200004949484847474746464545444443434281
:101210004242414140403F3F3E3E3E3D3D3C3C3BE3
:101220003B3B3A3A39393838383737363636353540
:10123000343434333332323231313030302F2F2E98
:101240002E2E2D2D2D2C2C2B2B2B2A2A2A292929E9
:101250002828272727262626252525242424232336
:10126000232222222121212020201F1F1F1E1E1E7B
:101270001E1D1D1D1C1C1C1B1B1B1B1A1A1A1919B9
:1012800019181818181717171716161615151515F3
:101290001414141413131313121212121111111126
:1012A00010101010100F0F0F0F0E0E0E0E0E0D0D52
:1012B0000D0D0D0C0C0C0C0C0B0B0B0B0B0A0A0A76
:1012C0000A0A0A0909090909090808080808080793
:1012D00007070707070606060606060606050505AC
:1012E00005050505050404040404040404040303BB
:1012F00003030303030303030302020202020202C5
:1013000002020202020202010101010101010101C6
:1013100001010101010101010101010101010101BD
:1013200001010101010101010001010101010101AE
:10133000010101010101010101010101010101019D
:101340000101010101010101010102020202020287
:101350000202020202020202030303030303030365
:10136000030303040404040404040404050505053C
:10137000050505050606060606060606070707070D
:1013800007070808080808080909090909090A0AD5
:101390000A0A0A0A0B0B0B0B0B0C0C0C0C0C0D0D98
:1013A0000D0D0D0E0E0E0E0E0F0F0F0F1010101054
:1013B0001011111111121212121313131314141409
:1013C00014151515151616161717171718181818B7
:1013D0001919191A1A1A1B1B1B1B1C1C1C1D1D1D5D
:1013E0001E1E1E1E1F1F1F202020212121222222FF
:1013F000232323242424252525262626272727289A
:10140000282929292A2A2A2B2B2B2C2C2D2D2D2E2D
:101410002E2E2F2F303030313132323233333434BC
:10142000343535363636373738383839393A3A3B45
:101430003B3B3C3C3D3D3E3E3E3F3F4040414142C8
:101440004242434344444545464647474748484946
:10145000494A4A4B4B4C4C4D4D4E4E4F4F4F5050BE
:101460005151525253535454555556565757585834
:1014700059595A5A5B5B5C5C5D5D5E5F5F606061A1
:10148000616262636364646565666667676869690B
:101490006A6A6B6B6C6C6D6D6E6F6F707071717270
:1014A000727373747575767677777879797A7A7BD3
:1014B0007B7C7D7D7E7E7F7F808181828283838431
:1014C0008585868687888889898A8B8B8C8C8D8E8A
:1014D0008E8F8F90919192929394949595969797E1
:1014E0009898999A9A9B9B9C9D9D9E9F9FA0A0A136
:1014F000A2A2A3A3A4A5A5A6A7A7A8A8A9AAAAAB88
:10150000ACACADAEAEAFAFB0B1B1B2B3B3B4B5B5D4
:10151000B6B6B7B8B8B9BABABBBCBCBDBEBEBFBF21
:10152000C0C1C1C2C3C3C4C5C5C6C7C7C8C9C9CA6B
:10153000CACBCCCCCDCECECFD0D0D1D2D2D3D4D4B6
:10154000D5D6D6D7D8D8D9DADADBDCDCDCDCDCDC03
:10155000DCDCDCDCDCDCDCDCDCDCDCDCDCDCDCDCCB
:10156000DCDCDCDCDCDCDCDCDCDCDCDCDCDCDCDCBB
:10157000DCDCDCDCDCDCDCDCDCDCDCDCDCDCDCDCAB
:10158000BBBBBBBBBBBBBBBBBBBBBBBAB7B5B4B3C5
:10159000B4B5B7BABBBBBBBBBBBBBBBBBBBBBBBBAD
:1015A000BBBBBBBBBBBBBBBBBBBAB7B5B4B3B4B5B2
:1015B000B7BABBBBBBBBBBBBBBBBBBBBB9B4B0B09F
:1015C000B4B9B9B9B9B9B2B2B2B2B2B1B1B1B1B1DB
:1015D000C6C6C6C6C66B6B6B6B6BABABABABABAB14
:1015E000ABABABABABABABABABABABABABABABAB4B
:1015F000ABABABABABABABABABABABABABABABAB3B
:10160000ABABABABABABABABABABABABABABABAB2A
:10161000ABABABABABABABABABABABABABABABAB1A
:10162000ABABABABABABABABABABABABABABABAB0A
:10163000ABABABABABABABABABABABABABABABABFA
:10164000ABABABABABABABABABABABABABABABABEA
:10165000ABABABABABABABABABABABABABABABABDA
:10166000ABABABABABABABABABABABABABABABABCA
:10167000ABABABABABABABABABABABABABABABABBA
:10168000ABABABABABABABABABABABABABABABABAA
:10169000ABABABABABABABABABABABABABABABAB9A
:1016A000ABABABABABABABABABABABABABABABAB8A
:1016B000ABABABABABABABABABABABABABABABAB7A
:1016C000ABABABABABABABABABABABABABABABAB6A
:1016D000ABABABABABABABABABABABABABABABAB5A
:1016E000ABABABABABABABABABABABABABABABAB4A
:1016F000AB717171717171717171717171717171A0
:1017000071717171717171717171717171717171C9
:1017100071717171717171717171717171717171B9
:1017200071717171717171717171717171717171A9
:101730007171717171717171717171717171717199
:101740007171717171717171717171717171717189
:101750007171717171717171717171717171717179
:101760007171717171717171717171717171717169
:101770007171717171717171717171717171717159
:101780007171717171717171717171717171717149
:101790007171717171717171717171717171717139
:1017A0007171717171717171717171717171717129
:1017B0007171717171717171717171717171717119
:1017C0007171717171717171717171717171717109
:1017D00071717171717171717171717171717171F9
:1017E00071717171718E8E8E8E8E8E8E8E8E8E8EAA
:1017F0008E8E8E8E8E8E8E8E8E8E8E8E8E8E8E8E09
:101800008E8E8E8E8E8E8E8E8E8E8E8E8E8E8E8EF8
:101810008E8E8E8E8E8E8E8E8E8E8E8E8E8E8E8EE8
:101820008E8E8E8E8E8E8E8E8E8E8E8E8E8E8E8ED8
:101830008E8E8E8E8E8E8E8E8E8E8E8E8E8E8E8EC8
:101840008E8E8E8E8E8E8E8E8E8E8E8E8E8E8E8EB8
:101850008E8E8E8E8E8E8E8E8E8E8E8E8E8E8E8EA8
:101860008E8E8E8E8E8E8E8E8E8E8E8E8E8E8E8E98
:101870008E8E8E8E8E8E8E8E8E8E8E8E8E8E8E8E88
:101880008E8E8E8E8E8E8E8E8E8E8E8E8E8E8E8E78
:101890008E8E8E8E6F6F6F6F6F6F6F6F8989898974
:1018A00089898989898989898989898989898989A8
:1018B0008989898989898989898989898989898998
:1018C0008989898989898989898989898989898988
:1018D0008989898989898989898989898989898978
:1018E0008989898989898989898989898989898968
:1018F0008989898989898989898989898989898958
:101900008989898989898989898989898989898947
:101910008989898989898989898989898989898937
:1019200089896A6A6A6A6A6A6A6A6A6A6A6A6A6AD9
:101930006A6A8C8C8C8C8C8C8C8C8C8C8C8C8C8C2B
:101940008C8C8C8C8C8C8C8C8C8C8C8C8C8C8C8CD7
:101950008C8C8C8C8C8C8C8C8C8C8C8C8C8C8C8CC7
:101960008C8C8C8C8C8C8C8C8C8C8C8C8C8C8C8CB7
:101970008C8C8C8C8C8C8C8C8C8C8C8C8C8C8C8CA7
:101980008C8C8C8C8C8C7A7A7A7A7A7A7A7A7A7A4B
:101990007A7A7A7A7A7A7A7A7A7A7A7A7A7A7A7AA7
:1019A0007A7A7A7A7A7A7A7A7A7A7A7A7A7A7A7A97
:1019B0007A7A7A7A7A7A7A7A7A8888888888888825
:1019C0008888888888888888888888888888888897
:1019D000888888888888A5A5A5A5A5A5A5A5A5A565
:1019E000A5A5A5A5A58888888888888888888888E6
:1019F0008888888888888888888888888888888867
:101A000088888888888888FFFF4949494949494921
:101A10004949494949494949494949494949494936
:101A20004949494949494949494949494949494926
:101A30004949494949494949494949494949494916
:101A40004949494949494949494949494949494906
:101A500049494949494949494949494949494949F6
:101A600049494949494949494949494949494949E6
:101A700049494949494949494949494949494949D6
:101A800049494949494949494949494949494949C6
:101A900049494949494949494949494949494949B6
:101AA00049494949494949494949494949494949A6
:101AB0004949494949497D7D7D7D7D7D7D7D7D7D8E
:101AC0007D7D7D7D7D7D7D7D7D7D7D7D7D7D7D7D46
:101AD0007D7D7D7D7D7D7D7D7D7D7D7D7D7D7D7D36
:101AE0007D7D7D7D7D7D7D7D7D3D3D3D3D3D3D3DE6
:101AF0003D3D3D3D3D3D3D3D3D3D3D3D3D3D3D3D16
:101B00003D3D3D3D3D3D3D3D3D3D3D3D3D3D3D3D05
:101B10003D3D3D3D3D3D3D3D3D3D3D3D3D3D3D3DF5
:101B20003D3D3D3D3D3D3D3D3D3D3D3D3D3D3D3DE5
:101B30003D3D3D3D3D3D3D3D3D3D3D7F7F7F7F7F8B
:101B40007F7F7F7F7F7F7F7F7F7F7F7F7F7F7F7FA5
:101B50007F7F7F7F7F7F7F7F7F7F7F7F7F7F7F7F95
:101B60007F7F7F7F7F7F7F7F7F7F7F7F7F7F7F7F85
:101B70007F7F7F7F7F7F7F7F7F7F7F7F7F7F7F7F75
:101B80007F7F7F7F7F7F7F7F7F7F7F7F7F7F7F7F65
:101B90007F7F7F7F7F7F7F7F7F7F7F7F7F7F7F7F55
:101BA0007F7F7F7F7F7F7F7F7F7F7F7F7F7F7F7F45
:101BB0007F7F7F7F7F7F7F7F7F7F7F7F7F7F7F7F35
:101BC0007F7F7F7F7F7F7F7F7F7F7F7F7F7F7F7F25
:101BD0007F7F7F7F7F7F7F7F7F7F7F7F7F7F7F7F15
:101BE0007F7F7F7F7F7F7F7F7F7F7F7F7F7F7F7F05
:101BF0007F7F7F7F7F7F7F7F7F7F7F7F7F7F7F88EC
:101C00008888888888888888888888888888888854
:101C10008888888888888888888888888888888844
:101C20008888888888888888888888888888888834
:101C30008888888888888888888888888888888824
:101C40008888888888888888888888888888888814
:101C50008888888888888888888888888888888804
:101C600088888888888888888888888888888888F4
:101C700088888888888888888888888888888888E4
:101C80008888888888882A2A2A2A2A2A2A2A2A2A80
:101C90002A2A2A2A2A2A2A2A2A2A2A2A2A2A2A2AA4
:101CA0002A2A2A2A2A2A2A2A2A2A2A2A2A2A2A2A94
:101CB0002A2A2A2A2A2A2A2A2A2A2A2A2A2A2A2A84
:101CC0002A2A2A2A2A2A2A2A2A2A2A2A2A2A2A2A74
:101CD0002A2A2A2A2A2A2A2A2A17171717171717E9
:101CE0001717171717171717171717171717171784
:101CF0001717171717171717171717171717171774
:101D00001717171717171717171717171717171763
:101D10001717171717171717171717171717171753
:101D20001717171717171717171717171717171743
:101D30001717171717171717171717171717171733
:101D40001717171717171717171717171717171723
:101D50001717171717171717171717171717171713
:101D60001717171717171717171717171717171703
:101D700017171717171717171717171717171717F3
:101D80001717171717175C5C5C5C5C5C5C5C5C5C31
:101D90005C5C5C5C5C5C5C5C5C5C5C5C5C5C5C5C83
:101DA0005C5C5C5C5C5C5C5C5C5C5C5C5C5C5C5C73
:101DB0005C5C5C5C5C5C5C5C5C5C5C5C5C5C5C5C63
:101DC0005C5C5C5C5C5C5C5C5C5C5C5C5C5C5C5C53
:101DD0005C5C5C5C5C5C5C5C5C5C5C5C5C5C5C5C43
:101DE0005C5C5C5C5C5C5C5C5C5C5C5C5C5C5C5C33
:101DF0005C5C5C5C5C5C5C5C5C5C5C5C5C5C5C5C23
:101E00005C5C5C5C5C5C5C5C5C5C5C5C5C5C5C5C12
:101E10005C5C5C5C5C5C5C5C5C5C5C5C5C5C5C5C02
:101E20005C5C5C5C5C5C5C5C93939393939393933A
:101E30009393939393939393939393939393939372
:101E40009393939393939393939393939393939362
:101E50009393939393939393939393939393939352
:101E60009393939393939393939393939393939342
:101E70009393939393939393939393939393939332
:101E80009393939393939393937A7A7A7A7A7A7AD1
:101E90007A7A7A7A7A7A7A7A7A7A7A7A7A7A7A7AA2
:101EA0007A7A7A7A7A7A7A7A7A7A7A7A7A7A7A7A92
:101EB0007A7A7A7A7A7A7A7A7A7A7A7A7A7A7A7A82
:101EC0007A7A7A7A7A7A7A7A7A7A7A7A7A7A7A7A72
:101ED0007A7A7A7A7A7A7A7A7A7A7A7A7A7A7A7A62
:101EE0007A7A7A7A7A7A7A7A7A7A7A7A7A7A7A7A52
:101EF0007A7A7A7A7A7A7A7A7A7A7A7A7A7A7A7A42
:101F00007A7A7A7A7A7A7A7A7A7A7A7A7A7A7A7A31
:101F10007A7A7A7A7A7A7A7A7A7A7A7A7A7A7A7A21
:101F20007A7A7A7A7A7A7A7A7A7A7A7A7A7A7A7A11
:101F30007A7A7A7A7A7A7A7A7A7A7A7A7A7A7A7A01
:101F40007A7A7A7A7A7A7A7A7A7A7A7A2F2F2F2F1D
:101F50002F2F2F2F2F2F2F2F2F2F2F2F2F2F2F2F91
:101F60002F2F2F2F2F2F2F2F2F2F2F2F2F2F2F2F81
:101F70002F2F2F2F2F2F2F2F2F2F2F2F2F2F2F2F71
:101F80002F2F2F2F2F2F2F2F2F2F2F2F2F2F2F2F61
:101F90002F2F2F2F2F2F2F2F2F2F2F2F2F2F2F2F51
:101FA0002F2F2F2F2F2F2F2F2F2F2F2F2F2F2F2F41
:101FB0002F2F2F2F2F2F2F2F2F2F2F2F2F2F2F2F31
:101FC0002F2F2F2F2F2F2F2F2F2F2F2F2F2F2F2F21
:101FD0002F2F2F2F2F2F2F2F2F2F2F2F2F2F2F2F11
:101FE0002F2F2F2F2F2F2F2F2F2F2F2F2F2F2F2F01
:101FF0002F2F2F2F2F2F2F2F2F2F2F2F2F2F2F2FF1
:102000002F2F2F2F2F2F2F2F2F2F2F2F2F2F2F2FE0
:102010002F2F2F2F2F2F2F2F2F2F2F2F2F2F2F2FD0
:102020002F0C0C0C0C0C0C0C0C0C0C0C0C0C0C0CCD
:102030000C0C0C0C0C0C0C0C0C0C0C0C0C0C0C0CE0
:102040000C0C0C0C0C0C0C0C0C0C0C0C0C0C0C0CD0
:102050000C0C0C0C0C0C0C0C0C0C0C0C0C0C0C0CC0
:102060000C0C0C0C0C0C0C0C0C0C0C0C0C0C0C0CB0
:102070000C0C0C0C0C0C0C0C0C0C0C0C0C0C0C0CA0
:102080000C0C0C0C0C0C0C0C0C0C0C0C0C0C0C0C90
:102090000C0C0C0C0C0C0C0C0C0C0C0C0C0C0C0C80
:1020A0000C0C0C0C0C0C0C0C0C0C0C0C0C0C0C0C70
:1020B0000C0C0C0C0C0C0C0C0C0C0C0C0C0C0C0C60
:1020C0000C0C0C0C0C0C0C0C0C0C0C0C0C0C0C0C50
:1020D0000C0C0C0C0C0C0C0C0C0C0C0C0C0C0C0C40
:1020E0000C0C0C0C0C0C0C0C0C0C0C0C0C0C0C0C30
:1020F0000C0C0C0C0C0C0C0C0C0C0C0C0C0C0C0C20
:102100000C0C0C0C0C0C0C0C0C0C0C0C0C0C0C0C0F
:102110000C0C0C0C0C0C0C0C0C0C0C0C0C0C0C0CFF
:102120000C0C0C0C0C0C0C0C0C0C0C0C0C0C0C0CEF
:102130000C0C0C0C0C0C0C0C0C0C0C0C0C0C0C0CDF
:102140000C0C0C0C0C0C0C0C0C0C0C0C0C0C0C0CCF
:102150000C0C0C0C0C42424242424242424242426D
:10216000424242424242424242424242424242424F
:10217000424242424242424242424242424242423F
:10218000424242424242424242424242424242422F
:102190004242424242424242424269696969696935
:1021A000696969696969696969696969696969699F
:1021B000696969696969696969696969696969698F
:1021C000696969696969696969696969696969697F
:1021D000696969696969696969695F5F5F5F5F5FAB
:1021E0005F5F5F5F5F5F5F5F5F5F5F5F5F5F5F5FFF
:1021F0005F5F5F5F5F5F5F5F5F5F5F5F5F5F5F5FEF
:102200005F5F5F5F5F5F5F5F5F5F5F5F5F5F5F5FDE
:102210005F5F5F5F5F5F5F5F5F5F5F5F5F5F5F5FCE
:102220005F0A0A0A0A0A0A0A0A0A0A0A0A0A0A0AB9
:102230000A0A0A0A0A0A0A0A0A0A0A0A0A0A0A0AFE
:102240000A0A0A0A0A0A0A0A0A0A0A0A0A0A0A0AEE
:102250000A0A0A0A0A0A0A0A0A0A0AFF0000000809
:10226000000201000003040700000000000000005D
:10227000010204081020408001020408102001021D
:1022800004081020040404040404040402020202EA
:1022900002020303030303030000000023002600DF
:1022A000290000000000250028002B00000000008D
:1022B000240027002A0011241FBECFEFD8E0DEBF84
:1022C000CDBF11E0A0E0B1E0EEEAFAE202C0059075
:1022D0000D92AC30B107D9F721E0ACE0B1E001C01C
:1022E0001D92AE32B207E1F70E9446150C945515C7
:1022F0000C94000060E082E00E94E31461E080E062
:102300000E94E31461E081E00E94E31461E083E055
:102310000E94E31461E084E00E94E31461E085E040
:102320000E94E31461E086E00E94E31461E087E02C
:102330000E94E31461E088E00E94E31461E089E018
:102340000E94E31461E08AE00E94E31461E08BE004
:102350000E94E31461E08CE00E94E31461E08DE0F0
:102360000C94E3140F931F93CF93DF93C0E0D0E05E
:10237000E0912301F0912401E55AFD4DE491F0E054
:10238000CE17DF0709F4589AE0912101F09122015C
:10239000E75FF54EE491F0E0CE17DF0709F4599AB4
:1023A000E0911F01F0912001E85FF54EE491F0E02B
:1023B000CE17DF0709F45B9AE0911D01F0911E0131
:1023C000E95FF54EE491F0E0CE17DF0709F45C9A7F
:1023D000E0911B01F0911C01EA53FA4EE491F0E008
:1023E000CE17DF0709F45D9AE0911901F0911A0107
:1023F000E454FA4EE491F0E0CE17DF0709F45E9A58
:10240000E0911701F0911801E256FA4EE491F0E0E4
:10241000CE17DF0709F45F9AE0910A01F0910B01F2
:10242000E058FA4EE491F0E0CE17DF0709F4289A5D
:10243000E0911501F0911601E053FF4EE491F0E0B8
:10244000CE17DF0709F4299AE0910801F0910901FC
:10245000EC50F54FE491F0E0CE17DF0709F42A9A2B
:10246000E0910601F0910701EE57FB4FE491F0E097
:10247000CE17DF0709F42B9AE0910401F0910501D2
:10248000E453FF4FE491F0E0CE17DF0709F42C9AF4
:10249000E0911301F0911401E859FF4FE491F0E04D
:1024A000CE17DF0709F42D9A0E945C1460930D018A
:1024B00070930E0180930F01909310010E945C14A1
:1024C00000910D0110910E0120910F01309110012A
:1024D000601B710B820B930B0091020110910301A1
:1024E000222717FD2095322F601771078207930767
:1024F00028F32196C11541E0D40709F039CF0E9495
:102500005C1460930D0170930E0180930F01909302
:1025100010010E945C1400910D0110910E01209198
:102520000F0130911001601B710B820B930B64360D
:1025300071058105910568F3589859985B985C98E6
:102540005D985E985F98289829982A982B982C98DF
:102550002D988091110190911201009709F047C0C8
:1025600020912301309124012F5F3F4F30932401AC
:102570002093230120912101309122012F5F3F4FB1
:10258000309322012093210120911F0130912001DD
:102590002F5F3F4F3093200120931F0120911D0199
:1025A00030911E012F5F3F4F30931E0120931D017C
:1025B00020911B0130911C012F5F3F4F30931C0174
:1025C00020931B012091190130911A012F5F3F4F79
:1025D00030931A01209319012091170130911801AD
:1025E0002F5F3F4F30931801209317013FC0813078
:1025F0009105E1F520910A0130910B012F5F3F4FCA
:1026000030930B0120930A0120911501309116019E
:102610002F5F3F4F30931601209315012091080141
:10262000309109012F5F3F4F30930901209308013A
:1026300020910601309107012F5F3F4F3093070132
:102640002093060120910401309105012F5F3F4F37
:10265000309305012093040120911301309114015E
:102660002F5F3F4F309314012093130120912301DA
:10267000309124012130310521F41092240110926F
:10268000230120912101309122012235384021F48B
:10269000109222011092210120911F0130912001FE
:1026A0002130310521F41092200110921F01209158
:1026B0001D0130911E012130310521F410921E01BF
:1026C00010921D0120911B0130911C0121343440D6
:1026D00021F410921C0110921B01209119013091DC
:1026E0001A012A30310521F410921A0110921901B1
:1026F00020911701309118012E31310521F41092EB
:1027000018011092170120910A0130910B012E310E
:10271000310521F410920B0110920A01209115014C
:1027200030911601203B344021F410921601109292
:10273000150120910801309109012C3D354021F40B
:1027400010920901109208012091060130910701B1
:102750002237364021F41092070110920601209191
:10276000040130910501263B334021F4109205010C
:102770001092040120911301309114012436310587
:1027800021F41092140110921301019682309105E8
:1027900029F0909312018093110104C0109212014C
:1027A00010921101DF91CF911F910F9108950F9316
:1027B0001F9382E00E941C15892B19F010920C01C6
:1027C0002EC080910C0181112AC00E945C1460937C
:1027D0000D0170930E0180930F01909310010E94E0
:1027E0005C1400910D0110910E0120910F013091A8
:1027F0001001601B710B820B930B00910001109173
:102800000101222717FD2095322F601771078207DB
:10281000930728F30E94B21181E080930C011F916D
:102820000F9108951F920F920FB60F9211242F93BC
:102830003F938F939F93AF93BF9380912601909185
:102840002701A0912801B09129013091250123E0B1
:10285000230F2D3720F40196A11DB11D05C026E8D8
:10286000230F0296A11DB11D2093250180932601FF
:1028700090932701A0932801B093290180912A0108
:1028800090912B01A0912C01B0912D010196A11DD9
:10289000B11D80932A0190932B01A0932C01B0933A
:1028A0002D01BF91AF919F918F913F912F910F90EB
:1028B0000FBE0F901F9018953FB7F89480912A0192
:1028C00090912B01A0912C01B0912D0126B5A89BD0
:1028D00005C02F3F19F00196A11DB11D3FBF66270E
:1028E000782F892F9A2F620F711D811D911D42E053
:1028F000660F771F881F991F4A95D1F7089578941E
:1029000084B5826084BD84B5816084BD85B58260F4
:1029100085BD85B5816085BDEEE6F0E08081816092
:102920008083E1E8F0E01082808182608083808192
:1029300081608083E0E8F0E0808181608083E1EB6A
:10294000F0E0808184608083E0EBF0E08081816052
:102950008083EAE7F0E08081846080838081826008
:1029600080838081816080838081806880831092F1
:10297000C1000895833081F028F4813099F08230CD
:10298000A1F008958730A9F08830B9F08430D1F4EF
:10299000809180008F7D03C0809180008F7780932D
:1029A0008000089584B58F7702C084B58F7D84BD83
:1029B00008958091B0008F7703C08091B0008F7D23
:1029C0008093B0000895CF93DF9390E0FC01E0592D
:1029D000FD4D2491FC01EC57FD4D8491882349F174
:1029E00090E0880F991FFC01E455FD4DA591B4912D
:1029F0008E559D4DFC01C591D4919FB7611108C0C2
:102A0000F8948C91209582238C93888182230AC02C
:102A1000623051F4F8948C91322F309583238C934B
:102A20008881822B888304C0F8948C91822B8C93AC
:102A30009FBFDF91CF910895CF93DF93282F30E090
:102A4000F901E45AFD4D8491F901E059FD4DD4910D
:102A5000F901EC57FD4DC491CC2391F081110E94F6
:102A6000BA14EC2FF0E0EE0FFF1FE856FD4DA591D4
:102A7000B4912C912D2381E090E021F480E002C0FC
:102A800080E090E0DF91CF91089508950E947F1437
:102A90000E9445150E947A11C0E0D0E00E94D71331
:0E2AA0002097E1F30E940000F9CFF894FFCFD9
:0C2AAE0020030B00C201F401E803140037
:00000001FF
