:100000000C94BF250C94DC250C94DC250C94DC2589
:100010000C94DC250C94DC250C94DC250C94DC255C
:100020000C94DC250C94DC250C94DC250C94DC254C
:100030000C94DC250C94DC250C94DC250C94DC253C
:100040000C946D280C94DC250C94DC250C94DC2598
:100050000C94DC250C94DC250C94DC250C94DC251C
:100060000C94DC250C94DC25D2D2D2D2D2D2D2D2BE
:10007000D2D2D2D2D2D2D2D2D2D2D2D2D2D2D2D260
:10008000D2D2D2D2D2D2D2D2D2D2D2D2D2D2D2D250
:10009000D2D2D2D2D2D2D2D2D2D2D2D2D2D2D2D240
:1000A000D2D2D2D2D2D2D2D2D2D2D2D2D2D2D2D230
:1000B000D2D2D2D1D1D0D0CFCECECDCDCCCCCBCA56
:1000C000CAC9C9C8C8C7C7C6C6C5C5C4C4C3C3C2D0
:1000D000C2C1C1C0C0BFBFBEBEBDBDBCBCBBBBBA40
:1000E000BABAB9B9B8B8B7B7B7B6B6B5B5B5B4B4A2
:1000F000B4B3B3B2B2B2B1B1B1B0B0B0AFAFAFAEF2
:10010000AEAEADADADADACACACACABABABAAAAAA30
:10011000AAAAA9A9A9A9A8A8A8A8A8A7A7A7A7A75C
:10012000A7A6A6A6A6A6A6A6A5A5A5A5A5A5A5A576
:10013000A4A4A4A4A4A4A4A4A4A4A4A4A4A4A4A47F
:10014000A3A3A3A3A3A3A3A3A3A3A3A3A3A3A3A37F
:10015000A3A3A3A3A4A4A4A4A4A4A4A4A4A4A4A463
:10016000A4A4A4A4A4A5A5A5A5A5A5A5A5A5A5A544
:10017000A6A6A6A6A6A6A6A6A6A7A7A7A7A7A7A718
:10018000A7A8A8A8A8A8A8A8A8A9A9A9A9A9A9A9E9
:10019000AAAAAAAAAAAAAAABABABABABABABACACB4
:1001A000ACACACACABAAA9A7A6A5A4A3A2A1A09FE6
:1001B0009E9D9C9B9A9998969594939291908F8EE0
:1001C0008D8C8B8A8988878685848281807F7E7DDD
:1001D0007C7B7A797877767574737271706F6E6DD7
:1001E0006C6B6A69686766656464636261605F5EC0
:1001F0005D5C5B5A5958585756555453525151509B
:100200004F4E4D4C4B4B4A49484747464544434364
:10021000424140403F3E3D3D3C3B3A3A3938383719
:1002200036363534343332323130302F2F2E2D2DB7
:100230002C2C2B2B2A29292828272726262525243C
:10024000242323222222212120201F1F1F1E1E1DA6
:100250001D1D1C1C1C1B1B1B1A1A1A1919191918F5
:100260001818181717171716161616161515151528
:100270001514141414141414141313131313131344
:100280001313131313131212121212121212121248
:100290001212121313131313131313131313131331
:1002A0001314141414141414141415151515151509
:1002B00016161616161617171717171818181818CF
:1002C000191919191A1A1A1A1B1B1B1B1C1C1C1C86
:1002D0001D1D1D1D1E1E1E1F1F1F1F202020201F35
:1002E0001E1D1C1B1B1A1918171615141313121197
:1002F000100F0E0D0C0C0B0A090807070605040366
:1003000002020100000000000000000000000000E8
:1003100000000000000000000000000000000000DD
:1003200000000000000000000000000000000000CD
:1003300000000000000000000000000000000000BD
:1003400000000000000000000000000000000000AD
:10035000000000000000000000000000000000009D
:10036000000000000000000000000000000000008D
:10037000000000000000000000000000000000007D
:10038000000000000000000000000000000000006D
:10039000000000000000000000000000000000005D
:1003A000000000000000000000000000000000004D
:1003B000000000000000000000000000000000003D
:1003C000000000000000000000000000000000002D
:1003D000000000000000000000000000000000001D
:1003E000000000000000000000000000000000000D
:1003F00000000000000000000000000000010102F9
:100400000304050506070809090A0B0C0D0E0E0F5B
:100410001011121314141516171717171616161590
:1004200015151414141313131212121211111110A2
:100430001010100F0F0F0E0E0E0E0D0D0D0D0C0CDB
:100440000C0C0C0B0B0B0B0A0A0A0A0A0A09090905
:10045000090909080808080808080707070707071F
:100460000707070707060606060606060606060627
:100470000606060606060606060607070707070716
:1004800007070707070808080808080909090909EC
:10049000090A0A0A0A0B0B0B0B0C0C0C0C0D0D0DA8
:1004A0000E0E0E0F0F0F1010101111111212131348
:1004B000141414151516161717181819191A1A1BCB
:1004C0001B1C1C1D1D1E1E1F202021212223232436
:1004D00024252626272828292A2A2B2C2D2D2E2F85
:1004E0002F3031323233343536363738393A3A3BB9
:1004F0003C3D3E3F3F4041424344454546474849D5
:100500004A4B4C4D4E4F4F505152535455565758DD
:10051000595A5B5C5D5E5F606162636465666768D3
:10052000696A6B6C6D6E6F707173747576777879BC
:100530007A7B7C7D7E7F8082838485868788898A9A
:100540008B8C8E8F9091929394959697999A9B9C71
:100550009D9E9FA0A1A1A1A1A0A0A0A0A0A0A0A09D
:10056000A0A09F9F9F9F9F9F9F9F9F9F9E9E9E9E9D
:100570009E9E9E9E9E9E9E9E9D9D9D9D9D9D9D9DA3
:100580009D9D9D9D9D9D9D9C9C9C9C9C9C9C9C9CA4
:100590009C9C9C9C9C9C9C9C9C9C9C9C9C9C9C9C9B
:1005A0009C9C9C9C9C9C9C9C9C9C9C9C9D9D9D9D87
:1005B0009D9D9D9D9D9D9D9D9E9E9E9E9E9E9E9E63
:1005C0009F9F9F9F9F9F9FA0A0A0A0A0A0A1A1A12F
:1005D000A1A1A2A2A2A2A3A3A3A3A4A4A4A4A5A5EB
:1005E000A5A5A6A6A6A7A7A7A8A8A8A9A9A9AAAA93
:1005F000AAABABABACACADADADAEAEAFAFAFB0B028
:10060000B1B1B1B2B2B3B3B4B4B5B5B6B6B7B7B8A9
:10061000B8B9B9BABABBBBBCBCBDBDBEBEBFBFC01A
:10062000C1C1C2C2C3C3C4C5C5C6C6C7C8C8C9C97B
:10063000CACBCBCCCDCDCECECFD0D0D1D2D2D2D2D0
:10064000D2D2D2D2D2D2D2D2D2D2D2D2D2D2D2D28A
:10065000D2D2D2D2D2D2D2D2D2D2D2D2D2D2D2D27A
:10066000D2D2D2D2D2D2D2D2D2D2D2D2D2D2D2D26A
:10067000D2D2D2D2D2D2D2D2D2D2D2D2D2D2D2D25A
:10068000D2D2D2D2D2D2D2D2D2D2D2D2D2D2D2D24A
:10069000D2D2D2D2D2D2D2D2D2D2D2D2D2D2D2D23A
:1006A000D2D2D2D2D2D2D2D2D2D2D2D2D2D2D2D22A
:1006B000D2D2D2D2D2D2D2D2D2D2D2D2D2D2D2D21A
:1006C000D2D2D2D2D2D2D2D1D1D0D0CFCFCECECD23
:1006D000CDCCCCCCCBCBCACAC9C9C9C8C8C7C7C77F
:1006E000C6C6C6C5C5C5C4C4C4C3C3C3C3C2C2C2CB
:1006F000C2C1C1C1C1C0C0C0C0C0BFBFBFBFBFBFFA
:10070000BEBEBEBEBEBEBEBEBEBDBDBDBDBDBDBD10
:10071000BDBDBDBDBDBDBDBDBDBDBDBDBEBEBEBE05
:10072000BEBEBEBEBEBEBFBFBFBFBFBFC0C0C0C0DB
:10073000C1C1C1C1C1C2C2C2C3C3C3C3C4C4D2D276
:10074000D2D2D2D2D2D2D2D2D2D2D2D2D2D2D2D289
:10075000D2D2D2D2D2D2D2D2D2D2D2D2D2D2D2D279
:10076000D2D2D2D2D2D2D2D2D2D2D2D2D2D2D2D269
:10077000D2D2D2D2D2D2D2D2D2D2D2D2D2D2D2D259
:10097000D2D2D2D2D2D2D2D2D2D2D2D2D2D1D1D05B
:10098000D0CFCECECDCDCCCCCBCACAC9C9C8C8C7B2
:10099000C7C6C6C5C5C4C4C3C3C2C2C1C1C0C0BF27
:1009A000BFBEBEBDBDBCBCBBBBBABABAB9B9B8B894
:1009B000B7B7B7B6B6B5B5B5B4B4B4B3B3B2B2B2EF
:1009C000B1B1B1B0B0B0AFAFAFAEAEAEADADADAD39
:1009D000ACACACACABABABAAAAAAAAAAA9A9A9A970
:1009E000A8A8A8A8A8A7A7A7A7A7A7A6A6A6A6A697
:1009F000A6A6A5A5A5A5A5A5A5A5A4A4A4A4A4A4AB
:100A0000A4A4A4A4A4A4A4A4A4A4A3A3A3A3A3A3AC
:100A1000A3A3A3A3A3A3A3A3A3A3A3A3A3A3A4A4A4
:100A2000A4A4A4A4A4A4A4A4A4A4A4A4A4A4A4A585
:100A3000A5A5A5A5A5A5A5A5A5A5A6A6A6A6A6A660
:100A4000A6A6A6A7A7A7A7A7A7A7A7A8A8A8A8A834
:100A5000A8A8A8A9A9A9A9A9A9A9AAAAAAAAAAAA03
:100A6000AAABABABABABABABACACACACACACABAAD2
:100A7000A9A7A6A5A4A3A2A1A09F9E9D9C9B9A996D
:100A800098969594939291908F8E8D8C8B8A89886D
:100A9000878685848281807F7E7D7C7B7A7978776A
:100AA000767574737271706F6E6D6C6B6A6968675E
:100AB00066656464636261605F5E5D5C5B5A595841
:100AC000585756555453525151504F4E4D4C4B4B15
:100AD0004A494847474645444343424140403F3ED8
:100AE0003D3D3C3B3A3A3938383736363534343385
:100AF00032323130302F2F2E2D2D2C2C2B2B2A291A
:100B00002928282727262625252424232322222294
:100B1000212120201F1F1F1E1E1D1D1D1C1C1C1BF4
:100B20001B1B1A1A1A191919191818181817171738
:100B30001716161616161515151515141414141463
:100B40001414141313131313131313131313131372
:100B50001212121212121212121212121213131372
:100B60001313131313131313131313141414141450
:100B70001414141415151515151516161616161623
:100B800017171717171818181818191919191A1AE2
:100B90001A1A1B1B1B1B1C1C1C1C1D1D1D1D1E1E95
:100BA0001E1F1F1F1F202020201F1E1D1C1B1B1A65
:100BB00019181716151413131211100F0E0D0C0C13
:100BC0000B0A0908070706050403020201000000DA
:100BD0000000000000000000000000000000000015
:100BE0000000000000000000000000000000000005
:100BF00000000000000000000000000000000000F5
:100C000000000000000000000000000000000000E4
:100C100000000000000000000000000000000000D4
:100C200000000000000000000000000000000000C4
:100C300000000000000000000000000000000000B4
:100C400000000000000000000000000000000000A4
:100C50000000000000000000000000000000000094
:100C60000000000000000000000000000000000084
:100C70000000000000000000000000000000000074
:100C80000000000000000000000000000000000064
:100C90000000000000000000000000000000000054
:100CA0000000000000000000000000000000000044
:100CB0000000000000000000000000000000000034
:100CC0000000000000000001010203040505060702
:100CD0000809090A0B0C0D0E0E0F10111213141433
:100CE00015161717171716161615151514141413AD
:100CF000131312121212111111101010100F0F0FE6
:100D00000E0E0E0E0D0D0D0D0C0C0C0C0C0B0B0B1A
:100D10000B0A0A0A0A0A0A0909090909090808083E
:100D20000808080807070707070707070707070650
:100D30000606060606060606060606060606060653
:100D40000606060607070707070707070707070836
:100D500008080808080909090909090A0A0A0A0B02
:100D60000B0B0B0C0C0C0C0D0D0D0E0E0E0F0F0FB4
:100D7000101010111111121213131414141515164A
:100D8000161717181819191A1A1B1B1C1C1D1D1EC3
:100D90001E1F202021212223232424252626272824
:100DA00028292A2A2B2C2D2D2E2F2F303132323369
:100DB000343536363738393A3A3B3C3D3E3F3F4092
:100DC000414243444545464748494A4B4C4D4E4FA6
:100DD0004F505152535455565758595A5B5C5D5EAB
:100DE0005F606162636465666768696A6B6C6D6E9B
:100DF0006F7071737475767778797A7B7C7D7E7F7E
:100E00008082838485868788898A8B8C8E8F909157
:100E1000929394959697999A9B9C9D9E9FA0A1A131
:100E2000A1A1A0A0A0A0A0A0A0A0A0A09F9F9F9FC4
:100E30009F9F9F9F9F9F9E9E9E9E9E9E9E9E9E9ECC
:100E40009E9E9D9D9D9D9D9D9D9D9D9D9D9D9D9DD0
:100E50009D9C9C9C9C9C9C9C9C9C9C9C9C9C9C9CD1
:100E60009C9C9C9C9C9C9C9C9C9C9C9C9C9C9C9CC2
:100E70009C9C9C9C9C9C9D9D9D9D9D9D9D9D9D9DA8
:100E80009D9D9E9E9E9E9E9E9E9E9F9F9F9F9F9F7E
:100E90009FA0A0A0A0A0A0A1A1A1A1A1A2A2A2A246
:100EA000A3A3A3A3A4A4A4A4A5A5A5A5A6A6A6A7F9
:100EB000A7A7A8A8A8A9A9A9AAAAAAABABABACAC9A
:100EC000ADADADAEAEAFAFAFB0B0B1B1B1B2B2B328
:100ED000B3B4B4B5B5B6B6B7B7B8B8B9B9BABABBA2
:100EE000BBBCBCBDBDBEBEBFBFC0C1C1C2C2C3C30F
:100EF000C4C5C5C6C6C7C8C8C9C9CACBCBCCCDCD69
:100F0000CECECFD0D0D1D2D2D2D2D2D2D2D2D2D2D1
:100F1000D2D2D2D2D2D2D2D2D2D2D2D2D2D2D2D2B1
:100F2000D2D2D2D2D2D2D2D2D2D2D2D2D2D2D2D2A1
:100F3000D2D2D2D2D2D2D2D2D2D2D2D2D2D2D2D291
:100F4000D2D2D2D2D2D2D2D2D2D2D2D2D2D2D2D281
:100F5000D2D2D2D2D2D2D2D2D2D2D2D2D2D2D2D271
:100F6000D2D2D2D2D2D2D2D2D2D2D2D2D2D2D2D261
:100F7000D2D2D2D2D2D2D2D2D2D2D2D2D2D2D2D251
:100F8000D2D2D2D2D2D2D2D2D2D2D2D2D2D2D2D241
:100F9000D2D1D1D0D0CFCFCECECDCDCCCCCCCBCB6F
:100FA000CACAC9C9C9C8C8C7C7C7C6C6C6C5C5C5CC
:100FB000C4C4C4C3C3C3C3C2C2C2C2C1C1C1C1C00D
:100FC000C0C0C0C0BFBFBFBFBFBFBEBEBEBEBEBE33
:100FD000BEBEBEBDBDBDBDBDBDBDBDBDBDBDBDBD3E
:100FE000BDBDBDBDBDBDBEBEBEBEBEBEBEBEBEBE27
:100FF000BFBFBFBFBFBFC0C0C0C0C1C1C1C1C1C2F0
:10100000C2C2C3C3C3C3C4C4D2D2D2D2D2D2D2D238
:10101000D2D2D2D2D2D2D2D2D2D2D2D2D2D2D2D2B0
:10102000D2D2D2D2D2D2D2D2D2D2D2D2D2D2D2D2A0
:10103000D2D2D2D2D2D2D2D2D2D2D2D2D2D2D2D290
:10104000D2D2D2D2D2D2D2D2D2D2D2D2D2D2D2D280
:10105000D2D2D2D2D2D2D2D2D2D2D2D2D2D2D2D270
:10106000D2D2D2D2D2D2D2D2D2D2D2D2D2D2D2D260
:10107000D2D2D2D2D2D2D2D2D2D2D2D2D2D2D2D250
:10108000D2D2D2D2D2D2D2D2D2D2D2D2D2D2D2D240
:10109000D2D2D2D2D2D2D2D2D2D2D2D2D2D2D2D230
:1010A000D2D2D2D2D2D2D2D2D2D2D2D2D2D2D2D220
:1010B000D2D2D2D2D2D2D2D2D2D2D2D2D2D2D2D210
:1010C000D2D2D2D2D2D2D2D2D2D2D2D2D2D2D2D200
:1010D000D2D2D2D2D2D2D2D2D2D2D2D2D2D2D2D2F0
:1010E000D2D2D2D2D2D2D2D2D2D2D2D2D2D2D2D2E0
:1010F000D2D2D2D2D2D2D2D2D2D2D2D2D2D2D2D2D0
:10110000D2D2D2D2D2D2D2D2D2D2D2D2D2D2D2D2BF
:10111000D2D2D2D2D2D2D2D2D2D2D2D2D2D2D2D2AF
:10112000D2D2D2D2D2D2D2D2D2D2D2D2D2D2D2D29F
:10113000D2D2D2D2D2D2D2D2D2D2D2D2D2D2D2D28F
:10114000D2D2D2D2D2D2D2D2D2D2D2D2D2D2D2D27F
:10115000D2D2D2D2D2D2D2D2D2D2D2D2D2D2D2D26F
:10116000D2D2D2D2D2D2D2D2D2D2D2D2D2D2D2D25F
:10117000D2D2D2D2D2D2D2D2D2D2D2D2D2D2D2D24F
:10118000D2D2D2D2D2D2D2D2D2D2D2D2D2D2D2D23F
:10119000D2D2D2D2D2D2D2D2D2D2D2D2D2D2D2D22F
:1011A000D2D2D2D2D2D2D2D2D2D2D2D2D2D2D2D21F
:1011B000D2D2D2D2D2D2D2D2D2D2D2D2D2D2D2D20F
:1011C000D2D2D2D2D2D2D2D2D2D2D2D2D2D2D2D2FF
:1011D000D2D2D2D2D2D2D2D2D2D2D2D2D2D2D2D2EF
:1011E000D2D2D2D2D2D2D2D2D2D2D2D2D2D2D2D2DF
:1011F000D2D2D2D2D2D2D2D2D2D2D2D2FFFFFFFF1B
:10120000D2D2D2D2D2D2D2D2D2D2D2D2D2D2D2D2BE
:10121000D2D2D2D2D2D2D2D2D2D2D2D2D2D2D2D2AE
:10122000D2D2D2D2D2D2D2D2D2D2D2D2D2D2D2D29E
:10123000D2D2D2D2D2D2D2D2D2D2D2D2D2D2D2D28E
:10124000D2D2D2D2D2D2D2D2D2D2D2D2D2D2D2D27E
:10125000D2D2D2D2D2D2D2D2D2D2D2D2D2D2D2D26E
:10126000D2D2D2D2D2D2D2D2D2D2D2D2D2D2D2D25E
:10127000D2D2D2D2D2D2D2D2D2D2D2D1CFCFCFCF5B
:10128000CFD0CFCDCCCAC9C8C8C8C8C9C8C6C5C3C5
:10129000C2C1C1C1C1C2C1BFBDBCBABAB9B9BABA73
:1012A000BAB8B6B4B3B2B2B2B2B3B2B0AEACABAA23
:1012B000AAAAAAABAAA8A6A5A3A2A2A2A2A3A2A0D8
:1012C0009E9D9B9A9A9A9A9B9A989695939292929F
:1012D000929392908E8D8B8A8A8A8A8B8A88868551
:1012E00083838282838383807F7D7C7B7A7A7B7B0E
:1012F0007B79777574737373737473716F6E6C6CC1
:101300006B6B6C6C6C6A6867656564646565656366
:1013100061605E5E5D5E5E5F5E5C5B59585757570D
:1013200058585856545352515151525252504F4D91
:101330004C4B4B4C4C4D4D4B494847464647474814
:10134000484644434242424243444342403F3E3E79
:101350003E3E3F40403E3C3B3A3A3A3B3B3C3C3BC6
:10136000393837373738393A3A3837363535353608
:10137000373838363534333334343536373534331B
:101380003232333334363635343332323233343624
:101390003635343333333334353737363534343404
:1013A000343537383937363636363637393A3B3AC8
:1013B00039383838393A3C3D3E3D3C3C3B3C3C3E7C
:1013C0003F414241403F3F404142434546454544FD
:1013D00044454547484A4B4A4A494A4A4B4C4E5075
:1013E00051505050505051535557585756565657C4
:1013F000585A5C5E5F5E5E5E5E5F606163656666F6
:101400006665666768696B6E6F6E6E6E6E6F717221
:1014100074767877777778787A7C7E80818181811D
:1014200081828385878A8B8B8B8B8B8C8E90929419
:10143000959595959697989A9C9FA0A0A0A0A1A2FB
:10144000A3A5A8AAABABABABACADAFB1B3B5B7B7C7
:10145000B7B7B8B9BABCBFC1C3C2C2C3C3C5C6C897
:10146000CBCDCFCECECFCFD1D2D2D2D2D2D2D2D27A
:10147000D2D2D2D2D2D2D2D2D2D2D2D2D2D2D2D24C
:10148000D2D2D2D2D2D2D2D2D2D2D2D2D2D2D2D23C
:10149000D2D2D2D2D2D2D2D2D2D2D2D2D2D2D2D22C
:1014A000D2D2D2D2D2D2D2D2D2D2D2D2D2D2D2D11D
:1014B000D1D1D0CECBC9C8C7C6C5C5C6C5C2C0BEAE
:1014C000BCBBBABABABAB9B7B5B3B1B0AFAFAFAFC8
:1014D000AEACAAA8A6A5A4A4A4A4A4A19F9D9C9BCD
:1014E0009A9A9A9A9A979593929190909090908EBA
:1014F0008B8A888787878787878482817F7E7E7EA5
:101500007E7E7E7C7A787776757576767674727064
:101510006F6E6E6E6E6F6E6C6A696767666767681E
:1015200067656462616060606161615F5D5C5B5AB8
:101530005A5A5B5C5B5A585756555555565757552E
:10154000535251505051525252514F4E4D4D4D4D9C
:101550004E4F4F4D4C4B4A494A4A4B4C4C4B4948D5
:1015600047474748494A4A49474646454646474805
:10157000494746454444454547484847464544440D
:1015800044454648484746454444454647484948F7
:10159000474645464647484A4A49484747474849D3
:1015A0004A4C4C4B4A4A494A4A4B4D4E4F4E4D4D80
:1015B0004C4D4D4F50525251515050505152545524
:1015C0005655545454545556585A5B5A59595959AA
:1015D0005A5B5D5F5F5F5E5E5E5E5F606264656416
:1015E000636363646566686A6B6A6969696A6B6C80
:1015F0006E707170706F6F707173747677777676C6
:10160000767778797B7D7E7D7D7D7D7E7F8082840F
:101610008585848484858687898B8C8C8B8B8B8C49
:101620008D8F91939493939393949596989A9B9B73
:101630009A9A9A9B9C9EA0A2A3A2A2A2A2A3A4A5AE
:10164000A7A9AAAAA9A9AAAAABADAFB1B2B1B1B1D3
:10165000B1B2B3B4B6B8B9B9B8B8B8B9BABCBEC00B
:10166000C1C0C0BFC0C0C1C3C5C7C8C7C7C6C7C740
:10167000C8CACCCECFCECDCDCDCECFD1D2D2D2D284
:10168000D2D2D2D2D2D2D2D2D2D2D2D2D2D2D2D23A
:10169000D2D2D2D2D2D2D2D2D2D2D2D2D2D2D2D22A
:1016A000D2D2D2D2D2D2D2D2D2D2D2D2D2D2D2D21A
:1016B000D2D2D2D2D2D2D2D2D2D2D2D2D2D2D2D20A
:1016C000D2D2D2D2D2D2D2D2D2D2D2D2D2D2D2D2FA
:1016D000D2D2D2D2D2D2D2D2D2D2D2D2D2D2D2D2EA
:1016E000D2D2D2D2D2D2D2D2D2D2D2D2D2D2D2D2DA
:1016F000D2D2D2D2D2D2D2D2D2D2D2D2D2D2D2D2CA
:10170000D2D2D2D2D2D2D2D2D2D2D2D2D2D2D2D2B9
:10171000D2D2D2D2D2D2D2D2D2D2D2D2D2D2D2D2A9
:10172000D2D2D2D2D2D2D2D2D2D2D2D2D2D2D2D299
:10173000D2D2D2D2D2D2D2D2D2D2D2D2D2D2D2D289
:10174000D2D2D2D2D2D2D2D2D2D2D2D2D2D2D2D279
:10175000D2D2D2D2D2D2D2D2D2D2D2D2D2D2D2D269
:10176000D2D2D2D2D2D2D2D2D2D2D2D2D2D2D2D259
:10177000D2D2D2D2D2D2D2D2D2D2D2D2D2D2D2D249
:10178000D2D2D2D2D2D2D2D2D2D2D2D2D2D2D2D239
:10179000D2D2D2D2D2D2D2D2D2D2D2D2D2D2D2D229
:1017A000D2D2D2D2D2D2D2D2D2D2D2D2D2D2D2D219
:1017B000D2D2D2D2D2D2D2D2D2D2D2D2D2D2D2D209
:1017C000D2D2D2D2D2D2D2D2D2D2D2D2D2D2D2D2F9
:1017D000D2D2D2D2D2D2D2D2D2D2D2D2D2D2D2D2E9
:1017E000D2D2D2D2D2D2D2D2D2D2D2D2D2D2D2D2D9
:1017F000D2D2D2D2D2D2D2D2D2D2D2D2D2D2D2D2C9
:10180000D2D2D2D2D2D2D2D2D2D2D2D2D2D2D2D2B8
:10181000D2D2D2D2D2D2D2D2D2D2D2D2D2D2D2D2A8
:10182000D2D2D2D2D2D2D2D2D2D2D2D2D2D2D2D298
:10183000D2D2D1CFCECCCBCBCBCCCCCCCAC8C6C5E8
:10184000C4C3C3C4C4C4C2C0BEBDBCBBBBBCBCBC9F
:10185000BAB8B6B5B4B3B3B4B4B4B1AFAEACABAB65
:10186000ABABACABA9A7A5A4A3A3A3A3A3A3A19F20
:101870009D9C9B9A9A9B9B9B9896959393929293EF
:101880009393908E8D8B8B8A8A8B8B8B89878584A3
:10189000838383838483817F7E7C7C7B7B7C7C7C55
:1018A0007A7876757574747576757371706F6E6EFF
:1018B0006E6F6F6F6D6B6A69686868696A6A68667F
:1018C00065646363636465656361605F5F5F5F60F8
:1018D00061615F5D5C5B5B5B5C5C5D5D5C5A595844
:1018E0005858595A5B5B5958575656565758595974
:1018F0005857565555555657595958565655555582
:101900005658595958575656565657595A5B5A5958
:10191000585858585A5B5C5D5C5B5B5A5B5B5D5E1C
:101920006061605F5E5E5F606162646564646363A2
:10193000646566686A6A6A6969696A6B6C6E707107
:101940007070707071727375777878787878797A4A
:101950007C7E80818180808182838587898A8A8A52
:101960008A8A8B8D8F9193959494949596989A9C4E
:101970009EA0A0A0A0A0A2A3A5A8AAACABACACAD11
:10198000AEB0B2B4B7B8B8B8B9BABBBDBFC1C4C5C0
:10199000C5C6C6C7C8CACCCFD2D2D2D2D2D2D2D272
:1019A000D2D2D2D2D2D2D2D2D2D2D2D2D2D2D2D217
:1019B000D2D2D2D2D2D2D2D2D2D2D2D2D2D2D2D207
:1019C000D2D2D2D2D2D2D2D2D2D2D2D2D2D2D2D2F7
:1019D000D2D2D2D2D2D2D0CDCBC8C7C6C5C5C4C34D
:1019E000C0BDBBB9B7B6B5B5B5B4B1AEACAAA8A7C2
:1019F000A6A6A6A4A29F9C9A99989797979593902C
:101A00008E8C8A898888888784817F7D7C7B7A7A9E
:101A10007A797673716F6E6D6C6C6C6B69666462EB
:101A200061605F5F5F5E5C59575554535353535227
:101A3000504D4B4A4848474748474442403E3D3D49
:101A40003C3D3D3C3A383634333333333333302E38
:101A50002C2B2A2A2A2A2A2A282624232222222216
:101A60002322201E1D1C1B1B1B1B1C1C1A181615B9
:101A70001515151616161413111010101011121238
:101A8000100F0D0C0C0C0D0D0E0F0D0B0A0A090A90
:101A90000A0B0C0C0B0A09080808090A0B0B0A09A7
:101AA00008070708090A0B0C0A09090808090A0BA4
:101AB0000C0D0C0B0A0A0A0B0C0D0F0F0E0E0D0D60
:101AC0000D0E0F11121312111111111213151718F7
:101AD000171616161617191A1C1D1C1C1C1C1C1D6B
:101AE0001F21232423232223232426282A2B2B2AA5
:101AF0002A2A2B2C2E3032333333333334353739D3
:101B00003B3C3C3C3C3C3D3F4042454646464646CD
:101B100047494B4D4F5150505051525355585A5BB5
:101B20005B5B5B5C5D5F6163656767676768696A8C
:101B30006C6F7173737373747576787B7D7F7F7F41
:101B40007F8081838587898B8B8B8B8C8D8F919305
:101B50009697979798989A9B9DA0A2A4A4A4A4A5B1
:101B6000A6A8AAACAFB0B0B0B1B1B2B4B6B8BBBC65
:101B7000BCBCBDBDBFC0C2C4C7C9C8C8C9C9CACC26
:101B8000CED0D2D2D2D2D2D2D2D2D2D2D2D2D2D23B
:101B9000D2D2D2D2D2D2D2D2D2D2D2D2D2D2D2D225
:101BA000D2D2D2D2D2D2D2D2D2D2D2D2D2D2D2D215
:101BB000D2D2D2D2D2D2D2D2D2D2D2D2D2D2D2D205
:101BC000D2D2D2D2D2D2D2D2D2D2D2D2D2D2D2D2F5
:101BD000D2D2D2D2D2D2D2D2D2D2D2D2D2D2D2D2E5
:101BE000D2D2D2D2D2D2D2D2D2D2D1D0CFCFD0D0E2
:101BF000D1D1D0CECDCCCBCCCCCDCECECCCBC9C917
:101C0000C8C8C9CACBCBCAC8C7C6C6C6C7C8C9C94F
:101C1000C8C7C6C5C5C5C6C7C8C8C7C6C5C4C4C564
:101C2000C5C7C8C8C7C6C5C5C5C5C6C7C9C9C8C749
:101C3000C6C6C6C6C7C8CACAC9C8C8C7C7C8C9CB26
:101C4000CCCDCCCBCACACACBCCCDCFD0CFCECDCDCC
:101C5000CDCECFD1D2D2D2D1D1D1D1D2D2D2D2D275
:101C6000D2D2D2D2D2D2D2D2D2D2D2D2D2D2D2D254
:101C7000D2D2D2D2D2D2D2D2D2D2D2D2D2D2D2D244
:101C8000D2D2D2D2D2D2D2D2D2D2D2D2D2D2D2D234
:101C9000D2D2D2D2D2D2D2D2D2D2D2D2D2D2D2D224
:101CA000D2D2D2D2D2D2D2D2D2D2D2D2D2D2D2D214
:101CB000D2D2D2D2D2D2D2D2D2D2D2D2D2D2D2D204
:101CC000D2D2D2D2D2D2D2D2D2D2D2D2D2D2D2D2F4
:101CD000D2D2D2D2D2D2D2D2D2D2D2D2D2D2D2D2E4
:101CE000D2D2D2D2D2D2D2D2D2D2D2D2D2D2D2D2D4
:101CF000D2D2D2D2D2D2D2D2D2D2D2D2D2D2D2D2C4
:101D0000D2D2D2D2D2D2D2D2D2D2D2D2D2D2D2D2B3
:101D1000D2D2D2D2D2D2D2D2D2D2D2D2D2D2D2D2A3
:101D2000D2D2D2D2D2D2D2D2D2D2D2D2D2D2D2D293
:101D3000D2D2D2D2D2D2D2D2D2D2D2D2D2D2D2D283
:101D4000D2D2D2D2D2D2D2D2D2D2D2D2D2D2D2D273
:101D5000D2D2D2D2D2D2D2D2D2D2D2D2D2D2D2D263
:101D6000D2D2D2D2D2D2D2D2D2D2D2D2D2FEFEFECF
:101D7000FEFEFEFEFEFEFEFEFEFEFEFEFEFEFEFE83
:101D8000FEFEFEFEFEFEFEFEFEFEFEFEFEFEFEFE73
:101D9000FEFEFEFEFEFEFEFEFEFEFEFEFEFEFEFE63
:101DA000FEFEFEFEFEFEFEFEFEFEFEFEFEFEFEFE53
:101DB000FEFEFEFEFEFEFEFEFEFEFEFEFEFEFEFE43
:101DC000FEFEFEFEFEFEFEFEFEFEFEFEFEFEFEFE33
:101DD000FEFEFEFEFEFEFEFEFEFEFEFEFEFEFEFE23
:101DE000FEFEFEFEFEFEFEFEFEFEFEFEFEFEFEFE13
:101DF000FEFEFEFEFEFEFEFEFEFEFEFEFEFEFEFE03
:101E0000FEFEFEFEFEFEFEFEFEFEFEFEFEFEFEFEF2
:101E1000FEFEFEFEFEFEFEFEFEFEFEFEFEFEFEFEE2
:101E2000FEFEFEFEFEFEFEFEFEFEFEFEFEFEFEFED2
:101E3000FEFEFEFEFEFEFEFEFEFEFEFEFEFEFEFEC2
:101E4000FEFEFEFEFEFEFEFEFEFEFEFEFEFEFEFEB2
:101E5000FEFEFEFEFEFEFEFEFEFEFEFEFEFEFEFEA2
:101E6000FEFEFEFEFEFEFEFFFFFEFEFDFDFCFCFB99
:101E7000FBFAFAF9F9F8F7F7F6F6F5F5F4F4F3F3F7
:101E8000F2F2F1F1F0EFEFEEEEEDEDECECEBEBEA70
:101E9000EAE9E9E8E8E7E6E6E5E5E4E4E3E3E2E2E7
:101EA000E1E1E0E0DFDEDEDDDDDCDCDBDBDADAD960
:101EB000D9D8D8D7D7D6D6D5D4D4D3D3D2D2D1D1D6
:101EC000D0D0CFCFCECECDCDCCCCCBCACAC9C9C84D
:101ED000C8C7C7C6C6C5C5C4C4C3C3C2C2C1C1C0C2
:101EE000C0BFBFBEBEBDBCBCBBBBBABAB9B9B8B837
:101EF000B7B7B6B6B5B5B4B4B3B3B2B2B1B1B0B0AA
:101F0000AFAFAEAEADADACACABABAAAAA9A9A8A819
:101F1000A7A7A6A6A5A5A4A4A3A3A2A2A1A1A0A089
:101F20009F9F9E9E9D9D9C9C9B9B9A9A99999898F9
:101F30009797969695959494939392929191919068
:101F4000908F8F8E8E8D8D8C8C8B8B8A8A898988D1
:101F5000888787878686858584848383828281813A
:101F60008080807F7F7E7E7D7D7C7C7B7B7A7A7AA1
:101F70007979787877777676767575747473737205
:101F80007271717170706F6F6E6E6E6D6D6C6C6B67
:101F90006B6A6A6A696968686767676666656564C7
:101FA00064646363626262616160605F5F5F5E5E22
:101FB0005D5D5D5C5C5B5B5B5A5A5959585858577C
:101FC00057565656555554545453535352525151D3
:101FD0005150504F4F4F4E4E4D4D4D4C4C4C4B4B26
:101FE0004A4A4A4949494848474747464646454577
:101FF0004544444343434242424141414040403FC3
:102000003F3E3E3E3D3D3D3C3C3C3B3B3B3A3A3A0D
:102010003939393838383737373636363535353453
:102020003434333333323232323131313030302F95
:102030002F2F2E2E2E2D2D2D2D2C2C2C2B2B2B2BD4
:102040002A2A2A2929292828282827272726262610
:102050002625252525242424232323232222222246
:1020600021212121202020201F1F1F1F1E1E1E1E78
:102070001D1D1D1D1C1C1C1C1B1B1B1B1A1A1A1AA8
:1020800019191919191818181817171717171616D4
:1020900016161515151515141414141413131313FB
:1020A000131212121212111111111110101010101E
:1020B000100F0F0F0F0F0F0E0E0E0E0E0D0D0D0D3C
:1020C0000D0D0C0C0C0C0C0C0C0B0B0B0B0B0B0A56
:1020D0000A0A0A0A0A0A090909090909090908086C
:1020E000080808080807070707070707070706067D
:1020F0000606060606060605050505050505050589
:102100000504040404040404040404040303030392
:102110000303030303030303030302020202020295
:102120000202020202020202020202010101010194
:10213000010101010101010101010101010101018F
:10214000010101010101010101010101010101017F
:102150000101010101000101010101010101010170
:10216000010101010101010101010101010101015F
:10217000010101010101010101010101010101014F
:10218000020202020202020202020202020202022F
:10219000020303030303030303030303030303040F
:1021A00004040404040404040404050505050505E9
:1021B00005050505060606060606060606070707C0
:1021C0000707070707070808080808080809090992
:1021D00009090909090A0A0A0A0A0A0A0B0B0B0B60
:1021E0000B0B0C0C0C0C0C0C0C0D0D0D0D0D0D0E29
:1021F0000E0E0E0E0F0F0F0F0F0F101010101010ED
:1022000011111111111212121212131313131314AC
:102210001414141415151515151616161617171768
:1022200017171818181819191919191A1A1A1A1B20
:102230001B1B1B1C1C1C1C1D1D1D1D1E1E1E1E1FD2
:102240001F1F1F2020202021212121222222222382
:10225000232323242424252525252626262627272F
:1022600027282828282929292A2A2A2B2B2B2B2CD6
:102270002C2C2D2D2D2D2E2E2E2F2F2F303030317A
:10228000313132323232333333343434353535361A
:1022900036363737373838383939393A3A3A3B3BB6
:1022A0003B3C3C3C3D3D3D3E3E3E3F3F404040414F
:1022B00041414242424343434444454545464646E4
:1022C00047474748484949494A4A4A4B4B4C4C4C76
:1022D0004D4D4D4E4E4F4F4F505051515152525304
:1022E0005353545454555556565657575858585991
:1022F000595A5A5B5B5B5C5C5D5D5D5E5E5F5F5F18
:10230000606061616262626363646464656566669D
:10231000676767686869696A6A6A6B6B6C6C6D6D20
:102320006E6E6E6F6F7070717171727273737474A0
:1023300075757676767777787879797A7A7A7B7B1D
:102340007C7C7D7D7E7E7F7F808080818182828398
:1023500083848485858686878787888889898A8A11
:102360008B8B8C8C8D8D8E8E8F8F90909191919286
:102370009293939494959596969797989899999AFD
:102380009A9B9B9C9C9D9D9E9E9F9FA0A0A1A1A26D
:10239000A2A3A3A4A4A5A5A6A6A7A7A8A8A9A9AADD
:1023A000AAABABACACADADAEAEAFAFB0B0B1B1B24D
:1023B000B2B3B3B4B4B5B5B6B6B7B7B8B8B9B9BABD
:1023C000BABBBBBCBCBDBEBEBFBFC0C0C1C1C2C228
:1023D000C3C3C4C4C5C5C6C6C7C7C8C8C9C9CACA95
:1023E000CBCCCCCDCDCECECFCFD0D0D1D1D2D2D3FD
:1023F000D3D4D4D5D6D6D7D7D8D8D9D9DADADBDB67
:10240000DCDCDDDDDEDEDFE0E0E1E1E2E2E3E3E4CF
:10241000E4E5E5E6E6E7E8E8E9E9EAEAEBEBECEC37
:10242000EDEDEEEEEFEFF0F1F1F2F2F3F3F4F4F59F
:10243000F5F6F6F7F7F8F9F9FAFAFBFBFCFCFDFD07
:10244000FEFEFFFFFFFFFEFEFDFDFCFCFBFBFAFABC
:10245000FAF9F9F8F8F7F7F6F6F5F5F5F4F4F3F319
:10246000F2F2F1F1F0F0EFEFEFEEEEEDEDECECEB80
:10247000EBEAEAEAE9E9E8E8E7E7E6E6E5E5E5E4E4
:10248000E4E3E3E2E2E1E1E0E0E0DFDFDEDEDDDD48
:10249000DCDCDBDBDBDADAD9D9D8D8D7D7D6D6D6AD
:1024A000D5D5D4D4D3D3D2D2D2D1D1D0D0CFCFCE10
:1024B000CECDCDCDCCCCCBCBCACAC9C9C9C8C8C773
:1024C000C7C6C6C5C5C5C4C4C3C3C2C2C1C1C1C0D5
:1024D000C0BFBFBEBEBDBDBDBCBCBBBBBABAB9B937
:1024E000B9B8B8B7B7B6B6B6B5B5B4B4B3B3B2B297
:1024F000B2B1B1B0B0AFAFAFAEAEADADACACABABF7
:10250000ABAAAAA9A9A8A8A8A7A7A6A6A5A5A5A455
:10251000A4A3A3A2A2A2A1A1A0A0A09F9F9E9E9DB2
:102520009D9D9C9C9B9B9A9A9A999998989897970D
:102530009696959595949493939392929191909069
:10254000908F8F8E8E8E8D8D8C8C8C8B8B8A8A89C2
:10255000898988888787878686858585848483831B
:1025600083828281818180807F7F7F7E7E7D7D7D71
:102570007C7C7C7B7B7A7A7A7979787878777776C5
:102580007676757575747473737372727171717018
:1025900070706F6F6E6E6E6D6D6D6C6C6B6B6B6A69
:1025A0006A6A6969696868676767666666656564B7
:1025B000646463636362626261616160605F5F5F04
:1025C0005E5E5E5D5D5D5C5C5C5B5B5B5A5A59594F
:1025D0005958585857575756565655555554545498
:1025E0005353535252525151515050504F4F4F4EDE
:1025F0004E4E4D4D4D4C4C4C4B4B4B4A4A4A494923
:102600004948484848474747464646454545444463
:1026100044434343434242424141414040403F3FA3
:102620003F3F3E3E3E3D3D3D3C3C3C3C3B3B3B3AE0
:102630003A3A3A393939383838383737373636361A
:102640003635353534343434333333333232323152
:10265000313131303030302F2F2F2F2E2E2E2D2D87
:102660002D2D2C2C2C2C2B2B2B2B2A2A2A2A2929BA
:1026700029292828282827272727262626262625E9
:102680002525252424242423232323232222222214
:102690002121212120202020201F1F1F1F1F1E1E3F
:1026A0001E1E1D1D1D1D1D1C1C1C1C1C1B1B1B1B65
:1026B0001B1A1A1A1A1A1919191919181818181888
:1026C00017171717171616161616161515151515AA
:1026D00014141414141413131313131312121212C8
:1026E00012121111111111111010101010100F0FE2
:1026F0000F0F0F0F0F0E0E0E0E0E0E0E0D0D0D0DF9
:102700000D0D0D0C0C0C0C0C0C0C0B0B0B0B0B0B0C
:102710000B0B0A0A0A0A0A0A0A0A0909090909091D
:10272000090909080808080808080808070707072A
:102730000707070707060606060606060606060634
:10274000050505050505050505050505040404043D
:102750000404040404040404040303030303030340
:102760000303030303030303030202020202020240
:10277000020202020202020202020202020101013C
:102780000101010101010101010101010101010139
:102790000101010101010101010101010101010129
:1027A000010101010101010101010101010100011A
:1027B0000101010101010101010101010101010109
:1027C00001010101010101010101010101010101F9
:1027D00001010101010101010101010101010101E9
:1027E00002020202020202020202020202020202C9
:1027F00002020202030303030303030303030303AD
:10280000030303030404040404040404040404048C
:102810000405050505050505050505050506060666
:102820000606060606060606070707070707070740
:102830000708080808080808080809090909090913
:102840000909090A0A0A0A0A0A0A0A0B0B0B0B0BE6
:102850000B0B0B0C0C0C0C0C0C0C0D0D0D0D0D0DB5
:102860000D0E0E0E0E0E0E0E0F0F0F0F0F0F0F1080
:102870001010101010111111111111121212121248
:10288000121313131313131414141414141515150D
:1028900015151616161616161717171717181818CF
:1028A000181819191919191A1A1A1A1A1B1B1B1B8D
:1028B0001B1C1C1C1C1C1D1D1D1D1D1E1E1E1E1F49
:1028C0001F1F1F1F20202020202121212122222202
:1028D00022232323232324242424252525252626B7
:1028E0002626262727272728282828292929292A6C
:1028F0002A2A2A2B2B2B2B2C2C2C2C2D2D2D2D2E1C
:102900002E2E2F2F2F2F30303030313131313232C7
:102910003233333333343434343535353636363672
:10292000373737383838383939393A3A3A3A3B3B19
:102930003B3C3C3C3C3D3D3D3E3E3E3F3F3F3F40BF
:102940004040414141424242434343434444444561
:102950004545464646474747484848484949494A01
:102960004A4A4B4B4B4C4C4C4D4D4D4E4E4E4F4F9F
:102970004F5050505151515252525353535454543A
:102980005555555656565757575858585959595AD4
:102990005A5B5B5B5C5C5C5D5D5D5E5E5E5F5F5F6A
:1029A00060606161616262626363636464646565FF
:1029B00066666667676768686969696A6A6A6B6B91
:1029C0006B6C6C6D6D6D6E6E6E6F6F707070717123
:1029D00071727273737374747575757676767777B2
:1029E00078787879797A7A7A7B7B7C7C7C7D7D7D3E
:1029F0007E7E7F7F7F8080818181828283838384CA
:102A000084858585868687878788888989898A8A53
:102A10008B8B8C8C8C8D8D8E8E8E8F8F90909091D9
:102A2000919292939393949495959596969797985F
:102A3000989899999A9A9A9B9B9C9C9D9D9D9E9EE5
:102A40009F9FA0A0A0A1A1A2A2A2A3A3A4A4A5A568
:102A5000A5A6A6A7A7A8A8A8A9A9AAAAABABABACEC
:102A6000ACADADAEAEAFAFAFB0B0B1B1B2B2B2B36C
:102A7000B3B4B4B5B5B6B6B6B7B7B8B8B9B9B9BAEC
:102A8000BABBBBBCBCBDBDBDBEBEBFBFC0C0C1C16B
:102A9000C1C2C2C3C3C4C4C5C5C5C6C6C7C7C8C8EA
:102AA000C9C9C9CACACBCBCCCCCDCDCDCECECFCF68
:102AB000D0D0D1D1D2D2D2D3D3D4D4D5D5D6D6D6E4
:102AC000D7D7D8D8D9D9DADADBDBDBDCDCDDDDDE61
:102AD000DEDFDFE0E0E0E1E1E2E2E3E3E4E4E5E5DC
:102AE000E5E6E6E7E7E8E8E9E9EAEAEAEBEBECEC59
:102AF000EDEDEEEEEFEFEFF0F0F1F1F2F2F3F3F4D3
:102B0000F4F5F5F5F6F6F7F7F8F8F9F9FAFAFAFB4D
:102B1000FBFCFCFDFDFEFEFFFFF5F5F5F5F5F5F51B
:102B2000F5F5F5F5F5F5F5F5F5F5F5F5F5F5F5F555
:102B3000F5F5F5F5F5F5F5F5F5F5F5F5F5F5F5F545
:102B4000F5F5F5F5F5F5F5F5F5F5F5F5F5F5F5F535
:102B5000F5F5F5F5F5F5F5F5F5F5F5F5F5F5F5F525
:102E0000F5F5F5F5F5F5F5D2D2D2D2D2D2D2D2D2AD
:102E1000D2D2D2D2D2D2D2D2D2D2D2D2D2D2D2D292
:102E2000D2D2D2D2D2D2D2D2D2D2D2D2D2D2D2D282
:102E3000D2D2D2D2D2D2D2D2D2D2D2D2D2D2D2D272
:102E4000D2D2D2D2D2D2D2D2D2D2D2D2D2D2D2D262
:102E5000D2D2D2D2D2D2D2D2D2D2D2D2D2D2D2D252
:102E6000D2D2D2D2D2D2D2D2D2D2D2D2D2D2D2D242
:102E7000D2D2D2D2D2D2D2D2D2D2D2D2D2D2D2D232
:102E8000D2D2D2D2D2D2D2D2D2D2D2D2D2D2D2D222
:102E9000D2D2D2D2D2D2D2D2D2D2D2D2D2D2D2D212
:102EA000D2D2D2D2D2D2D2D2D2D2D2D2D2D2D2D202
:102EB000D2D2D2D2D2D1D0D1D1D2D2D2D2CFCECC04
:102EC000CCCCCDCED0D0CDCBC9C8C7C7C8C9CBCB51
:102ED000C8C6C4C3C2C3C3C4C6C6C3C1BFBEBEBEC8
:102EE000BEC0C1C1BEBCBAB9B8B9B9BABCBCB9B729
:102EF000B5B4B3B3B4B5B7B7B4B2B0AFAEAEAFB0AC
:102F0000B1B1AFACABA9A9A9A9AAACACA9A7A5A41A
:102F1000A3A3A4A5A6A6A4A1A09E9E9E9E9FA1A198
:102F20009E9C9A999898999A9B9B9996949393931F
:102F30009394969693918F8E8D8D8E8F90908E8B8D
:102F40008988878788898B8B88868482828282841D
:102F5000858582807E7D7C7C7D7E7F7F7D7B797791
:102F6000777777797A7A777573727171727375750D
:102F700072706E6D6C6C6D6E6F6F6D6A696767678E
:102F800067696A6A686563626262626365656260F6
:102F90005E5D5C5D5D5E60605D5B59585858585A77
:102FA0005B5B595655535353545556565452504FD4
:102FB0004E4E4F5052524F4D4B4A4A4A4B4C4E4E3A
:102FC0004B4947464646474849494745434242429E
:102FD0004344454643413F3E3E3E3F4042423F3DE3
:102FE0003C3B3A3A3B3D3E3E3C3A3837373738393E
:102FF0003B3B393735343434353638383634323172
:103000003131323335353331302F2E2F30313333A8
:10301000312F2D2C2C2C2D2F31312F2D2B2A2A2ADC
:103020002B2D2F2F2D2B292828292A2B2D2D2B29ED
:1030300028272727282A2C2C2A282726262627290E
:103040002B2B29272625252526282A2A282625240C
:10305000242526282A2A2826252424252627292A05
:1030600028262524242526282A2A282725252525FB
:1030700026282A2B29272625252627292B2C2A28CE
:1030800027262627282A2C2D2B2A282828292A2CAF
:103090002E2F2D2B2A292A2A2C2E30302F2D2C2B67
:1030A0002C2C2E303233312F2E2E2E2F3032343521
:1030B00034323130313233353738363534333435D4
:1030C00036383A3B3A38373737383A3C3E3F3D3C62
:1030D0003B3A3B3C3D3F424341403F3E3F40414302
:1030E000464745444343434446484A4B494847477B
:1030F00047484A4C4F504E4D4C4C4C4D4F515455F7
:103100005352515151525456595A5857565657586E
:103110005A5C5E5F5E5D5C5C5C5D5F6164656462C1
:103120006262626365676A6B6A68686868696B6D2A
:103130007071706F6E6E6E7071747678767574746F
:103140007576787A7D7E7D7C7B7B7C7D7F818485B6
:1031500084828282828486888B8C8B898989898B00
:103160008D8F92939291909091929496999A99982A
:10317000979798999B9EA0A2A09F9F9F9FA1A3A570
:10318000A8A9A8A7A6A6A7A8AAADB0B1B0AFAEAE91
:10319000AFB0B2B4B7B8B7B6B6B6B6B8BABCBFC0BF
:1031A000BFBEBEBEBEC0C2C4C7C8C7C6C5C5C6C8EE
:1031B000CACCCFD0CFCECDCDCECFD1D2D2D2D2D21B
:1031C000D2D2D2D2D2D2D2D2D2D2D2D2D2D2D2D2DF
:1031D000D2D2D2D2D2D2D2D2D2D2D2D2D2D2D2D2CF
:1031E000D2D2D2D2D2D2D2D2D2D2D2D2D2D2D2D2BF
:1031F000D2D2D2D2D2D2D2D2D2D2D2D2D2D2D2D2AF
:10320000D2D2D2D2D2D2D2D2D2D2D2D2D2D2D2D29E
:10321000D2D2D2D2D2D2D2D2D2D2D2D2D2D2D2D28E
:10322000D2D2D2D2D2D2D1D1D1D2D2D2D0CECCCA95
:10323000CAC9CACBCCCCC9C7C5C3C3C2C3C4C5C520
:10324000C2C0BEBCBCBCBCBDBEBEBCB9B7B6B5B5C9
:10325000B6B7B8B8B5B3B1AFAFAFAFB0B2B1AFAC4E
:10326000AAA9A8A8A9AAABABA9A6A4A3A2A2A3A4F1
:10327000A5A5A3A09E9D9C9D9D9EA0A09D9B999869
:10328000979798999A9A98959392929292949595E5
:1032900092908E8D8D8D8D8F90908E8B8A88888860
:1032A000898A8B8B898785848383848587878582B8
:1032B00081807F7F80818383817E7D7C7B7B7C7D21
:1032C0007F7F7D7B79787778797A7B7C7977767464
:1032D00074747577787876747271717172747576AA
:1032E0007371706F6E6F70717373716F6D6C6C6CE6
:1032F0006D6F70716E6D6B6A6A6A6B6D6E6F6D6B00
:1033000069686868696B6D6D6B6968676667686A2C
:103310006B6C6A686665656667686A6B6967656530
:10332000646566686A6A6866656464646667696A33
:103330006866646464646567696A68666464646432
:103340006667696A68666564646566686A6A68670C
:103350006565656567686A6B6967666666666869FC
:103360006C6C6A6967676768696B6D6E6C6A6968BF
:1033700068696B6C6F6F6D6C6B6A6A6B6C6E707189
:103380006F6E6D6C6C6D6E70737372706F6E6F6F4D
:1033900071737576747271717172737578787775EF
:1033A0007474747576787A7B7A7877777778797BA6
:1033B0007E7E7D7B7A7A7A7B7D7F8182807F7E7D37
:1033C0007D7E8082848584828181818284868889D1
:1033D000878685858586888A8C8D8B8A8989898A66
:1033E0008B8E90918F8E8D8D8D8E909294959392E1
:1033F0009191919294969899989696959697989A75
:103400009D9E9C9B9A9A9A9B9D9FA1A2A19F9F9EE5
:103410009FA0A1A4A6A7A5A4A3A3A3A4A6A8ABAC60
:10342000AAA9A8A8A8A9ABADAFB0AFAEADACADAEE0
:10343000B0B2B4B5B4B2B2B1B2B3B4B7B9BAB9B745
:10344000B6B6B7B8B9BBBEBFBDBCBBBBBBBCBEC0CC
:10345000C3C4C2C1C0C0C0C1C3C5C8C9C7C6C5C531
:10346000C5C6C8CACCCDCCCBCAC9CACBCDCFD1D2A8
:10347000D1CFCECECFD0D1D2D2D2D2D2D2D2D2D23E
:10348000D2D2D2D2D2D2D2D2D2D2D2D2D2D2D2D21C
:10349000D2D2D2D2D2D2D2D2D2D2D2D2D2D2D2D20C
:1034A000D2D2D2D2D2D2D2D2D2D2D2D2D2D2D2D2FC
:1034B000D2D2D2D2D2D2D2D2D2D2D2D2D2D2D2D2EC
:10377000D2D2D2D2D2D2D2D2D2D2D2D2D2D2D2D12A
:10378000D0D1D1D2D2D2D2CFCECCCCCCCDCED0D043
:10379000CDCBC9C8C7C7C8C9CBCBC8C6C4C3C2C3B1
:1037A000C3C4C6C6C3C1BFBEBEBEBEC0C1C1BEBC0F
:1037B000BAB9B8B9B9BABCBCB9B7B5B4B3B3B4B592
:1037C000B7B7B4B2B0AFAEAEAFB0B1B1AFACABA9FA
:1037D000A9A9A9AAACACA9A7A5A4A3A3A4A5A6A678
:1037E000A4A1A09E9E9E9E9FA1A19E9C9A999898FE
:1037F000999A9B9B9996949393939394969693916D
:103800008F8E8D8D8E8F90908E8B898887878889FB
:103810008B8B8886848282828284858582807E7D6D
:103820007C7C7D7E7F7F7D7B7977777777797A7AED
:103830007775737271717273757572706E6D6C6C71
:103840006D6E6F6F6D6A6967676767696A6A6865D9
:10385000636262626263656562605E5D5C5D5D5E5F
:1038600060605D5B59585858585A5B5B59565553C0
:103870005353545556565452504F4E4E4F50525229
:103880004F4D4B4A4A4A4B4C4E4E4B494746464693
:1038900047484949474543424242434445464341DC
:1038A0003F3E3E3E3F4042423F3D3C3B3A3A3B3D3D
:1038B0003E3E3C3A3837373738393B3B3937353479
:1038C00034343536383836343231313132333535B7
:1038D0003331302F2E2F30313333312F2D2C2C2CF0
:1038E0002D2F31312F2D2B2A2A2A2B2D2F2F2D2B07
:1038F000292828292A2B2D2D2B2928272727282A34
:103900002C2C2A282726262627292B2B2927262533
:10391000252526282A2A28262524242526282A2A39
:103920002826252424252627292A28262524242537
:1039300026282A2A28272525252526282A2B29270F
:103940002625252627292B2C2A2827262627282AFC
:103950002C2D2B2A282828292A2C2E2F2D2B2A29BA
:103960002A2A2C2E30302F2D2C2B2C2C2E3032337B
:10397000312F2E2E2E2F3032343534323130313239
:103980003335373836353433343536383A3B3A38D0
:10399000373737383A3C3E3F3D3C3B3A3B3C3D3F76
:1039A000424341403F3E3F404143464745444343F5
:1039B000434446484A4B4948474747484A4C4F507A
:1039C0004E4D4C4C4C4D4F515455535251515152F8
:1039D0005456595A5857565657585A5C5E5F5E5D52
:1039E0005C5C5C5D5F6164656462626262636567C2
:1039F0006A6B6A68686868696B6D7071706F6E6E0B
:103A00006E7071747678767574747576787A7D7E5A
:103A10007D7C7B7B7C7D7F818485848282828284A5
:103A200086888B8C8B898989898B8D8F92939291D3
:103A3000909091929496999A9998979798999B9E1D
:103A4000A0A2A09F9F9F9FA1A3A5A8A9A8A7A6A643
:103A5000A7A8AAADB0B1B0AFAEAEAFB0B2B4B7B870
:103A6000B7B6B6B6B6B8BABCBFC0BFBEBEBEBEC0A3
:103A7000C2C4C7C8C7C6C5C5C6C8CACCCFD0CFCEBA
:103A8000CDCDCECFD1D2D2D2D2D2D2D2D2D2D2D228
:103A9000D2D2D2D2D2D2D2D2D2D2D2D2D2D2D2D206
:103AA000D2D2D2D2D2D2D2D2D2D2D2D2D2D2D2D2F6
:103AB000D2D2D2D2D2D2D2D2D2D2D2D2D2D2D2D2E6
:103AC000D2D2D2D2D2D2D2D2D2D2D2D2D2D2D2D2D6
:103AD000D2D2D2D2D2D2D2D2D2D2D2D2D2D2D2D2C6
:103AE000D2D2D2D2D2D2D2D2D2D2D2D2D2D2D2D2B6
:103AF000D1D1D1D2D2D2D0CECCCACAC9CACBCCCCE9
:103B0000C9C7C5C3C3C2C3C4C5C5C2C0BEBCBCBC93
:103B1000BCBDBEBEBCB9B7B6B5B5B6B7B8B8B5B31F
:103B2000B1AFAFAFAFB0B2B1AFACAAA9A8A8A9AAC4
:103B3000ABABA9A6A4A3A2A2A3A4A5A5A3A09E9D46
:103B40009C9D9D9EA0A09D9B9998979798999A9AC5
:103B50009895939292929294959592908E8D8D8D48
:103B60008D8F90908E8B8A888888898A8B8B8987A5
:103B70008584838384858787858281807F7F808118
:103B80008383817E7D7C7B7B7C7D7F7F7D7B797861
:103B90007778797A7B7C79777674747475777878AE
:103BA000767472717171727475767371706F6E6FF5
:103BB00070717373716F6D6C6C6C6D6F70716E6D15
:103BC0006B6A6A6A6B6D6E6F6D6B69686868696B4A
:103BD0006D6D6B6968676667686A6B6C6A68666555
:103BE000656667686A6B69676565646566686A6A61
:103BF0006866656464646667696A68666464646468
:103C00006567696A6866646464646667696A686649
:103C10006564646566686A6A68676565656567683E
:103C20006A6B69676666666668696C6C6A6967670D
:103C30006768696B6D6E6C6A696868696B6C6F6FD9
:103C40006D6C6B6A6A6B6C6E70716F6E6D6C6C6DA7
:103C50006E70737372706F6E6F6F7173757674724E
:103C6000717171727375787877757474747576780C
:103C70007A7B7A7877777778797B7E7E7D7B7A7AA4
:103C80007A7B7D7F8182807F7E7D7D7E8082848540
:103C900084828181818284868889878685858586DC
:103CA000888A8C8D8B8A8989898A8B8E90918F8E58
:103CB0008D8D8D8E909294959392919191929496F0
:103CC0009899989696959697989A9D9E9C9B9A9A65
:103CD0009A9B9D9FA1A2A19F9F9E9FA0A1A4A6A7E2
:103CE000A5A4A3A3A3A4A6A8ABACAAA9A8A8A8A965
:103CF000ABADAFB0AFAEADACADAEB0B2B4B5B4B2CB
:103D0000B2B1B2B3B4B7B9BAB9B7B6B6B7B8B9BB4E
:103D1000BEBFBDBCBBBBBBBCBEC0C3C4C2C1C0C0B8
:103D2000C0C1C3C5C8C9C7C6C5C5C5C6C8CACCCD2C
:103D3000CCCBCAC9CACBCDCFD1D2D1CFCECECFD0AA
:103D4000D1D2D2D2D2D2D2D2D2D2D2D2D2D2D2D254
:103D5000D2D2D2D2D2D2D2D2D2D2D2D2D2D2D2D243
:103D6000D2D2D2D2D2D2D2D2D2D2D2D2D2D2D2D233
:103D7000D2D2D2D2D2D2D2D2D2D2D2D2D2D2D2D223
:103D8000D2D2D2D2D2D2D2D2D2D2D2D2D2D2D2D213
:103F9000D2D2D2D2D2D2D2D2D2D2D2FEFEFEFEFE25
:103FA000FEFEFEFEFEFEFEFEFEFEFEFEFEFEFEFE31
:103FB000FEFEFEFEFEFEFEFEFEFEFEFEFEFEFEFE21
:103FC000FEFEFEFEFEFEFEFEFEFEFEFEFEFEFEFE11
:103FD000FEFEFEFEFEFEFEFEFEFEFEFEFEFEFEFE01
:103FE000FEFEFEFEFEFEFEFEFEFEFEFEFEFEFEFEF1
:103FF000FEFEFEFEFEFEFEFEFEFEFEFEFEFEFEFEE1
:10400000FEFEFEFEFEFEFEFEFEFEFEFEFEFEFEFED0
:10401000FEFEFEFEFEFEFEFEFEFEFEFEFEFEFEFEC0
:10402000FEFEFEFEFEFEFEFEFEFEFEFEFEFEFEFEB0
:10403000FEFEFEFEFEFEFEFEFEFEFEFEFEFEFEFEA0
:10404000FEFEFEFEFEFEFEFEFEFEFEFEFEFEFEFE90
:10405000FEFEFEFEFEFEFEFEFEFEFEFEFEFEFEFE80
:10406000FEFEFEFEFEFEFEFEFEFEFEFEFEFEFEFE70
:10407000FEFEFEFEFEFEFEFEFEFEFEFEFEFEFEFE60
:10408000FEFEFEFEFEFEFEFEFEFEFEFEFEFEFEFE50
:10409000FEFEFEFEFEFEFEFEFEFEFEFEFEFEFEFE40
:1040A000FEFEFEFEFEFEFEFEFEFEFEFEFEFEFEFE30
:1040B000FEFEFEFEFEFEFEFEFEFEFEFEFEFEFEFE20
:1040C000FEFEFEFEFEFEFEFEFEFEFEFEFEFEFEFE10
:1040D000FEFEFEFEFEFEFEFEFEFEFEFEFEFEFEFE00
:1040E000FEFEFEFEFEFEFEFEFEFEFEFEFEFEFEFEF0
:1040F000FEFEFEFEFEFEFEFEFEFEFEFEFEFEFEFEE0
:10410000FEFEFEFEFEFEFEFEFEFEFEFEFEFEFEFECF
:10411000FEFEFEFEFEFEFEFEFEFEFEFEFEFEFEFEBF
:10412000FEFEFEFEFEFEFEFEFEFEFEFEFEFEFEFEAF
:10413000FEFEFEFEFEFEFEFEFEFEFEFEFEFEFEFE9F
:10414000FEFEFEFEFEFEFEFEFEFEFEFEFEFEFEFE8F
:10415000FEFEFEFEFEFEFEFEFEFEFEFEFEFEFEFE7F
:10416000FEFEFEFEFEFEFEFEFEFEFEFEFEFEFEFE6F
:10417000FEFEFEFEFEFEFEFEFEFEFEFEFEFEFEFE5F
:10418000FEFEFEFEFEFEFEFEFEFEFEFEFEFEFEFF4E
:10419000FEFCFBF9F7F6F4F3F1EFEEECEBE9E8E601
:1041A000E4E3E1E0DEDCDBD9D8D6D4D3D1D0CECD88
:1041B000CBC9C8C6C5C3C2C0BFBDBBBAB8B7B5B40A
:1041C000B2B1AFAEACABA9A8A6A5A3A2A09F9D9C7F
:1041D0009A999796949391908F8D8C8A89878685EA
:1041E0008382807F7E7C7B7A787776747371706F40
:1041F0006E6C6B6A686766646362615F5E5D5C5B80
:104200005958575654535251504F4D4C4B4A4948A8
:10421000474645434241403F3E3D3C3B3A393837B3
:10422000363534333231302F2E2D2D2C2B2A2928A0
:10423000272626252423222221201F1F1E1D1C1C69
:104240001B1A191918171716151514141312121111
:104250001110100F0F0E0D0D0C0C0C0B0B0A0A0990
:1042600009090808070707060606050505040404EA
:10427000040303030303020202020201010101011C
:10428000010101010101010101000101010101011F
:104290000101010101010101020202020203030303
:1042A00003030404040405050506060607070708BA
:1042B000080909090A0A0B0B0C0C0C0D0D0E0F0F47
:1042C00010101111121213141415151617171819AE
:1042D000191A1B1C1C1D1E1F1F20212222232425EE
:1042E00026262728292A2B2C2D2D2E2F303132330C
:1042F0003435363738393A3B3C3D3E3F4041424306
:1043000045464748494A4B4C4D4F505152535456DD
:104310005758595B5C5D5E5F616263646667686A9B
:104320006B6C6E6F707173747677787A7B7C7E7F3E
:10433000808283858687898A8C8D8F9091939496CD
:1043400097999A9C9D9FA0A2A3A5A6A8A9ABACAE45
:10435000AFB1B2B4B5B7B8BABBBDBFC0C2C3C5C6B2
:10436000C8C9CBCDCED0D1D3D4D6D8D9DBDCDEE012
:10437000E1E3E4E6E8E9EBECEEEFF1F3F4F6F7F96C
:10438000FBFCFED2D2D2D2D2D2D2D2D2D2D2D2D28E
:10439000D2D2D2D2D2D2D2D2D2D2D2D2D2D2D2D2FD
:1043A000D2D2D2D2D2D2D2D2D2D2D2D2D2D2D2D2ED
:1043B000D2D2D2D2D2D2D2D2D2D2D2D2D2D2D2D2DD
:1043C000D2D2D2D2D2D2D2D2D2D2D2D2D2D2D2D2CD
:1043D000D2D2D2D2D2D2D2D2D2D2D2D2D2D2D2D2BD
:1043E000D2D2D2D2D2D2D2D2D2D2D2D2D2D2D2D2AD
:1043F000D2D2D2D2D2D2D2D2D2D2D2D2D2D2D2D29D
:10440000D2D2D2D2D2D2D2D1CFCECECDCECECFCFAB
:10441000CDCBC9C8C8C7C8C8C9C9C7C5C3C2C2C12E
:10442000C2C2C3C3C1BFBDBCBBBBBBBCBDBCBAB9B0
:10443000B7B6B5B5B5B6B7B6B4B3B1B0AFAFAFB048
:10444000B0B0AEACABAAA9A9A9AAABAAA8A7A5A4CB
:10445000A3A3A4A4A5A5A3A1A09E9E9E9E9F9F9F4B
:104460009D9C9A99999899999A9A989695949494CA
:1044700094949595939290908F8F8F9091918F8E29
:104480008C8B8B8B8B8C8D8D8B8A89888787888989
:104490008A8A8887858584848586878785848382C0
:1044A00082828283858583828180808081828383EA
:1044B00082807F7F7F7F8081828281807F7E7E7FFE
:1044C0007F80828281807F7E7E7F808182838180E7
:1044D000807F7F80818284848382818181828384C2
:1044E000868685848483848485878989888787876D
:1044F0008788898A8C8D8C8B8B8B8B8C8D8F9191FF
:104500009190909090919294969796959595969774
:10451000989A9C9D9C9C9B9C9C9D9FA1A3A4A3A3BB
:10452000A3A3A4A5A6A8AAABABABAAABACADAEB0F7
:10453000B3B4B3B3B3B3B4B6B7B9BCBDBCBCBCBD04
:10454000BEBFC1C3C5C7C6C6C6C7C8C9CBCDCFD1FC
:10455000D1D1D1D1D2D2D2D2D2D2D2D2D2D2D2D23F
:10456000D2D2D2D2D2D2D2D2D2D2D2D2D2D2D2D22B
:10457000D2D2D2D2D2D2D2D2D2D2D2D2D2D2D2D21B
:10458000D2D2D2D2D2D2D2D2D2D2D2D2D2D2D2D20B
:10459000D2D2D2D2D2D2D2D2D2D1CFCECECECECC15
:1045A000CAC7C5C3C2C1C0C0C0BFBCBAB8B6B4B325
:1045B000B3B3B3B2AFACAAA8A7A6A5A5A5A4A19F63
:1045C0009D9B99989898989794928F8D8C8B8B8BB4
:1045D0008B8A878482807F7E7E7E7E7D7A787574EA
:1045E0007272717171706E6B69676665656565641D
:1045F000615F5D5B5A5959595958565451504F4E45
:104600004E4E4E4D4B494745444343434343403E42
:104610003C3B3A393939393937343331303030303D
:1046200030302E2B2A28272727272827252322200A
:10463000201F1F2020201E1C1A19191818191A19BA
:104640001716141312121213141412100F0E0D0D4C
:104650000D0E0F0F0D0C0A090909090A0B0B0A08A8
:1046600007060606060708090706050404040506EA
:1046700007070504030303030405060605040302F4
:1046800002030405060706050403030405060808DB
:1046900007060605060607090A0B0A090908090A9A
:1046A0000B0C0E0F0E0D0D0D0D0E0F11131313121B
:1046B000121212131516181919181818191A1B1D89
:1046C0001F201F1F1F1F20212325272827272727BB
:1046D00028292B2D2F303030303031333436393AD1
:1046E0003A3A3A3A3B3D3F414345444444454648C3
:1046F0004A4C4E5050505051525355585A5C5C5C85
:104700005C5D5E60626467686869696A6B6D6F7141
:10471000747676767677797A7D7F828484848585CF
:1047200087898B8D90929292939495979A9C9FA152
:10473000A1A1A2A3A4A6A9ABAEB0B0B0B1B2B4B6C9
:10474000B8BBBDBFC0C0C1C2C3C5C7CACDCFCFCF24
:10475000D0D1D2D2D2D2D2D2D2D2D2D2D2D2D2D23C
:10476000D2D2D2D2D2D2D2D2D2D2D2D2D2D2D2D229
:10477000D2D2D2D2D2D2D2D2D2D2D2D2D2D2D2D219
:10478000D2D2D2D2D2D2D2D2D2D2D2CFCDCBC9C82B
:10479000C7C7C7C6C3C0BEBCBBBAB9B9B9B7B5B243
:1047A000B0AEACACABABABAAA7A4A2A09F9E9D9DA4
:1047B0009D9C9A9795939291919090908D8B8887DC
:1047C000858584848483817F7D7B7A797979797802
:1047D000767371706F6E6E6E6E6D6B696766656411
:1047E00064646464615F5D5C5B5B5B5B5B5B5957EE
:1047F0005553535252535353514F4D4C4B4B4B4BBC
:104800004C4C4A4846454444444546454342403F53
:104810003F3E3F3F40403E3D3B3A3A3A3A3B3C3CCC
:104820003A38373636363637383837353433333327
:104830003435363634333231313132333435333244
:10484000313030313132343433323130303132334F
:104850003435333231313132333435363534333324
:1048600033343536383837363635363637393B3BDC
:104870003A393939393A3B3D3E3F3E3E3D3D3E3E79
:1048800040414344434242424344454748494948E2
:10489000484848494B4D4F504F4E4E4E4F50515344
:1048A0005556565555555657595A5D5E5D5D5D5D79
:1048B0005E5F60626465656565656667696A6D6EA1
:1048C0006D6D6D6D6E6F71737577767676767778C0
:1048D0007A7C7E807F7F7F7F8082838588898988BC
:1048E00088898A8B8D8F91929292929293959699C4
:1048F0009B9C9C9C9C9C9D9EA0A2A5A6A6A5A5A6B3
:10490000A7A8AAACAEB0AFAFAFB0B1B2B4B6B8B9A9
:10491000B9B9B9B9BABCBDBFC2C3C3C2C2C3C4C5A9
:10492000C7C9CBCCCCCCCCCCCDCED0D2D2D2D2D2AB
:10493000D2D2D2D2D2D2D2D2D2D2D2D2D2D2D2D257
:10494000D2D2D2D2D2D2D2D2D2D2D2D2D2D2D2D247
:10495000D2D2D2D2D2D2D2D2D2D2D2D2D2D2D2D237
:10496000D2D2D2D2D2D2D2D2D2D2D2D2D2D2D2D227
:10497000D2D2D2D2D2D2D2D2D2D2D2D2D2D2D2D217
:10498000D2D2D2D2D2D2D2D2D2D2D2D2D2D2D2D207
:10499000D2D2D2D2D2D2D2D2D2D2D2D2D2D2D2D2F7
:1049A000D2D2D2D2D2D2D2D2D2D2D2D2D2D2D2D2E7
:1049B000D2D2D2D2D2D2D2D2D2D2D2D2D2D2D2D2D7
:1049C000D2D2D2D2D2D2D2D2D2D2D2D2D2D2D2D2C7
:1049D000D2D2D2D2D2D2D2D2D2D2D2D2D2D2D2D2B7
:1049E000D2D2D2D2D2D2D2D2D2D2D2D2D2D2D2D2A7
:1049F000D2D2D2D2D2D2D2D2D2D2D2D2D2D2D2D297
:104A0000D2D2D2D2D2D2D2D2D2D2D2D2D2D2D2D286
:104A1000D2D2D2D2D2D2D2D2D2D2D2D2D2D2D2D276
:104A2000D2D2D2D2D2D2D2D2D2D2D2D2D2D2D2D266
:104A3000D2D2D2D2D2D2D2D2D2D2D2D2D2D2D2D256
:104A4000D2D2D2D2D2D2D2D2D2D2D2D2D2D2D2D246
:104A5000D2D2D2D2D2D2D2D2D2D2D2D2D2D2D2D236
:104A6000D2D2D2D2D2D2D2D2D2D2D2D2D2D2D2D226
:104A7000D2D2D2D2D2D2D2D2D2D2D2D2D2D2D2D216
:104A8000D2D2D2D2D2D2D2D2D2D2D2D2D2D2D2D206
:104A9000D2D2D2D2D2D2D2D2D2D2D2D2D2D2D2D2F6
:104AA000D2D2D2D2D2D2D2D2D2D2D2D2D2D2D2D2E6
:104AB000D2D2D2D2D2D2D2D2D2D2D2D2D2D2D2D2D6
:104AC000D2D2D2D2D2D2D2D2D2D2D2D2D2D2D2D2C6
:104AD000D2D2D2D2D2D2D2D2D2D2D2D2D2D2D2D2B6
:104AE000D2D2D2D2D2D2D2D2D2D2D2D2D2D2D2D2A6
:104AF000D2D2D2D2D2D2D2D2D2D2D2D2D2D2D2D296
:104B0000D2D2D2D2D2D2D2D2D2D2D2D2D2D2D2D285
:104B1000D2D2D2D2D2D2D2D2D2D2D2D2D2D2D2D275
:104B2000D2FFF700000000240027002A0000000048
:104B300000250028002B000000000023002600298B
:104B40000004040404040404040202020202020336
:104B50000303030303010204081020408001020440
:104B600008102001020408102000000007000201C4
:104B700000000304060000000000000000001124F3
:104B80001FBECFEFD8E0DEBFCDBF11E0A0E0B1E0A7
:104B9000E2E7F3E502C005900D92A430B107D9F722
:104BA00011E0A4E0B1E001C01D92AE32B107E1F71F
:104BB0000E94A8290C94B7290C940000CF93DF938E
:104BC000C0E0D0E0E0910401F0910501E859FF4F09
:104BD000E4918E2F90E0C817D90709F4589AE09114
:104BE0000601F0910701EE5CF64FE4918E2F90E004
:104BF000C817D90709F4599AE0910801F091090101
:104C0000E450FE4EE4918E2F90E0C817D90709F4C6
:104C10005B9AE0910A01F0910B01E250FE4EE491A3
:104C20008E2F90E0C817D90709F45C9AE0910C0127
:104C3000F0910D01E050FE4EE4918E2F90E0C817E8
:104C4000D90709F45D9AE0910E01F0910F01ED533F
:104C5000F84EE4918E2F90E0C817D90709F45E9AB8
:104C6000E0911001F0911101E359F24EE4918E2F81
:104C700090E0C817D90709F45F9AE0911201F0910A
:104C80001301ED5BFB4DE4918E2F90E0C817D9071F
:104C900009F4289AE0911401F0911501E95FF14DB2
:104CA000E4918E2F90E0C817D90709F4299AE09172
:104CB0001601F0911701EF52F94CE4918E2F90E01C
:104CC000C817D90709F42A9AE0911801F09119013F
:104CD000E556F04CE4918E2F90E0C817D90709F4FF
:104CE0002B9AE0911A01F0911B01ED57FC4BE491D6
:104CF0008E2F90E0C817D90709F42C9AE0911C0177
:104D0000F0911D01EF5DF44BE4918E2F90E0C817F8
:104D1000D90709F42D9A0E94B52860932001709359
:104D2000210180932201909323010E94B5282091B4
:104D30002001309121014091220150912301621BF9
:104D4000730B840B950B20910001309101014427D6
:104D500037FD4095542F621773078407950728F392
:104D6000219621E0C030D20709F02CCF0E94B5284F
:104D7000609320017093210180932201909323017D
:104D80000E94B528209120013091210140912201FB
:104D900050912301621B730B840B950B64367105D4
:104DA0008105910568F3589859985B985C985D98CF
:104DB0005E985F98289829982A982B982C982D9877
:104DC00080911E0190911F01009709F040C08091D1
:104DD00004019091050101969093050180930401CF
:104DE00080910601909107010196909307018093AD
:104DF00006018091080190910901019690930901A3
:104E00008093080180910A0190910B010196909383
:104E10000B0180930A0180910C0190910D01019684
:104E200090930D0180930C0180910E0190910F01E0
:104E3000019690930F0180930E0180911001909143
:104E400011010196909311018093100138C00197D0
:104E5000B1F5809112019091130101969093130185
:104E60008093120180911401909115010196909305
:104E700015018093140180911601909117010196FC
:104E80009093170180931601809118019091190158
:104E90000196909319018093180180911A019091C5
:104EA0001B01019690931B0180931A0180911C01B4
:104EB00090911D01019690931D0180931C0180919A
:104EC0000401909105018A5C984021F4109205013B
:104ED0001092040180910601909107018A5C98402C
:104EE00021F410920701109206018091080190911F
:104EF0000901029721F41092090110920801809192
:104F00000A0190910B01029721F410920B0110926B
:104F10000A0180910C0190910D01835C954021F470
:104F200010920D0110920C0180910E0190910F01D1
:104F30008A5A954021F410920F0110920E0180912F
:104F4000100190911101865D964021F4109211019B
:104F5000109210018091120190911301845C99408C
:104F600021F410921301109212018091140190917A
:104F700015018A5C984021F41092150110921401D9
:104F800080911601909117018A5C984021F410924B
:104F90001701109216018091180190911901885EF5
:104FA000934021F4109219011092180180911A0176
:104FB00090911B018E59974021F410921B01109281
:104FC0001A0180911C0190911D01029721F4109209
:104FD0001D0110921C0180911E0190911F010196EC
:104FE00090931F0180931E01029721F410921F01DC
:104FF00010921E01DF91CF91089582E00E94552901
:10500000892B79F580912401882369F50E94B528C0
:1050100060932001709321018093220190932301DA
:105020000E94B52820912001309121014091220158
:1050300050912301621B730B840B950B209102018D
:1050400030910301442737FD4095542F62177307B1
:105050008407950728F30E94DE2581E080932401D0
:10506000089510922401089582E060E00E941629BC
:1050700080E061E00E94162981E061E00E9416292B
:1050800083E061E00E94162984E061E00E94162915
:1050900085E061E00E94162986E061E00E94162901
:1050A00087E061E00E94162988E061E00E941629ED
:1050B00089E061E00E9416298AE061E00E941629D9
:1050C0008BE061E00E9416298CE061E00E941629C5
:1050D0008DE061E00E94162908951F920F920FB68D
:1050E0000F9211242F933F938F939F93AF93BF936E
:1050F0008091290190912A01A0912B01B0912C015E
:1051000030912D010196A11DB11D232F2D5F2D374B
:1051100020F02D570196A11DB11D20932D018093E4
:10512000290190932A01A0932B01B0932C01809127
:10513000250190912601A0912701B09128010196A7
:10514000A11DB11D8093250190932601A0932701F5
:10515000B0932801BF91AF919F918F913F912F9173
:105160000F900FBE0F901F9018959FB7F894209145
:10517000250130912601409127015091280186B5E3
:10518000A89B06C08F3F21F02F5F3F4F4F4F5F4FCF
:105190009FBF542F432F322F2227280F311D411D2F
:1051A000511D82E0220F331F441F551F8A95D1F7EE
:1051B000B901CA010895789484B5826084BD84B52C
:1051C000816084BD85B5826085BD85B5816085BD02
:1051D000EEE6F0E0808181608083E1E8F0E010821B
:1051E000808182608083808181608083E0E8F0E05C
:1051F000808181608083E1EBF0E080818460808346
:10520000E0EBF0E0808181608083EAE7F0E080817C
:1052100084608083808182608083808181608083DC
:105220008081806880831092C1000895CF93DF93BE
:10523000482F50E0CA018B5A944BFC0134914F5BCC
:10524000544BFA018491882369F190E0880F991FEB
:10525000FC01ED5DF44BA591B491FC01E35DF44BD1
:10526000C591D491662351F42FB7F8948C91932F64
:10527000909589238C93888189230BC0623061F4D7
:105280002FB7F8948C91932F909589238C938881D4
:10529000832B88832FBF06C09FB7F8948C91832BF4
:1052A0008C939FBFDF91CF910895682F70E0CB0161
:1052B0008759944BFC012491CB018B5A944BFC01F0
:1052C00044916F5B744BFB019491992319F420E096
:1052D00030E03CC0222351F1233071F0243028F417
:1052E0002130A1F0223011F514C02630B1F0273062
:1052F000C1F02430D9F404C0809180008F7703C0BE
:10530000809180008F7D8093800010C084B58F775E
:1053100002C084B58F7D84BD09C08091B0008F77B5
:1053200003C08091B0008F7D8093B000892F90E002
:10533000880F991F895C944BFC01A591B4918C91C5
:1053400020E030E0842311F021E030E0C90108952D
:10535000CF93DF930E94DB280E943428C0E0D0E086
:105360000E94FD272097E1F30E940000F9CFF894F6
:02537000FFCF6D
:045372000B00200309
:00000001FF
