:100000000C94D30F0C94F00F0C94F00F0C94F00F91
:100010000C94F00F0C94F00F0C94F00F0C94F00F64
:100020000C94F00F0C94F00F0C94F00F0C94F00F54
:100030000C94F00F0C94F00F0C94F00F0C94F00F44
:100040000C947D120C94F00F0C94F00F0C94F00FA4
:100050000C94F00F0C94F00F0C94F00F0C94F00F24
:100060000C94F00F0C94F00FB2B2DCDC5F5FFFFA7F
:10007000B2B2B2B2B2B1B1B1B1B1C6C6C6C6C66B48
:100080006B6B6B6BABABABABABABABABABABABABC0
:10009000ABABABABABABABABABABABABABABABABB0
:1000A000ABABABABABABABABABABABABABABABABA0
:1000B000ABABABABABABABABABABABABABABABAB90
:1000C000ABABABABABABABABABABABABABABABAB80
:1000D000ABABABABABABABABABABABABABABABAB70
:1000E000ABABABABABABABABABABABABABABABAB60
:1000F000ABABABABABABABABABABABABABABABAB50
:10010000ABABABABABABABABABABABABABABABAB3F
:10011000ABABABABABABABABABABABABABABABAB2F
:10012000ABABABABABABABABABABABABABABABAB1F
:10013000ABABABABABABABABABABABABABABABAB0F
:10014000ABABABABABABABABABABABABABABABABFF
:10015000ABABABABABABABABABABABABABABABABEF
:10016000ABABABABABABABABABABABABABABABABDF
:10017000ABABABABABABABABABABABABABABABABCF
:10018000ABABABABABABABABABABABABABABABABBF
:10019000ABABABABABABABABABABAB7171717171D1
:1001A000717171717171717171717171717171713F
:1001B000717171717171717171717171717171712F
:1001C000717171717171717171717171717171711F
:1001D000717171717171717171717171717171710F
:1001E00071717171717171717171717171717171FF
:1001F00071717171717171717171717171717171EF
:1002000071717171717171717171717171717171DE
:1002100071717171717171717171717171717171CE
:1002200071717171717171717171717171717171BE
:1002300071717171717171717171717171717171AE
:10024000717171717171717171717171717171719E
:10025000717171717171717171717171717171718E
:10026000717171717171717171717171717171717E
:10027000717171717171717171717171717171716E
:100280007171717171717171717171717171718E41
:100290008E8E8E8E8E8E8E8E8E8E8E8E8E8E8E8E7E
:1002A0008E8E8E8E8E8E8E8E8E8E8E8E8E8E8E8E6E
:1002B0008E8E8E8E8E8E8E8E8E8E8E8E8E8E8E8E5E
:1002C0008E8E8E8E8E8E8E8E8E8E8E8E8E8E8E8E4E
:1002D0008E8E8E8E8E8E8E8E8E8E8E8E8E8E8E8E3E
:1002E0008E8E8E8E8E8E8E8E8E8E8E8E8E8E8E8E2E
:1002F0008E8E8E8E8E8E8E8E8E8E8E8E8E8E8E8E1E
:100300008E8E8E8E8E8E8E8E8E8E8E8E8E8E8E8E0D
:100310008E8E8E8E8E8E8E8E8E8E8E8E8E8E8E8EFD
:100320008E8E8E8E8E8E8E8E8E8E8E8E8E8E8E8EED
:100330008E8E8E8E8E8E8E8E8E8E8E8E8E8E6F6F1B
:100340006F6F6F6F6F6F89898989898989898989B9
:10035000898989898989898989898989898989890D
:1003600089898989898989898989898989898989FD
:1003700089898989898989898989898989898989ED
:1003800089898989898989898989898989898989DD
:1003900089898989898989898989898989898989CD
:1003A00089898989898989898989898989898989BD
:1003B00089898989898989898989898989898989AD
:1003C0008989898989898989898989896A6A6A6A19
:1003D0006A6A6A6A6A6A6A6A6A6A6A6A8C8C8C8CF5
:1003E0008C8C8C8C8C8C8C8C8C8C8C8C8C8C8C8C4D
:1003F0008C8C8C8C8C8C8C8C8C8C8C8C8C8C8C8C3D
:100400008C8C8C8C8C8C8C8C8C8C8C8C8C8C8C8C2C
:100410008C8C8C8C8C8C8C8C8C8C8C8C8C8C8C8C1C
:100420008C8C8C8C8C8C8C8C8C8C8C8C8C8C8C8C0C
:100430007A7A7A7A7A7A7A7A7A7A7A7A7A7A7A7A1C
:100440007A7A7A7A7A7A7A7A7A7A7A7A7A7A7A7A0C
:100450007A7A7A7A7A7A7A7A7A7A7A7A7A7A7A7AFC
:100460007A7A7A8888888888888888888888888836
:1004700088888888888888888888888888888888FC
:10048000A5A5A5A5A5A5A5A5A5A5A5A5A5A5A58839
:1004900088888888888888888888888888888888DC
:1004A00088888888888888888888888888888888CC
:1004B000885F5FDCDCDCDCDCDCDCDCDCDCDCDCDCCA
:1004C000DCDCDCDCDCDCDCDCDCDCDCDCDCDCDCDC6C
:1004D000DCDCDCDCDCDCDCDCDCDCDCDCDCDCDCDC5C
:1004E000DCDCDCDCDCDCDCDCDCDCDBDADAD9D8D85C
:1004F000D7D6D6D5D4D4D3D2D2D1D0D0CFCECECDDC
:10050000CCCCCBCACAC9C9C8C7C7C6C5C5C4C3C372
:10051000C2C1C1C0BFBFBEBEBDBCBCBBBABAB9B808
:10052000B8B7B6B6B5B5B4B3B3B2B1B1B0AFAFAE9C
:10053000AEADACACABAAAAA9A8A8A7A7A6A5A5A42E
:10054000A3A3A2A2A1A0A09F9F9E9D9D9C9B9B9ABE
:100550009A99989897979695959494939292919149
:10056000908F8F8E8E8D8C8C8B8B8A8989888887D3
:100570008686858584838382828181807F7F7E7E5B
:100580007D7D7C7B7B7A7A797978777776767575DD
:100590007473737272717170706F6F6E6D6D6C6C5D
:1005A0006B6B6A6A696968676766666565646463D8
:1005B000636262616160605F5F5E5D5D5C5C5B5B4E
:1005C0005A5A5959585857575656555554545353C3
:1005D0005252515150504F4F4F4E4E4D4D4C4C4B2F
:1005E0004B4A4A4949484847474746464545444497
:1005F0004343424242414140403F3F3E3E3E3D3DFB
:100600003C3C3B3B3B3A3A39393838383737363659
:1006100036353534343433333232323131303030B0
:100620002F2F2E2E2E2D2D2D2C2C2B2B2B2A2A2A04
:100630002929292828272727262626252525242451
:10064000242323232222222121212020201F1F1F97
:100650001E1E1E1E1D1D1D1C1C1C1B1B1B1B1A1AD7
:100660001A19191918181818171717171616161512
:100670001515151414141413131313121212121146
:1006800011111110101010100F0F0F0F0E0E0E0E73
:100690000E0D0D0D0D0D0C0C0C0C0C0B0B0B0B0B98
:1006A0000A0A0A0A0A0A09090909090908080808B8
:1006B00008080707070707070606060606060606D0
:1006C00005050505050505050404040404040404E2
:1006D00004030303030303030303030302020202ED
:1006E00002020202020202020202010101010101F0
:1006F00001010101010101010101010101010101EA
:1007000001010101010101010101010001010101DA
:1007100001010101010101010101010101010101C9
:1007200001010101010101010101010101020202B6
:100730000202020202020202020202030303030394
:10074000030303030303040404040404040404056E
:10075000050505050505050606060606060606073F
:100760000707070707080808080808090909090909
:10077000090A0A0A0A0A0A0B0B0B0B0B0C0C0C0CCD
:100780000C0D0D0D0D0D0E0E0E0E0E0F0F0F0F108A
:100790001010101011111111121212121313131341
:1007A00014141414151515151616161717171718EF
:1007B0001818181919191A1A1A1B1B1B1B1C1C1C98
:1007C0001D1D1D1E1E1E1E1F1F1F2020202121213A
:1007D00022222223232324242425252526262627D6
:1007E000272728282929292A2A2A2B2B2B2C2C2D6C
:1007F0002D2D2E2E2E2F2F303030313132323233FC
:100800003334343435353636363737383838393985
:100810003A3A3B3B3B3C3C3D3D3E3E3E3F3F404009
:100820004141424242434344444545464647474787
:10083000484849494A4A4B4B4C4C4D4D4E4E4F4F00
:100840004F50505151525253535454555556565778
:1008500057585859595A5A5B5B5C5C5D5D5E5F5FE7
:100860006060616162626363646465656666676750
:100870006869696A6A6B6B6C6C6D6D6E6F6F7070B6
:10088000717172727373747575767677777879791A
:100890007A7A7B7B7C7D7D7E7E7F7F808181828278
:1008A0008383848585868687888889898A8B8B8CD3
:1008B0008C8D8E8E8F8F909191929293949495952A
:1008C0009697979898999A9A9B9B9C9D9D9E9F9F7F
:1008D000A0A0A1A2A2A3A3A4A5A5A6A7A7A8A8A9D2
:1008E000AAAAABACACADAEAEAFAFB0B1B1B2B3B320
:1008F000B4B5B5B6B6B7B8B8B9BABABBBCBCBDBE6C
:10090000BEBFBFC0C1C1C2C3C3C4C5C5C6C7C7C8B7
:10091000C9C9CACACBCCCCCDCECECFD0D0D1D2D201
:10092000D3D4D4D5D6D6D7D8D8D9DADADBDCDCDC48
:10093000DCDCDCDCDCDCDCDCDCDCDCDCDCDCDCDCF7
:10094000DCDCDCDCDCDCDCDCDCDCDCDCDCDCDCDCE7
:10095000DCDCDCDCDCDCDCDCDCDCDCDCDCDCDCDCD7
:10096000DCDCDC9C9CFFFFFFFFFFFFFFFFFFFFFFC6
:10097000FFFEFEFEFEFDFDFDFDFCFCFCFBFBFBFAAD
:10098000FAF9F9F8F8F7F7F6F6F5F5F4F4F3F3F207
:10099000F1F1F0EFEFEEEDEDECEBEBEAE9E8E8E793
:1009A000E6E5E4E4E3E2E1E0E0DFDEDDDCDBDBDA48
:1009B000D9D8D7D6D5D5D4D3D2D1D0CFCECDCDCC12
:1009C000CBCAC9C8C7C7C6C5C4C3C2C2C1C0BFBEDF
:1009D000BDBDBCBBBABAB9B8B7B7B6B5B5B4B3B399
:1009E000B2B1B1B0B0AFAEAEADADACACABABAAAA2C
:1009F000AAA9A9A8A8A8A7A7A7A7A6A6A6A6A6A683
:100A0000A5A5A5A5A5A5A5A5A5A5A5A6A6A6A6A691
:100A1000A7A7A7A7A8A8A8A9A9AAAAABABACACAD41
:100A2000ADAEAFAFB0B1B1B2B3B4B5B6B6B7B8B999
:100A3000BABBBCBDBEBFC0C2C3C4C5C6C8C9CACC90
:100A4000CDCED0D1D2D4D5D7D8DADBDDDEE0E2E32B
:100A5000E5E7E8EAECEDEFF1F3F4F6F8FAFCFEFE78
:100A6000FFFEFCFAF8F6F4F2F0EEECEAE8E6E4E277
:100A7000E0DEDCDAD8D5D3D1CFCDCBC9C7C5C3C072
:100A8000BEBCBAB8B6B4B2B0ADABA9A7A5A3A19F7E
:100A90009D9B99979592908E8C8A88868583817F7D
:100AA0007D7B7977757372706E6C6A696765646255
:100AB000605F5D5C5A585755545351504E4D4C4AE7
:100AC0004948474544434241403F3E3D3C3B3A391B
:100AD00038383736363534343333323231313030DA
:100AE00030302F2F2F2F2F2F2F2F2F2F2F2F2F3013
:100AF00030303131313232333434353536373838BD
:100B0000393A3B3C3D3E3F40414344454648494AD3
:100B10004C4D4F5052545557585A5C5E6061636556
:100B200067696B6D6F717376787A7C7E8183858857
:100B30008A8D8F919496999B9EA1A3A6A9ABAEB1E5
:100B4000B3B6B9BCBFC1C4C7CACDD0D3D6D8DBDE1B
:100B5000E1E4E7EAEDF0F3F6F9FCFDFFFCF9F6F36A
:100B6000F0EDEAE7E4E1DEDBD8D5D1CECBC8C5C2F3
:100B7000BFBCB9B6B3B0ADAAA7A4A19E9B989693EB
:100B8000908D8A8785827F7C797774716F6C6A67B4
:100B900064625F5D5A585653514E4C4A4845434132
:100BA0003F3D3B39373533312F2D2B292826242340
:100BB000211F1E1C1B1A18171614131211100E0DCC
:100BC0000C0B0A0A090807060605050403030302BD
:100BD0000202010101010101010101010101010202
:100BE000020203030404050506070708090A0B0CA3
:100BF0000D0E0F10111213141617181A1B1D1E209C
:100C000021232526282A2B2D2F31333537393B3DFB
:100C10003F414346484A4C4F515356585B5D6062D2
:100C200065676A6C6F7274777A7C7F8285888A8D3B
:100C3000909396999C9FA1A4A7AAADB0B3B6B9BC56
:100C4000BFC2C5C8CBCFD2D5D8DBDEE1E4E7EAED41
:100C5000F0F3F6F9FCFDFFFCF9F6F3F0EDEAE7E45A
:100C6000E1DEDCD9D6D3D0CDCAC7C4C2BFBCB9B6C9
:100C7000B4B1AEACA9A6A4A19E9C999794928F8D75
:100C80008B888684817F7D7B78767472706E6C6AC7
:100C900068666462605F5D5B595856545351504EAC
:100CA0004D4B4A49474645444341403F3E3D3C3B0E
:100CB0003B3A3938373736353534343333323232DC
:100CC000313131313130303030303030313131311B
:100CD00031323232333334343535363637383939C8
:100CE0003A3B3C3D3E3E3F404142444546474849F1
:100CF0004B4C4D4F505153545557585A5B5D5F60A4
:100D000062636567686A6C6E6F71737577787A7CF9
:100D10007E80828486888A8C8E90929496989A9C03
:100D20009EA0A2A4A6A8AAACAEB0B3B5B7B9BBBDED
:100D3000BFC1C3C5C7CACCCED0D2D4D6D8DADCDEC8
:100D4000E0E2E4E6E8EAECEEF0F2F4F6F8FAFCFEB3
:100D5000FEFFFEFCFAF8F6F5F3F1EFEEECEAE9E758
:100D6000E5E4E2E0DFDDDCDAD9D7D6D5D3D2D0CFE7
:100D7000CECCCBCAC9C7C6C5C4C3C2C1BFBEBDBC29
:100D8000BBBABAB9B8B7B6B5B4B4B3B2B2B1B0B011
:100D9000AFAEAEADADACACABABABAAAAAAA9A9A99C
:100DA000A8A8A8A8A8A8A8A7A7A7A7A7A7A7A7A8CB
:100DB000A8A8A8A8A8A8A9A9A9A9AAAAAAABABAC9F
:100DC000ACACADADAEAEAFAFB0B0B1B1B2B3B3B429
:100DD000B4B5B6B6B7B8B8B9BABBBBBCBDBEBEBF7A
:100DE000C0C1C1C2C3C4C5C6C6C7C8C9CACBCBCCA3
:100DF000CDCECFD0D1D1D2D3D4D5D6D7D7D8D9DABA
:100E0000DBDCDDDDDEDFE0E1E2E2E3E4E5E5E6E7D1
:100E1000E8E9E9EAEBEBECEDEEEEEFF0F0F1F1F200
:100E2000F3F3F4F4F5F5F6F7F7F8F8F8F9F9FAFA58
:100E3000FBFBFBFCFCFCFDFDFDFDFEFEFEFEFFFFE3
:100E4000FFFFFFFFFFFFFFFFFFFFFFFFFFFFFFFFB2
:100E5000FFFFFFFFFFFFFFFFFFFFFFFFFFFFFFFFA2
:100E6000FFFFFFFFFFFFFFFFFFFFFFFFFFFFFFFF92
:100E7000FFFFFFFFFFFFFFFFFFFFFFFFFFFFFFFF82
:100E8000FFFFFFFFFFFFFFFFFFFFFFFFFFFFFFFF72
:100E9000FFFFFFFFFFFFFFFFFFFFFFFFFFFFFFFF62
:100EA000FFFFFFFFFFFFFFFFFFFFFFFFFFFFFFFF52
:100EB000FFFFFFFFFFFFFFFFFFFFFFFFFFFFFFFF42
:100EC000FFFFFFFFFFFFFFFFFFFFFFFFFFFFFFFF32
:100ED000FFFFFFFFFFFFFFFFFFFFFFFFFFFFFFFF22
:100EE000FFFFFFFFFFFFFFFFFFFFFEFEFEFEFEFD19
:100EF000FDFDFDFCFCFCFBFBFBFAFAFAF9F9F8F846
:100F0000F7F7F7F6F6F5F5F4F4F3F2F2F1F1F0F0A5
:100F1000EFEEEEEDECECEBEAEAE9E8E8E7E6E5E532
:100F2000E4E3E2E2E1E0DFDFDEDDDCDBDADAD9D8E0
:100F3000D7D6D5D5D4D3D2D1D0D0CFCECDCCCBCAA5
:100F4000C9C9C8C7C6C5C4C3C3C2C1C0BFBEBDBC72
:100F5000BCBBBAB9B8B7B7B6B5B4B3B3B2B1B0AF3A
:100F6000AFAEADACACABAAAAA9A8A7A7A6A5A5A4ED
:100F7000A3A3A2A2A1A0A09F9F9E9E9D9D9C9C9B7F
:100F80009B9A9A9A999998989897979797969696E0
:100F90009695959595959595959594949494949406
:100FA00095959595959595959696969697979798E4
:100FB000989899999A9A9A9B9B9C9D9D9E9E9FA07A
:100FC000A0A1A2A2A3A4A5A5A6A7A8A9AAAAABACC2
:100FD000ADAEAFB0B1B2B3B5B6B7B8B9BABBBDBEBE
:100FE000BFC0C2C3C4C6C7C8CACBCDCECFD1D2D46E
:100FF000D5D7D8DADCDDDFE0E2E4E5E7E9EAECEEDC
:10100000EFF1F3F5F6F8FAFCFEF9FFFEFCFAF8F65C
:10101000F4F2F1EFEDEBE9E7E5E3E1DFDDDBD9D772
:10102000D5D3D1CFCDCBC9C7C5C3C1BFBDBBB9B760
:10103000B5B3B1AFADABA9A7A5A3A19F9D9B999750
:101040009593918F8D8B8987868482807E7C7A7838
:10105000767573716F6D6C6A68666563615F5E5CFF
:101060005A5957555452514F4E4C4B494846454397
:1010700042413F3E3D3B3A39373635343332302FEB
:101080002E2D2C2B2A2928272626252423222221EF
:1010900020201F1E1E1D1D1C1C1B1B1A1A1919198E
:1010A00018181818181717171717171717171717CB
:1010B00018181818191919191A1A1B1B1C1C1D1D90
:1010C0001E1E1F2021212223242425262728292AE9
:1010D0002B2C2D2E30313233343637383A3B3C3ED0
:1010E0003F4142444547484A4C4D4F51525456584F
:1010F0005A5B5D5F61636567696B6D6F717375776F
:10110000797C7E80828487898B8D90929497999B3D
:101110009EA0A3A5A8AAACAFB1B4B6B9BBBEC1C3CB
:10112000C6C8CBCDD0D3D5D8DADDE0E2E5E8EAED2C
:10113000F0F2F5F8FAFDFEFFFDFAF8F5F2F0EDEA4F
:10114000E8E5E2E0DDDAD8D5D2D0CDCAC8C5C3C063
:10115000BEBBB8B6B3B1AEACA9A7A4A29F9D9A98E6
:101160009593918E8C8A878583807E7C7A77757340
:10117000716F6C6A68666462605E5C5A585654525D
:10118000504F4D4B4947464442413F3D3C3A393729
:1011900036343331302E2D2C2B2928272624232298
:1011A00021201F1E1D1C1B1A19191817161615149D
:1011B00014131212111110100F0F0F0E0E0E0E0D30
:1011C0000D0D0D0D0D0D0D0D0D0D0D0D0D0D0E0E4D
:1011D0000E0E0F0F0F1010111112121314141515FB
:1011E00016171818191A1B1C1D1E1F202122232434
:1011F000252627282A2B2C2D2F303133343537380C
:101200003A3B3D3E404143444648494B4D4E505287
:10121000535557595B5C5E60626466686A6B6D6FBC
:1012200071737577797B7D7F818386888A8C8E90B8
:10123000929496989B9D9FA1A3A5A7AAACAEB0B28D
:10124000B5B7B9BBBDBFC2C4C6C8CACCCFD1D3D550
:10125000D7D9DCDEE0E2E4E6E9EBEDEFF1F3F5F718
:10126000F9FBFDF8FFFDFBF9F7F5F3F1EFEDECEA23
:10127000E8E6E4E2E0DEDCDAD9D7D5D3D1D0CECCD3
:10128000CBC9C7C5C4C2C1BFBDBCBAB9B7B6B4B378
:10129000B1B0AEADACAAA9A8A6A5A4A2A1A09F9EDC
:1012A0009D9B9A999897969594939291908F8E8EF4
:1012B0008D8C8B8A8A8988888786868584848383B7
:1012C000828281818180807F7F7F7E7E7E7E7D7D28
:1012D0007D7D7D7D7D7D7C7C7C7C7C7C7D7D7D7D44
:1012E0007D7D7D7D7E7E7E7E7F7F7F808080818113
:1012F000818282838384848585868687878889899D
:101300008A8B8B8C8D8D8E8F9090919293939495E8
:1013100096979798999A9B9C9D9E9E9FA0A1A2A309
:10132000A4A5A6A7A8A9AAABACADAEAFB0B1B2B305
:10133000B4B5B6B7B8B9BABBBCBDBEBFC0C1C2C3F5
:10134000C4C5C6C7C8C9CACBCCCDCECFD0D1D2D3E5
:10135000D4D5D6D7D8D9DADADBDCDDDEDFE0E1E2DE
:10136000E2E3E4E5E6E7E7E8E9EAEBEBECEDEEEEF5
:10137000EFF0F0F1F2F2F3F4F4F5F5F6F7F7F8F830
:10138000F9F9FAFAFBFBFCFCFDFDFDFEFEFEFFFF9A
:10139000FEFFFFFFFFFEFEFEFEFDFDFDFDFDFDFD70
:1013A000FCFCFCFCFCFCFCFCFCFCFCFCFCFCFCFC7D
:1013B000FCFDFDFDFDFDFDFEFEFEFEFEFFFFFFFF51
:1013C000FFFFFFFFFFFFFFFFFFFFFFFFFFFFFFFF2D
:1013D000FFFFFFFFFFFFFFFFFFFFFFFFFFFFFFFF1D
:1013E000FFFFFFFFFFFFFFFFFFFFFFFFFFFFFFFF0D
:1013F000FFFFFFFFFFFFFFFFFFFFFFFFFFFFFFFFFD
:10140000FFFFFFFFFFFFFFFFFFFFFFFFFFFFFFFFEC
:10141000FFFFFFFFFFFFFFFFFFFFFFFFFFFFFFFFDC
:10142000FFFFFFFFFFFFFFFFFFFFFFFFFFFFFFFFCC
:10143000FFFFFFFFFFFFFFFFFFFFFFFFFFFFFFFFBC
:10144000FFFFFFFFFFFFFFFFFFFFFFFFFFFFFFFFAC
:10145000FFFFFFFFFFFFFFFFFFFFFFFFFFFFFFFF9C
:10146000FFFFFFFEFEFEFEFEFDFDFDFDFCFCFCFCA5
:10147000FBFBFBFAFAFAF9F9F9F8F8F7F7F7F6F6E1
:10148000F5F5F4F4F3F3F2F2F1F1F0EFEFEEEEED47
:10149000ECECEBEBEAE9E9E8E7E7E6E5E5E4E3E2D3
:1014A000E2E1E0DFDFDEDDDCDCDBDAD9D9D8D7D67C
:1014B000D5D5D4D3D2D1D0D0CFCECDCCCBCBCAC939
:1014C000C8C7C6C5C5C4C3C2C1C0BFBFBEBDBCBB03
:1014D000BAB9B9B8B7B6B5B4B3B3B2B1B0AFAEAECE
:1014E000ADACABAAA9A9A8A7A6A6A5A4A3A2A2A190
:1014F000A09F9F9E9D9D9C9B9B9A9999989797963C
:1015000095959494939292919190908F8F8E8E8DC9
:101510008D8C8C8B8B8B8A8A898989888888878730
:101520008787868686868685858585858585858463
:101530008484848484848484858585858585858563
:1015400086868686878787878888888989898A8A20
:101550008B8B8C8C8D8D8E8E8F8F9091919293939F
:1015600094959596979899999A9B9C9D9E9F9FA0DC
:10157000A1A2A3A4A5A6A7A8A9ABACADAEAFB0B1DC
:10158000B3B4B5B6B7B9BABBBDBEBFC1C2C3C5C699
:10159000C7C9CACCCDCFD0D2D3D5D6D8D9DBDCDE23
:1015A000E0E1E3E4E6E8E9EBEDEEF0F2F3F5F7F97C
:1015B000FAFCFEF8FFFEFCFAF8F7F5F3F1EFEDECBC
:1015C000EAE8E6E4E2E1DFDDDBD9D7D5D3D2D0CE5D
:1015D000CCCAC8C6C4C2C0BEBDBBB9B7B5B3B1AF33
:1015E000ADABAAA8A6A4A2A09E9C9A999795939108
:1015F0008F8D8B8A88868482807F7D7B79787674D4
:1016000072706F6D6B6A68666463615F5E5C5B5984
:1016100057565453514F4E4C4B494846454442410E
:101620003F3E3D3B3A38373635333231302E2D2C64
:101630002B2A2927262524232221201F1E1D1C1B7F
:101640001B1A19181716161514141312121110104C
:101650000F0F0E0E0D0D0C0C0B0B0B0A0A0A0909CD
:1016600009090908080808080808080808080808F7
:10167000080808090909090A0A0A0A0B0B0C0C0CCC
:101680000D0D0E0E0F101011111213131415161646
:101690001718191A1B1B1C1D1E1F2021222325266B
:1016A0002728292A2B2D2E2F303233343637383A3B
:1016B0003B3D3E404143444647494A4C4E4F5153BF
:1016C000545658595B5D5F61626466686A6B6D6F02
:1016D00071737577797B7D7F81838587898B8D8F0A
:1016E00091939597999C9EA0A2A4A6A8ABADAFB1EB
:1016F000B3B6B8BABCBEC1C3C5C7C9CCCED0D2D5AB
:10170000D7D9DBDEE0E2E4E7E9EBEDF0F2F4F6F95D
:10171000FBFDF6FFFDFBF9F7F4F2F0EEEBE9E7E590
:10172000E3E0DEDCDAD8D5D3D1CFCDCBC9C6C4C295
:10173000C0BEBCBAB8B6B4B2B0AEACAAA8A6A4A299
:10174000A09E9C9A98969593918F8D8B8A8886847B
:1017500083817F7E7C7A7977757472716F6D6C6A24
:10176000696866656362605F5E5C5B5A5857565590
:10177000535251504F4E4D4C4A49484746454444B8
:10178000434241403F3E3E3D3C3B3B3A393938378E
:101790003736363535343433333232313131303017
:1017A00030302F2F2F2F2F2E2E2E2E2E2E2E2E2E50
:1017B0002E2E2E2E2E2F2F2F2F2F30303030313136
:1017C00031323232333334343535363637373838D0
:1017D000393A3A3B3C3C3D3E3E3F40414242434425
:1017E0004546474848494A4B4C4D4E4F505152533D
:1017F00054565758595A5B5C5D5F60616263656619
:101800006768696B6C6D6F70717274757678797AD0
:101810007C7D7F808183848587888A8B8C8E8F9165
:101820009294959698999B9C9E9FA1A2A3A5A6A8E9
:10183000A9ABACAEAFB1B2B3B5B6B8B9BBBCBDBF66
:10184000C0C2C3C5C6C7C9CACCCDCED0D1D3D4D5EA
:10185000D7D8D9DBDCDDDFE0E1E3E4E5E7E8E9EA7E
:10186000ECEDEEEFF0F2F3F4F5F6F8F9FAFBFCFD2F
:10187000FEFBFFFEFDFCFBFAF9F8F7F6F5F4F3F2D8
:10188000F1F0EFEFEEEDECEBEAE9E9E8E7E6E5E5AC
:10189000E4E3E2E2E1E0E0DFDEDEDDDCDCDBDBDA5C
:1018A000DAD9D9D8D8D7D7D6D6D5D5D4D4D4D3D3D6
:1018B000D3D2D2D2D1D1D1D1D0D0D0D0D0D0CFCF1D
:1018C000CFCFCFCFCFCFCFCFCFCFCFCFCFCFCFCF28
:1018D000CFCFCFCFCFCFCFD0D0D0D0D0D0D1D1D10C
:1018E000D1D2D2D2D2D3D3D3D4D4D4D5D5D5D6D6BF
:1018F000D7D7D7D8D8D9D9DADADADBDBDCDCDDDD4B
:10190000DEDEDFDFE0E1E1E2E2E3E3E4E4E5E6E6B8
:10191000E7E7E8E9E9EAEAEBECECEDEEEEEFEFF011
:10192000F1F1F2F3F3F4F5F5F6F7F7F8F8F9FAFA5E
:10193000FBFCFCFDFEFEFFFFFFFFFFFFFFFFFFFFC5
:10194000FFFFFFFFFFFFFFFFFFFFFFFFFFFFFFFFA7
:10195000FFFFFFFFFFFFFFFFFFFFFFFFFFFFFFFF97
:10196000FFFFFFFFFFFFFFFFFFFFFFFFFFFFFFFF87
:10197000FFFFFFFFFFFFFFFFFFFFFFFFFFFFFFFF77
:10198000FFFFFFFFFFFFFFFFFFFFFFFFFFFFFFFF67
:10199000FFFFFFFFFFFFFFFFFFFFFFFFFFFFFFFF57
:1019A000FFFFFFFFFFFFFFFFFFFFFFFFFFFFFFFF47
:1019B000FFFFFFFFFFFFFFFFFFFFFFFFFFFFFFFF37
:1019C000FFFFFFFFFFFFFFFFFFFFFFFFFFFFFFFF27
:1019D000FFFFFFFFFFFFFFFEFEFEFEFEFDFDFDFC25
:1019E000FCFCFBFBFAFAF9F9F8F8F7F7F6F6F5F470
:1019F000F4F3F2F2F1F0F0EFEEEEEDECEBEAEAE9FF
:101A0000E8E7E6E6E5E4E3E2E1E1E0DFDEDDDCDBBA
:101A1000DAD9D9D8D7D6D5D4D3D2D2D1D0CFCECD8A
:101A2000CDCCCBCAC9C9C8C7C6C6C5C4C3C3C2C149
:101A3000C1C0BFBFBEBEBDBDBCBCBBBBBABABAB9DC
:101A4000B9B9B8B8B8B7B7B7B7B7B7B7B7B7B7B71F
:101A5000B7B7B7B7B7B7B8B8B8B8B9B9BABABABB01
:101A6000BBBCBDBDBEBEBFC0C1C1C2C3C4C5C6C76D
:101A7000C8C9CACBCCCDCED0D1D2D3D5D6D7D9DA5E
:101A8000DCDDDFE0E2E3E5E6E8EAEBEDEFF1F2F4DE
:101A9000F6F8FAFCFEFFFFFEFCFAF8F6F4F2EFEDC2
:101AA000EBE9E7E5E3E1DFDCDAD8D6D4D2CFCDCB82
:101AB000C9C7C4C2C0BEBCB9B7B5B3B1AEACAAA8A1
:101AC000A6A4A2A09D9B99979593918F8D8B8987B2
:101AD000858482807E7C7A7977757472706F6D6C84
:101AE0006A69676665636261605E5D5C5B5A5958EE
:101AF000575656555453535251515050504F4F4FC3
:101B00004E4E4E4E4E4E4E4E4E4F4F4F50505051E9
:101B1000515253535455565758595A5B5C5D5E5F4A
:101B20006162646567686A6B6D6F71727476787AEA
:101B30007C7E80838587898C8E919396989B9DA0CF
:101B4000A3A5A8ABAEB0B3B6B9BCBFC2C5C8CBCE17
:101B5000D2D5D8DBDEE2E5E8EBEFF2F5F9FCFFFFEA
:101B6000FCF9F5F2EEEBE8E4E1DDDAD6D3CFCCC850
:101B7000C5C2BEBBB7B4B1ADAAA6A3A09C999693AB
:101B80008F8C8986837F7C797673706D6A676462D7
:101B90005F5C595754514F4C4A474542403E3B3990
:101BA000373533312F2D2B2927262422211F1E1CA8
:101BB0001B1A191716151413121211100F0F0E0EEF
:101BC0000D0D0D0D0C0C0C0C0C0D0D0D0D0E0E0F46
:101BD0000F101111121314151617181A1B1C1E1FA3
:101BE0002122242628292B2D2F313436383A3C3F08
:101BF000414446494C4E515457595C5F6265686B8D
:101C00006F7275787C7F8286898D9094979B9FA256
:101C1000A6AAADB1B5B9BDC0C4C8CCD0D4D8DCE09B
:101C2000E4E8ECF0F4F8FCFFFFFCF8F4F0ECE8E496
:101C3000E0DCD8D4D0CCC8C4C0BCB8B5B1ADA9A57F
:101C4000A29E9A97938F8C8885817E7A7774706D27
:101C50006A6763605D5A5754514E4C494643413E52
:101C60003C39373432302E2B2927252322201E1CC5
:101C70001B19171615131211100E0D0C0C0B0A0957
:101C800008080707060606060505050505060606F3
:101C90000607070808090A0B0B0C0D0E0F1112138B
:101CA000141617191A1C1D1F21232527292B2D2F28
:101CB000313335383A3D3F424447494C4F525457EF
:101CC0005A5D606366696C6F7376797C7F83868901
:101CD0008D9094979B9EA2A5A9ACB0B3B7BABEC293
:101CE000C5C9CDD0D4D7DBDFE2E6EAEDF1F5F8FCEB
:101CF000FFFFFCF8F5F1EEEAE7E3E0DCD9D5D2CE60
:101D0000CBC8C4C1BEBAB7B4B1AEAAA7A4A19E9BAA
:101D1000989693908D8A888582807D7B7876737182
:101D20006F6D6A68666462605E5C5A5957555452BA
:101D3000514F4E4C4B4A494746454443424141402E
:101D40003F3F3E3D3D3D3C3C3C3B3B3B3B3B3B3BCF
:101D50003B3B3C3C3C3D3D3E3E3F3F40414242439D
:101D60004445464748494B4C4D4E505152545557A7
:101D7000595A5C5D5F61636466686A6C6E70727408
:101D800076787A7D7F818385888A8C8F91939698E7
:101D90009A9D9FA2A4A7A9ACAEB0B3B5B8BBBDC075
:101DA000C2C5C7CACCCFD1D4D6D9DBDEE0E3E5E8E3
:101DB000EAECEFF1F4F6F8FBFDFFFFFDFBF9F6F4BA
:101DC000F2F0EEEBE9E7E5E3E1DFDDDBD9D7D5D3F0
:101DD000D2D0CECCCBC9C7C6C4C2C1BFBEBCBBBAB1
:101DE000B8B7B6B4B3B2B1B0AFAEADACABAAA9A8F8
:101DF000A7A6A6A5A4A4A3A2A2A1A1A0A0A09F9FBC
:101E00009F9F9E9E9E9E9E9E9E9E9E9E9E9E9E9EF0
:101E10009F9F9FA0A0A0A1A1A1A2A2A3A3A4A5A5AA
:101E2000A6A7A7A8A9A9AAABACACADAEAFB0B1B2FA
:101E3000B3B4B5B6B7B8B9BABBBCBDBEBFC0C1C2FA
:101E4000C3C4C5C6C7C9CACBCCCDCECFD0D2D3D4DC
:101E5000D5D6D7D8D9DADBDDDEDFE0E1E2E3E4E5B1
:101E6000E6E7E8E9EAEBECEDEEEEEFF0F1F2F3F3A2
:101E7000F4F5F6F7F7F8F9F9FAFBFBFCFCFDFEFECA
:101E8000FFFFFFFFFFFFFEFEFEFDFDFDFCFCFCFC77
:101E9000FBFBFBFBFBFBFBFBFBFBFBFBFBFBFBFB92
:101EA000FBFBFCFCFCFCFCFDFDFDFEFEFEFFFFFF62
:101EB000FFFFFFFFFFFFFFFFFFFFFFFFFFFFFFFF32
:101EC000FFFFFFFFFFFFFFFFFFFFFFFFFFFFFFFF22
:101ED000FFFFFFFFFFFFFFFFFFFFFFFFFFFFFFFF12
:101EE000FFFFFFFFFFFFFFFFFFFFFFFFFFFFFFFF02
:101EF000FFFFFFFFFFFFFFFFFFFFFFFFFFFFFFFFF2
:101F0000FFFFFFFFFFFFFFFFFFFFFFFFFFFFFFFFE1
:101F1000FFFFFFFFFFFFFFFFFFFFFFFFFFFFFFFFD1
:101F2000FFFFFFFFFFFFFFFFFFFFFFFFFFFFFFFFC1
:101F3000FFFFFFFFFFFFFFFFFFFFFFFFFFFFFFFFB1
:101F4000FFFFFFFFFFFFFFFF000000000000002475
:101F50000027002A0000000000250028002B0000B8
:101F600000000023002600290004040404040404E3
:101F70000402020202020203030303030301020438
:101F800008102040800102040810200102040810FB
:101F9000200000000700020100000304060000000A
:101FA00000000000000011241FBECFEFD8E0DEBF0C
:101FB000CDBF11E0A0E0B1E0E2E9F7E202C0059098
:101FC0000D92A430B107D9F711E0A4E0B1E001C04F
:101FD0001D92AE32B107E1F70E94B8130C94C713FB
:101FE0000C940000CF93DF93C0E0D0E0E0910401B7
:101FF000F0910501E859FF4FE4918E2F90E0C8174A
:10200000D90709F4589AE0910601F0910701E659C1
:10201000FF4FE4918E2F90E0C817D90709F4599A21
:10202000E0910801F0910901E459FF4FE4918E2FEE
:1020300090E0C817D90709F45B9AE0910A01F09182
:102040000B01E259FF4FE4918E2F90E0C817D9079A
:1020500009F45C9AE0910C01F0910D01E059FF4FF9
:10206000E4918E2F90E0C817D90709F45D9AE091AA
:102070000E01F0910F01EF54FB4FE4918E2F90E091
:10208000C817D90709F45E9AE0911001F091110187
:10209000ED54FB4FE4918E2F90E0C817D90709F457
:1020A0005F9AE0911201F0911301ED59F64FE4911E
:1020B0008E2F90E0C817D90709F4289AE0911401EF
:1020C000F0911501EB59F64FE4918E2F90E0C8176F
:1020D000D90709F4299AE0911601F0911701E3520A
:1020E000F14FE4918E2F90E0C817D90709F42A9A8E
:1020F000E0911801F0911901EB5AFB4EE4918E2FFB
:1021000090E0C817D90709F42B9AE0911A01F091D1
:102110001B01E353F64EE4918E2F90E0C817D907C8
:1021200009F42C9AE0911C01F0911D01EB5BF04E3B
:10213000E4918E2F90E0C817D90709F42D9A0E94D8
:10214000C512609320017093210180932201909326
:1021500023010E94C512209120013091210140915C
:10216000220150912301621B730B840B950B20916C
:10217000000130910101442737FD4095542F62172B
:1021800073078407950728F3219621E0C030D20712
:1021900009F02CCF0E94C512609320017093210199
:1021A00080932201909323010E94C5122091200167
:1021B000309121014091220150912301621B730B48
:1021C000840B950B643671058105910568F3589869
:1021D00059985B985C985D985E985F9828982998C4
:1021E0002A982B982C982D9880911E0190911F0170
:1021F000009709F040C0809104019091050101967B
:10220000909305018093040180910601909107014C
:1022100001969093070180930601809108019091A7
:1022200009010196909309018093080180910A01A8
:1022300090910B01019690930B0180930A0180917C
:102240000C0190910D01019690930D0180930C016A
:1022500080910E0190910F01019690930F01809350
:102260000E0180911001909111010196909311013E
:102270008093100138C00197B1F5809112019091BF
:102280001301019690931301809312018091140120
:1022900090911501019690931501809314018091FE
:1022A00016019091170101969093170180931601E2
:1022B00080911801909119010196909319018093D2
:1022C000180180911A0190911B01019690931B01B6
:1022D00080931A0180911C0190911D0101969093A9
:1022E0001D0180931C0180910401909105010297CA
:1022F00021F4109205011092040180910601909141
:102300000701029721F410920701109206018091B3
:10231000080190910901029721F41092090110928D
:10232000080180910A0190910B01029721F410920B
:102330000B0110920A0180910C0190910D018154C2
:10234000944021F410920D0110920C0180910E0125
:1023500090910F01029721F410920F0110920E013B
:102360008091100190911101805B944021F41092B2
:1023700011011092100180911201909113010297A6
:1023800021F4109213011092120180911401909186
:1023900015018857954021F41092150110921401EF
:1023A00080911601909117018857954021F4109261
:1023B0001701109216018091180190911901885708
:1023C000954021F4109219011092180180911A0180
:1023D00090911B018857954021F410921B01109297
:1023E0001A0180911C0190911D01069721F4109211
:1023F0001D0110921C0180911E0190911F010196F8
:1024000090931F0180931E01029721F410921F01E7
:1024100010921E01DF91CF91089582E00E94651312
:10242000892B79F580912401882369F50E94C512D2
:1024300060932001709321018093220190932301E6
:102440000E94C5122091200130912101409122016A
:1024500050912301621B730B840B950B2091020199
:1024600030910301442737FD4095542F62177307BD
:102470008407950728F30E94F20F81E080932401DE
:10248000089510922401089582E060E00E942613CE
:1024900080E061E00E94261381E061E00E94261343
:1024A00083E061E00E94261384E061E00E9426132D
:1024B00085E061E00E94261386E061E00E94261319
:1024C00087E061E00E94261388E061E00E94261305
:1024D00089E061E00E9426138AE061E00E942613F1
:1024E0008BE061E00E9426138CE061E00E942613DD
:1024F0008DE061E00E94261308951F920F920FB69F
:102500000F9211242F933F938F939F93AF93BF9379
:102510008091290190912A01A0912B01B0912C0169
:1025200030912D010196A11DB11D232F2D5F2D3757
:1025300020F02D570196A11DB11D20932D018093F0
:10254000290190932A01A0932B01B0932C01809133
:10255000250190912601A0912701B09128010196B3
:10256000A11DB11D8093250190932601A093270101
:10257000B0932801BF91AF919F918F913F912F917F
:102580000F900FBE0F901F9018959FB7F894209151
:10259000250130912601409127015091280186B5EF
:1025A000A89B06C08F3F21F02F5F3F4F4F4F5F4FDB
:1025B0009FBF542F432F322F2227280F311D411D3B
:1025C000511D82E0220F331F441F551F8A95D1F7FA
:1025D000B901CA010895789484B5826084BD84B538
:1025E000816084BD85B5826085BD85B5816085BD0E
:1025F000EEE6F0E0808181608083E1E8F0E0108227
:10260000808182608083808181608083E0E8F0E067
:10261000808181608083E1EBF0E080818460808351
:10262000E0EBF0E0808181608083EAE7F0E0808188
:1026300084608083808182608083808181608083E8
:102640008081806880831092C1000895CF93DF93CA
:10265000482F50E0CA018358904EFC0134914759ED
:10266000504EFA018491882369F190E0880F991FF8
:10267000FC01E55BF04EA591B491FC01EB5AF04EE4
:10268000C591D491662351F42FB7F8948C91932F70
:10269000909589238C93888189230BC0623061F4E3
:1026A0002FB7F8948C91932F909589238C938881E0
:1026B000832B88832FBF06C09FB7F8948C91832B00
:1026C0008C939FBFDF91CF910895682F70E0CB016D
:1026D0008F56904EFC012491CB018358904EFC0103
:1026E00044916759704EFB019491992319F420E0AD
:1026F00030E03CC0222351F1233071F0243028F423
:102700002130A1F0223011F514C02630B1F027306D
:10271000C1F02430D9F404C0809180008F7703C0C9
:10272000809180008F7D8093800010C084B58F776A
:1027300002C084B58F7D84BD09C08091B0008F77C1
:1027400003C08091B0008F7D8093B000892F90E00E
:10275000880F991F815A904EFC01A591B4918C91DC
:1027600020E030E0842311F021E030E0C901089539
:10277000CF93DF930E94EB120E944412C0E0D0E09E
:102780000E940D122097E1F30E940000F9CFF89407
:02279000FFCF79
:042792000B00200315
:00000001FF
