:100000000C9480050C949D050C949D050C949D0505
:100010000C949D050C949D050C949D050C949D05D8
:100020000C949D050C949D050C949D050C949D05C8
:100030000C949D050C949D050C949D050C949D05B8
:100040000C9428080C949D050C949D050C949D051A
:100050000C949D050C949D050C949D050C949D0598
:100060000C949D050C949D05BEBEBEBEBEBEBEBE1C
:10007000BEBEBEBEBEBEBEBEBEBEFFFFFFFFFFFF1A
:10008000FFFFFFFFFFFFFFFEFEFEFEFEFDFDFDFD8D
:10009000FCFCFCFBFBFBFAFAFAF9F9F8F8F7F7F7C6
:1000A000F6F6F5F5F4F4F3F2F2F1F1F0F0EFEEEE2E
:1000B000EDECECEBEAEAE9E8E8E7E6E5E5E4E3E2C3
:1000C000E2E1E0DFDFDEDDDCDBDADAD9D8D7D6D576
:1000D000D5D4D3D2D1D0D0CFCECDCCCBCAC9C9C83C
:1000E000C7C6C5C4C3C3C2C1C0BFBEBDBCBCBBBA0A
:1000F000B9B8B7B7B6B5B4B3B3B2B1B0AFAFAEADD0
:10010000ACACABAAAAA9A8A7A7A6A5A5A4A3A3A27D
:10011000A2A1A0A09F9F9E9E9D9D9C9C9B9B9A9A06
:100120009A9999989898979797979696969695955D
:100130009595959595959594949494949495959575
:100140009595959595969696969797979898989948
:10015000999A9A9A9B9B9C9D9D9E9E9FA0A0A1A2CE
:10016000A2A3A4A5A5A6A7A8A9AAAAABACADAEAF09
:10017000B0B1B2B3B5B6B7B8B9BABBBDBEBFC0C2F5
:10018000C3C4C6C7C8CACBCDCECFD1D2D4D5D7D899
:10019000DADCDDDFE0E2E4E5E7E9EAECEEEFF1F3FB
:1001A000F5F6F8FAFCFEF9FFFEFCFAF8F6F4F2F1C7
:1001B000EFEDEBE9E7E5E3E1DFDDDBD9D7D5D3D13F
:1001C000CFCDCBC9C7C5C3C1BFBDBBB9B7B5B3B12F
:1001D000AFADABA9A7A5A3A19F9D9B99979593911F
:1001E0008F8D8B8987868482807E7C7A7876757302
:1001F000716F6D6C6A68666563615F5E5C5A5957C2
:10020000555452514F4E4C4B494846454342413F4D
:100210003E3D3B3A39373635343332302F2E2D2C94
:100220002B2A292827262625242322222120201F85
:100230001E1E1D1D1C1C1B1B1A1A19191918181813
:100240001818171717171717171717171718181839
:1002500018191919191A1A1B1B1C1C1D1D1E1E1FEB
:100260002021212223242425262728292A2B2C2D2E
:100270002E30313233343637383A3B3C3E3F414200
:10028000444547484A4C4D4F51525456585A5B5D6D
:100290005F61636567696B6D6F71737577797C7E7C
:1002A00080828487898B8D90929497999B9EA0A33E
:1002B000A5A8AAACAFB1B4B6B9BBBEC1C3C6C8CBC2
:1002C000CDD0D3D5D8DADDE0E2E5E8EAEDF0F2F51D
:1002D000F8FAFDFEFFFDFAF8F5F2F0EDEAE8E5E2E6
:1002E000E0DDDAD8D5D2D0CDCAC8C5C3C0BEBBB850
:1002F000B6B3B1AEACA9A7A4A29F9D9A98959391CD
:100300008E8C8A878583807E7C7A777573716F6C1B
:100310006A68666462605E5C5A58565452504F4D2B
:100320004B4947464442413F3D3C3A3937363433E6
:1003300031302E2D2C2B2928272624232221201F43
:100340001E1D1C1B1A191918171616151414131232
:1003500012111110100F0F0F0E0E0E0E0D0D0D0DB0
:100360000D0D0D0D0D0D0D0D0D0D0D0E0E0E0E0FB7
:100370000F0F10101111121213141415151617184F
:1003800018191A1B1C1D1E1F202122232425262775
:10039000282A2B2C2D2F303133343537383A3B3D3A
:1003A0003E404143444648494B4D4E5052535557A9
:1003B000595B5C5E60626466686A6B6D6F717375D1
:1003C00077797B7D7F818386888A8C8E90929496C4
:1003D000989B9D9FA1A3A5A7AAACAEB0B2B5B7B993
:1003E000BBBDBFC2C4C6C8CACCCFD1D3D5D7D9DC58
:1003F000DEE0E2E4E6E9EBEDEFF1F3F5F7F9FBFD22
:10040000F8FFFDFBF9F7F5F3F1EFEDECEAE8E6E4D0
:10041000E2E0DEDCDAD9D7D5D3D1D0CECCCBC9C798
:10042000C5C4C2C1BFBDBCBAB9B7B6B4B3B1B0AE32
:10043000ADACAAA9A8A6A5A4A2A1A09F9E9D9B9A87
:10044000999897969594939291908F8E8E8D8C8B90
:100450008A8A898888878686858484838382828144
:10046000818180807F7F7F7E7E7E7E7D7D7D7D7DA4
:100470007D7D7D7C7C7C7C7C7C7D7D7D7D7D7D7DB2
:100480007D7E7E7E7E7F7F7F808080818181828273
:10049000838384848585868687878889898A8B8BF0
:1004A0008C8D8D8E8F909091929393949596979733
:1004B00098999A9B9C9D9E9E9FA0A1A2A3A4A5A64D
:1004C000A7A8A9AAABACADAEAFB0B1B2B3B4B5B644
:1004D000B7B8B9BABBBCBDBEBFC0C1C2C3C4C5C634
:1004E000C7C8C9CACBCCCDCECFD0D1D2D3D4D5D624
:1004F000D7D8D9DADADBDCDDDEDFE0E1E2E2E3E423
:10050000E5E6E7E7E8E9EAEBEBECEDEEEEEFF0F03D
:10051000F1F2F2F3F4F4F5F5F6F7F7F8F8F9F9FA81
:10052000FAFBFBFCFCFDFDFDFEFEFEFFFFFEFFFFF8
:10053000FFFFFEFEFEFEFDFDFDFDFDFDFDFCFCFCE6
:10054000FCFCFCFCFCFCFCFCFCFCFCFCFCFCFDFDE9
:10055000FDFDFDFDFEFEFEFEFEFFFFFFFFFFFFFFB8
:10056000FFFFFFFFFFFFFFFFFFFFFFFFFFFFFFFF9B
:10057000FFFFFFFFFFFFFFFFFFFFFFFFFFFFFFFF8B
:10058000FFFFFFFFFFFFFFFFFFFFFFFFFFFFFFFF7B
:10059000FFFFFFFFFFFFFFFFFFFFFFFFFFFFFFFF6B
:1005A000FFFFFFFFFFFFFFFFFFFFFFFFFFFFFFFF5B
:1005B000FFFFFFFFFFFFFFFFFFFFFFFFFFFFFFFF4B
:1005C000FFFFFFFFFFFFFFFFFFFFFFFFFFFFFFFF3B
:1005D000FFFFFFFFFFFFFFFFFFFFFFFFFFFFFFFF2B
:1005E000FFFFFFFFFFFFFFFFFFFFFFFFFFFFFFFF1B
:1005F000FFFFBEBEBEBEDCDCDCDCDCDCDCDCDCDC6D
:10060000DCDCDCDCDCDCDCDCDCDCDCDCDCDCDCDC2A
:10061000DCDCDCDCDCDCDCDCDCDCDCDCDCDCDCDC1A
:10062000DCDCDCDCDCDCDCDCDCDCDCDCDCDBDADA0F
:10063000D9D8D8D7D6D6D5D4D4D3D2D2D1D0D0CF7A
:10064000CECECDCCCCCBCACAC9C9C8C7C7C6C5C512
:10065000C4C3C3C2C1C1C0BFBFBEBEBDBCBCBBBAA8
:10066000BAB9B8B8B7B6B6B5B5B4B3B3B2B1B1B03C
:10067000AFAFAEAEADACACABAAAAA9A8A8A7A7A6CF
:10068000A5A5A4A3A3A2A2A1A0A09F9F9E9D9D9C5F
:100690009B9B9A9A999898979796959594949392EC
:1006A000929191908F8F8E8E8D8C8C8B8B8A898975
:1006B0008888878686858584838382828181807FFE
:1006C0007F7E7E7D7D7C7B7B7A7A79797877777681
:1006D0007675757473737272717170706F6F6E6D01
:1006E0006D6C6C6B6B6A6A6969686767666665657D
:1006F000646463636262616160605F5F5E5D5D5CF4
:100700005C5B5B5A5A595958585757565655555469
:100710005453535252515150504F4F4F4E4E4D4DD6
:100720004C4C4B4B4A4A494948484747474646453F
:100730004544444343424242414140403F3F3E3EA4
:100740003E3D3D3C3C3B3B3B3A3A39393838383703
:10075000373636363535343434333332323231315C
:100760003030302F2F2E2E2E2D2D2D2C2C2B2B2BB1
:100770002A2A2A29292928282727272626262525FF
:100780002524242423232322222221212120202046
:100790001F1F1F1E1E1E1E1D1D1D1C1C1C1B1B1B88
:1007A0001B1A1A1A191919181818181717171716C3
:1007B00016161515151514141414131313131212F9
:1007C00012121111111110101010100F0F0F0F0E27
:1007D0000E0E0E0E0D0D0D0D0D0C0C0C0C0C0B0B4E
:1007E0000B0B0B0A0A0A0A0A0A090909090909086E
:1007F0000808080808070707070707060606060689
:10080000060606050505050505050504040404049A
:1008100004040404030303030303030303030302A5
:1008200002020202020202020202020202010101AB
:1008300001010101010101010101010101010101A8
:100840000101010101010101010101010101000199
:100850000101010101010101010101010101010188
:100860000101010101010101010101010101010178
:100870000202020202020202020202020202030356
:100880000303030303030303030404040404040431
:100890000404050505050505050506060606060604
:1008A00006060707070707070808080808080909D0
:1008B000090909090A0A0A0A0A0A0B0B0B0B0B0C95
:1008C0000C0C0C0C0D0D0D0D0D0E0E0E0E0E0F0F53
:1008D0000F0F10101010101111111112121212130B
:1008E00013131314141414151515151616161717BB
:1008F0001717181818181919191A1A1A1B1B1B1B65
:100900001C1C1C1D1D1D1E1E1E1E1F1F1F20202007
:1009100021212122222223232324242425252526A4
:10092000262627272728282929292A2A2A2B2B2B3C
:100930002C2C2D2D2D2E2E2E2F2F303030313132CC
:100940003232333334343435353636363737383857
:100950003839393A3A3B3B3B3C3C3D3D3E3E3E3FDD
:100960003F4040414142424243434444454546465C
:10097000474747484849494A4A4B4B4C4C4D4D4ED6
:100980004E4F4F4F5050515152525353545455554E
:1009900056565757585859595A5A5B5B5C5C5D5DBF
:1009A0005E5F5F6060616162626363646465656627
:1009B0006667676869696A6A6B6B6C6C6D6D6E6F90
:1009C0006F707071717272737374757576767777F4
:1009D0007879797A7A7B7B7C7D7D7E7E7F7F808152
:1009E0008182828383848585868687888889898AAF
:1009F0008B8B8C8C8D8E8E8F8F9091919292939405
:100A00009495959697979898999A9A9B9B9C9D9D5B
:100A10009E9F9FA0A0A1A2A2A3A3A4A5A5A6A7A7AD
:100A2000A8A8A9AAAAABACACADAEAEAFAFB0B1B1FD
:100A3000B2B3B3B4B5B5B6B6B7B8B8B9BABABBBC49
:100A4000BCBDBEBEBFBFC0C1C1C2C3C3C4C5C5C695
:100A5000C7C7C8C9C9CACACBCCCCCDCECECFD0D0DF
:100A6000D1D2D2D3D4D4D5D6D6D7D8D8D9DADADB26
:100A7000DCDCDCDCDCDCDCDCDCDCDCDCDCDCDCDCB6
:100A8000DCDCDCDCDCDCDCDCDCDCDCDCDCDCDCDCA6
:100A9000DCDCDCDCDCDCDCDCDCDCDCDCDCDCDCDC96
:100AA000DCDCDCDCDCDC00000000240027002A00A9
:100AB00000000000250028002B000000000023009B
:100AC00026002900040404040404040402020202AF
:100AD0000202030303030303010204081020408001
:100AE0000102040810200102040810200000000781
:100AF00000020100000304060000000000000000E6
:100B000011241FBECFEFD8E0DEBFCDBF11E0A0E0C3
:100B1000B1E0E8EEF2E102C005900D92A430B10719
:100B2000D9F711E0A4E0B1E001C01D92AE32B107E7
:100B3000E1F70E9463090C9472090C940000CF93B2
:100B4000DF93C0E0D0E0E0910401F0910501E859A5
:100B5000FF4FE4918E2F90E0C817D90709F4589AF7
:100B6000E0910601F0910701E659FF4FE4918E2FC5
:100B700090E0C817D90709F4599AE0910801F0915B
:100B80000901E459FF4FE4918E2F90E0C817D9076F
:100B900009F45B9AE0910A01F0910B01E259FF4FD1
:100BA000E4918E2F90E0C817D90709F45C9AE09180
:100BB0000C01F0910D01E059FF4FE4918E2F90E070
:100BC000C817D90709F45D9AE0910E01F0910F0161
:100BD000EE58FF4FE4918E2F90E0C817D90709F423
:100BE0005E9AE0911001F0911101EC58FF4FE491F1
:100BF0008E2F90E0C817D90709F45F9AE09112018F
:100C0000F0911301EA58FF4FE4918E2F90E0C8173E
:100C1000D90709F4289AE0911401F0911501E858D8
:100C2000FF4FE4918E2F90E0C817D90709F4299A55
:100C3000E0911601F0911701E658FF4FE4918E2FD5
:100C400090E0C817D90709F42A9AE0911801F091A9
:100C50001901EE50FA4FE4918E2F90E0C817D90792
:100C600009F42B9AE0911A01F0911B01EC50FA4F14
:100C7000E4918E2F90E0C817D90709F42C9AE091DF
:100C80001C01F0911D01EA50FA4FE4918E2F90E083
:100C9000C817D90709F42D9A0E94700860932001A3
:100CA0007093210180932201909323010E94700888
:100CB0002091200130912101409122015091230186
:100CC000621B730B840B950B209100013091010185
:100CD000442737FD4095542F621773078407950703
:100CE00028F3219621E0C030D20709F02CCF0E94D2
:100CF00070086093200170932101809322019093EA
:100D000023010E947008209120013091210140911F
:100D1000220150912301621B730B840B950B6436E7
:100D200071058105910568F3589859985B985C980E
:100D30005D985E985F98289829982A982B982C9807
:100D40002D9880911E0190911F01892B09F03FC0C1
:100D50008091040190910501019690930501809383
:100D6000040180910601909107010196909307017B
:100D7000809306018091080190910901019690935A
:100D800009018093080180910A0190910B0101965D
:100D900090930B0180930A0180910C0190910D01B9
:100DA000019690930D0180930C0180910E0190911A
:100DB0000F01019690930F0180930E018091100115
:100DC00090911101019690931101809310018091EF
:100DD0001E0190911F010197B1F580911201909130
:100DE00013010196909313018093120180911401D5
:100DF00090911501019690931501809314018091B3
:100E00001601909117010196909317018093160196
:100E10008091180190911901019690931901809386
:100E2000180180911A0190911B01019690931B016A
:100E300080931A0180911C0190911D01019690935D
:100E40001D0180931C01809104019091050102977E
:100E500021F41092050110920401809106019091F5
:100E60000701029721F41092070110920601809168
:100E7000080190910901029721F410920901109242
:100E8000080180910A0190910B01029721F41092C0
:100E90000B0110920A0180910C0190910D010297B3
:100EA00021F410920D0110920C0180910E0190918D
:100EB0000F01029721F410920F0110920E01809100
:100EC000100190911101029721F4109211011092DA
:100ED00010018091120190911301029721F4109258
:100EE0001301109212018091140190911501029743
:100EF00021F4109215011092140180911601909125
:100F000017018857954021F410921701109216018D
:100F10008091180190911901029721F41092190102
:100F20001092180180911A0190911B01029721F4EF
:100F300010921B0110921A0180911C0190911D01C9
:100F4000029721F410921D0110921C0180911E0144
:100F500090911F01019690931F0180931E010297AB
:100F600021F410921F0110921E01DF91CF9108957C
:100F700082E00E941009892B79F580912401882351
:100F800069F50E947008609320017093210180939D
:100F90002201909323010E9470082091200130913A
:100FA00021014091220150912301621B730B840B9C
:100FB000950B2091020130910301442737FD4095A4
:100FC000542F621773078407950728F30E949F0523
:100FD00081E080932401089510922401089582E015
:100FE00060E00E94D10880E061E00E94D10881E0C9
:100FF00061E00E94D10883E061E00E94D10884E0B2
:1010000061E00E94D10885E061E00E94D10886E09D
:1010100061E00E94D10887E061E00E94D10888E089
:1010200061E00E94D10889E061E00E94D1088AE075
:1010300061E00E94D1088BE061E00E94D1088CE061
:1010400061E00E94D1088DE061E00E94D10808951E
:101050001F920F920FB60F9211242F933F938F93ED
:101060009F93AF93BF938091290190912A01A09102
:101070002B01B0912C0130912D010196A11DB11DC4
:10108000232F2D5F2D3720F02D570196A11DB11D67
:1010900020932D018093290190932A01A0932B0185
:1010A000B0932C018091250190912601A0912701F8
:1010B000B09128010196A11DB11D80932501909347
:1010C0002601A0932701B0932801BF91AF919F9172
:1010D0008F913F912F910F900FBE0F901F901895F9
:1010E0009FB7F89420912501309126014091270166
:1010F0005091280186B5A89B06C08F3F21F02F5F35
:101100003F4F4F4F5F4F9FBF542F432F322F222708
:10111000280F311D411D511D82E0220F331F441F36
:10112000551F8A95D1F7B901CA010895789484B5FD
:10113000826084BD84B5816084BD85B5826085BDD3
:1011400085B5816085BDEEE6F0E0808181608083B9
:10115000E1E8F0E01082808182608083808181609C
:101160008083E0E8F0E0808181608083E1EBF0E063
:10117000808184608083E0EBF0E080818160808307
:10118000EAE7F0E0808184608083808182608083F0
:101190008081816080838081806880831092C1001B
:1011A0000895CF93DF93482F50E0CA018852954F9E
:1011B000FC0134914C53554FFA018491882369F115
:1011C00090E0880F991FFC01EA55F54FA591B49165
:1011D000FC01E055F54FC591D491662351F42FB72A
:1011E000F8948C91932F909589238C9388818923EF
:1011F0000BC0623061F42FB7F8948C91932F9095C7
:1012000089238C938881832B88832FBF06C09FB747
:10121000F8948C91832B8C939FBFDF91CF9108958D
:10122000682F70E0CB018451954FFC012491CB01D4
:101230008852954FFC0144916C53754FFB0194917A
:10124000992319F420E030E03CC0222351F12330EF
:1012500071F0243028F42130A1F0223011F514C0AF
:101260002630B1F02730C1F02430D9F404C0809189
:1012700080008F7703C0809180008F7D80938000F5
:1012800010C084B58F7702C084B58F7D84BD09C03E
:101290008091B0008F7703C08091B0008F7D8093E4
:1012A000B000892F90E0880F991F8654954FFC015C
:1012B000A591B4918C9120E030E0842311F021E0DD
:1012C00030E0C9010895CF93DF930E9496080E94F1
:1012D000EF07C0E0D0E00E94B8072097E1F30E943A
:0812E0000000F9CFF894FFCFE4
:0412E8000B002003D4
:00000001FF
