:100000000C9461000C947E000C947E000C947E0095
:100010000C947E000C947E000C947E000C947E0068
:100020000C947E000C947E000C947E000C947E0058
:100030000C947E000C947E000C947E000C947E0048
:100040000C94FE020C947E000C947E000C947E00B6
:100050000C947E000C947E000C947E000C947E0028
:100060000C947E000C947E00000000080002010049
:100070000003040700000000000000000102040863
:100080001020408001020408102001020408102002
:10009000040404040404040402020202020203032E
:1000A00003030303000000002300260029000000D2
:1000B0000000250028002B0000000000240027007D
:1000C0002A0011241FBECFEFD8E0DEBFCDBF14E061
:1000D000A0E0B1E0E6E8F8E002C005900D92A031A2
:1000E000B107D9F724E0A0E1B4E001C01D92AC3221
:1000F000B207E1F70E9432040C9441040C94000012
:1001000060E0809116010E94CF0361E080911401AC
:100110000E94CF0361E0809112010E94CF0361E051
:10012000809110010E94CF0361E080910E010E9436
:10013000CF0361E080910C010E94CF0361E08091C8
:100140000A010E94CF0361E0809108010E94CF0361
:1001500061E0809106010C94CF034F925F926F9201
:100160007F928F929F92AF92BF92CF92DF92EF9247
:10017000FF920F931F93CF93DF930E9448036093E6
:1001800011047093120480931304909314040E943A
:10019000480300911104109112042091130430912E
:1001A0001404601B710B820B930B009128011091BA
:1001B0002901222717FD2095322F6017710782072A
:1001C000930728F300E010E0812C912CA12CB12C96
:1001D000C12CD12CE12CF12CCDE6D1E0E0911F0413
:1001E000F0912004EE0FFF1FEC5CFE4F80819181A7
:1001F0009E01281B390B021713072CF0F11003C0C6
:100200002D9AFF24F394E0911D04F0911E04EE0F4B
:10021000FF1FEC5CFE4F808191819E01281B390BF2
:10022000021713072CF0E11003C02C9AEE24E3947C
:10023000E0910401F0910501EE0FFF1FEC5CFE4F11
:10024000808191819E01281B390B021713072CF026
:10025000D11003C02B9ADD24D394E0910201F091D8
:100260000301EE0FFF1FEC5CFE4F808191819E0128
:10027000281B390B021713072CF0C11003C02A9A50
:10028000CC24C394E0910001F0910101EE0FFF1F17
:10029000EC5CFE4F808191819E01281B390B021777
:1002A00013072CF0B11003C0299ABB24B394E0913A
:1002B0001B04F0911C04EE0FFF1FEC5CFE4F8081CD
:1002C00091819E01281B390B021713072CF0A110F6
:1002D00003C0289AAA24A394E0911904F0911A0467
:1002E000EE0FFF1FEC5CFE4F808191819E01281B69
:1002F000390B021713072CF0911003C05F9A992451
:100300009394E0911704F0911804EE0FFF1FEC5C3A
:10031000FE4F808191819E01281B390B0217130724
:100320002CF0811003C05E9A882483940E944803B5
:100330006093110470931204809313049093140437
:100340000E944803409011045090120460901304DE
:1003500070901404641975098609970920912A017F
:1003600030912B012901662457FC6094762C64158A
:1003700075058605970520F30F5F1F4F0D3631E099
:10038000130709F02BCF0E94480360931104709368
:10039000120480931304909314040E944803009164
:1003A0001104109112042091130430911404601B65
:1003B000710B820B930B683C71058105910568F305
:1003C0002D982C982B982A98299828985F985E98B1
:1003D00080911504909116049C012F5F3F4F30933C
:1003E0001604209315042091210430912204F90170
:1003F000EE0FFF1FE45DFE4F40815181841795078A
:1004000009F074C0109216041092150480911F0414
:10041000909120044091260150912701840F951F4F
:100420009093200480931F0480911D0490911E04DA
:100430004091240150912501840F951F90931E0433
:1004400080931D0480910401909105014091220147
:1004500050912301840F951F90930501809304010F
:10046000809102019091030140912001509121015E
:10047000840F951F909303018093020180910001E6
:100480009091010140911A0150911B01840F951F19
:10049000909301018093000180911B0490911C04B2
:1004A00040911E0150911F01840F951F90931C04D1
:1004B00080931B048091190490911A0440911C01AF
:1004C00050911D01840F951F90931A048093190475
:1004D00080911704909118044091180150911901CE
:1004E000840F951F909318048093170480911F0424
:1004F000909120048E36914024F0109220041092A6
:100500001F0480911D0490911E048E36914084F04A
:1005100010921E0410921D04C901019690932204AA
:1005200080932104039721F4109222041092210455
:1005300080910401909105018E36914024F0109233
:1005400005011092040180910201909103018E3601
:10055000914024F010920301109202018091000159
:10056000909101018E36914024F010920101109279
:10057000000180911B0490911C048E36914024F060
:1005800010921C0410921B048091190490911A047B
:100590008E36914024F010921A0410921904809122
:1005A0001704909118048E36914024F0109218048C
:1005B00010921704DF91CF911F910F91FF90EF9050
:1005C000DF90CF90BF90AF909F908F907F906F9073
:1005D0005F904F900895809116010E940804892B26
:1005E00051F480911004811108C00E94AD0081E097
:1005F0008093100408951092100408951F920F9292
:100600000FB60F9211242F933F938F939F93AF9325
:10061000BF938091240490912504A0912604B09169
:1006200027043091230423E0230F2D3720F4019673
:10063000A11DB11D05C026E8230F0296A11DB11D05
:10064000209323048093240490932504A0932604EC
:10065000B09327048091280490912904A0912A0442
:10066000B0912B040196A11DB11D80932804909395
:100670002904A0932A04B0932B04BF91AF919F91BA
:100680008F913F912F910F900FBE0F901F90189553
:100690003FB7F8948091280490912904A0912A04EE
:1006A000B0912B0426B5A89B05C02F3F19F00196E9
:1006B000A11DB11D3FBF6627782F892F9A2F620F8A
:1006C000711D811D911D42E0660F771F881F991FC4
:1006D0004A95D1F70895789484B5826084BD84B535
:1006E000816084BD85B5826085BD85B5816085BD2D
:1006F000EEE6F0E0808181608083E1E8F0E0108246
:10070000808182608083808181608083E0E8F0E086
:10071000808181608083E1EBF0E080818460808370
:10072000E0EBF0E0808181608083EAE7F0E08081A7
:100730008460808380818260808380818160808307
:100740008081806880831092C1000895833081F099
:1007500028F4813099F08230A1F008958730A9F013
:100760008830B9F08430D1F4809180008F7D03C04F
:10077000809180008F7780938000089584B58F7773
:1007800002C084B58F7D84BD08958091B0008F77BD
:1007900003C08091B0008F7D8093B0000895CF9307
:1007A000DF9390E0FC01E458FF4F2491FC01E057F7
:1007B000FF4F8491882349F190E0880F991FFC0135
:1007C000E854FF4FA591B49182559F4FFC01C5910C
:1007D000D4919FB7611108C0F8948C912095822321
:1007E0008C93888182230AC0623051F4F8948C91F2
:1007F000322F309583238C938881822B888304C089
:10080000F8948C91822B8C939FBFDF91CF910895A8
:10081000CF93DF93282F30E0F901E859FF4F8491FF
:10082000F901E458FF4FD491F901E057FF4FC4910B
:10083000CC2391F081110E94A603EC2FF0E0EE0F83
:10084000FF1FEC55FF4FA591B4912C912D2381E012
:1008500090E021F480E002C080E090E0DF91CF9151
:10086000089508950E946B030E9431040E94800045
:10087000C0E0D0E00E94EB022097E1F30E9400006C
:06088000F9CFF894FFCF50
:100886005F004000200006000700080009000A007B
:100896000B000C000D0002000800180016001200E4
:1008A6001800150012000100E80302005000640061
:1008B60078000000000000000000000000000000BA
:1008C6000000000000000000000000000000000022
:1008D60000000F000F000F000F000F000F000F00A9
:1008E6000F000F000F000F000F000F000F000F008A
:1008F6000F000F000F000F000F000F000F000F007A
:100906000F000F000F000F000F000F000F000F0069
:100916000F000F000F000F000F000F000F000F0059
:100926000F000F000F000F00010001000100020080
:100936000200030004000500050006000700090088
:100946000A000B000C000E000F001000120014002D
:100956001500170019001B001D001F0021002300B1
:10096600250027002A002C002E0031003300360017
:1009760038003B003E0040004300460049004C0062
:100986004E005100540057005A005D00600063009D
:10099600660069006C006F007300760079007C00C9
:1009A6007F008200850088008B008F0092009500F2
:1009B60098009B009E00A100A400A700AA00AD001D
:1009C600B000B200B500B800BB00BE00C000C30056
:1009D600C600C800CB00CD00D000D200D400D7009E
:1009E600D900DB00DD00DF00E100E300E500E70001
:1009F600E900EA00EC00EE00EF00F000F200F30080
:100A0600F400F500F700F800F900F900FA00FB0021
:100A1600FC00FC00FD00FD00FD00FE00FE00FE00E7
:100A2600FE00FE00FE00FE00FD00FD00FD00FC00D5
:100A3600FC00FB00FA00F900F900F800F700F500E9
:100A4600F400F300F200F000EF00EE00EC00EA0024
:100A5600E900E700E500E300E100DF00DD00DB0080
:100A6600D900D700D400D200D000CD00CB00C800FA
:100A7600C600C300C000BE00BB00B800B500B2008F
:100A8600B000AD00AA00A700A400A1009E009B0034
:100A96009800950092008F008B00880085008200E8
:100AA6007F007C007900760073006F006C0069009F
:100AB6006600630060005D005A0057005400510054
:100AC6004E004C0049004600430040003E003B00FB
:100AD60038003600330031002E002C002A00270093
:100AE6002500230021001F001D001B001900170010
:100AF60015001400120010000F000E000C000B0071
:100B06000A000900070006000500050004000300AE
:100B1600020002000100010001000F000F000F009B
:100B26000F000F000F000F000F000F000F000F0047
:100B36000F000F000F000F000F000F000F000F0037
:100B46000F000F000F000F000F000F000F000F0027
:100B56000F000F000F000F000F000F000F000F0017
:100B66000F000F000F000F000F000F000F000F0007
:100B7600000000000000000000000000000000006F
:100B8600000000000000000000000000000000005F
:00000001FF
